{
	"contracts/Classes/Class4/KapsulVoting.sol": {
		"KapsulVoting": {
			"abi": [
				{
					"anonymous": false,
					"inputs": [
						{
							"indexed": false,
							"internalType": "string",
							"name": "projectName",
							"type": "string"
						}
					],
					"name": "ProjectAdded",
					"type": "event"
				},
				{
					"anonymous": false,
					"inputs": [
						{
							"indexed": false,
							"internalType": "string",
							"name": "projectName",
							"type": "string"
						}
					],
					"name": "ProjectUpdated",
					"type": "event"
				},
				{
					"anonymous": false,
					"inputs": [
						{
							"indexed": false,
							"internalType": "uint8",
							"name": "projectID",
							"type": "uint8"
						}
					],
					"name": "Vote",
					"type": "event"
				},
				{
					"inputs": [
						{
							"internalType": "string",
							"name": "_projectName",
							"type": "string"
						},
						{
							"internalType": "address[]",
							"name": "_teamsWallets",
							"type": "address[]"
						}
					],
					"name": "addProject",
					"outputs": [
						{
							"internalType": "bool",
							"name": "",
							"type": "bool"
						}
					],
					"stateMutability": "nonpayable",
					"type": "function"
				},
				{
					"inputs": [
						{
							"internalType": "address",
							"name": "_wallet",
							"type": "address"
						}
					],
					"name": "getIsVoted",
					"outputs": [
						{
							"internalType": "bool",
							"name": "",
							"type": "bool"
						}
					],
					"stateMutability": "view",
					"type": "function"
				},
				{
					"inputs": [
						{
							"internalType": "uint8",
							"name": "_projectID",
							"type": "uint8"
						}
					],
					"name": "getProjectDetail",
					"outputs": [
						{
							"components": [
								{
									"internalType": "uint8",
									"name": "id",
									"type": "uint8"
								},
								{
									"internalType": "string",
									"name": "projectName",
									"type": "string"
								},
								{
									"internalType": "address[]",
									"name": "teamWallets",
									"type": "address[]"
								},
								{
									"internalType": "uint8",
									"name": "voteCount",
									"type": "uint8"
								}
							],
							"internalType": "struct KapsulVoting.Project",
							"name": "",
							"type": "tuple"
						}
					],
					"stateMutability": "view",
					"type": "function"
				},
				{
					"inputs": [
						{
							"internalType": "string",
							"name": "_projectName",
							"type": "string"
						}
					],
					"name": "getProjectIDByName",
					"outputs": [
						{
							"internalType": "uint8",
							"name": "",
							"type": "uint8"
						}
					],
					"stateMutability": "view",
					"type": "function"
				},
				{
					"inputs": [
						{
							"internalType": "address",
							"name": "_wallet",
							"type": "address"
						}
					],
					"name": "getWalletGroup",
					"outputs": [
						{
							"internalType": "uint8",
							"name": "",
							"type": "uint8"
						}
					],
					"stateMutability": "view",
					"type": "function"
				},
				{
					"inputs": [
						{
							"internalType": "address[]",
							"name": "_teamsWallets",
							"type": "address[]"
						},
						{
							"internalType": "uint8",
							"name": "_groupNumber",
							"type": "uint8"
						}
					],
					"name": "identifyWallets",
					"outputs": [
						{
							"internalType": "bool",
							"name": "",
							"type": "bool"
						}
					],
					"stateMutability": "nonpayable",
					"type": "function"
				},
				{
					"inputs": [
						{
							"internalType": "uint8",
							"name": "_id",
							"type": "uint8"
						},
						{
							"internalType": "string",
							"name": "_newProjectName",
							"type": "string"
						},
						{
							"internalType": "address[]",
							"name": "_newTeamWallets",
							"type": "address[]"
						}
					],
					"name": "updateProject",
					"outputs": [],
					"stateMutability": "nonpayable",
					"type": "function"
				},
				{
					"inputs": [
						{
							"internalType": "uint8",
							"name": "_projectID",
							"type": "uint8"
						}
					],
					"name": "vote",
					"outputs": [
						{
							"internalType": "bool",
							"name": "",
							"type": "bool"
						}
					],
					"stateMutability": "nonpayable",
					"type": "function"
				}
			],
			"devdoc": {
				"kind": "dev",
				"methods": {},
				"version": 1
			},
			"evm": {
				"assembly": "    /* \"contracts/Classes/Class4/KapsulVoting.sol\":61:3184  contract KapsulVoting {... */\n  mstore(0x40, 0x80)\n    /* \"contracts/Classes/Class4/KapsulVoting.sol\":597:598  1 */\n  0x01\n    /* \"contracts/Classes/Class4/KapsulVoting.sol\":578:598  uint8 groupCount = 1 */\n  0x04\n  exp(0x0100, 0x00)\n  dup2\n  sload\n  dup2\n  0xff\n  mul\n  not\n  and\n  swap1\n  dup4\n  0xff\n  and\n  mul\n  or\n  swap1\n  sstore\n  pop\n    /* \"contracts/Classes/Class4/KapsulVoting.sol\":61:3184  contract KapsulVoting {... */\n  callvalue\n  dup1\n  iszero\n  tag_1\n  jumpi\n  0x00\n  dup1\n  revert\ntag_1:\n  pop\n  dataSize(sub_0)\n  dup1\n  dataOffset(sub_0)\n  0x00\n  codecopy\n  0x00\n  return\nstop\n\nsub_0: assembly {\n        /* \"contracts/Classes/Class4/KapsulVoting.sol\":61:3184  contract KapsulVoting {... */\n      mstore(0x40, 0x80)\n      callvalue\n      dup1\n      iszero\n      tag_1\n      jumpi\n      0x00\n      dup1\n      revert\n    tag_1:\n      pop\n      jumpi(tag_2, lt(calldatasize, 0x04))\n      shr(0xe0, calldataload(0x00))\n      dup1\n      0xc343cc32\n      gt\n      tag_11\n      jumpi\n      dup1\n      0xc343cc32\n      eq\n      tag_7\n      jumpi\n      dup1\n      0xdcf4b526\n      eq\n      tag_8\n      jumpi\n      dup1\n      0xebff1439\n      eq\n      tag_9\n      jumpi\n      dup1\n      0xfb7c2135\n      eq\n      tag_10\n      jumpi\n      jump(tag_2)\n    tag_11:\n      dup1\n      0x0e42d15c\n      eq\n      tag_3\n      jumpi\n      dup1\n      0x1ba6c80e\n      eq\n      tag_4\n      jumpi\n      dup1\n      0xb3f98adc\n      eq\n      tag_5\n      jumpi\n      dup1\n      0xb439dc28\n      eq\n      tag_6\n      jumpi\n    tag_2:\n      0x00\n      dup1\n      revert\n        /* \"contracts/Classes/Class4/KapsulVoting.sol\":3050:3181  function getProjectDetail(uint8 _projectID) public view returns(Project memory) {... */\n    tag_3:\n      tag_12\n      0x04\n      dup1\n      calldatasize\n      sub\n      dup2\n      add\n      swap1\n      tag_13\n      swap2\n      swap1\n      tag_14\n      jump\t// in\n    tag_13:\n      tag_15\n      jump\t// in\n    tag_12:\n      mload(0x40)\n      tag_16\n      swap2\n      swap1\n      tag_17\n      jump\t// in\n    tag_16:\n      mload(0x40)\n      dup1\n      swap2\n      sub\n      swap1\n      return\n        /* \"contracts/Classes/Class4/KapsulVoting.sol\":2669:2783  function getWalletGroup(address _wallet) public view returns(uint8) {... */\n    tag_4:\n      tag_18\n      0x04\n      dup1\n      calldatasize\n      sub\n      dup2\n      add\n      swap1\n      tag_19\n      swap2\n      swap1\n      tag_20\n      jump\t// in\n    tag_19:\n      tag_21\n      jump\t// in\n    tag_18:\n      mload(0x40)\n      tag_22\n      swap2\n      swap1\n      tag_23\n      jump\t// in\n    tag_22:\n      mload(0x40)\n      dup1\n      swap2\n      sub\n      swap1\n      return\n        /* \"contracts/Classes/Class4/KapsulVoting.sol\":2161:2634  function vote(uint8 _projectID) public returns(bool){... */\n    tag_5:\n      tag_24\n      0x04\n      dup1\n      calldatasize\n      sub\n      dup2\n      add\n      swap1\n      tag_25\n      swap2\n      swap1\n      tag_14\n      jump\t// in\n    tag_25:\n      tag_26\n      jump\t// in\n    tag_24:\n      mload(0x40)\n      tag_27\n      swap2\n      swap1\n      tag_28\n      jump\t// in\n    tag_27:\n      mload(0x40)\n      dup1\n      swap2\n      sub\n      swap1\n      return\n        /* \"contracts/Classes/Class4/KapsulVoting.sol\":1282:1714  function updateProject(uint8 _id, string memory _newProjectName, address[] memory _newTeamWallets) public{... */\n    tag_6:\n      tag_29\n      0x04\n      dup1\n      calldatasize\n      sub\n      dup2\n      add\n      swap1\n      tag_30\n      swap2\n      swap1\n      tag_31\n      jump\t// in\n    tag_30:\n      tag_32\n      jump\t// in\n    tag_29:\n      stop\n        /* \"contracts/Classes/Class4/KapsulVoting.sol\":1722:2153  function identifyWallets(address[] memory _teamsWallets, uint8 _groupNumber) public returns(bool){... */\n    tag_7:\n      tag_33\n      0x04\n      dup1\n      calldatasize\n      sub\n      dup2\n      add\n      swap1\n      tag_34\n      swap2\n      swap1\n      tag_35\n      jump\t// in\n    tag_34:\n      tag_36\n      jump\t// in\n    tag_33:\n      mload(0x40)\n      tag_37\n      swap2\n      swap1\n      tag_28\n      jump\t// in\n    tag_37:\n      mload(0x40)\n      dup1\n      swap2\n      sub\n      swap1\n      return\n        /* \"contracts/Classes/Class4/KapsulVoting.sol\":2904:3042  function getProjectIDByName(string memory _projectName) public view returns(uint8) {... */\n    tag_8:\n      tag_38\n      0x04\n      dup1\n      calldatasize\n      sub\n      dup2\n      add\n      swap1\n      tag_39\n      swap2\n      swap1\n      tag_40\n      jump\t// in\n    tag_39:\n      tag_41\n      jump\t// in\n    tag_38:\n      mload(0x40)\n      tag_42\n      swap2\n      swap1\n      tag_23\n      jump\t// in\n    tag_42:\n      mload(0x40)\n      dup1\n      swap2\n      sub\n      swap1\n      return\n        /* \"contracts/Classes/Class4/KapsulVoting.sol\":2791:2896  function getIsVoted(address _wallet) public view returns(bool) {... */\n    tag_9:\n      tag_43\n      0x04\n      dup1\n      calldatasize\n      sub\n      dup2\n      add\n      swap1\n      tag_44\n      swap2\n      swap1\n      tag_20\n      jump\t// in\n    tag_44:\n      tag_45\n      jump\t// in\n    tag_43:\n      mload(0x40)\n      tag_46\n      swap2\n      swap1\n      tag_28\n      jump\t// in\n    tag_46:\n      mload(0x40)\n      dup1\n      swap2\n      sub\n      swap1\n      return\n        /* \"contracts/Classes/Class4/KapsulVoting.sol\":605:1274  function  addProject(string memory _projectName, address[] memory _teamsWallets) public returns(bool){... */\n    tag_10:\n      tag_47\n      0x04\n      dup1\n      calldatasize\n      sub\n      dup2\n      add\n      swap1\n      tag_48\n      swap2\n      swap1\n      tag_49\n      jump\t// in\n    tag_48:\n      tag_50\n      jump\t// in\n    tag_47:\n      mload(0x40)\n      tag_51\n      swap2\n      swap1\n      tag_28\n      jump\t// in\n    tag_51:\n      mload(0x40)\n      dup1\n      swap2\n      sub\n      swap1\n      return\n        /* \"contracts/Classes/Class4/KapsulVoting.sol\":3050:3181  function getProjectDetail(uint8 _projectID) public view returns(Project memory) {... */\n    tag_15:\n        /* \"contracts/Classes/Class4/KapsulVoting.sol\":3114:3128  Project memory */\n      tag_52\n      tag_53\n      jump\t// in\n    tag_52:\n        /* \"contracts/Classes/Class4/KapsulVoting.sol\":3148:3161  projectDetail */\n      0x00\n        /* \"contracts/Classes/Class4/KapsulVoting.sol\":3148:3173  projectDetail[_projectID] */\n      dup1\n        /* \"contracts/Classes/Class4/KapsulVoting.sol\":3162:3172  _projectID */\n      dup4\n        /* \"contracts/Classes/Class4/KapsulVoting.sol\":3148:3173  projectDetail[_projectID] */\n      0xff\n      and\n      0xff\n      and\n      dup2\n      mstore\n      0x20\n      add\n      swap1\n      dup2\n      mstore\n      0x20\n      add\n      0x00\n      keccak256\n        /* \"contracts/Classes/Class4/KapsulVoting.sol\":3141:3173  return projectDetail[_projectID] */\n      mload(0x40)\n      dup1\n      0x80\n      add\n      0x40\n      mstore\n      swap1\n      dup2\n      0x00\n      dup3\n      add\n      0x00\n      swap1\n      sload\n      swap1\n      0x0100\n      exp\n      swap1\n      div\n      0xff\n      and\n      0xff\n      and\n      0xff\n      and\n      dup2\n      mstore\n      0x20\n      add\n      0x01\n      dup3\n      add\n      dup1\n      sload\n      tag_55\n      swap1\n      tag_56\n      jump\t// in\n    tag_55:\n      dup1\n      0x1f\n      add\n      0x20\n      dup1\n      swap2\n      div\n      mul\n      0x20\n      add\n      mload(0x40)\n      swap1\n      dup2\n      add\n      0x40\n      mstore\n      dup1\n      swap3\n      swap2\n      swap1\n      dup2\n      dup2\n      mstore\n      0x20\n      add\n      dup3\n      dup1\n      sload\n      tag_57\n      swap1\n      tag_56\n      jump\t// in\n    tag_57:\n      dup1\n      iszero\n      tag_58\n      jumpi\n      dup1\n      0x1f\n      lt\n      tag_59\n      jumpi\n      0x0100\n      dup1\n      dup4\n      sload\n      div\n      mul\n      dup4\n      mstore\n      swap2\n      0x20\n      add\n      swap2\n      jump(tag_58)\n    tag_59:\n      dup3\n      add\n      swap2\n      swap1\n      0x00\n      mstore\n      keccak256(0x00, 0x20)\n      swap1\n    tag_60:\n      dup2\n      sload\n      dup2\n      mstore\n      swap1\n      0x01\n      add\n      swap1\n      0x20\n      add\n      dup1\n      dup4\n      gt\n      tag_60\n      jumpi\n      dup3\n      swap1\n      sub\n      0x1f\n      and\n      dup3\n      add\n      swap2\n    tag_58:\n      pop\n      pop\n      pop\n      pop\n      pop\n      dup2\n      mstore\n      0x20\n      add\n      0x02\n      dup3\n      add\n      dup1\n      sload\n      dup1\n      0x20\n      mul\n      0x20\n      add\n      mload(0x40)\n      swap1\n      dup2\n      add\n      0x40\n      mstore\n      dup1\n      swap3\n      swap2\n      swap1\n      dup2\n      dup2\n      mstore\n      0x20\n      add\n      dup3\n      dup1\n      sload\n      dup1\n      iszero\n      tag_61\n      jumpi\n      0x20\n      mul\n      dup3\n      add\n      swap2\n      swap1\n      0x00\n      mstore\n      keccak256(0x00, 0x20)\n      swap1\n    tag_62:\n      dup2\n      0x00\n      swap1\n      sload\n      swap1\n      0x0100\n      exp\n      swap1\n      div\n      0xffffffffffffffffffffffffffffffffffffffff\n      and\n      0xffffffffffffffffffffffffffffffffffffffff\n      and\n      dup2\n      mstore\n      0x20\n      add\n      swap1\n      0x01\n      add\n      swap1\n      dup1\n      dup4\n      gt\n      tag_62\n      jumpi\n    tag_61:\n      pop\n      pop\n      pop\n      pop\n      pop\n      dup2\n      mstore\n      0x20\n      add\n      0x03\n      dup3\n      add\n      0x00\n      swap1\n      sload\n      swap1\n      0x0100\n      exp\n      swap1\n      div\n      0xff\n      and\n      0xff\n      and\n      0xff\n      and\n      dup2\n      mstore\n      pop\n      pop\n      swap1\n      pop\n        /* \"contracts/Classes/Class4/KapsulVoting.sol\":3050:3181  function getProjectDetail(uint8 _projectID) public view returns(Project memory) {... */\n      swap2\n      swap1\n      pop\n      jump\t// out\n        /* \"contracts/Classes/Class4/KapsulVoting.sol\":2669:2783  function getWalletGroup(address _wallet) public view returns(uint8) {... */\n    tag_21:\n        /* \"contracts/Classes/Class4/KapsulVoting.sol\":2730:2735  uint8 */\n      0x00\n        /* \"contracts/Classes/Class4/KapsulVoting.sol\":2755:2766  walletGroup */\n      0x02\n        /* \"contracts/Classes/Class4/KapsulVoting.sol\":2755:2775  walletGroup[_wallet] */\n      0x00\n        /* \"contracts/Classes/Class4/KapsulVoting.sol\":2767:2774  _wallet */\n      dup4\n        /* \"contracts/Classes/Class4/KapsulVoting.sol\":2755:2775  walletGroup[_wallet] */\n      0xffffffffffffffffffffffffffffffffffffffff\n      and\n      0xffffffffffffffffffffffffffffffffffffffff\n      and\n      dup2\n      mstore\n      0x20\n      add\n      swap1\n      dup2\n      mstore\n      0x20\n      add\n      0x00\n      keccak256\n      0x00\n      swap1\n      sload\n      swap1\n      0x0100\n      exp\n      swap1\n      div\n      0xff\n      and\n        /* \"contracts/Classes/Class4/KapsulVoting.sol\":2748:2775  return walletGroup[_wallet] */\n      swap1\n      pop\n        /* \"contracts/Classes/Class4/KapsulVoting.sol\":2669:2783  function getWalletGroup(address _wallet) public view returns(uint8) {... */\n      swap2\n      swap1\n      pop\n      jump\t// out\n        /* \"contracts/Classes/Class4/KapsulVoting.sol\":2161:2634  function vote(uint8 _projectID) public returns(bool){... */\n    tag_26:\n        /* \"contracts/Classes/Class4/KapsulVoting.sol\":2208:2212  bool */\n      0x00\n        /* \"contracts/Classes/Class4/KapsulVoting.sol\":2245:2255  groupCount */\n      0x04\n      0x00\n      swap1\n      sload\n      swap1\n      0x0100\n      exp\n      swap1\n      div\n      0xff\n      and\n        /* \"contracts/Classes/Class4/KapsulVoting.sol\":2232:2255  _projectID < groupCount */\n      0xff\n      and\n        /* \"contracts/Classes/Class4/KapsulVoting.sol\":2232:2242  _projectID */\n      dup3\n        /* \"contracts/Classes/Class4/KapsulVoting.sol\":2232:2255  _projectID < groupCount */\n      0xff\n      and\n      lt\n        /* \"contracts/Classes/Class4/KapsulVoting.sol\":2224:2279  require(_projectID < groupCount, \"Invalid project id.\") */\n      tag_65\n      jumpi\n      mload(0x40)\n      0x08c379a000000000000000000000000000000000000000000000000000000000\n      dup2\n      mstore\n      0x04\n      add\n      tag_66\n      swap1\n      tag_67\n      jump\t// in\n    tag_66:\n      mload(0x40)\n      dup1\n      swap2\n      sub\n      swap1\n      revert\n    tag_65:\n        /* \"contracts/Classes/Class4/KapsulVoting.sol\":2299:2321  getIsVoted(msg.sender) */\n      tag_68\n        /* \"contracts/Classes/Class4/KapsulVoting.sol\":2310:2320  msg.sender */\n      caller\n        /* \"contracts/Classes/Class4/KapsulVoting.sol\":2299:2309  getIsVoted */\n      tag_45\n        /* \"contracts/Classes/Class4/KapsulVoting.sol\":2299:2321  getIsVoted(msg.sender) */\n      jump\t// in\n    tag_68:\n        /* \"contracts/Classes/Class4/KapsulVoting.sol\":2298:2321  !getIsVoted(msg.sender) */\n      iszero\n        /* \"contracts/Classes/Class4/KapsulVoting.sol\":2290:2349  require(!getIsVoted(msg.sender), \"You have already voted.\") */\n      tag_69\n      jumpi\n      mload(0x40)\n      0x08c379a000000000000000000000000000000000000000000000000000000000\n      dup2\n      mstore\n      0x04\n      add\n      tag_70\n      swap1\n      tag_71\n      jump\t// in\n    tag_70:\n      mload(0x40)\n      dup1\n      swap2\n      sub\n      swap1\n      revert\n    tag_69:\n        /* \"contracts/Classes/Class4/KapsulVoting.sol\":2395:2405  _projectID */\n      dup2\n        /* \"contracts/Classes/Class4/KapsulVoting.sol\":2368:2405  walletGroup[msg.sender] != _projectID */\n      0xff\n      and\n        /* \"contracts/Classes/Class4/KapsulVoting.sol\":2368:2379  walletGroup */\n      0x02\n        /* \"contracts/Classes/Class4/KapsulVoting.sol\":2368:2391  walletGroup[msg.sender] */\n      0x00\n        /* \"contracts/Classes/Class4/KapsulVoting.sol\":2380:2390  msg.sender */\n      caller\n        /* \"contracts/Classes/Class4/KapsulVoting.sol\":2368:2391  walletGroup[msg.sender] */\n      0xffffffffffffffffffffffffffffffffffffffff\n      and\n      0xffffffffffffffffffffffffffffffffffffffff\n      and\n      dup2\n      mstore\n      0x20\n      add\n      swap1\n      dup2\n      mstore\n      0x20\n      add\n      0x00\n      keccak256\n      0x00\n      swap1\n      sload\n      swap1\n      0x0100\n      exp\n      swap1\n      div\n      0xff\n      and\n        /* \"contracts/Classes/Class4/KapsulVoting.sol\":2368:2405  walletGroup[msg.sender] != _projectID */\n      0xff\n      and\n      sub\n        /* \"contracts/Classes/Class4/KapsulVoting.sol\":2360:2438  require(walletGroup[msg.sender] != _projectID, \"You can not vote your group.\") */\n      tag_72\n      jumpi\n      mload(0x40)\n      0x08c379a000000000000000000000000000000000000000000000000000000000\n      dup2\n      mstore\n      0x04\n      add\n      tag_73\n      swap1\n      tag_74\n      jump\t// in\n    tag_73:\n      mload(0x40)\n      dup1\n      swap2\n      sub\n      swap1\n      revert\n    tag_72:\n        /* \"contracts/Classes/Class4/KapsulVoting.sol\":2451:2475  Project storage _project */\n      0x00\n        /* \"contracts/Classes/Class4/KapsulVoting.sol\":2478:2491  projectDetail */\n      dup1\n        /* \"contracts/Classes/Class4/KapsulVoting.sol\":2478:2503  projectDetail[_projectID] */\n      0x00\n        /* \"contracts/Classes/Class4/KapsulVoting.sol\":2492:2502  _projectID */\n      dup5\n        /* \"contracts/Classes/Class4/KapsulVoting.sol\":2478:2503  projectDetail[_projectID] */\n      0xff\n      and\n      0xff\n      and\n      dup2\n      mstore\n      0x20\n      add\n      swap1\n      dup2\n      mstore\n      0x20\n      add\n      0x00\n      keccak256\n        /* \"contracts/Classes/Class4/KapsulVoting.sol\":2451:2503  Project storage _project = projectDetail[_projectID] */\n      swap1\n      pop\n        /* \"contracts/Classes/Class4/KapsulVoting.sol\":2514:2522  _project */\n      dup1\n        /* \"contracts/Classes/Class4/KapsulVoting.sol\":2514:2532  _project.voteCount */\n      0x03\n      add\n      0x00\n        /* \"contracts/Classes/Class4/KapsulVoting.sol\":2514:2534  _project.voteCount++ */\n      dup2\n      dup2\n      swap1\n      sload\n      swap1\n      0x0100\n      exp\n      swap1\n      div\n      0xff\n      and\n      dup1\n      swap3\n      swap2\n      swap1\n      tag_75\n      swap1\n      tag_76\n      jump\t// in\n    tag_75:\n      swap2\n      swap1\n      0x0100\n      exp\n      dup2\n      sload\n      dup2\n      0xff\n      mul\n      not\n      and\n      swap1\n      dup4\n      0xff\n      and\n      mul\n      or\n      swap1\n      sstore\n      pop\n      pop\n        /* \"contracts/Classes/Class4/KapsulVoting.sol\":2568:2572  true */\n      0x01\n        /* \"contracts/Classes/Class4/KapsulVoting.sol\":2547:2554  isVoted */\n      0x03\n        /* \"contracts/Classes/Class4/KapsulVoting.sol\":2547:2566  isVoted[msg.sender] */\n      0x00\n        /* \"contracts/Classes/Class4/KapsulVoting.sol\":2555:2565  msg.sender */\n      caller\n        /* \"contracts/Classes/Class4/KapsulVoting.sol\":2547:2566  isVoted[msg.sender] */\n      0xffffffffffffffffffffffffffffffffffffffff\n      and\n      0xffffffffffffffffffffffffffffffffffffffff\n      and\n      dup2\n      mstore\n      0x20\n      add\n      swap1\n      dup2\n      mstore\n      0x20\n      add\n      0x00\n      keccak256\n      0x00\n        /* \"contracts/Classes/Class4/KapsulVoting.sol\":2547:2572  isVoted[msg.sender] =true */\n      0x0100\n      exp\n      dup2\n      sload\n      dup2\n      0xff\n      mul\n      not\n      and\n      swap1\n      dup4\n      iszero\n      iszero\n      mul\n      or\n      swap1\n      sstore\n      pop\n        /* \"contracts/Classes/Class4/KapsulVoting.sol\":2588:2604  Vote(_projectID) */\n      0x12f4cbd97c99807b39bd5e73ae7ad1b31a6735455f063694ab12952fe9788d1d\n        /* \"contracts/Classes/Class4/KapsulVoting.sol\":2593:2603  _projectID */\n      dup4\n        /* \"contracts/Classes/Class4/KapsulVoting.sol\":2588:2604  Vote(_projectID) */\n      mload(0x40)\n      tag_77\n      swap2\n      swap1\n      tag_23\n      jump\t// in\n    tag_77:\n      mload(0x40)\n      dup1\n      swap2\n      sub\n      swap1\n      log1\n        /* \"contracts/Classes/Class4/KapsulVoting.sol\":2622:2626  true */\n      0x01\n        /* \"contracts/Classes/Class4/KapsulVoting.sol\":2615:2626  return true */\n      swap2\n      pop\n      pop\n        /* \"contracts/Classes/Class4/KapsulVoting.sol\":2161:2634  function vote(uint8 _projectID) public returns(bool){... */\n      swap2\n      swap1\n      pop\n      jump\t// out\n        /* \"contracts/Classes/Class4/KapsulVoting.sol\":1282:1714  function updateProject(uint8 _id, string memory _newProjectName, address[] memory _newTeamWallets) public{... */\n    tag_32:\n        /* \"contracts/Classes/Class4/KapsulVoting.sol\":1433:1436  _id */\n      dup3\n        /* \"contracts/Classes/Class4/KapsulVoting.sol\":1406:1436  walletGroup[msg.sender] == _id */\n      0xff\n      and\n        /* \"contracts/Classes/Class4/KapsulVoting.sol\":1406:1417  walletGroup */\n      0x02\n        /* \"contracts/Classes/Class4/KapsulVoting.sol\":1406:1429  walletGroup[msg.sender] */\n      0x00\n        /* \"contracts/Classes/Class4/KapsulVoting.sol\":1418:1428  msg.sender */\n      caller\n        /* \"contracts/Classes/Class4/KapsulVoting.sol\":1406:1429  walletGroup[msg.sender] */\n      0xffffffffffffffffffffffffffffffffffffffff\n      and\n      0xffffffffffffffffffffffffffffffffffffffff\n      and\n      dup2\n      mstore\n      0x20\n      add\n      swap1\n      dup2\n      mstore\n      0x20\n      add\n      0x00\n      keccak256\n      0x00\n      swap1\n      sload\n      swap1\n      0x0100\n      exp\n      swap1\n      div\n      0xff\n      and\n        /* \"contracts/Classes/Class4/KapsulVoting.sol\":1406:1436  walletGroup[msg.sender] == _id */\n      0xff\n      and\n      eq\n        /* \"contracts/Classes/Class4/KapsulVoting.sol\":1398:1484  require(walletGroup[msg.sender] == _id, \"You can not change another project details.\") */\n      tag_79\n      jumpi\n      mload(0x40)\n      0x08c379a000000000000000000000000000000000000000000000000000000000\n      dup2\n      mstore\n      0x04\n      add\n      tag_80\n      swap1\n      tag_81\n      jump\t// in\n    tag_80:\n      mload(0x40)\n      dup1\n      swap2\n      sub\n      swap1\n      revert\n    tag_79:\n        /* \"contracts/Classes/Class4/KapsulVoting.sol\":1505:1532  Project storage _newProject */\n      0x00\n        /* \"contracts/Classes/Class4/KapsulVoting.sol\":1535:1548  projectDetail */\n      dup1\n        /* \"contracts/Classes/Class4/KapsulVoting.sol\":1535:1553  projectDetail[_id] */\n      0x00\n        /* \"contracts/Classes/Class4/KapsulVoting.sol\":1549:1552  _id */\n      dup6\n        /* \"contracts/Classes/Class4/KapsulVoting.sol\":1535:1553  projectDetail[_id] */\n      0xff\n      and\n      0xff\n      and\n      dup2\n      mstore\n      0x20\n      add\n      swap1\n      dup2\n      mstore\n      0x20\n      add\n      0x00\n      keccak256\n        /* \"contracts/Classes/Class4/KapsulVoting.sol\":1505:1553  Project storage _newProject = projectDetail[_id] */\n      swap1\n      pop\n        /* \"contracts/Classes/Class4/KapsulVoting.sol\":1592:1607  _newProjectName */\n      dup3\n        /* \"contracts/Classes/Class4/KapsulVoting.sol\":1566:1577  _newProject */\n      dup2\n        /* \"contracts/Classes/Class4/KapsulVoting.sol\":1566:1589  _newProject.projectName */\n      0x01\n      add\n        /* \"contracts/Classes/Class4/KapsulVoting.sol\":1566:1607  _newProject.projectName = _newProjectName */\n      swap1\n      dup2\n      tag_82\n      swap2\n      swap1\n      tag_83\n      jump\t// in\n    tag_82:\n      pop\n        /* \"contracts/Classes/Class4/KapsulVoting.sol\":1644:1659  _newTeamWallets */\n      dup2\n        /* \"contracts/Classes/Class4/KapsulVoting.sol\":1618:1629  _newProject */\n      dup2\n        /* \"contracts/Classes/Class4/KapsulVoting.sol\":1618:1641  _newProject.teamWallets */\n      0x02\n      add\n        /* \"contracts/Classes/Class4/KapsulVoting.sol\":1618:1659  _newProject.teamWallets = _newTeamWallets */\n      swap1\n      dup1\n      mload\n      swap1\n      0x20\n      add\n      swap1\n      tag_84\n      swap3\n      swap2\n      swap1\n      tag_85\n      jump\t// in\n    tag_84:\n      pop\n        /* \"contracts/Classes/Class4/KapsulVoting.sol\":1677:1706  ProjectAdded(_newProjectName) */\n      0xe2113e2f31e9059e4f64d1910b874f2e8ee4a4fd9081c4910d409f649dfe3b48\n        /* \"contracts/Classes/Class4/KapsulVoting.sol\":1690:1705  _newProjectName */\n      dup4\n        /* \"contracts/Classes/Class4/KapsulVoting.sol\":1677:1706  ProjectAdded(_newProjectName) */\n      mload(0x40)\n      tag_86\n      swap2\n      swap1\n      tag_87\n      jump\t// in\n    tag_86:\n      mload(0x40)\n      dup1\n      swap2\n      sub\n      swap1\n      log1\n        /* \"contracts/Classes/Class4/KapsulVoting.sol\":1387:1714  {... */\n      pop\n        /* \"contracts/Classes/Class4/KapsulVoting.sol\":1282:1714  function updateProject(uint8 _id, string memory _newProjectName, address[] memory _newTeamWallets) public{... */\n      pop\n      pop\n      pop\n      jump\t// out\n        /* \"contracts/Classes/Class4/KapsulVoting.sol\":1722:2153  function identifyWallets(address[] memory _teamsWallets, uint8 _groupNumber) public returns(bool){... */\n    tag_36:\n        /* \"contracts/Classes/Class4/KapsulVoting.sol\":1814:1818  bool */\n      0x00\n        /* \"contracts/Classes/Class4/KapsulVoting.sol\":1835:1842  uint8 i */\n      dup1\n        /* \"contracts/Classes/Class4/KapsulVoting.sol\":1845:1846  0 */\n      0x00\n        /* \"contracts/Classes/Class4/KapsulVoting.sol\":1835:1846  uint8 i = 0 */\n      swap1\n      pop\n        /* \"contracts/Classes/Class4/KapsulVoting.sol\":1830:2124  for (uint8 i = 0; i < _teamsWallets.length; i++) ... */\n    tag_89:\n        /* \"contracts/Classes/Class4/KapsulVoting.sol\":1852:1865  _teamsWallets */\n      dup4\n        /* \"contracts/Classes/Class4/KapsulVoting.sol\":1852:1872  _teamsWallets.length */\n      mload\n        /* \"contracts/Classes/Class4/KapsulVoting.sol\":1848:1849  i */\n      dup2\n        /* \"contracts/Classes/Class4/KapsulVoting.sol\":1848:1872  i < _teamsWallets.length */\n      0xff\n      and\n      lt\n        /* \"contracts/Classes/Class4/KapsulVoting.sol\":1830:2124  for (uint8 i = 0; i < _teamsWallets.length; i++) ... */\n      iszero\n      tag_90\n      jumpi\n        /* \"contracts/Classes/Class4/KapsulVoting.sol\":1945:1946  0 */\n      0x00\n        /* \"contracts/Classes/Class4/KapsulVoting.sol\":1912:1923  walletGroup */\n      0x02\n        /* \"contracts/Classes/Class4/KapsulVoting.sol\":1912:1941  walletGroup[_teamsWallets[i]] */\n      0x00\n        /* \"contracts/Classes/Class4/KapsulVoting.sol\":1924:1937  _teamsWallets */\n      dup7\n        /* \"contracts/Classes/Class4/KapsulVoting.sol\":1938:1939  i */\n      dup5\n        /* \"contracts/Classes/Class4/KapsulVoting.sol\":1924:1940  _teamsWallets[i] */\n      0xff\n      and\n      dup2\n      mload\n      dup2\n      lt\n      tag_92\n      jumpi\n      tag_93\n      tag_94\n      jump\t// in\n    tag_93:\n    tag_92:\n      0x20\n      mul\n      0x20\n      add\n      add\n      mload\n        /* \"contracts/Classes/Class4/KapsulVoting.sol\":1912:1941  walletGroup[_teamsWallets[i]] */\n      0xffffffffffffffffffffffffffffffffffffffff\n      and\n      0xffffffffffffffffffffffffffffffffffffffff\n      and\n      dup2\n      mstore\n      0x20\n      add\n      swap1\n      dup2\n      mstore\n      0x20\n      add\n      0x00\n      keccak256\n      0x00\n      swap1\n      sload\n      swap1\n      0x0100\n      exp\n      swap1\n      div\n      0xff\n      and\n        /* \"contracts/Classes/Class4/KapsulVoting.sol\":1912:1946  walletGroup[_teamsWallets[i]] == 0 */\n      0xff\n      and\n      eq\n        /* \"contracts/Classes/Class4/KapsulVoting.sol\":1904:1979  require(walletGroup[_teamsWallets[i]] == 0, \"Wallet had previously added.\") */\n      tag_95\n      jumpi\n      mload(0x40)\n      0x08c379a000000000000000000000000000000000000000000000000000000000\n      dup2\n      mstore\n      0x04\n      add\n      tag_96\n      swap1\n      tag_97\n      jump\t// in\n    tag_96:\n      mload(0x40)\n      dup1\n      swap2\n      sub\n      swap1\n      revert\n    tag_95:\n        /* \"contracts/Classes/Class4/KapsulVoting.sol\":2026:2038  _groupNumber */\n      dup3\n        /* \"contracts/Classes/Class4/KapsulVoting.sol\":1994:2005  walletGroup */\n      0x02\n        /* \"contracts/Classes/Class4/KapsulVoting.sol\":1994:2023  walletGroup[_teamsWallets[i]] */\n      0x00\n        /* \"contracts/Classes/Class4/KapsulVoting.sol\":2006:2019  _teamsWallets */\n      dup7\n        /* \"contracts/Classes/Class4/KapsulVoting.sol\":2020:2021  i */\n      dup5\n        /* \"contracts/Classes/Class4/KapsulVoting.sol\":2006:2022  _teamsWallets[i] */\n      0xff\n      and\n      dup2\n      mload\n      dup2\n      lt\n      tag_98\n      jumpi\n      tag_99\n      tag_94\n      jump\t// in\n    tag_99:\n    tag_98:\n      0x20\n      mul\n      0x20\n      add\n      add\n      mload\n        /* \"contracts/Classes/Class4/KapsulVoting.sol\":1994:2023  walletGroup[_teamsWallets[i]] */\n      0xffffffffffffffffffffffffffffffffffffffff\n      and\n      0xffffffffffffffffffffffffffffffffffffffff\n      and\n      dup2\n      mstore\n      0x20\n      add\n      swap1\n      dup2\n      mstore\n      0x20\n      add\n      0x00\n      keccak256\n      0x00\n        /* \"contracts/Classes/Class4/KapsulVoting.sol\":1994:2038  walletGroup[_teamsWallets[i]] = _groupNumber */\n      0x0100\n      exp\n      dup2\n      sload\n      dup2\n      0xff\n      mul\n      not\n      and\n      swap1\n      dup4\n      0xff\n      and\n      mul\n      or\n      swap1\n      sstore\n      pop\n        /* \"contracts/Classes/Class4/KapsulVoting.sol\":2081:2086  false */\n      0x00\n        /* \"contracts/Classes/Class4/KapsulVoting.sol\":2053:2060  isVoted */\n      0x03\n        /* \"contracts/Classes/Class4/KapsulVoting.sol\":2053:2078  isVoted[_teamsWallets[i]] */\n      0x00\n        /* \"contracts/Classes/Class4/KapsulVoting.sol\":2061:2074  _teamsWallets */\n      dup7\n        /* \"contracts/Classes/Class4/KapsulVoting.sol\":2075:2076  i */\n      dup5\n        /* \"contracts/Classes/Class4/KapsulVoting.sol\":2061:2077  _teamsWallets[i] */\n      0xff\n      and\n      dup2\n      mload\n      dup2\n      lt\n      tag_100\n      jumpi\n      tag_101\n      tag_94\n      jump\t// in\n    tag_101:\n    tag_100:\n      0x20\n      mul\n      0x20\n      add\n      add\n      mload\n        /* \"contracts/Classes/Class4/KapsulVoting.sol\":2053:2078  isVoted[_teamsWallets[i]] */\n      0xffffffffffffffffffffffffffffffffffffffff\n      and\n      0xffffffffffffffffffffffffffffffffffffffff\n      and\n      dup2\n      mstore\n      0x20\n      add\n      swap1\n      dup2\n      mstore\n      0x20\n      add\n      0x00\n      keccak256\n      0x00\n        /* \"contracts/Classes/Class4/KapsulVoting.sol\":2053:2086  isVoted[_teamsWallets[i]] = false */\n      0x0100\n      exp\n      dup2\n      sload\n      dup2\n      0xff\n      mul\n      not\n      and\n      swap1\n      dup4\n      iszero\n      iszero\n      mul\n      or\n      swap1\n      sstore\n      pop\n        /* \"contracts/Classes/Class4/KapsulVoting.sol\":1874:1877  i++ */\n      dup1\n      dup1\n      tag_102\n      swap1\n      tag_76\n      jump\t// in\n    tag_102:\n      swap2\n      pop\n      pop\n        /* \"contracts/Classes/Class4/KapsulVoting.sol\":1830:2124  for (uint8 i = 0; i < _teamsWallets.length; i++) ... */\n      jump(tag_89)\n    tag_90:\n      pop\n        /* \"contracts/Classes/Class4/KapsulVoting.sol\":2141:2145  true */\n      0x01\n        /* \"contracts/Classes/Class4/KapsulVoting.sol\":2134:2145  return true */\n      swap1\n      pop\n        /* \"contracts/Classes/Class4/KapsulVoting.sol\":1722:2153  function identifyWallets(address[] memory _teamsWallets, uint8 _groupNumber) public returns(bool){... */\n      swap3\n      swap2\n      pop\n      pop\n      jump\t// out\n        /* \"contracts/Classes/Class4/KapsulVoting.sol\":2904:3042  function getProjectIDByName(string memory _projectName) public view returns(uint8) {... */\n    tag_41:\n        /* \"contracts/Classes/Class4/KapsulVoting.sol\":2980:2985  uint8 */\n      0x00\n        /* \"contracts/Classes/Class4/KapsulVoting.sol\":3005:3020  projectIDByName */\n      0x01\n        /* \"contracts/Classes/Class4/KapsulVoting.sol\":3021:3033  _projectName */\n      dup3\n        /* \"contracts/Classes/Class4/KapsulVoting.sol\":3005:3034  projectIDByName[_projectName] */\n      mload(0x40)\n      tag_104\n      swap2\n      swap1\n      tag_105\n      jump\t// in\n    tag_104:\n      swap1\n      dup2\n      mstore\n      0x20\n      add\n      mload(0x40)\n      dup1\n      swap2\n      sub\n      swap1\n      keccak256\n      0x00\n      swap1\n      sload\n      swap1\n      0x0100\n      exp\n      swap1\n      div\n      0xff\n      and\n        /* \"contracts/Classes/Class4/KapsulVoting.sol\":2998:3034  return projectIDByName[_projectName] */\n      swap1\n      pop\n        /* \"contracts/Classes/Class4/KapsulVoting.sol\":2904:3042  function getProjectIDByName(string memory _projectName) public view returns(uint8) {... */\n      swap2\n      swap1\n      pop\n      jump\t// out\n        /* \"contracts/Classes/Class4/KapsulVoting.sol\":2791:2896  function getIsVoted(address _wallet) public view returns(bool) {... */\n    tag_45:\n        /* \"contracts/Classes/Class4/KapsulVoting.sol\":2848:2852  bool */\n      0x00\n        /* \"contracts/Classes/Class4/KapsulVoting.sol\":2872:2879  isVoted */\n      0x03\n        /* \"contracts/Classes/Class4/KapsulVoting.sol\":2872:2888  isVoted[_wallet] */\n      0x00\n        /* \"contracts/Classes/Class4/KapsulVoting.sol\":2880:2887  _wallet */\n      dup4\n        /* \"contracts/Classes/Class4/KapsulVoting.sol\":2872:2888  isVoted[_wallet] */\n      0xffffffffffffffffffffffffffffffffffffffff\n      and\n      0xffffffffffffffffffffffffffffffffffffffff\n      and\n      dup2\n      mstore\n      0x20\n      add\n      swap1\n      dup2\n      mstore\n      0x20\n      add\n      0x00\n      keccak256\n      0x00\n      swap1\n      sload\n      swap1\n      0x0100\n      exp\n      swap1\n      div\n      0xff\n      and\n        /* \"contracts/Classes/Class4/KapsulVoting.sol\":2865:2888  return isVoted[_wallet] */\n      swap1\n      pop\n        /* \"contracts/Classes/Class4/KapsulVoting.sol\":2791:2896  function getIsVoted(address _wallet) public view returns(bool) {... */\n      swap2\n      swap1\n      pop\n      jump\t// out\n        /* \"contracts/Classes/Class4/KapsulVoting.sol\":605:1274  function  addProject(string memory _projectName, address[] memory _teamsWallets) public returns(bool){... */\n    tag_50:\n        /* \"contracts/Classes/Class4/KapsulVoting.sol\":701:705  bool */\n      0x00\n        /* \"contracts/Classes/Class4/KapsulVoting.sol\":758:759  0 */\n      dup1\n        /* \"contracts/Classes/Class4/KapsulVoting.sol\":725:740  projectIDByName */\n      0x01\n        /* \"contracts/Classes/Class4/KapsulVoting.sol\":741:753  _projectName */\n      dup5\n        /* \"contracts/Classes/Class4/KapsulVoting.sol\":725:754  projectIDByName[_projectName] */\n      mload(0x40)\n      tag_108\n      swap2\n      swap1\n      tag_105\n      jump\t// in\n    tag_108:\n      swap1\n      dup2\n      mstore\n      0x20\n      add\n      mload(0x40)\n      dup1\n      swap2\n      sub\n      swap1\n      keccak256\n      0x00\n      swap1\n      sload\n      swap1\n      0x0100\n      exp\n      swap1\n      div\n      0xff\n      and\n        /* \"contracts/Classes/Class4/KapsulVoting.sol\":725:759  projectIDByName[_projectName] == 0 */\n      0xff\n      and\n      eq\n        /* \"contracts/Classes/Class4/KapsulVoting.sol\":717:797  require(projectIDByName[_projectName] == 0, \"The project had previously added.\") */\n      tag_109\n      jumpi\n      mload(0x40)\n      0x08c379a000000000000000000000000000000000000000000000000000000000\n      dup2\n      mstore\n      0x04\n      add\n      tag_110\n      swap1\n      tag_111\n      jump\t// in\n    tag_110:\n      mload(0x40)\n      dup1\n      swap2\n      sub\n      swap1\n      revert\n    tag_109:\n        /* \"contracts/Classes/Class4/KapsulVoting.sol\":810:836  Project memory _newProject */\n      0x00\n        /* \"contracts/Classes/Class4/KapsulVoting.sol\":839:996  Project({... */\n      mload(0x40)\n      dup1\n      0x80\n      add\n      0x40\n      mstore\n      dup1\n        /* \"contracts/Classes/Class4/KapsulVoting.sol\":866:876  groupCount */\n      0x04\n      0x00\n      swap1\n      sload\n      swap1\n      0x0100\n      exp\n      swap1\n      div\n      0xff\n      and\n        /* \"contracts/Classes/Class4/KapsulVoting.sol\":839:996  Project({... */\n      0xff\n      and\n      dup2\n      mstore\n      0x20\n      add\n        /* \"contracts/Classes/Class4/KapsulVoting.sol\":904:916  _projectName */\n      dup6\n        /* \"contracts/Classes/Class4/KapsulVoting.sol\":839:996  Project({... */\n      dup2\n      mstore\n      0x20\n      add\n        /* \"contracts/Classes/Class4/KapsulVoting.sol\":944:957  _teamsWallets */\n      dup5\n        /* \"contracts/Classes/Class4/KapsulVoting.sol\":839:996  Project({... */\n      dup2\n      mstore\n      0x20\n      add\n        /* \"contracts/Classes/Class4/KapsulVoting.sol\":983:984  0 */\n      0x00\n        /* \"contracts/Classes/Class4/KapsulVoting.sol\":839:996  Project({... */\n      0xff\n      and\n      dup2\n      mstore\n      pop\n        /* \"contracts/Classes/Class4/KapsulVoting.sol\":810:996  Project memory _newProject = Project({... */\n      swap1\n      pop\n        /* \"contracts/Classes/Class4/KapsulVoting.sol\":1037:1048  _newProject */\n      dup1\n        /* \"contracts/Classes/Class4/KapsulVoting.sol\":1009:1022  projectDetail */\n      0x00\n        /* \"contracts/Classes/Class4/KapsulVoting.sol\":1009:1034  projectDetail[groupCount] */\n      dup1\n        /* \"contracts/Classes/Class4/KapsulVoting.sol\":1023:1033  groupCount */\n      0x04\n      0x00\n      swap1\n      sload\n      swap1\n      0x0100\n      exp\n      swap1\n      div\n      0xff\n      and\n        /* \"contracts/Classes/Class4/KapsulVoting.sol\":1009:1034  projectDetail[groupCount] */\n      0xff\n      and\n      0xff\n      and\n      dup2\n      mstore\n      0x20\n      add\n      swap1\n      dup2\n      mstore\n      0x20\n      add\n      0x00\n      keccak256\n        /* \"contracts/Classes/Class4/KapsulVoting.sol\":1009:1048  projectDetail[groupCount] = _newProject */\n      0x00\n      dup3\n      add\n      mload\n      dup2\n      0x00\n      add\n      exp(0x0100, 0x00)\n      dup2\n      sload\n      dup2\n      0xff\n      mul\n      not\n      and\n      swap1\n      dup4\n      0xff\n      and\n      mul\n      or\n      swap1\n      sstore\n      pop\n      0x20\n      dup3\n      add\n      mload\n      dup2\n      0x01\n      add\n      swap1\n      dup2\n      tag_112\n      swap2\n      swap1\n      tag_83\n      jump\t// in\n    tag_112:\n      pop\n      0x40\n      dup3\n      add\n      mload\n      dup2\n      0x02\n      add\n      swap1\n      dup1\n      mload\n      swap1\n      0x20\n      add\n      swap1\n      tag_113\n      swap3\n      swap2\n      swap1\n      tag_85\n      jump\t// in\n    tag_113:\n      pop\n      0x60\n      dup3\n      add\n      mload\n      dup2\n      0x03\n      add\n      exp(0x0100, 0x00)\n      dup2\n      sload\n      dup2\n      0xff\n      mul\n      not\n      and\n      swap1\n      dup4\n      0xff\n      and\n      mul\n      or\n      swap1\n      sstore\n      pop\n      swap1\n      pop\n      pop\n        /* \"contracts/Classes/Class4/KapsulVoting.sol\":1102:1113  _newProject */\n      dup1\n        /* \"contracts/Classes/Class4/KapsulVoting.sol\":1102:1116  _newProject.id */\n      0x00\n      add\n      mload\n        /* \"contracts/Classes/Class4/KapsulVoting.sol\":1059:1074  projectIDByName */\n      0x01\n        /* \"contracts/Classes/Class4/KapsulVoting.sol\":1075:1086  _newProject */\n      dup3\n        /* \"contracts/Classes/Class4/KapsulVoting.sol\":1075:1098  _newProject.projectName */\n      0x20\n      add\n      mload\n        /* \"contracts/Classes/Class4/KapsulVoting.sol\":1059:1099  projectIDByName[_newProject.projectName] */\n      mload(0x40)\n      tag_114\n      swap2\n      swap1\n      tag_105\n      jump\t// in\n    tag_114:\n      swap1\n      dup2\n      mstore\n      0x20\n      add\n      mload(0x40)\n      dup1\n      swap2\n      sub\n      swap1\n      keccak256\n      0x00\n        /* \"contracts/Classes/Class4/KapsulVoting.sol\":1059:1116  projectIDByName[_newProject.projectName] = _newProject.id */\n      0x0100\n      exp\n      dup2\n      sload\n      dup2\n      0xff\n      mul\n      not\n      and\n      swap1\n      dup4\n      0xff\n      and\n      mul\n      or\n      swap1\n      sstore\n      pop\n        /* \"contracts/Classes/Class4/KapsulVoting.sol\":1127:1169  identifyWallets(_teamsWallets, groupCount) */\n      tag_115\n        /* \"contracts/Classes/Class4/KapsulVoting.sol\":1143:1156  _teamsWallets */\n      dup4\n        /* \"contracts/Classes/Class4/KapsulVoting.sol\":1158:1168  groupCount */\n      0x04\n      0x00\n      swap1\n      sload\n      swap1\n      0x0100\n      exp\n      swap1\n      div\n      0xff\n      and\n        /* \"contracts/Classes/Class4/KapsulVoting.sol\":1127:1142  identifyWallets */\n      tag_36\n        /* \"contracts/Classes/Class4/KapsulVoting.sol\":1127:1169  identifyWallets(_teamsWallets, groupCount) */\n      jump\t// in\n    tag_115:\n      pop\n        /* \"contracts/Classes/Class4/KapsulVoting.sol\":1190:1200  groupCount */\n      0x04\n      0x00\n        /* \"contracts/Classes/Class4/KapsulVoting.sol\":1190:1202  groupCount++ */\n      dup2\n      dup2\n      swap1\n      sload\n      swap1\n      0x0100\n      exp\n      swap1\n      div\n      0xff\n      and\n      dup1\n      swap3\n      swap2\n      swap1\n      tag_116\n      swap1\n      tag_76\n      jump\t// in\n    tag_116:\n      swap2\n      swap1\n      0x0100\n      exp\n      dup2\n      sload\n      dup2\n      0xff\n      mul\n      not\n      and\n      swap1\n      dup4\n      0xff\n      and\n      mul\n      or\n      swap1\n      sstore\n      pop\n      pop\n        /* \"contracts/Classes/Class4/KapsulVoting.sol\":1218:1244  ProjectAdded(_projectName) */\n      0xe2113e2f31e9059e4f64d1910b874f2e8ee4a4fd9081c4910d409f649dfe3b48\n        /* \"contracts/Classes/Class4/KapsulVoting.sol\":1231:1243  _projectName */\n      dup5\n        /* \"contracts/Classes/Class4/KapsulVoting.sol\":1218:1244  ProjectAdded(_projectName) */\n      mload(0x40)\n      tag_117\n      swap2\n      swap1\n      tag_87\n      jump\t// in\n    tag_117:\n      mload(0x40)\n      dup1\n      swap2\n      sub\n      swap1\n      log1\n        /* \"contracts/Classes/Class4/KapsulVoting.sol\":1262:1266  true */\n      0x01\n        /* \"contracts/Classes/Class4/KapsulVoting.sol\":1255:1266  return true */\n      swap2\n      pop\n      pop\n        /* \"contracts/Classes/Class4/KapsulVoting.sol\":605:1274  function  addProject(string memory _projectName, address[] memory _teamsWallets) public returns(bool){... */\n      swap3\n      swap2\n      pop\n      pop\n      jump\t// out\n    tag_53:\n      mload(0x40)\n      dup1\n      0x80\n      add\n      0x40\n      mstore\n      dup1\n      and(0xff, 0x00)\n      dup2\n      mstore\n      0x20\n      add\n      0x60\n      dup2\n      mstore\n      0x20\n      add\n      0x60\n      dup2\n      mstore\n      0x20\n      add\n      and(0xff, 0x00)\n      dup2\n      mstore\n      pop\n      swap1\n      jump\t// out\n    tag_85:\n      dup3\n      dup1\n      sload\n      dup3\n      dup3\n      sstore\n      swap1\n      0x00\n      mstore\n      keccak256(0x00, 0x20)\n      swap1\n      dup2\n      add\n      swap3\n      dup3\n      iszero\n      tag_118\n      jumpi\n      swap2\n      0x20\n      mul\n      dup3\n      add\n    tag_119:\n      dup3\n      dup2\n      gt\n      iszero\n      tag_120\n      jumpi\n      dup3\n      mload\n      dup3\n      exp(0x0100, 0x00)\n      dup2\n      sload\n      dup2\n      0xffffffffffffffffffffffffffffffffffffffff\n      mul\n      not\n      and\n      swap1\n      dup4\n      0xffffffffffffffffffffffffffffffffffffffff\n      and\n      mul\n      or\n      swap1\n      sstore\n      pop\n      swap2\n      0x20\n      add\n      swap2\n      swap1\n      0x01\n      add\n      swap1\n      jump(tag_119)\n    tag_120:\n    tag_118:\n      pop\n      swap1\n      pop\n      tag_121\n      swap2\n      swap1\n      tag_122\n      jump\t// in\n    tag_121:\n      pop\n      swap1\n      jump\t// out\n    tag_122:\n    tag_123:\n      dup1\n      dup3\n      gt\n      iszero\n      tag_124\n      jumpi\n      0x00\n      dup2\n      0x00\n      swap1\n      sstore\n      pop\n      0x01\n      add\n      jump(tag_123)\n    tag_124:\n      pop\n      swap1\n      jump\t// out\n        /* \"#utility.yul\":7:82   */\n    tag_125:\n        /* \"#utility.yul\":40:46   */\n      0x00\n        /* \"#utility.yul\":73:75   */\n      0x40\n        /* \"#utility.yul\":67:76   */\n      mload\n        /* \"#utility.yul\":57:76   */\n      swap1\n      pop\n        /* \"#utility.yul\":7:82   */\n      swap1\n      jump\t// out\n        /* \"#utility.yul\":88:205   */\n    tag_126:\n        /* \"#utility.yul\":197:198   */\n      0x00\n        /* \"#utility.yul\":194:195   */\n      dup1\n        /* \"#utility.yul\":187:199   */\n      revert\n        /* \"#utility.yul\":211:328   */\n    tag_127:\n        /* \"#utility.yul\":320:321   */\n      0x00\n        /* \"#utility.yul\":317:318   */\n      dup1\n        /* \"#utility.yul\":310:322   */\n      revert\n        /* \"#utility.yul\":334:420   */\n    tag_128:\n        /* \"#utility.yul\":369:376   */\n      0x00\n        /* \"#utility.yul\":409:413   */\n      0xff\n        /* \"#utility.yul\":402:407   */\n      dup3\n        /* \"#utility.yul\":398:414   */\n      and\n        /* \"#utility.yul\":387:414   */\n      swap1\n      pop\n        /* \"#utility.yul\":334:420   */\n      swap2\n      swap1\n      pop\n      jump\t// out\n        /* \"#utility.yul\":426:544   */\n    tag_129:\n        /* \"#utility.yul\":497:519   */\n      tag_205\n        /* \"#utility.yul\":513:518   */\n      dup2\n        /* \"#utility.yul\":497:519   */\n      tag_128\n      jump\t// in\n    tag_205:\n        /* \"#utility.yul\":490:495   */\n      dup2\n        /* \"#utility.yul\":487:520   */\n      eq\n        /* \"#utility.yul\":477:538   */\n      tag_206\n      jumpi\n        /* \"#utility.yul\":534:535   */\n      0x00\n        /* \"#utility.yul\":531:532   */\n      dup1\n        /* \"#utility.yul\":524:536   */\n      revert\n        /* \"#utility.yul\":477:538   */\n    tag_206:\n        /* \"#utility.yul\":426:544   */\n      pop\n      jump\t// out\n        /* \"#utility.yul\":550:685   */\n    tag_130:\n        /* \"#utility.yul\":594:599   */\n      0x00\n        /* \"#utility.yul\":632:638   */\n      dup2\n        /* \"#utility.yul\":619:639   */\n      calldataload\n        /* \"#utility.yul\":610:639   */\n      swap1\n      pop\n        /* \"#utility.yul\":648:679   */\n      tag_208\n        /* \"#utility.yul\":673:678   */\n      dup2\n        /* \"#utility.yul\":648:679   */\n      tag_129\n      jump\t// in\n    tag_208:\n        /* \"#utility.yul\":550:685   */\n      swap3\n      swap2\n      pop\n      pop\n      jump\t// out\n        /* \"#utility.yul\":691:1016   */\n    tag_14:\n        /* \"#utility.yul\":748:754   */\n      0x00\n        /* \"#utility.yul\":797:799   */\n      0x20\n        /* \"#utility.yul\":785:794   */\n      dup3\n        /* \"#utility.yul\":776:783   */\n      dup5\n        /* \"#utility.yul\":772:795   */\n      sub\n        /* \"#utility.yul\":768:800   */\n      slt\n        /* \"#utility.yul\":765:884   */\n      iszero\n      tag_210\n      jumpi\n        /* \"#utility.yul\":803:882   */\n      tag_211\n      tag_126\n      jump\t// in\n    tag_211:\n        /* \"#utility.yul\":765:884   */\n    tag_210:\n        /* \"#utility.yul\":923:924   */\n      0x00\n        /* \"#utility.yul\":948:999   */\n      tag_212\n        /* \"#utility.yul\":991:998   */\n      dup5\n        /* \"#utility.yul\":982:988   */\n      dup3\n        /* \"#utility.yul\":971:980   */\n      dup6\n        /* \"#utility.yul\":967:989   */\n      add\n        /* \"#utility.yul\":948:999   */\n      tag_130\n      jump\t// in\n    tag_212:\n        /* \"#utility.yul\":938:999   */\n      swap2\n      pop\n        /* \"#utility.yul\":894:1009   */\n      pop\n        /* \"#utility.yul\":691:1016   */\n      swap3\n      swap2\n      pop\n      pop\n      jump\t// out\n        /* \"#utility.yul\":1022:1124   */\n    tag_131:\n        /* \"#utility.yul\":1095:1117   */\n      tag_214\n        /* \"#utility.yul\":1111:1116   */\n      dup2\n        /* \"#utility.yul\":1095:1117   */\n      tag_128\n      jump\t// in\n    tag_214:\n        /* \"#utility.yul\":1090:1093   */\n      dup3\n        /* \"#utility.yul\":1083:1118   */\n      mstore\n        /* \"#utility.yul\":1022:1124   */\n      pop\n      pop\n      jump\t// out\n        /* \"#utility.yul\":1130:1229   */\n    tag_132:\n        /* \"#utility.yul\":1182:1188   */\n      0x00\n        /* \"#utility.yul\":1216:1221   */\n      dup2\n        /* \"#utility.yul\":1210:1222   */\n      mload\n        /* \"#utility.yul\":1200:1222   */\n      swap1\n      pop\n        /* \"#utility.yul\":1130:1229   */\n      swap2\n      swap1\n      pop\n      jump\t// out\n        /* \"#utility.yul\":1235:1394   */\n    tag_133:\n        /* \"#utility.yul\":1309:1320   */\n      0x00\n        /* \"#utility.yul\":1343:1349   */\n      dup3\n        /* \"#utility.yul\":1338:1341   */\n      dup3\n        /* \"#utility.yul\":1331:1350   */\n      mstore\n        /* \"#utility.yul\":1383:1387   */\n      0x20\n        /* \"#utility.yul\":1378:1381   */\n      dup3\n        /* \"#utility.yul\":1374:1388   */\n      add\n        /* \"#utility.yul\":1359:1388   */\n      swap1\n      pop\n        /* \"#utility.yul\":1235:1394   */\n      swap3\n      swap2\n      pop\n      pop\n      jump\t// out\n        /* \"#utility.yul\":1400:1539   */\n    tag_134:\n        /* \"#utility.yul\":1489:1495   */\n      dup3\n        /* \"#utility.yul\":1484:1487   */\n      dup2\n        /* \"#utility.yul\":1479:1482   */\n      dup4\n        /* \"#utility.yul\":1473:1496   */\n      mcopy\n        /* \"#utility.yul\":1530:1531   */\n      0x00\n        /* \"#utility.yul\":1521:1527   */\n      dup4\n        /* \"#utility.yul\":1516:1519   */\n      dup4\n        /* \"#utility.yul\":1512:1528   */\n      add\n        /* \"#utility.yul\":1505:1532   */\n      mstore\n        /* \"#utility.yul\":1400:1539   */\n      pop\n      pop\n      pop\n      jump\t// out\n        /* \"#utility.yul\":1545:1647   */\n    tag_135:\n        /* \"#utility.yul\":1586:1592   */\n      0x00\n        /* \"#utility.yul\":1637:1639   */\n      0x1f\n        /* \"#utility.yul\":1633:1640   */\n      not\n        /* \"#utility.yul\":1628:1630   */\n      0x1f\n        /* \"#utility.yul\":1621:1626   */\n      dup4\n        /* \"#utility.yul\":1617:1631   */\n      add\n        /* \"#utility.yul\":1613:1641   */\n      and\n        /* \"#utility.yul\":1603:1641   */\n      swap1\n      pop\n        /* \"#utility.yul\":1545:1647   */\n      swap2\n      swap1\n      pop\n      jump\t// out\n        /* \"#utility.yul\":1653:2010   */\n    tag_136:\n        /* \"#utility.yul\":1731:1734   */\n      0x00\n        /* \"#utility.yul\":1759:1798   */\n      tag_220\n        /* \"#utility.yul\":1792:1797   */\n      dup3\n        /* \"#utility.yul\":1759:1798   */\n      tag_132\n      jump\t// in\n    tag_220:\n        /* \"#utility.yul\":1814:1875   */\n      tag_221\n        /* \"#utility.yul\":1868:1874   */\n      dup2\n        /* \"#utility.yul\":1863:1866   */\n      dup6\n        /* \"#utility.yul\":1814:1875   */\n      tag_133\n      jump\t// in\n    tag_221:\n        /* \"#utility.yul\":1807:1875   */\n      swap4\n      pop\n        /* \"#utility.yul\":1884:1949   */\n      tag_222\n        /* \"#utility.yul\":1942:1948   */\n      dup2\n        /* \"#utility.yul\":1937:1940   */\n      dup6\n        /* \"#utility.yul\":1930:1934   */\n      0x20\n        /* \"#utility.yul\":1923:1928   */\n      dup7\n        /* \"#utility.yul\":1919:1935   */\n      add\n        /* \"#utility.yul\":1884:1949   */\n      tag_134\n      jump\t// in\n    tag_222:\n        /* \"#utility.yul\":1974:2003   */\n      tag_223\n        /* \"#utility.yul\":1996:2002   */\n      dup2\n        /* \"#utility.yul\":1974:2003   */\n      tag_135\n      jump\t// in\n    tag_223:\n        /* \"#utility.yul\":1969:1972   */\n      dup5\n        /* \"#utility.yul\":1965:2004   */\n      add\n        /* \"#utility.yul\":1958:2004   */\n      swap2\n      pop\n        /* \"#utility.yul\":1735:2010   */\n      pop\n        /* \"#utility.yul\":1653:2010   */\n      swap3\n      swap2\n      pop\n      pop\n      jump\t// out\n        /* \"#utility.yul\":2016:2130   */\n    tag_137:\n        /* \"#utility.yul\":2083:2089   */\n      0x00\n        /* \"#utility.yul\":2117:2122   */\n      dup2\n        /* \"#utility.yul\":2111:2123   */\n      mload\n        /* \"#utility.yul\":2101:2123   */\n      swap1\n      pop\n        /* \"#utility.yul\":2016:2130   */\n      swap2\n      swap1\n      pop\n      jump\t// out\n        /* \"#utility.yul\":2136:2310   */\n    tag_138:\n        /* \"#utility.yul\":2225:2236   */\n      0x00\n        /* \"#utility.yul\":2259:2265   */\n      dup3\n        /* \"#utility.yul\":2254:2257   */\n      dup3\n        /* \"#utility.yul\":2247:2266   */\n      mstore\n        /* \"#utility.yul\":2299:2303   */\n      0x20\n        /* \"#utility.yul\":2294:2297   */\n      dup3\n        /* \"#utility.yul\":2290:2304   */\n      add\n        /* \"#utility.yul\":2275:2304   */\n      swap1\n      pop\n        /* \"#utility.yul\":2136:2310   */\n      swap3\n      swap2\n      pop\n      pop\n      jump\t// out\n        /* \"#utility.yul\":2316:2448   */\n    tag_139:\n        /* \"#utility.yul\":2383:2387   */\n      0x00\n        /* \"#utility.yul\":2406:2409   */\n      dup2\n        /* \"#utility.yul\":2398:2409   */\n      swap1\n      pop\n        /* \"#utility.yul\":2436:2440   */\n      0x20\n        /* \"#utility.yul\":2431:2434   */\n      dup3\n        /* \"#utility.yul\":2427:2441   */\n      add\n        /* \"#utility.yul\":2419:2441   */\n      swap1\n      pop\n        /* \"#utility.yul\":2316:2448   */\n      swap2\n      swap1\n      pop\n      jump\t// out\n        /* \"#utility.yul\":2454:2580   */\n    tag_140:\n        /* \"#utility.yul\":2491:2498   */\n      0x00\n        /* \"#utility.yul\":2531:2573   */\n      0xffffffffffffffffffffffffffffffffffffffff\n        /* \"#utility.yul\":2524:2529   */\n      dup3\n        /* \"#utility.yul\":2520:2574   */\n      and\n        /* \"#utility.yul\":2509:2574   */\n      swap1\n      pop\n        /* \"#utility.yul\":2454:2580   */\n      swap2\n      swap1\n      pop\n      jump\t// out\n        /* \"#utility.yul\":2586:2682   */\n    tag_141:\n        /* \"#utility.yul\":2623:2630   */\n      0x00\n        /* \"#utility.yul\":2652:2676   */\n      tag_229\n        /* \"#utility.yul\":2670:2675   */\n      dup3\n        /* \"#utility.yul\":2652:2676   */\n      tag_140\n      jump\t// in\n    tag_229:\n        /* \"#utility.yul\":2641:2676   */\n      swap1\n      pop\n        /* \"#utility.yul\":2586:2682   */\n      swap2\n      swap1\n      pop\n      jump\t// out\n        /* \"#utility.yul\":2688:2796   */\n    tag_142:\n        /* \"#utility.yul\":2765:2789   */\n      tag_231\n        /* \"#utility.yul\":2783:2788   */\n      dup2\n        /* \"#utility.yul\":2765:2789   */\n      tag_141\n      jump\t// in\n    tag_231:\n        /* \"#utility.yul\":2760:2763   */\n      dup3\n        /* \"#utility.yul\":2753:2790   */\n      mstore\n        /* \"#utility.yul\":2688:2796   */\n      pop\n      pop\n      jump\t// out\n        /* \"#utility.yul\":2802:2981   */\n    tag_143:\n        /* \"#utility.yul\":2871:2881   */\n      0x00\n        /* \"#utility.yul\":2892:2938   */\n      tag_233\n        /* \"#utility.yul\":2934:2937   */\n      dup4\n        /* \"#utility.yul\":2926:2932   */\n      dup4\n        /* \"#utility.yul\":2892:2938   */\n      tag_142\n      jump\t// in\n    tag_233:\n        /* \"#utility.yul\":2970:2974   */\n      0x20\n        /* \"#utility.yul\":2965:2968   */\n      dup4\n        /* \"#utility.yul\":2961:2975   */\n      add\n        /* \"#utility.yul\":2947:2975   */\n      swap1\n      pop\n        /* \"#utility.yul\":2802:2981   */\n      swap3\n      swap2\n      pop\n      pop\n      jump\t// out\n        /* \"#utility.yul\":2987:3100   */\n    tag_144:\n        /* \"#utility.yul\":3057:3061   */\n      0x00\n        /* \"#utility.yul\":3089:3093   */\n      0x20\n        /* \"#utility.yul\":3084:3087   */\n      dup3\n        /* \"#utility.yul\":3080:3094   */\n      add\n        /* \"#utility.yul\":3072:3094   */\n      swap1\n      pop\n        /* \"#utility.yul\":2987:3100   */\n      swap2\n      swap1\n      pop\n      jump\t// out\n        /* \"#utility.yul\":3136:3848   */\n    tag_145:\n        /* \"#utility.yul\":3245:3248   */\n      0x00\n        /* \"#utility.yul\":3274:3328   */\n      tag_236\n        /* \"#utility.yul\":3322:3327   */\n      dup3\n        /* \"#utility.yul\":3274:3328   */\n      tag_137\n      jump\t// in\n    tag_236:\n        /* \"#utility.yul\":3344:3420   */\n      tag_237\n        /* \"#utility.yul\":3413:3419   */\n      dup2\n        /* \"#utility.yul\":3408:3411   */\n      dup6\n        /* \"#utility.yul\":3344:3420   */\n      tag_138\n      jump\t// in\n    tag_237:\n        /* \"#utility.yul\":3337:3420   */\n      swap4\n      pop\n        /* \"#utility.yul\":3444:3500   */\n      tag_238\n        /* \"#utility.yul\":3494:3499   */\n      dup4\n        /* \"#utility.yul\":3444:3500   */\n      tag_139\n      jump\t// in\n    tag_238:\n        /* \"#utility.yul\":3523:3530   */\n      dup1\n        /* \"#utility.yul\":3554:3555   */\n      0x00\n        /* \"#utility.yul\":3539:3823   */\n    tag_239:\n        /* \"#utility.yul\":3564:3570   */\n      dup4\n        /* \"#utility.yul\":3561:3562   */\n      dup2\n        /* \"#utility.yul\":3558:3571   */\n      lt\n        /* \"#utility.yul\":3539:3823   */\n      iszero\n      tag_241\n      jumpi\n        /* \"#utility.yul\":3640:3646   */\n      dup2\n        /* \"#utility.yul\":3634:3647   */\n      mload\n        /* \"#utility.yul\":3667:3730   */\n      tag_242\n        /* \"#utility.yul\":3726:3729   */\n      dup9\n        /* \"#utility.yul\":3711:3724   */\n      dup3\n        /* \"#utility.yul\":3667:3730   */\n      tag_143\n      jump\t// in\n    tag_242:\n        /* \"#utility.yul\":3660:3730   */\n      swap8\n      pop\n        /* \"#utility.yul\":3753:3813   */\n      tag_243\n        /* \"#utility.yul\":3806:3812   */\n      dup4\n        /* \"#utility.yul\":3753:3813   */\n      tag_144\n      jump\t// in\n    tag_243:\n        /* \"#utility.yul\":3743:3813   */\n      swap3\n      pop\n        /* \"#utility.yul\":3599:3823   */\n      pop\n        /* \"#utility.yul\":3586:3587   */\n      0x01\n        /* \"#utility.yul\":3583:3584   */\n      dup2\n        /* \"#utility.yul\":3579:3588   */\n      add\n        /* \"#utility.yul\":3574:3588   */\n      swap1\n      pop\n        /* \"#utility.yul\":3539:3823   */\n      jump(tag_239)\n    tag_241:\n        /* \"#utility.yul\":3543:3557   */\n      pop\n        /* \"#utility.yul\":3839:3842   */\n      dup6\n        /* \"#utility.yul\":3832:3842   */\n      swap4\n      pop\n        /* \"#utility.yul\":3250:3848   */\n      pop\n      pop\n      pop\n        /* \"#utility.yul\":3136:3848   */\n      swap3\n      swap2\n      pop\n      pop\n      jump\t// out\n        /* \"#utility.yul\":3920:4980   */\n    tag_146:\n        /* \"#utility.yul\":4035:4038   */\n      0x00\n        /* \"#utility.yul\":4071:4075   */\n      0x80\n        /* \"#utility.yul\":4066:4069   */\n      dup4\n        /* \"#utility.yul\":4062:4076   */\n      add\n        /* \"#utility.yul\":4156:4160   */\n      0x00\n        /* \"#utility.yul\":4149:4154   */\n      dup4\n        /* \"#utility.yul\":4145:4161   */\n      add\n        /* \"#utility.yul\":4139:4162   */\n      mload\n        /* \"#utility.yul\":4175:4234   */\n      tag_245\n        /* \"#utility.yul\":4228:4232   */\n      0x00\n        /* \"#utility.yul\":4223:4226   */\n      dup7\n        /* \"#utility.yul\":4219:4233   */\n      add\n        /* \"#utility.yul\":4205:4217   */\n      dup3\n        /* \"#utility.yul\":4175:4234   */\n      tag_131\n      jump\t// in\n    tag_245:\n        /* \"#utility.yul\":4086:4244   */\n      pop\n        /* \"#utility.yul\":4333:4337   */\n      0x20\n        /* \"#utility.yul\":4326:4331   */\n      dup4\n        /* \"#utility.yul\":4322:4338   */\n      add\n        /* \"#utility.yul\":4316:4339   */\n      mload\n        /* \"#utility.yul\":4386:4389   */\n      dup5\n        /* \"#utility.yul\":4380:4384   */\n      dup3\n        /* \"#utility.yul\":4376:4390   */\n      sub\n        /* \"#utility.yul\":4369:4373   */\n      0x20\n        /* \"#utility.yul\":4364:4367   */\n      dup7\n        /* \"#utility.yul\":4360:4374   */\n      add\n        /* \"#utility.yul\":4353:4391   */\n      mstore\n        /* \"#utility.yul\":4412:4485   */\n      tag_246\n        /* \"#utility.yul\":4480:4484   */\n      dup3\n        /* \"#utility.yul\":4466:4478   */\n      dup3\n        /* \"#utility.yul\":4412:4485   */\n      tag_136\n      jump\t// in\n    tag_246:\n        /* \"#utility.yul\":4404:4485   */\n      swap2\n      pop\n        /* \"#utility.yul\":4254:4496   */\n      pop\n        /* \"#utility.yul\":4585:4589   */\n      0x40\n        /* \"#utility.yul\":4578:4583   */\n      dup4\n        /* \"#utility.yul\":4574:4590   */\n      add\n        /* \"#utility.yul\":4568:4591   */\n      mload\n        /* \"#utility.yul\":4638:4641   */\n      dup5\n        /* \"#utility.yul\":4632:4636   */\n      dup3\n        /* \"#utility.yul\":4628:4642   */\n      sub\n        /* \"#utility.yul\":4621:4625   */\n      0x40\n        /* \"#utility.yul\":4616:4619   */\n      dup7\n        /* \"#utility.yul\":4612:4626   */\n      add\n        /* \"#utility.yul\":4605:4643   */\n      mstore\n        /* \"#utility.yul\":4664:4767   */\n      tag_247\n        /* \"#utility.yul\":4762:4766   */\n      dup3\n        /* \"#utility.yul\":4748:4760   */\n      dup3\n        /* \"#utility.yul\":4664:4767   */\n      tag_145\n      jump\t// in\n    tag_247:\n        /* \"#utility.yul\":4656:4767   */\n      swap2\n      pop\n        /* \"#utility.yul\":4506:4778   */\n      pop\n        /* \"#utility.yul\":4865:4869   */\n      0x60\n        /* \"#utility.yul\":4858:4863   */\n      dup4\n        /* \"#utility.yul\":4854:4870   */\n      add\n        /* \"#utility.yul\":4848:4871   */\n      mload\n        /* \"#utility.yul\":4884:4943   */\n      tag_248\n        /* \"#utility.yul\":4937:4941   */\n      0x60\n        /* \"#utility.yul\":4932:4935   */\n      dup7\n        /* \"#utility.yul\":4928:4942   */\n      add\n        /* \"#utility.yul\":4914:4926   */\n      dup3\n        /* \"#utility.yul\":4884:4943   */\n      tag_131\n      jump\t// in\n    tag_248:\n        /* \"#utility.yul\":4788:4953   */\n      pop\n        /* \"#utility.yul\":4970:4974   */\n      dup1\n        /* \"#utility.yul\":4963:4974   */\n      swap2\n      pop\n        /* \"#utility.yul\":4040:4980   */\n      pop\n        /* \"#utility.yul\":3920:4980   */\n      swap3\n      swap2\n      pop\n      pop\n      jump\t// out\n        /* \"#utility.yul\":4986:5351   */\n    tag_17:\n        /* \"#utility.yul\":5125:5129   */\n      0x00\n        /* \"#utility.yul\":5163:5165   */\n      0x20\n        /* \"#utility.yul\":5152:5161   */\n      dup3\n        /* \"#utility.yul\":5148:5166   */\n      add\n        /* \"#utility.yul\":5140:5166   */\n      swap1\n      pop\n        /* \"#utility.yul\":5212:5221   */\n      dup2\n        /* \"#utility.yul\":5206:5210   */\n      dup2\n        /* \"#utility.yul\":5202:5222   */\n      sub\n        /* \"#utility.yul\":5198:5199   */\n      0x00\n        /* \"#utility.yul\":5187:5196   */\n      dup4\n        /* \"#utility.yul\":5183:5200   */\n      add\n        /* \"#utility.yul\":5176:5223   */\n      mstore\n        /* \"#utility.yul\":5240:5344   */\n      tag_250\n        /* \"#utility.yul\":5339:5343   */\n      dup2\n        /* \"#utility.yul\":5330:5336   */\n      dup5\n        /* \"#utility.yul\":5240:5344   */\n      tag_146\n      jump\t// in\n    tag_250:\n        /* \"#utility.yul\":5232:5344   */\n      swap1\n      pop\n        /* \"#utility.yul\":4986:5351   */\n      swap3\n      swap2\n      pop\n      pop\n      jump\t// out\n        /* \"#utility.yul\":5357:5479   */\n    tag_147:\n        /* \"#utility.yul\":5430:5454   */\n      tag_252\n        /* \"#utility.yul\":5448:5453   */\n      dup2\n        /* \"#utility.yul\":5430:5454   */\n      tag_141\n      jump\t// in\n    tag_252:\n        /* \"#utility.yul\":5423:5428   */\n      dup2\n        /* \"#utility.yul\":5420:5455   */\n      eq\n        /* \"#utility.yul\":5410:5473   */\n      tag_253\n      jumpi\n        /* \"#utility.yul\":5469:5470   */\n      0x00\n        /* \"#utility.yul\":5466:5467   */\n      dup1\n        /* \"#utility.yul\":5459:5471   */\n      revert\n        /* \"#utility.yul\":5410:5473   */\n    tag_253:\n        /* \"#utility.yul\":5357:5479   */\n      pop\n      jump\t// out\n        /* \"#utility.yul\":5485:5624   */\n    tag_148:\n        /* \"#utility.yul\":5531:5536   */\n      0x00\n        /* \"#utility.yul\":5569:5575   */\n      dup2\n        /* \"#utility.yul\":5556:5576   */\n      calldataload\n        /* \"#utility.yul\":5547:5576   */\n      swap1\n      pop\n        /* \"#utility.yul\":5585:5618   */\n      tag_255\n        /* \"#utility.yul\":5612:5617   */\n      dup2\n        /* \"#utility.yul\":5585:5618   */\n      tag_147\n      jump\t// in\n    tag_255:\n        /* \"#utility.yul\":5485:5624   */\n      swap3\n      swap2\n      pop\n      pop\n      jump\t// out\n        /* \"#utility.yul\":5630:5959   */\n    tag_20:\n        /* \"#utility.yul\":5689:5695   */\n      0x00\n        /* \"#utility.yul\":5738:5740   */\n      0x20\n        /* \"#utility.yul\":5726:5735   */\n      dup3\n        /* \"#utility.yul\":5717:5724   */\n      dup5\n        /* \"#utility.yul\":5713:5736   */\n      sub\n        /* \"#utility.yul\":5709:5741   */\n      slt\n        /* \"#utility.yul\":5706:5825   */\n      iszero\n      tag_257\n      jumpi\n        /* \"#utility.yul\":5744:5823   */\n      tag_258\n      tag_126\n      jump\t// in\n    tag_258:\n        /* \"#utility.yul\":5706:5825   */\n    tag_257:\n        /* \"#utility.yul\":5864:5865   */\n      0x00\n        /* \"#utility.yul\":5889:5942   */\n      tag_259\n        /* \"#utility.yul\":5934:5941   */\n      dup5\n        /* \"#utility.yul\":5925:5931   */\n      dup3\n        /* \"#utility.yul\":5914:5923   */\n      dup6\n        /* \"#utility.yul\":5910:5932   */\n      add\n        /* \"#utility.yul\":5889:5942   */\n      tag_148\n      jump\t// in\n    tag_259:\n        /* \"#utility.yul\":5879:5942   */\n      swap2\n      pop\n        /* \"#utility.yul\":5835:5952   */\n      pop\n        /* \"#utility.yul\":5630:5959   */\n      swap3\n      swap2\n      pop\n      pop\n      jump\t// out\n        /* \"#utility.yul\":5965:6077   */\n    tag_149:\n        /* \"#utility.yul\":6048:6070   */\n      tag_261\n        /* \"#utility.yul\":6064:6069   */\n      dup2\n        /* \"#utility.yul\":6048:6070   */\n      tag_128\n      jump\t// in\n    tag_261:\n        /* \"#utility.yul\":6043:6046   */\n      dup3\n        /* \"#utility.yul\":6036:6071   */\n      mstore\n        /* \"#utility.yul\":5965:6077   */\n      pop\n      pop\n      jump\t// out\n        /* \"#utility.yul\":6083:6297   */\n    tag_23:\n        /* \"#utility.yul\":6172:6176   */\n      0x00\n        /* \"#utility.yul\":6210:6212   */\n      0x20\n        /* \"#utility.yul\":6199:6208   */\n      dup3\n        /* \"#utility.yul\":6195:6213   */\n      add\n        /* \"#utility.yul\":6187:6213   */\n      swap1\n      pop\n        /* \"#utility.yul\":6223:6290   */\n      tag_263\n        /* \"#utility.yul\":6287:6288   */\n      0x00\n        /* \"#utility.yul\":6276:6285   */\n      dup4\n        /* \"#utility.yul\":6272:6289   */\n      add\n        /* \"#utility.yul\":6263:6269   */\n      dup5\n        /* \"#utility.yul\":6223:6290   */\n      tag_149\n      jump\t// in\n    tag_263:\n        /* \"#utility.yul\":6083:6297   */\n      swap3\n      swap2\n      pop\n      pop\n      jump\t// out\n        /* \"#utility.yul\":6303:6393   */\n    tag_150:\n        /* \"#utility.yul\":6337:6344   */\n      0x00\n        /* \"#utility.yul\":6380:6385   */\n      dup2\n        /* \"#utility.yul\":6373:6386   */\n      iszero\n        /* \"#utility.yul\":6366:6387   */\n      iszero\n        /* \"#utility.yul\":6355:6387   */\n      swap1\n      pop\n        /* \"#utility.yul\":6303:6393   */\n      swap2\n      swap1\n      pop\n      jump\t// out\n        /* \"#utility.yul\":6399:6508   */\n    tag_151:\n        /* \"#utility.yul\":6480:6501   */\n      tag_266\n        /* \"#utility.yul\":6495:6500   */\n      dup2\n        /* \"#utility.yul\":6480:6501   */\n      tag_150\n      jump\t// in\n    tag_266:\n        /* \"#utility.yul\":6475:6478   */\n      dup3\n        /* \"#utility.yul\":6468:6502   */\n      mstore\n        /* \"#utility.yul\":6399:6508   */\n      pop\n      pop\n      jump\t// out\n        /* \"#utility.yul\":6514:6724   */\n    tag_28:\n        /* \"#utility.yul\":6601:6605   */\n      0x00\n        /* \"#utility.yul\":6639:6641   */\n      0x20\n        /* \"#utility.yul\":6628:6637   */\n      dup3\n        /* \"#utility.yul\":6624:6642   */\n      add\n        /* \"#utility.yul\":6616:6642   */\n      swap1\n      pop\n        /* \"#utility.yul\":6652:6717   */\n      tag_268\n        /* \"#utility.yul\":6714:6715   */\n      0x00\n        /* \"#utility.yul\":6703:6712   */\n      dup4\n        /* \"#utility.yul\":6699:6716   */\n      add\n        /* \"#utility.yul\":6690:6696   */\n      dup5\n        /* \"#utility.yul\":6652:6717   */\n      tag_151\n      jump\t// in\n    tag_268:\n        /* \"#utility.yul\":6514:6724   */\n      swap3\n      swap2\n      pop\n      pop\n      jump\t// out\n        /* \"#utility.yul\":6730:6847   */\n    tag_152:\n        /* \"#utility.yul\":6839:6840   */\n      0x00\n        /* \"#utility.yul\":6836:6837   */\n      dup1\n        /* \"#utility.yul\":6829:6841   */\n      revert\n        /* \"#utility.yul\":6853:6970   */\n    tag_153:\n        /* \"#utility.yul\":6962:6963   */\n      0x00\n        /* \"#utility.yul\":6959:6960   */\n      dup1\n        /* \"#utility.yul\":6952:6964   */\n      revert\n        /* \"#utility.yul\":6976:7156   */\n    tag_154:\n        /* \"#utility.yul\":7024:7101   */\n      0x4e487b7100000000000000000000000000000000000000000000000000000000\n        /* \"#utility.yul\":7021:7022   */\n      0x00\n        /* \"#utility.yul\":7014:7102   */\n      mstore\n        /* \"#utility.yul\":7121:7125   */\n      0x41\n        /* \"#utility.yul\":7118:7119   */\n      0x04\n        /* \"#utility.yul\":7111:7126   */\n      mstore\n        /* \"#utility.yul\":7145:7149   */\n      0x24\n        /* \"#utility.yul\":7142:7143   */\n      0x00\n        /* \"#utility.yul\":7135:7150   */\n      revert\n        /* \"#utility.yul\":7162:7443   */\n    tag_155:\n        /* \"#utility.yul\":7245:7272   */\n      tag_273\n        /* \"#utility.yul\":7267:7271   */\n      dup3\n        /* \"#utility.yul\":7245:7272   */\n      tag_135\n      jump\t// in\n    tag_273:\n        /* \"#utility.yul\":7237:7243   */\n      dup2\n        /* \"#utility.yul\":7233:7273   */\n      add\n        /* \"#utility.yul\":7375:7381   */\n      dup2\n        /* \"#utility.yul\":7363:7373   */\n      dup2\n        /* \"#utility.yul\":7360:7382   */\n      lt\n        /* \"#utility.yul\":7339:7357   */\n      0xffffffffffffffff\n        /* \"#utility.yul\":7327:7337   */\n      dup3\n        /* \"#utility.yul\":7324:7358   */\n      gt\n        /* \"#utility.yul\":7321:7383   */\n      or\n        /* \"#utility.yul\":7318:7406   */\n      iszero\n      tag_274\n      jumpi\n        /* \"#utility.yul\":7386:7404   */\n      tag_275\n      tag_154\n      jump\t// in\n    tag_275:\n        /* \"#utility.yul\":7318:7406   */\n    tag_274:\n        /* \"#utility.yul\":7426:7436   */\n      dup1\n        /* \"#utility.yul\":7422:7424   */\n      0x40\n        /* \"#utility.yul\":7415:7437   */\n      mstore\n        /* \"#utility.yul\":7205:7443   */\n      pop\n        /* \"#utility.yul\":7162:7443   */\n      pop\n      pop\n      jump\t// out\n        /* \"#utility.yul\":7449:7578   */\n    tag_156:\n        /* \"#utility.yul\":7483:7489   */\n      0x00\n        /* \"#utility.yul\":7510:7530   */\n      tag_277\n      tag_125\n      jump\t// in\n    tag_277:\n        /* \"#utility.yul\":7500:7530   */\n      swap1\n      pop\n        /* \"#utility.yul\":7539:7572   */\n      tag_278\n        /* \"#utility.yul\":7567:7571   */\n      dup3\n        /* \"#utility.yul\":7559:7565   */\n      dup3\n        /* \"#utility.yul\":7539:7572   */\n      tag_155\n      jump\t// in\n    tag_278:\n        /* \"#utility.yul\":7449:7578   */\n      swap2\n      swap1\n      pop\n      jump\t// out\n        /* \"#utility.yul\":7584:7892   */\n    tag_157:\n        /* \"#utility.yul\":7646:7650   */\n      0x00\n        /* \"#utility.yul\":7736:7754   */\n      0xffffffffffffffff\n        /* \"#utility.yul\":7728:7734   */\n      dup3\n        /* \"#utility.yul\":7725:7755   */\n      gt\n        /* \"#utility.yul\":7722:7778   */\n      iszero\n      tag_280\n      jumpi\n        /* \"#utility.yul\":7758:7776   */\n      tag_281\n      tag_154\n      jump\t// in\n    tag_281:\n        /* \"#utility.yul\":7722:7778   */\n    tag_280:\n        /* \"#utility.yul\":7796:7825   */\n      tag_282\n        /* \"#utility.yul\":7818:7824   */\n      dup3\n        /* \"#utility.yul\":7796:7825   */\n      tag_135\n      jump\t// in\n    tag_282:\n        /* \"#utility.yul\":7788:7825   */\n      swap1\n      pop\n        /* \"#utility.yul\":7880:7884   */\n      0x20\n        /* \"#utility.yul\":7874:7878   */\n      dup2\n        /* \"#utility.yul\":7870:7885   */\n      add\n        /* \"#utility.yul\":7862:7885   */\n      swap1\n      pop\n        /* \"#utility.yul\":7584:7892   */\n      swap2\n      swap1\n      pop\n      jump\t// out\n        /* \"#utility.yul\":7898:8046   */\n    tag_158:\n        /* \"#utility.yul\":7996:8002   */\n      dup3\n        /* \"#utility.yul\":7991:7994   */\n      dup2\n        /* \"#utility.yul\":7986:7989   */\n      dup4\n        /* \"#utility.yul\":7973:8003   */\n      calldatacopy\n        /* \"#utility.yul\":8037:8038   */\n      0x00\n        /* \"#utility.yul\":8028:8034   */\n      dup4\n        /* \"#utility.yul\":8023:8026   */\n      dup4\n        /* \"#utility.yul\":8019:8035   */\n      add\n        /* \"#utility.yul\":8012:8039   */\n      mstore\n        /* \"#utility.yul\":7898:8046   */\n      pop\n      pop\n      pop\n      jump\t// out\n        /* \"#utility.yul\":8052:8477   */\n    tag_159:\n        /* \"#utility.yul\":8130:8135   */\n      0x00\n        /* \"#utility.yul\":8155:8221   */\n      tag_285\n        /* \"#utility.yul\":8171:8220   */\n      tag_286\n        /* \"#utility.yul\":8213:8219   */\n      dup5\n        /* \"#utility.yul\":8171:8220   */\n      tag_157\n      jump\t// in\n    tag_286:\n        /* \"#utility.yul\":8155:8221   */\n      tag_156\n      jump\t// in\n    tag_285:\n        /* \"#utility.yul\":8146:8221   */\n      swap1\n      pop\n        /* \"#utility.yul\":8244:8250   */\n      dup3\n        /* \"#utility.yul\":8237:8242   */\n      dup2\n        /* \"#utility.yul\":8230:8251   */\n      mstore\n        /* \"#utility.yul\":8282:8286   */\n      0x20\n        /* \"#utility.yul\":8275:8280   */\n      dup2\n        /* \"#utility.yul\":8271:8287   */\n      add\n        /* \"#utility.yul\":8320:8323   */\n      dup5\n        /* \"#utility.yul\":8311:8317   */\n      dup5\n        /* \"#utility.yul\":8306:8309   */\n      dup5\n        /* \"#utility.yul\":8302:8318   */\n      add\n        /* \"#utility.yul\":8299:8324   */\n      gt\n        /* \"#utility.yul\":8296:8408   */\n      iszero\n      tag_287\n      jumpi\n        /* \"#utility.yul\":8327:8406   */\n      tag_288\n      tag_153\n      jump\t// in\n    tag_288:\n        /* \"#utility.yul\":8296:8408   */\n    tag_287:\n        /* \"#utility.yul\":8417:8471   */\n      tag_289\n        /* \"#utility.yul\":8464:8470   */\n      dup5\n        /* \"#utility.yul\":8459:8462   */\n      dup3\n        /* \"#utility.yul\":8454:8457   */\n      dup6\n        /* \"#utility.yul\":8417:8471   */\n      tag_158\n      jump\t// in\n    tag_289:\n        /* \"#utility.yul\":8136:8477   */\n      pop\n        /* \"#utility.yul\":8052:8477   */\n      swap4\n      swap3\n      pop\n      pop\n      pop\n      jump\t// out\n        /* \"#utility.yul\":8497:8837   */\n    tag_160:\n        /* \"#utility.yul\":8553:8558   */\n      0x00\n        /* \"#utility.yul\":8602:8605   */\n      dup3\n        /* \"#utility.yul\":8595:8599   */\n      0x1f\n        /* \"#utility.yul\":8587:8593   */\n      dup4\n        /* \"#utility.yul\":8583:8600   */\n      add\n        /* \"#utility.yul\":8579:8606   */\n      slt\n        /* \"#utility.yul\":8569:8691   */\n      tag_291\n      jumpi\n        /* \"#utility.yul\":8610:8689   */\n      tag_292\n      tag_152\n      jump\t// in\n    tag_292:\n        /* \"#utility.yul\":8569:8691   */\n    tag_291:\n        /* \"#utility.yul\":8727:8733   */\n      dup2\n        /* \"#utility.yul\":8714:8734   */\n      calldataload\n        /* \"#utility.yul\":8752:8831   */\n      tag_293\n        /* \"#utility.yul\":8827:8830   */\n      dup5\n        /* \"#utility.yul\":8819:8825   */\n      dup3\n        /* \"#utility.yul\":8812:8816   */\n      0x20\n        /* \"#utility.yul\":8804:8810   */\n      dup7\n        /* \"#utility.yul\":8800:8817   */\n      add\n        /* \"#utility.yul\":8752:8831   */\n      tag_159\n      jump\t// in\n    tag_293:\n        /* \"#utility.yul\":8743:8831   */\n      swap2\n      pop\n        /* \"#utility.yul\":8559:8837   */\n      pop\n        /* \"#utility.yul\":8497:8837   */\n      swap3\n      swap2\n      pop\n      pop\n      jump\t// out\n        /* \"#utility.yul\":8843:9154   */\n    tag_161:\n        /* \"#utility.yul\":8920:8924   */\n      0x00\n        /* \"#utility.yul\":9010:9028   */\n      0xffffffffffffffff\n        /* \"#utility.yul\":9002:9008   */\n      dup3\n        /* \"#utility.yul\":8999:9029   */\n      gt\n        /* \"#utility.yul\":8996:9052   */\n      iszero\n      tag_295\n      jumpi\n        /* \"#utility.yul\":9032:9050   */\n      tag_296\n      tag_154\n      jump\t// in\n    tag_296:\n        /* \"#utility.yul\":8996:9052   */\n    tag_295:\n        /* \"#utility.yul\":9082:9086   */\n      0x20\n        /* \"#utility.yul\":9074:9080   */\n      dup3\n        /* \"#utility.yul\":9070:9087   */\n      mul\n        /* \"#utility.yul\":9062:9087   */\n      swap1\n      pop\n        /* \"#utility.yul\":9142:9146   */\n      0x20\n        /* \"#utility.yul\":9136:9140   */\n      dup2\n        /* \"#utility.yul\":9132:9147   */\n      add\n        /* \"#utility.yul\":9124:9147   */\n      swap1\n      pop\n        /* \"#utility.yul\":8843:9154   */\n      swap2\n      swap1\n      pop\n      jump\t// out\n        /* \"#utility.yul\":9160:9277   */\n    tag_162:\n        /* \"#utility.yul\":9269:9270   */\n      0x00\n        /* \"#utility.yul\":9266:9267   */\n      dup1\n        /* \"#utility.yul\":9259:9271   */\n      revert\n        /* \"#utility.yul\":9300:10010   */\n    tag_163:\n        /* \"#utility.yul\":9396:9401   */\n      0x00\n        /* \"#utility.yul\":9421:9502   */\n      tag_299\n        /* \"#utility.yul\":9437:9501   */\n      tag_300\n        /* \"#utility.yul\":9494:9500   */\n      dup5\n        /* \"#utility.yul\":9437:9501   */\n      tag_161\n      jump\t// in\n    tag_300:\n        /* \"#utility.yul\":9421:9502   */\n      tag_156\n      jump\t// in\n    tag_299:\n        /* \"#utility.yul\":9412:9502   */\n      swap1\n      pop\n        /* \"#utility.yul\":9522:9527   */\n      dup1\n        /* \"#utility.yul\":9551:9557   */\n      dup4\n        /* \"#utility.yul\":9544:9549   */\n      dup3\n        /* \"#utility.yul\":9537:9558   */\n      mstore\n        /* \"#utility.yul\":9585:9589   */\n      0x20\n        /* \"#utility.yul\":9578:9583   */\n      dup3\n        /* \"#utility.yul\":9574:9590   */\n      add\n        /* \"#utility.yul\":9567:9590   */\n      swap1\n      pop\n        /* \"#utility.yul\":9638:9642   */\n      0x20\n        /* \"#utility.yul\":9630:9636   */\n      dup5\n        /* \"#utility.yul\":9626:9643   */\n      mul\n        /* \"#utility.yul\":9618:9624   */\n      dup4\n        /* \"#utility.yul\":9614:9644   */\n      add\n        /* \"#utility.yul\":9667:9670   */\n      dup6\n        /* \"#utility.yul\":9659:9665   */\n      dup2\n        /* \"#utility.yul\":9656:9671   */\n      gt\n        /* \"#utility.yul\":9653:9775   */\n      iszero\n      tag_301\n      jumpi\n        /* \"#utility.yul\":9686:9765   */\n      tag_302\n      tag_162\n      jump\t// in\n    tag_302:\n        /* \"#utility.yul\":9653:9775   */\n    tag_301:\n        /* \"#utility.yul\":9801:9807   */\n      dup4\n        /* \"#utility.yul\":9784:10004   */\n    tag_303:\n        /* \"#utility.yul\":9818:9824   */\n      dup2\n        /* \"#utility.yul\":9813:9816   */\n      dup2\n        /* \"#utility.yul\":9810:9825   */\n      lt\n        /* \"#utility.yul\":9784:10004   */\n      iszero\n      tag_305\n      jumpi\n        /* \"#utility.yul\":9893:9896   */\n      dup1\n        /* \"#utility.yul\":9922:9959   */\n      tag_306\n        /* \"#utility.yul\":9955:9958   */\n      dup9\n        /* \"#utility.yul\":9943:9953   */\n      dup3\n        /* \"#utility.yul\":9922:9959   */\n      tag_148\n      jump\t// in\n    tag_306:\n        /* \"#utility.yul\":9917:9920   */\n      dup5\n        /* \"#utility.yul\":9910:9960   */\n      mstore\n        /* \"#utility.yul\":9989:9993   */\n      0x20\n        /* \"#utility.yul\":9984:9987   */\n      dup5\n        /* \"#utility.yul\":9980:9994   */\n      add\n        /* \"#utility.yul\":9973:9994   */\n      swap4\n      pop\n        /* \"#utility.yul\":9860:10004   */\n      pop\n        /* \"#utility.yul\":9844:9848   */\n      0x20\n        /* \"#utility.yul\":9839:9842   */\n      dup2\n        /* \"#utility.yul\":9835:9849   */\n      add\n        /* \"#utility.yul\":9828:9849   */\n      swap1\n      pop\n        /* \"#utility.yul\":9784:10004   */\n      jump(tag_303)\n    tag_305:\n        /* \"#utility.yul\":9788:9809   */\n      pop\n        /* \"#utility.yul\":9402:10010   */\n      pop\n      pop\n        /* \"#utility.yul\":9300:10010   */\n      swap4\n      swap3\n      pop\n      pop\n      pop\n      jump\t// out\n        /* \"#utility.yul\":10033:10403   */\n    tag_164:\n        /* \"#utility.yul\":10104:10109   */\n      0x00\n        /* \"#utility.yul\":10153:10156   */\n      dup3\n        /* \"#utility.yul\":10146:10150   */\n      0x1f\n        /* \"#utility.yul\":10138:10144   */\n      dup4\n        /* \"#utility.yul\":10134:10151   */\n      add\n        /* \"#utility.yul\":10130:10157   */\n      slt\n        /* \"#utility.yul\":10120:10242   */\n      tag_308\n      jumpi\n        /* \"#utility.yul\":10161:10240   */\n      tag_309\n      tag_152\n      jump\t// in\n    tag_309:\n        /* \"#utility.yul\":10120:10242   */\n    tag_308:\n        /* \"#utility.yul\":10278:10284   */\n      dup2\n        /* \"#utility.yul\":10265:10285   */\n      calldataload\n        /* \"#utility.yul\":10303:10397   */\n      tag_310\n        /* \"#utility.yul\":10393:10396   */\n      dup5\n        /* \"#utility.yul\":10385:10391   */\n      dup3\n        /* \"#utility.yul\":10378:10382   */\n      0x20\n        /* \"#utility.yul\":10370:10376   */\n      dup7\n        /* \"#utility.yul\":10366:10383   */\n      add\n        /* \"#utility.yul\":10303:10397   */\n      tag_163\n      jump\t// in\n    tag_310:\n        /* \"#utility.yul\":10294:10397   */\n      swap2\n      pop\n        /* \"#utility.yul\":10110:10403   */\n      pop\n        /* \"#utility.yul\":10033:10403   */\n      swap3\n      swap2\n      pop\n      pop\n      jump\t// out\n        /* \"#utility.yul\":10409:11414   */\n    tag_31:\n        /* \"#utility.yul\":10519:10525   */\n      0x00\n        /* \"#utility.yul\":10527:10533   */\n      dup1\n        /* \"#utility.yul\":10535:10541   */\n      0x00\n        /* \"#utility.yul\":10584:10586   */\n      0x60\n        /* \"#utility.yul\":10572:10581   */\n      dup5\n        /* \"#utility.yul\":10563:10570   */\n      dup7\n        /* \"#utility.yul\":10559:10582   */\n      sub\n        /* \"#utility.yul\":10555:10587   */\n      slt\n        /* \"#utility.yul\":10552:10671   */\n      iszero\n      tag_312\n      jumpi\n        /* \"#utility.yul\":10590:10669   */\n      tag_313\n      tag_126\n      jump\t// in\n    tag_313:\n        /* \"#utility.yul\":10552:10671   */\n    tag_312:\n        /* \"#utility.yul\":10710:10711   */\n      0x00\n        /* \"#utility.yul\":10735:10786   */\n      tag_314\n        /* \"#utility.yul\":10778:10785   */\n      dup7\n        /* \"#utility.yul\":10769:10775   */\n      dup3\n        /* \"#utility.yul\":10758:10767   */\n      dup8\n        /* \"#utility.yul\":10754:10776   */\n      add\n        /* \"#utility.yul\":10735:10786   */\n      tag_130\n      jump\t// in\n    tag_314:\n        /* \"#utility.yul\":10725:10786   */\n      swap4\n      pop\n        /* \"#utility.yul\":10681:10796   */\n      pop\n        /* \"#utility.yul\":10863:10865   */\n      0x20\n        /* \"#utility.yul\":10852:10861   */\n      dup5\n        /* \"#utility.yul\":10848:10866   */\n      add\n        /* \"#utility.yul\":10835:10867   */\n      calldataload\n        /* \"#utility.yul\":10894:10912   */\n      0xffffffffffffffff\n        /* \"#utility.yul\":10886:10892   */\n      dup2\n        /* \"#utility.yul\":10883:10913   */\n      gt\n        /* \"#utility.yul\":10880:10997   */\n      iszero\n      tag_315\n      jumpi\n        /* \"#utility.yul\":10916:10995   */\n      tag_316\n      tag_127\n      jump\t// in\n    tag_316:\n        /* \"#utility.yul\":10880:10997   */\n    tag_315:\n        /* \"#utility.yul\":11021:11084   */\n      tag_317\n        /* \"#utility.yul\":11076:11083   */\n      dup7\n        /* \"#utility.yul\":11067:11073   */\n      dup3\n        /* \"#utility.yul\":11056:11065   */\n      dup8\n        /* \"#utility.yul\":11052:11074   */\n      add\n        /* \"#utility.yul\":11021:11084   */\n      tag_160\n      jump\t// in\n    tag_317:\n        /* \"#utility.yul\":11011:11084   */\n      swap3\n      pop\n        /* \"#utility.yul\":10806:11094   */\n      pop\n        /* \"#utility.yul\":11161:11163   */\n      0x40\n        /* \"#utility.yul\":11150:11159   */\n      dup5\n        /* \"#utility.yul\":11146:11164   */\n      add\n        /* \"#utility.yul\":11133:11165   */\n      calldataload\n        /* \"#utility.yul\":11192:11210   */\n      0xffffffffffffffff\n        /* \"#utility.yul\":11184:11190   */\n      dup2\n        /* \"#utility.yul\":11181:11211   */\n      gt\n        /* \"#utility.yul\":11178:11295   */\n      iszero\n      tag_318\n      jumpi\n        /* \"#utility.yul\":11214:11293   */\n      tag_319\n      tag_127\n      jump\t// in\n    tag_319:\n        /* \"#utility.yul\":11178:11295   */\n    tag_318:\n        /* \"#utility.yul\":11319:11397   */\n      tag_320\n        /* \"#utility.yul\":11389:11396   */\n      dup7\n        /* \"#utility.yul\":11380:11386   */\n      dup3\n        /* \"#utility.yul\":11369:11378   */\n      dup8\n        /* \"#utility.yul\":11365:11387   */\n      add\n        /* \"#utility.yul\":11319:11397   */\n      tag_164\n      jump\t// in\n    tag_320:\n        /* \"#utility.yul\":11309:11397   */\n      swap2\n      pop\n        /* \"#utility.yul\":11104:11407   */\n      pop\n        /* \"#utility.yul\":10409:11414   */\n      swap3\n      pop\n      swap3\n      pop\n      swap3\n      jump\t// out\n        /* \"#utility.yul\":11420:12100   */\n    tag_35:\n        /* \"#utility.yul\":11511:11517   */\n      0x00\n        /* \"#utility.yul\":11519:11525   */\n      dup1\n        /* \"#utility.yul\":11568:11570   */\n      0x40\n        /* \"#utility.yul\":11556:11565   */\n      dup4\n        /* \"#utility.yul\":11547:11554   */\n      dup6\n        /* \"#utility.yul\":11543:11566   */\n      sub\n        /* \"#utility.yul\":11539:11571   */\n      slt\n        /* \"#utility.yul\":11536:11655   */\n      iszero\n      tag_322\n      jumpi\n        /* \"#utility.yul\":11574:11653   */\n      tag_323\n      tag_126\n      jump\t// in\n    tag_323:\n        /* \"#utility.yul\":11536:11655   */\n    tag_322:\n        /* \"#utility.yul\":11722:11723   */\n      0x00\n        /* \"#utility.yul\":11711:11720   */\n      dup4\n        /* \"#utility.yul\":11707:11724   */\n      add\n        /* \"#utility.yul\":11694:11725   */\n      calldataload\n        /* \"#utility.yul\":11752:11770   */\n      0xffffffffffffffff\n        /* \"#utility.yul\":11744:11750   */\n      dup2\n        /* \"#utility.yul\":11741:11771   */\n      gt\n        /* \"#utility.yul\":11738:11855   */\n      iszero\n      tag_324\n      jumpi\n        /* \"#utility.yul\":11774:11853   */\n      tag_325\n      tag_127\n      jump\t// in\n    tag_325:\n        /* \"#utility.yul\":11738:11855   */\n    tag_324:\n        /* \"#utility.yul\":11879:11957   */\n      tag_326\n        /* \"#utility.yul\":11949:11956   */\n      dup6\n        /* \"#utility.yul\":11940:11946   */\n      dup3\n        /* \"#utility.yul\":11929:11938   */\n      dup7\n        /* \"#utility.yul\":11925:11947   */\n      add\n        /* \"#utility.yul\":11879:11957   */\n      tag_164\n      jump\t// in\n    tag_326:\n        /* \"#utility.yul\":11869:11957   */\n      swap3\n      pop\n        /* \"#utility.yul\":11665:11967   */\n      pop\n        /* \"#utility.yul\":12006:12008   */\n      0x20\n        /* \"#utility.yul\":12032:12083   */\n      tag_327\n        /* \"#utility.yul\":12075:12082   */\n      dup6\n        /* \"#utility.yul\":12066:12072   */\n      dup3\n        /* \"#utility.yul\":12055:12064   */\n      dup7\n        /* \"#utility.yul\":12051:12073   */\n      add\n        /* \"#utility.yul\":12032:12083   */\n      tag_130\n      jump\t// in\n    tag_327:\n        /* \"#utility.yul\":12022:12083   */\n      swap2\n      pop\n        /* \"#utility.yul\":11977:12093   */\n      pop\n        /* \"#utility.yul\":11420:12100   */\n      swap3\n      pop\n      swap3\n      swap1\n      pop\n      jump\t// out\n        /* \"#utility.yul\":12106:12615   */\n    tag_40:\n        /* \"#utility.yul\":12175:12181   */\n      0x00\n        /* \"#utility.yul\":12224:12226   */\n      0x20\n        /* \"#utility.yul\":12212:12221   */\n      dup3\n        /* \"#utility.yul\":12203:12210   */\n      dup5\n        /* \"#utility.yul\":12199:12222   */\n      sub\n        /* \"#utility.yul\":12195:12227   */\n      slt\n        /* \"#utility.yul\":12192:12311   */\n      iszero\n      tag_329\n      jumpi\n        /* \"#utility.yul\":12230:12309   */\n      tag_330\n      tag_126\n      jump\t// in\n    tag_330:\n        /* \"#utility.yul\":12192:12311   */\n    tag_329:\n        /* \"#utility.yul\":12378:12379   */\n      0x00\n        /* \"#utility.yul\":12367:12376   */\n      dup3\n        /* \"#utility.yul\":12363:12380   */\n      add\n        /* \"#utility.yul\":12350:12381   */\n      calldataload\n        /* \"#utility.yul\":12408:12426   */\n      0xffffffffffffffff\n        /* \"#utility.yul\":12400:12406   */\n      dup2\n        /* \"#utility.yul\":12397:12427   */\n      gt\n        /* \"#utility.yul\":12394:12511   */\n      iszero\n      tag_331\n      jumpi\n        /* \"#utility.yul\":12430:12509   */\n      tag_332\n      tag_127\n      jump\t// in\n    tag_332:\n        /* \"#utility.yul\":12394:12511   */\n    tag_331:\n        /* \"#utility.yul\":12535:12598   */\n      tag_333\n        /* \"#utility.yul\":12590:12597   */\n      dup5\n        /* \"#utility.yul\":12581:12587   */\n      dup3\n        /* \"#utility.yul\":12570:12579   */\n      dup6\n        /* \"#utility.yul\":12566:12588   */\n      add\n        /* \"#utility.yul\":12535:12598   */\n      tag_160\n      jump\t// in\n    tag_333:\n        /* \"#utility.yul\":12525:12598   */\n      swap2\n      pop\n        /* \"#utility.yul\":12321:12608   */\n      pop\n        /* \"#utility.yul\":12106:12615   */\n      swap3\n      swap2\n      pop\n      pop\n      jump\t// out\n        /* \"#utility.yul\":12621:13485   */\n    tag_49:\n        /* \"#utility.yul\":12724:12730   */\n      0x00\n        /* \"#utility.yul\":12732:12738   */\n      dup1\n        /* \"#utility.yul\":12781:12783   */\n      0x40\n        /* \"#utility.yul\":12769:12778   */\n      dup4\n        /* \"#utility.yul\":12760:12767   */\n      dup6\n        /* \"#utility.yul\":12756:12779   */\n      sub\n        /* \"#utility.yul\":12752:12784   */\n      slt\n        /* \"#utility.yul\":12749:12868   */\n      iszero\n      tag_335\n      jumpi\n        /* \"#utility.yul\":12787:12866   */\n      tag_336\n      tag_126\n      jump\t// in\n    tag_336:\n        /* \"#utility.yul\":12749:12868   */\n    tag_335:\n        /* \"#utility.yul\":12935:12936   */\n      0x00\n        /* \"#utility.yul\":12924:12933   */\n      dup4\n        /* \"#utility.yul\":12920:12937   */\n      add\n        /* \"#utility.yul\":12907:12938   */\n      calldataload\n        /* \"#utility.yul\":12965:12983   */\n      0xffffffffffffffff\n        /* \"#utility.yul\":12957:12963   */\n      dup2\n        /* \"#utility.yul\":12954:12984   */\n      gt\n        /* \"#utility.yul\":12951:13068   */\n      iszero\n      tag_337\n      jumpi\n        /* \"#utility.yul\":12987:13066   */\n      tag_338\n      tag_127\n      jump\t// in\n    tag_338:\n        /* \"#utility.yul\":12951:13068   */\n    tag_337:\n        /* \"#utility.yul\":13092:13155   */\n      tag_339\n        /* \"#utility.yul\":13147:13154   */\n      dup6\n        /* \"#utility.yul\":13138:13144   */\n      dup3\n        /* \"#utility.yul\":13127:13136   */\n      dup7\n        /* \"#utility.yul\":13123:13145   */\n      add\n        /* \"#utility.yul\":13092:13155   */\n      tag_160\n      jump\t// in\n    tag_339:\n        /* \"#utility.yul\":13082:13155   */\n      swap3\n      pop\n        /* \"#utility.yul\":12878:13165   */\n      pop\n        /* \"#utility.yul\":13232:13234   */\n      0x20\n        /* \"#utility.yul\":13221:13230   */\n      dup4\n        /* \"#utility.yul\":13217:13235   */\n      add\n        /* \"#utility.yul\":13204:13236   */\n      calldataload\n        /* \"#utility.yul\":13263:13281   */\n      0xffffffffffffffff\n        /* \"#utility.yul\":13255:13261   */\n      dup2\n        /* \"#utility.yul\":13252:13282   */\n      gt\n        /* \"#utility.yul\":13249:13366   */\n      iszero\n      tag_340\n      jumpi\n        /* \"#utility.yul\":13285:13364   */\n      tag_341\n      tag_127\n      jump\t// in\n    tag_341:\n        /* \"#utility.yul\":13249:13366   */\n    tag_340:\n        /* \"#utility.yul\":13390:13468   */\n      tag_342\n        /* \"#utility.yul\":13460:13467   */\n      dup6\n        /* \"#utility.yul\":13451:13457   */\n      dup3\n        /* \"#utility.yul\":13440:13449   */\n      dup7\n        /* \"#utility.yul\":13436:13458   */\n      add\n        /* \"#utility.yul\":13390:13468   */\n      tag_164\n      jump\t// in\n    tag_342:\n        /* \"#utility.yul\":13380:13468   */\n      swap2\n      pop\n        /* \"#utility.yul\":13175:13478   */\n      pop\n        /* \"#utility.yul\":12621:13485   */\n      swap3\n      pop\n      swap3\n      swap1\n      pop\n      jump\t// out\n        /* \"#utility.yul\":13491:13671   */\n    tag_165:\n        /* \"#utility.yul\":13539:13616   */\n      0x4e487b7100000000000000000000000000000000000000000000000000000000\n        /* \"#utility.yul\":13536:13537   */\n      0x00\n        /* \"#utility.yul\":13529:13617   */\n      mstore\n        /* \"#utility.yul\":13636:13640   */\n      0x22\n        /* \"#utility.yul\":13633:13634   */\n      0x04\n        /* \"#utility.yul\":13626:13641   */\n      mstore\n        /* \"#utility.yul\":13660:13664   */\n      0x24\n        /* \"#utility.yul\":13657:13658   */\n      0x00\n        /* \"#utility.yul\":13650:13665   */\n      revert\n        /* \"#utility.yul\":13677:13997   */\n    tag_56:\n        /* \"#utility.yul\":13721:13727   */\n      0x00\n        /* \"#utility.yul\":13758:13759   */\n      0x02\n        /* \"#utility.yul\":13752:13756   */\n      dup3\n        /* \"#utility.yul\":13748:13760   */\n      div\n        /* \"#utility.yul\":13738:13760   */\n      swap1\n      pop\n        /* \"#utility.yul\":13805:13806   */\n      0x01\n        /* \"#utility.yul\":13799:13803   */\n      dup3\n        /* \"#utility.yul\":13795:13807   */\n      and\n        /* \"#utility.yul\":13826:13844   */\n      dup1\n        /* \"#utility.yul\":13816:13897   */\n      tag_345\n      jumpi\n        /* \"#utility.yul\":13882:13886   */\n      0x7f\n        /* \"#utility.yul\":13874:13880   */\n      dup3\n        /* \"#utility.yul\":13870:13887   */\n      and\n        /* \"#utility.yul\":13860:13887   */\n      swap2\n      pop\n        /* \"#utility.yul\":13816:13897   */\n    tag_345:\n        /* \"#utility.yul\":13944:13946   */\n      0x20\n        /* \"#utility.yul\":13936:13942   */\n      dup3\n        /* \"#utility.yul\":13933:13947   */\n      lt\n        /* \"#utility.yul\":13913:13931   */\n      dup2\n        /* \"#utility.yul\":13910:13948   */\n      sub\n        /* \"#utility.yul\":13907:13991   */\n      tag_346\n      jumpi\n        /* \"#utility.yul\":13963:13981   */\n      tag_347\n      tag_165\n      jump\t// in\n    tag_347:\n        /* \"#utility.yul\":13907:13991   */\n    tag_346:\n        /* \"#utility.yul\":13728:13997   */\n      pop\n        /* \"#utility.yul\":13677:13997   */\n      swap2\n      swap1\n      pop\n      jump\t// out\n        /* \"#utility.yul\":14003:14172   */\n    tag_166:\n        /* \"#utility.yul\":14087:14098   */\n      0x00\n        /* \"#utility.yul\":14121:14127   */\n      dup3\n        /* \"#utility.yul\":14116:14119   */\n      dup3\n        /* \"#utility.yul\":14109:14128   */\n      mstore\n        /* \"#utility.yul\":14161:14165   */\n      0x20\n        /* \"#utility.yul\":14156:14159   */\n      dup3\n        /* \"#utility.yul\":14152:14166   */\n      add\n        /* \"#utility.yul\":14137:14166   */\n      swap1\n      pop\n        /* \"#utility.yul\":14003:14172   */\n      swap3\n      swap2\n      pop\n      pop\n      jump\t// out\n        /* \"#utility.yul\":14178:14347   */\n    tag_167:\n        /* \"#utility.yul\":14318:14339   */\n      0x496e76616c69642070726f6a6563742069642e00000000000000000000000000\n        /* \"#utility.yul\":14314:14315   */\n      0x00\n        /* \"#utility.yul\":14306:14312   */\n      dup3\n        /* \"#utility.yul\":14302:14316   */\n      add\n        /* \"#utility.yul\":14295:14340   */\n      mstore\n        /* \"#utility.yul\":14178:14347   */\n      pop\n      jump\t// out\n        /* \"#utility.yul\":14353:14719   */\n    tag_168:\n        /* \"#utility.yul\":14495:14498   */\n      0x00\n        /* \"#utility.yul\":14516:14583   */\n      tag_351\n        /* \"#utility.yul\":14580:14582   */\n      0x13\n        /* \"#utility.yul\":14575:14578   */\n      dup4\n        /* \"#utility.yul\":14516:14583   */\n      tag_166\n      jump\t// in\n    tag_351:\n        /* \"#utility.yul\":14509:14583   */\n      swap2\n      pop\n        /* \"#utility.yul\":14592:14685   */\n      tag_352\n        /* \"#utility.yul\":14681:14684   */\n      dup3\n        /* \"#utility.yul\":14592:14685   */\n      tag_167\n      jump\t// in\n    tag_352:\n        /* \"#utility.yul\":14710:14712   */\n      0x20\n        /* \"#utility.yul\":14705:14708   */\n      dup3\n        /* \"#utility.yul\":14701:14713   */\n      add\n        /* \"#utility.yul\":14694:14713   */\n      swap1\n      pop\n        /* \"#utility.yul\":14353:14719   */\n      swap2\n      swap1\n      pop\n      jump\t// out\n        /* \"#utility.yul\":14725:15144   */\n    tag_67:\n        /* \"#utility.yul\":14891:14895   */\n      0x00\n        /* \"#utility.yul\":14929:14931   */\n      0x20\n        /* \"#utility.yul\":14918:14927   */\n      dup3\n        /* \"#utility.yul\":14914:14932   */\n      add\n        /* \"#utility.yul\":14906:14932   */\n      swap1\n      pop\n        /* \"#utility.yul\":14978:14987   */\n      dup2\n        /* \"#utility.yul\":14972:14976   */\n      dup2\n        /* \"#utility.yul\":14968:14988   */\n      sub\n        /* \"#utility.yul\":14964:14965   */\n      0x00\n        /* \"#utility.yul\":14953:14962   */\n      dup4\n        /* \"#utility.yul\":14949:14966   */\n      add\n        /* \"#utility.yul\":14942:14989   */\n      mstore\n        /* \"#utility.yul\":15006:15137   */\n      tag_354\n        /* \"#utility.yul\":15132:15136   */\n      dup2\n        /* \"#utility.yul\":15006:15137   */\n      tag_168\n      jump\t// in\n    tag_354:\n        /* \"#utility.yul\":14998:15137   */\n      swap1\n      pop\n        /* \"#utility.yul\":14725:15144   */\n      swap2\n      swap1\n      pop\n      jump\t// out\n        /* \"#utility.yul\":15150:15323   */\n    tag_169:\n        /* \"#utility.yul\":15290:15315   */\n      0x596f75206861766520616c726561647920766f7465642e000000000000000000\n        /* \"#utility.yul\":15286:15287   */\n      0x00\n        /* \"#utility.yul\":15278:15284   */\n      dup3\n        /* \"#utility.yul\":15274:15288   */\n      add\n        /* \"#utility.yul\":15267:15316   */\n      mstore\n        /* \"#utility.yul\":15150:15323   */\n      pop\n      jump\t// out\n        /* \"#utility.yul\":15329:15695   */\n    tag_170:\n        /* \"#utility.yul\":15471:15474   */\n      0x00\n        /* \"#utility.yul\":15492:15559   */\n      tag_357\n        /* \"#utility.yul\":15556:15558   */\n      0x17\n        /* \"#utility.yul\":15551:15554   */\n      dup4\n        /* \"#utility.yul\":15492:15559   */\n      tag_166\n      jump\t// in\n    tag_357:\n        /* \"#utility.yul\":15485:15559   */\n      swap2\n      pop\n        /* \"#utility.yul\":15568:15661   */\n      tag_358\n        /* \"#utility.yul\":15657:15660   */\n      dup3\n        /* \"#utility.yul\":15568:15661   */\n      tag_169\n      jump\t// in\n    tag_358:\n        /* \"#utility.yul\":15686:15688   */\n      0x20\n        /* \"#utility.yul\":15681:15684   */\n      dup3\n        /* \"#utility.yul\":15677:15689   */\n      add\n        /* \"#utility.yul\":15670:15689   */\n      swap1\n      pop\n        /* \"#utility.yul\":15329:15695   */\n      swap2\n      swap1\n      pop\n      jump\t// out\n        /* \"#utility.yul\":15701:16120   */\n    tag_71:\n        /* \"#utility.yul\":15867:15871   */\n      0x00\n        /* \"#utility.yul\":15905:15907   */\n      0x20\n        /* \"#utility.yul\":15894:15903   */\n      dup3\n        /* \"#utility.yul\":15890:15908   */\n      add\n        /* \"#utility.yul\":15882:15908   */\n      swap1\n      pop\n        /* \"#utility.yul\":15954:15963   */\n      dup2\n        /* \"#utility.yul\":15948:15952   */\n      dup2\n        /* \"#utility.yul\":15944:15964   */\n      sub\n        /* \"#utility.yul\":15940:15941   */\n      0x00\n        /* \"#utility.yul\":15929:15938   */\n      dup4\n        /* \"#utility.yul\":15925:15942   */\n      add\n        /* \"#utility.yul\":15918:15965   */\n      mstore\n        /* \"#utility.yul\":15982:16113   */\n      tag_360\n        /* \"#utility.yul\":16108:16112   */\n      dup2\n        /* \"#utility.yul\":15982:16113   */\n      tag_170\n      jump\t// in\n    tag_360:\n        /* \"#utility.yul\":15974:16113   */\n      swap1\n      pop\n        /* \"#utility.yul\":15701:16120   */\n      swap2\n      swap1\n      pop\n      jump\t// out\n        /* \"#utility.yul\":16126:16304   */\n    tag_171:\n        /* \"#utility.yul\":16266:16296   */\n      0x596f752063616e206e6f7420766f746520796f75722067726f75702e00000000\n        /* \"#utility.yul\":16262:16263   */\n      0x00\n        /* \"#utility.yul\":16254:16260   */\n      dup3\n        /* \"#utility.yul\":16250:16264   */\n      add\n        /* \"#utility.yul\":16243:16297   */\n      mstore\n        /* \"#utility.yul\":16126:16304   */\n      pop\n      jump\t// out\n        /* \"#utility.yul\":16310:16676   */\n    tag_172:\n        /* \"#utility.yul\":16452:16455   */\n      0x00\n        /* \"#utility.yul\":16473:16540   */\n      tag_363\n        /* \"#utility.yul\":16537:16539   */\n      0x1c\n        /* \"#utility.yul\":16532:16535   */\n      dup4\n        /* \"#utility.yul\":16473:16540   */\n      tag_166\n      jump\t// in\n    tag_363:\n        /* \"#utility.yul\":16466:16540   */\n      swap2\n      pop\n        /* \"#utility.yul\":16549:16642   */\n      tag_364\n        /* \"#utility.yul\":16638:16641   */\n      dup3\n        /* \"#utility.yul\":16549:16642   */\n      tag_171\n      jump\t// in\n    tag_364:\n        /* \"#utility.yul\":16667:16669   */\n      0x20\n        /* \"#utility.yul\":16662:16665   */\n      dup3\n        /* \"#utility.yul\":16658:16670   */\n      add\n        /* \"#utility.yul\":16651:16670   */\n      swap1\n      pop\n        /* \"#utility.yul\":16310:16676   */\n      swap2\n      swap1\n      pop\n      jump\t// out\n        /* \"#utility.yul\":16682:17101   */\n    tag_74:\n        /* \"#utility.yul\":16848:16852   */\n      0x00\n        /* \"#utility.yul\":16886:16888   */\n      0x20\n        /* \"#utility.yul\":16875:16884   */\n      dup3\n        /* \"#utility.yul\":16871:16889   */\n      add\n        /* \"#utility.yul\":16863:16889   */\n      swap1\n      pop\n        /* \"#utility.yul\":16935:16944   */\n      dup2\n        /* \"#utility.yul\":16929:16933   */\n      dup2\n        /* \"#utility.yul\":16925:16945   */\n      sub\n        /* \"#utility.yul\":16921:16922   */\n      0x00\n        /* \"#utility.yul\":16910:16919   */\n      dup4\n        /* \"#utility.yul\":16906:16923   */\n      add\n        /* \"#utility.yul\":16899:16946   */\n      mstore\n        /* \"#utility.yul\":16963:17094   */\n      tag_366\n        /* \"#utility.yul\":17089:17093   */\n      dup2\n        /* \"#utility.yul\":16963:17094   */\n      tag_172\n      jump\t// in\n    tag_366:\n        /* \"#utility.yul\":16955:17094   */\n      swap1\n      pop\n        /* \"#utility.yul\":16682:17101   */\n      swap2\n      swap1\n      pop\n      jump\t// out\n        /* \"#utility.yul\":17107:17287   */\n    tag_173:\n        /* \"#utility.yul\":17155:17232   */\n      0x4e487b7100000000000000000000000000000000000000000000000000000000\n        /* \"#utility.yul\":17152:17153   */\n      0x00\n        /* \"#utility.yul\":17145:17233   */\n      mstore\n        /* \"#utility.yul\":17252:17256   */\n      0x11\n        /* \"#utility.yul\":17249:17250   */\n      0x04\n        /* \"#utility.yul\":17242:17257   */\n      mstore\n        /* \"#utility.yul\":17276:17280   */\n      0x24\n        /* \"#utility.yul\":17273:17274   */\n      0x00\n        /* \"#utility.yul\":17266:17281   */\n      revert\n        /* \"#utility.yul\":17293:17460   */\n    tag_76:\n        /* \"#utility.yul\":17330:17333   */\n      0x00\n        /* \"#utility.yul\":17353:17375   */\n      tag_369\n        /* \"#utility.yul\":17369:17374   */\n      dup3\n        /* \"#utility.yul\":17353:17375   */\n      tag_128\n      jump\t// in\n    tag_369:\n        /* \"#utility.yul\":17344:17375   */\n      swap2\n      pop\n        /* \"#utility.yul\":17397:17401   */\n      0xff\n        /* \"#utility.yul\":17390:17395   */\n      dup3\n        /* \"#utility.yul\":17387:17402   */\n      sub\n        /* \"#utility.yul\":17384:17425   */\n      tag_370\n      jumpi\n        /* \"#utility.yul\":17405:17423   */\n      tag_371\n      tag_173\n      jump\t// in\n    tag_371:\n        /* \"#utility.yul\":17384:17425   */\n    tag_370:\n        /* \"#utility.yul\":17452:17453   */\n      0x01\n        /* \"#utility.yul\":17445:17450   */\n      dup3\n        /* \"#utility.yul\":17441:17454   */\n      add\n        /* \"#utility.yul\":17434:17454   */\n      swap1\n      pop\n        /* \"#utility.yul\":17293:17460   */\n      swap2\n      swap1\n      pop\n      jump\t// out\n        /* \"#utility.yul\":17466:17696   */\n    tag_174:\n        /* \"#utility.yul\":17606:17640   */\n      0x596f752063616e206e6f74206368616e676520616e6f746865722070726f6a65\n        /* \"#utility.yul\":17602:17603   */\n      0x00\n        /* \"#utility.yul\":17594:17600   */\n      dup3\n        /* \"#utility.yul\":17590:17604   */\n      add\n        /* \"#utility.yul\":17583:17641   */\n      mstore\n        /* \"#utility.yul\":17675:17688   */\n      0x63742064657461696c732e000000000000000000000000000000000000000000\n        /* \"#utility.yul\":17670:17672   */\n      0x20\n        /* \"#utility.yul\":17662:17668   */\n      dup3\n        /* \"#utility.yul\":17658:17673   */\n      add\n        /* \"#utility.yul\":17651:17689   */\n      mstore\n        /* \"#utility.yul\":17466:17696   */\n      pop\n      jump\t// out\n        /* \"#utility.yul\":17702:18068   */\n    tag_175:\n        /* \"#utility.yul\":17844:17847   */\n      0x00\n        /* \"#utility.yul\":17865:17932   */\n      tag_374\n        /* \"#utility.yul\":17929:17931   */\n      0x2b\n        /* \"#utility.yul\":17924:17927   */\n      dup4\n        /* \"#utility.yul\":17865:17932   */\n      tag_166\n      jump\t// in\n    tag_374:\n        /* \"#utility.yul\":17858:17932   */\n      swap2\n      pop\n        /* \"#utility.yul\":17941:18034   */\n      tag_375\n        /* \"#utility.yul\":18030:18033   */\n      dup3\n        /* \"#utility.yul\":17941:18034   */\n      tag_174\n      jump\t// in\n    tag_375:\n        /* \"#utility.yul\":18059:18061   */\n      0x40\n        /* \"#utility.yul\":18054:18057   */\n      dup3\n        /* \"#utility.yul\":18050:18062   */\n      add\n        /* \"#utility.yul\":18043:18062   */\n      swap1\n      pop\n        /* \"#utility.yul\":17702:18068   */\n      swap2\n      swap1\n      pop\n      jump\t// out\n        /* \"#utility.yul\":18074:18493   */\n    tag_81:\n        /* \"#utility.yul\":18240:18244   */\n      0x00\n        /* \"#utility.yul\":18278:18280   */\n      0x20\n        /* \"#utility.yul\":18267:18276   */\n      dup3\n        /* \"#utility.yul\":18263:18281   */\n      add\n        /* \"#utility.yul\":18255:18281   */\n      swap1\n      pop\n        /* \"#utility.yul\":18327:18336   */\n      dup2\n        /* \"#utility.yul\":18321:18325   */\n      dup2\n        /* \"#utility.yul\":18317:18337   */\n      sub\n        /* \"#utility.yul\":18313:18314   */\n      0x00\n        /* \"#utility.yul\":18302:18311   */\n      dup4\n        /* \"#utility.yul\":18298:18315   */\n      add\n        /* \"#utility.yul\":18291:18338   */\n      mstore\n        /* \"#utility.yul\":18355:18486   */\n      tag_377\n        /* \"#utility.yul\":18481:18485   */\n      dup2\n        /* \"#utility.yul\":18355:18486   */\n      tag_175\n      jump\t// in\n    tag_377:\n        /* \"#utility.yul\":18347:18486   */\n      swap1\n      pop\n        /* \"#utility.yul\":18074:18493   */\n      swap2\n      swap1\n      pop\n      jump\t// out\n        /* \"#utility.yul\":18499:18640   */\n    tag_176:\n        /* \"#utility.yul\":18548:18552   */\n      0x00\n        /* \"#utility.yul\":18571:18574   */\n      dup2\n        /* \"#utility.yul\":18563:18574   */\n      swap1\n      pop\n        /* \"#utility.yul\":18594:18597   */\n      dup2\n        /* \"#utility.yul\":18591:18592   */\n      0x00\n        /* \"#utility.yul\":18584:18598   */\n      mstore\n        /* \"#utility.yul\":18628:18632   */\n      0x20\n        /* \"#utility.yul\":18625:18626   */\n      0x00\n        /* \"#utility.yul\":18615:18633   */\n      keccak256\n        /* \"#utility.yul\":18607:18633   */\n      swap1\n      pop\n        /* \"#utility.yul\":18499:18640   */\n      swap2\n      swap1\n      pop\n      jump\t// out\n        /* \"#utility.yul\":18646:18739   */\n    tag_177:\n        /* \"#utility.yul\":18683:18689   */\n      0x00\n        /* \"#utility.yul\":18730:18732   */\n      0x20\n        /* \"#utility.yul\":18725:18727   */\n      0x1f\n        /* \"#utility.yul\":18718:18723   */\n      dup4\n        /* \"#utility.yul\":18714:18728   */\n      add\n        /* \"#utility.yul\":18710:18733   */\n      div\n        /* \"#utility.yul\":18700:18733   */\n      swap1\n      pop\n        /* \"#utility.yul\":18646:18739   */\n      swap2\n      swap1\n      pop\n      jump\t// out\n        /* \"#utility.yul\":18745:18852   */\n    tag_178:\n        /* \"#utility.yul\":18789:18797   */\n      0x00\n        /* \"#utility.yul\":18839:18844   */\n      dup3\n        /* \"#utility.yul\":18833:18837   */\n      dup3\n        /* \"#utility.yul\":18829:18845   */\n      shl\n        /* \"#utility.yul\":18808:18845   */\n      swap1\n      pop\n        /* \"#utility.yul\":18745:18852   */\n      swap3\n      swap2\n      pop\n      pop\n      jump\t// out\n        /* \"#utility.yul\":18858:19251   */\n    tag_179:\n        /* \"#utility.yul\":18927:18933   */\n      0x00\n        /* \"#utility.yul\":18977:18978   */\n      0x08\n        /* \"#utility.yul\":18965:18975   */\n      dup4\n        /* \"#utility.yul\":18961:18979   */\n      mul\n        /* \"#utility.yul\":19000:19097   */\n      tag_382\n        /* \"#utility.yul\":19030:19096   */\n      0xffffffffffffffffffffffffffffffffffffffffffffffffffffffffffffffff\n        /* \"#utility.yul\":19019:19028   */\n      dup3\n        /* \"#utility.yul\":19000:19097   */\n      tag_178\n      jump\t// in\n    tag_382:\n        /* \"#utility.yul\":19118:19157   */\n      tag_383\n        /* \"#utility.yul\":19148:19156   */\n      dup7\n        /* \"#utility.yul\":19137:19146   */\n      dup4\n        /* \"#utility.yul\":19118:19157   */\n      tag_178\n      jump\t// in\n    tag_383:\n        /* \"#utility.yul\":19106:19157   */\n      swap6\n      pop\n        /* \"#utility.yul\":19190:19194   */\n      dup1\n        /* \"#utility.yul\":19186:19195   */\n      not\n        /* \"#utility.yul\":19179:19184   */\n      dup5\n        /* \"#utility.yul\":19175:19196   */\n      and\n        /* \"#utility.yul\":19166:19196   */\n      swap4\n      pop\n        /* \"#utility.yul\":19239:19243   */\n      dup1\n        /* \"#utility.yul\":19229:19237   */\n      dup7\n        /* \"#utility.yul\":19225:19244   */\n      and\n        /* \"#utility.yul\":19218:19223   */\n      dup5\n        /* \"#utility.yul\":19215:19245   */\n      or\n        /* \"#utility.yul\":19205:19245   */\n      swap3\n      pop\n        /* \"#utility.yul\":18934:19251   */\n      pop\n      pop\n        /* \"#utility.yul\":18858:19251   */\n      swap4\n      swap3\n      pop\n      pop\n      pop\n      jump\t// out\n        /* \"#utility.yul\":19257:19334   */\n    tag_180:\n        /* \"#utility.yul\":19294:19301   */\n      0x00\n        /* \"#utility.yul\":19323:19328   */\n      dup2\n        /* \"#utility.yul\":19312:19328   */\n      swap1\n      pop\n        /* \"#utility.yul\":19257:19334   */\n      swap2\n      swap1\n      pop\n      jump\t// out\n        /* \"#utility.yul\":19340:19400   */\n    tag_181:\n        /* \"#utility.yul\":19368:19371   */\n      0x00\n        /* \"#utility.yul\":19389:19394   */\n      dup2\n        /* \"#utility.yul\":19382:19394   */\n      swap1\n      pop\n        /* \"#utility.yul\":19340:19400   */\n      swap2\n      swap1\n      pop\n      jump\t// out\n        /* \"#utility.yul\":19406:19548   */\n    tag_182:\n        /* \"#utility.yul\":19456:19465   */\n      0x00\n        /* \"#utility.yul\":19489:19542   */\n      tag_387\n        /* \"#utility.yul\":19507:19541   */\n      tag_388\n        /* \"#utility.yul\":19516:19540   */\n      tag_389\n        /* \"#utility.yul\":19534:19539   */\n      dup5\n        /* \"#utility.yul\":19516:19540   */\n      tag_180\n      jump\t// in\n    tag_389:\n        /* \"#utility.yul\":19507:19541   */\n      tag_181\n      jump\t// in\n    tag_388:\n        /* \"#utility.yul\":19489:19542   */\n      tag_180\n      jump\t// in\n    tag_387:\n        /* \"#utility.yul\":19476:19542   */\n      swap1\n      pop\n        /* \"#utility.yul\":19406:19548   */\n      swap2\n      swap1\n      pop\n      jump\t// out\n        /* \"#utility.yul\":19554:19629   */\n    tag_183:\n        /* \"#utility.yul\":19597:19600   */\n      0x00\n        /* \"#utility.yul\":19618:19623   */\n      dup2\n        /* \"#utility.yul\":19611:19623   */\n      swap1\n      pop\n        /* \"#utility.yul\":19554:19629   */\n      swap2\n      swap1\n      pop\n      jump\t// out\n        /* \"#utility.yul\":19635:19904   */\n    tag_184:\n        /* \"#utility.yul\":19745:19784   */\n      tag_392\n        /* \"#utility.yul\":19776:19783   */\n      dup4\n        /* \"#utility.yul\":19745:19784   */\n      tag_182\n      jump\t// in\n    tag_392:\n        /* \"#utility.yul\":19806:19897   */\n      tag_393\n        /* \"#utility.yul\":19855:19896   */\n      tag_394\n        /* \"#utility.yul\":19879:19895   */\n      dup3\n        /* \"#utility.yul\":19855:19896   */\n      tag_183\n      jump\t// in\n    tag_394:\n        /* \"#utility.yul\":19847:19853   */\n      dup5\n        /* \"#utility.yul\":19840:19844   */\n      dup5\n        /* \"#utility.yul\":19834:19845   */\n      sload\n        /* \"#utility.yul\":19806:19897   */\n      tag_179\n      jump\t// in\n    tag_393:\n        /* \"#utility.yul\":19800:19804   */\n      dup3\n        /* \"#utility.yul\":19793:19898   */\n      sstore\n        /* \"#utility.yul\":19711:19904   */\n      pop\n        /* \"#utility.yul\":19635:19904   */\n      pop\n      pop\n      pop\n      jump\t// out\n        /* \"#utility.yul\":19910:19983   */\n    tag_185:\n        /* \"#utility.yul\":19955:19958   */\n      0x00\n        /* \"#utility.yul\":19910:19983   */\n      swap1\n      jump\t// out\n        /* \"#utility.yul\":19989:20178   */\n    tag_186:\n        /* \"#utility.yul\":20066:20098   */\n      tag_397\n      tag_185\n      jump\t// in\n    tag_397:\n        /* \"#utility.yul\":20107:20172   */\n      tag_398\n        /* \"#utility.yul\":20165:20171   */\n      dup2\n        /* \"#utility.yul\":20157:20163   */\n      dup5\n        /* \"#utility.yul\":20151:20155   */\n      dup5\n        /* \"#utility.yul\":20107:20172   */\n      tag_184\n      jump\t// in\n    tag_398:\n        /* \"#utility.yul\":20042:20178   */\n      pop\n        /* \"#utility.yul\":19989:20178   */\n      pop\n      pop\n      jump\t// out\n        /* \"#utility.yul\":20184:20370   */\n    tag_187:\n        /* \"#utility.yul\":20244:20364   */\n    tag_400:\n        /* \"#utility.yul\":20261:20264   */\n      dup2\n        /* \"#utility.yul\":20254:20259   */\n      dup2\n        /* \"#utility.yul\":20251:20265   */\n      lt\n        /* \"#utility.yul\":20244:20364   */\n      iszero\n      tag_402\n      jumpi\n        /* \"#utility.yul\":20315:20354   */\n      tag_403\n        /* \"#utility.yul\":20352:20353   */\n      0x00\n        /* \"#utility.yul\":20345:20350   */\n      dup3\n        /* \"#utility.yul\":20315:20354   */\n      tag_186\n      jump\t// in\n    tag_403:\n        /* \"#utility.yul\":20288:20289   */\n      0x01\n        /* \"#utility.yul\":20281:20286   */\n      dup2\n        /* \"#utility.yul\":20277:20290   */\n      add\n        /* \"#utility.yul\":20268:20290   */\n      swap1\n      pop\n        /* \"#utility.yul\":20244:20364   */\n      jump(tag_400)\n    tag_402:\n        /* \"#utility.yul\":20184:20370   */\n      pop\n      pop\n      jump\t// out\n        /* \"#utility.yul\":20376:20919   */\n    tag_188:\n        /* \"#utility.yul\":20477:20479   */\n      0x1f\n        /* \"#utility.yul\":20472:20475   */\n      dup3\n        /* \"#utility.yul\":20469:20480   */\n      gt\n        /* \"#utility.yul\":20466:20912   */\n      iszero\n      tag_405\n      jumpi\n        /* \"#utility.yul\":20511:20549   */\n      tag_406\n        /* \"#utility.yul\":20543:20548   */\n      dup2\n        /* \"#utility.yul\":20511:20549   */\n      tag_176\n      jump\t// in\n    tag_406:\n        /* \"#utility.yul\":20595:20624   */\n      tag_407\n        /* \"#utility.yul\":20613:20623   */\n      dup5\n        /* \"#utility.yul\":20595:20624   */\n      tag_177\n      jump\t// in\n    tag_407:\n        /* \"#utility.yul\":20585:20593   */\n      dup2\n        /* \"#utility.yul\":20581:20625   */\n      add\n        /* \"#utility.yul\":20778:20780   */\n      0x20\n        /* \"#utility.yul\":20766:20776   */\n      dup6\n        /* \"#utility.yul\":20763:20781   */\n      lt\n        /* \"#utility.yul\":20760:20809   */\n      iszero\n      tag_408\n      jumpi\n        /* \"#utility.yul\":20799:20807   */\n      dup2\n        /* \"#utility.yul\":20784:20807   */\n      swap1\n      pop\n        /* \"#utility.yul\":20760:20809   */\n    tag_408:\n        /* \"#utility.yul\":20822:20902   */\n      tag_409\n        /* \"#utility.yul\":20878:20900   */\n      tag_410\n        /* \"#utility.yul\":20896:20899   */\n      dup6\n        /* \"#utility.yul\":20878:20900   */\n      tag_177\n      jump\t// in\n    tag_410:\n        /* \"#utility.yul\":20868:20876   */\n      dup4\n        /* \"#utility.yul\":20864:20901   */\n      add\n        /* \"#utility.yul\":20851:20862   */\n      dup3\n        /* \"#utility.yul\":20822:20902   */\n      tag_187\n      jump\t// in\n    tag_409:\n        /* \"#utility.yul\":20481:20912   */\n      pop\n      pop\n        /* \"#utility.yul\":20466:20912   */\n    tag_405:\n        /* \"#utility.yul\":20376:20919   */\n      pop\n      pop\n      pop\n      jump\t// out\n        /* \"#utility.yul\":20925:21042   */\n    tag_189:\n        /* \"#utility.yul\":20979:20987   */\n      0x00\n        /* \"#utility.yul\":21029:21034   */\n      dup3\n        /* \"#utility.yul\":21023:21027   */\n      dup3\n        /* \"#utility.yul\":21019:21035   */\n      shr\n        /* \"#utility.yul\":20998:21035   */\n      swap1\n      pop\n        /* \"#utility.yul\":20925:21042   */\n      swap3\n      swap2\n      pop\n      pop\n      jump\t// out\n        /* \"#utility.yul\":21048:21217   */\n    tag_190:\n        /* \"#utility.yul\":21092:21098   */\n      0x00\n        /* \"#utility.yul\":21125:21176   */\n      tag_413\n        /* \"#utility.yul\":21173:21174   */\n      0x00\n        /* \"#utility.yul\":21169:21175   */\n      not\n        /* \"#utility.yul\":21161:21166   */\n      dup5\n        /* \"#utility.yul\":21158:21159   */\n      0x08\n        /* \"#utility.yul\":21154:21167   */\n      mul\n        /* \"#utility.yul\":21125:21176   */\n      tag_189\n      jump\t// in\n    tag_413:\n        /* \"#utility.yul\":21121:21177   */\n      not\n        /* \"#utility.yul\":21206:21210   */\n      dup1\n        /* \"#utility.yul\":21200:21204   */\n      dup4\n        /* \"#utility.yul\":21196:21211   */\n      and\n        /* \"#utility.yul\":21186:21211   */\n      swap2\n      pop\n        /* \"#utility.yul\":21099:21217   */\n      pop\n        /* \"#utility.yul\":21048:21217   */\n      swap3\n      swap2\n      pop\n      pop\n      jump\t// out\n        /* \"#utility.yul\":21222:21517   */\n    tag_191:\n        /* \"#utility.yul\":21298:21302   */\n      0x00\n        /* \"#utility.yul\":21444:21473   */\n      tag_415\n        /* \"#utility.yul\":21469:21472   */\n      dup4\n        /* \"#utility.yul\":21463:21467   */\n      dup4\n        /* \"#utility.yul\":21444:21473   */\n      tag_190\n      jump\t// in\n    tag_415:\n        /* \"#utility.yul\":21436:21473   */\n      swap2\n      pop\n        /* \"#utility.yul\":21506:21509   */\n      dup3\n        /* \"#utility.yul\":21503:21504   */\n      0x02\n        /* \"#utility.yul\":21499:21510   */\n      mul\n        /* \"#utility.yul\":21493:21497   */\n      dup3\n        /* \"#utility.yul\":21490:21511   */\n      or\n        /* \"#utility.yul\":21482:21511   */\n      swap1\n      pop\n        /* \"#utility.yul\":21222:21517   */\n      swap3\n      swap2\n      pop\n      pop\n      jump\t// out\n        /* \"#utility.yul\":21522:22917   */\n    tag_83:\n        /* \"#utility.yul\":21639:21676   */\n      tag_417\n        /* \"#utility.yul\":21672:21675   */\n      dup3\n        /* \"#utility.yul\":21639:21676   */\n      tag_132\n      jump\t// in\n    tag_417:\n        /* \"#utility.yul\":21741:21759   */\n      0xffffffffffffffff\n        /* \"#utility.yul\":21733:21739   */\n      dup2\n        /* \"#utility.yul\":21730:21760   */\n      gt\n        /* \"#utility.yul\":21727:21783   */\n      iszero\n      tag_418\n      jumpi\n        /* \"#utility.yul\":21763:21781   */\n      tag_419\n      tag_154\n      jump\t// in\n    tag_419:\n        /* \"#utility.yul\":21727:21783   */\n    tag_418:\n        /* \"#utility.yul\":21807:21845   */\n      tag_420\n        /* \"#utility.yul\":21839:21843   */\n      dup3\n        /* \"#utility.yul\":21833:21844   */\n      sload\n        /* \"#utility.yul\":21807:21845   */\n      tag_56\n      jump\t// in\n    tag_420:\n        /* \"#utility.yul\":21892:21959   */\n      tag_421\n        /* \"#utility.yul\":21952:21958   */\n      dup3\n        /* \"#utility.yul\":21944:21950   */\n      dup3\n        /* \"#utility.yul\":21938:21942   */\n      dup6\n        /* \"#utility.yul\":21892:21959   */\n      tag_188\n      jump\t// in\n    tag_421:\n        /* \"#utility.yul\":21986:21987   */\n      0x00\n        /* \"#utility.yul\":22010:22014   */\n      0x20\n        /* \"#utility.yul\":21997:22014   */\n      swap1\n      pop\n        /* \"#utility.yul\":22042:22044   */\n      0x1f\n        /* \"#utility.yul\":22034:22040   */\n      dup4\n        /* \"#utility.yul\":22031:22045   */\n      gt\n        /* \"#utility.yul\":22059:22060   */\n      0x01\n        /* \"#utility.yul\":22054:22672   */\n      dup2\n      eq\n      tag_423\n      jumpi\n        /* \"#utility.yul\":22716:22717   */\n      0x00\n        /* \"#utility.yul\":22733:22739   */\n      dup5\n        /* \"#utility.yul\":22730:22807   */\n      iszero\n      tag_424\n      jumpi\n        /* \"#utility.yul\":22782:22791   */\n      dup3\n        /* \"#utility.yul\":22777:22780   */\n      dup8\n        /* \"#utility.yul\":22773:22792   */\n      add\n        /* \"#utility.yul\":22767:22793   */\n      mload\n        /* \"#utility.yul\":22758:22793   */\n      swap1\n      pop\n        /* \"#utility.yul\":22730:22807   */\n    tag_424:\n        /* \"#utility.yul\":22833:22900   */\n      tag_425\n        /* \"#utility.yul\":22893:22899   */\n      dup6\n        /* \"#utility.yul\":22886:22891   */\n      dup3\n        /* \"#utility.yul\":22833:22900   */\n      tag_191\n      jump\t// in\n    tag_425:\n        /* \"#utility.yul\":22827:22831   */\n      dup7\n        /* \"#utility.yul\":22820:22901   */\n      sstore\n        /* \"#utility.yul\":22689:22911   */\n      pop\n        /* \"#utility.yul\":22024:22911   */\n      jump(tag_422)\n        /* \"#utility.yul\":22054:22672   */\n    tag_423:\n        /* \"#utility.yul\":22106:22110   */\n      0x1f\n        /* \"#utility.yul\":22102:22111   */\n      not\n        /* \"#utility.yul\":22094:22100   */\n      dup5\n        /* \"#utility.yul\":22090:22112   */\n      and\n        /* \"#utility.yul\":22140:22177   */\n      tag_426\n        /* \"#utility.yul\":22172:22176   */\n      dup7\n        /* \"#utility.yul\":22140:22177   */\n      tag_176\n      jump\t// in\n    tag_426:\n        /* \"#utility.yul\":22199:22200   */\n      0x00\n        /* \"#utility.yul\":22213:22421   */\n    tag_427:\n        /* \"#utility.yul\":22227:22234   */\n      dup3\n        /* \"#utility.yul\":22224:22225   */\n      dup2\n        /* \"#utility.yul\":22221:22235   */\n      lt\n        /* \"#utility.yul\":22213:22421   */\n      iszero\n      tag_429\n      jumpi\n        /* \"#utility.yul\":22306:22315   */\n      dup5\n        /* \"#utility.yul\":22301:22304   */\n      dup10\n        /* \"#utility.yul\":22297:22316   */\n      add\n        /* \"#utility.yul\":22291:22317   */\n      mload\n        /* \"#utility.yul\":22283:22289   */\n      dup3\n        /* \"#utility.yul\":22276:22318   */\n      sstore\n        /* \"#utility.yul\":22357:22358   */\n      0x01\n        /* \"#utility.yul\":22349:22355   */\n      dup3\n        /* \"#utility.yul\":22345:22359   */\n      add\n        /* \"#utility.yul\":22335:22359   */\n      swap2\n      pop\n        /* \"#utility.yul\":22404:22406   */\n      0x20\n        /* \"#utility.yul\":22393:22402   */\n      dup6\n        /* \"#utility.yul\":22389:22407   */\n      add\n        /* \"#utility.yul\":22376:22407   */\n      swap5\n      pop\n        /* \"#utility.yul\":22250:22254   */\n      0x20\n        /* \"#utility.yul\":22247:22248   */\n      dup2\n        /* \"#utility.yul\":22243:22255   */\n      add\n        /* \"#utility.yul\":22238:22255   */\n      swap1\n      pop\n        /* \"#utility.yul\":22213:22421   */\n      jump(tag_427)\n    tag_429:\n        /* \"#utility.yul\":22449:22455   */\n      dup7\n        /* \"#utility.yul\":22440:22447   */\n      dup4\n        /* \"#utility.yul\":22437:22456   */\n      lt\n        /* \"#utility.yul\":22434:22613   */\n      iszero\n      tag_430\n      jumpi\n        /* \"#utility.yul\":22507:22516   */\n      dup5\n        /* \"#utility.yul\":22502:22505   */\n      dup10\n        /* \"#utility.yul\":22498:22517   */\n      add\n        /* \"#utility.yul\":22492:22518   */\n      mload\n        /* \"#utility.yul\":22550:22598   */\n      tag_431\n        /* \"#utility.yul\":22592:22596   */\n      0x1f\n        /* \"#utility.yul\":22584:22590   */\n      dup10\n        /* \"#utility.yul\":22580:22597   */\n      and\n        /* \"#utility.yul\":22569:22578   */\n      dup3\n        /* \"#utility.yul\":22550:22598   */\n      tag_190\n      jump\t// in\n    tag_431:\n        /* \"#utility.yul\":22542:22548   */\n      dup4\n        /* \"#utility.yul\":22535:22599   */\n      sstore\n        /* \"#utility.yul\":22457:22613   */\n      pop\n        /* \"#utility.yul\":22434:22613   */\n    tag_430:\n        /* \"#utility.yul\":22659:22660   */\n      0x01\n        /* \"#utility.yul\":22655:22656   */\n      0x02\n        /* \"#utility.yul\":22647:22653   */\n      dup9\n        /* \"#utility.yul\":22643:22657   */\n      mul\n        /* \"#utility.yul\":22639:22661   */\n      add\n        /* \"#utility.yul\":22633:22637   */\n      dup9\n        /* \"#utility.yul\":22626:22662   */\n      sstore\n        /* \"#utility.yul\":22061:22672   */\n      pop\n      pop\n      pop\n        /* \"#utility.yul\":22024:22911   */\n    tag_422:\n      pop\n        /* \"#utility.yul\":21614:22917   */\n      pop\n      pop\n      pop\n        /* \"#utility.yul\":21522:22917   */\n      pop\n      pop\n      jump\t// out\n        /* \"#utility.yul\":22923:23300   */\n    tag_192:\n        /* \"#utility.yul\":23011:23014   */\n      0x00\n        /* \"#utility.yul\":23039:23078   */\n      tag_433\n        /* \"#utility.yul\":23072:23077   */\n      dup3\n        /* \"#utility.yul\":23039:23078   */\n      tag_132\n      jump\t// in\n    tag_433:\n        /* \"#utility.yul\":23094:23165   */\n      tag_434\n        /* \"#utility.yul\":23158:23164   */\n      dup2\n        /* \"#utility.yul\":23153:23156   */\n      dup6\n        /* \"#utility.yul\":23094:23165   */\n      tag_166\n      jump\t// in\n    tag_434:\n        /* \"#utility.yul\":23087:23165   */\n      swap4\n      pop\n        /* \"#utility.yul\":23174:23239   */\n      tag_435\n        /* \"#utility.yul\":23232:23238   */\n      dup2\n        /* \"#utility.yul\":23227:23230   */\n      dup6\n        /* \"#utility.yul\":23220:23224   */\n      0x20\n        /* \"#utility.yul\":23213:23218   */\n      dup7\n        /* \"#utility.yul\":23209:23225   */\n      add\n        /* \"#utility.yul\":23174:23239   */\n      tag_134\n      jump\t// in\n    tag_435:\n        /* \"#utility.yul\":23264:23293   */\n      tag_436\n        /* \"#utility.yul\":23286:23292   */\n      dup2\n        /* \"#utility.yul\":23264:23293   */\n      tag_135\n      jump\t// in\n    tag_436:\n        /* \"#utility.yul\":23259:23262   */\n      dup5\n        /* \"#utility.yul\":23255:23294   */\n      add\n        /* \"#utility.yul\":23248:23294   */\n      swap2\n      pop\n        /* \"#utility.yul\":23015:23300   */\n      pop\n        /* \"#utility.yul\":22923:23300   */\n      swap3\n      swap2\n      pop\n      pop\n      jump\t// out\n        /* \"#utility.yul\":23306:23619   */\n    tag_87:\n        /* \"#utility.yul\":23419:23423   */\n      0x00\n        /* \"#utility.yul\":23457:23459   */\n      0x20\n        /* \"#utility.yul\":23446:23455   */\n      dup3\n        /* \"#utility.yul\":23442:23460   */\n      add\n        /* \"#utility.yul\":23434:23460   */\n      swap1\n      pop\n        /* \"#utility.yul\":23506:23515   */\n      dup2\n        /* \"#utility.yul\":23500:23504   */\n      dup2\n        /* \"#utility.yul\":23496:23516   */\n      sub\n        /* \"#utility.yul\":23492:23493   */\n      0x00\n        /* \"#utility.yul\":23481:23490   */\n      dup4\n        /* \"#utility.yul\":23477:23494   */\n      add\n        /* \"#utility.yul\":23470:23517   */\n      mstore\n        /* \"#utility.yul\":23534:23612   */\n      tag_438\n        /* \"#utility.yul\":23607:23611   */\n      dup2\n        /* \"#utility.yul\":23598:23604   */\n      dup5\n        /* \"#utility.yul\":23534:23612   */\n      tag_192\n      jump\t// in\n    tag_438:\n        /* \"#utility.yul\":23526:23612   */\n      swap1\n      pop\n        /* \"#utility.yul\":23306:23619   */\n      swap3\n      swap2\n      pop\n      pop\n      jump\t// out\n        /* \"#utility.yul\":23625:23805   */\n    tag_94:\n        /* \"#utility.yul\":23673:23750   */\n      0x4e487b7100000000000000000000000000000000000000000000000000000000\n        /* \"#utility.yul\":23670:23671   */\n      0x00\n        /* \"#utility.yul\":23663:23751   */\n      mstore\n        /* \"#utility.yul\":23770:23774   */\n      0x32\n        /* \"#utility.yul\":23767:23768   */\n      0x04\n        /* \"#utility.yul\":23760:23775   */\n      mstore\n        /* \"#utility.yul\":23794:23798   */\n      0x24\n        /* \"#utility.yul\":23791:23792   */\n      0x00\n        /* \"#utility.yul\":23784:23799   */\n      revert\n        /* \"#utility.yul\":23811:23989   */\n    tag_193:\n        /* \"#utility.yul\":23951:23981   */\n      0x57616c6c6574206861642070726576696f75736c792061646465642e00000000\n        /* \"#utility.yul\":23947:23948   */\n      0x00\n        /* \"#utility.yul\":23939:23945   */\n      dup3\n        /* \"#utility.yul\":23935:23949   */\n      add\n        /* \"#utility.yul\":23928:23982   */\n      mstore\n        /* \"#utility.yul\":23811:23989   */\n      pop\n      jump\t// out\n        /* \"#utility.yul\":23995:24361   */\n    tag_194:\n        /* \"#utility.yul\":24137:24140   */\n      0x00\n        /* \"#utility.yul\":24158:24225   */\n      tag_442\n        /* \"#utility.yul\":24222:24224   */\n      0x1c\n        /* \"#utility.yul\":24217:24220   */\n      dup4\n        /* \"#utility.yul\":24158:24225   */\n      tag_166\n      jump\t// in\n    tag_442:\n        /* \"#utility.yul\":24151:24225   */\n      swap2\n      pop\n        /* \"#utility.yul\":24234:24327   */\n      tag_443\n        /* \"#utility.yul\":24323:24326   */\n      dup3\n        /* \"#utility.yul\":24234:24327   */\n      tag_193\n      jump\t// in\n    tag_443:\n        /* \"#utility.yul\":24352:24354   */\n      0x20\n        /* \"#utility.yul\":24347:24350   */\n      dup3\n        /* \"#utility.yul\":24343:24355   */\n      add\n        /* \"#utility.yul\":24336:24355   */\n      swap1\n      pop\n        /* \"#utility.yul\":23995:24361   */\n      swap2\n      swap1\n      pop\n      jump\t// out\n        /* \"#utility.yul\":24367:24786   */\n    tag_97:\n        /* \"#utility.yul\":24533:24537   */\n      0x00\n        /* \"#utility.yul\":24571:24573   */\n      0x20\n        /* \"#utility.yul\":24560:24569   */\n      dup3\n        /* \"#utility.yul\":24556:24574   */\n      add\n        /* \"#utility.yul\":24548:24574   */\n      swap1\n      pop\n        /* \"#utility.yul\":24620:24629   */\n      dup2\n        /* \"#utility.yul\":24614:24618   */\n      dup2\n        /* \"#utility.yul\":24610:24630   */\n      sub\n        /* \"#utility.yul\":24606:24607   */\n      0x00\n        /* \"#utility.yul\":24595:24604   */\n      dup4\n        /* \"#utility.yul\":24591:24608   */\n      add\n        /* \"#utility.yul\":24584:24631   */\n      mstore\n        /* \"#utility.yul\":24648:24779   */\n      tag_445\n        /* \"#utility.yul\":24774:24778   */\n      dup2\n        /* \"#utility.yul\":24648:24779   */\n      tag_194\n      jump\t// in\n    tag_445:\n        /* \"#utility.yul\":24640:24779   */\n      swap1\n      pop\n        /* \"#utility.yul\":24367:24786   */\n      swap2\n      swap1\n      pop\n      jump\t// out\n        /* \"#utility.yul\":24792:24940   */\n    tag_195:\n        /* \"#utility.yul\":24894:24905   */\n      0x00\n        /* \"#utility.yul\":24931:24934   */\n      dup2\n        /* \"#utility.yul\":24916:24934   */\n      swap1\n      pop\n        /* \"#utility.yul\":24792:24940   */\n      swap3\n      swap2\n      pop\n      pop\n      jump\t// out\n        /* \"#utility.yul\":24946:25336   */\n    tag_196:\n        /* \"#utility.yul\":25052:25055   */\n      0x00\n        /* \"#utility.yul\":25080:25119   */\n      tag_448\n        /* \"#utility.yul\":25113:25118   */\n      dup3\n        /* \"#utility.yul\":25080:25119   */\n      tag_132\n      jump\t// in\n    tag_448:\n        /* \"#utility.yul\":25135:25224   */\n      tag_449\n        /* \"#utility.yul\":25217:25223   */\n      dup2\n        /* \"#utility.yul\":25212:25215   */\n      dup6\n        /* \"#utility.yul\":25135:25224   */\n      tag_195\n      jump\t// in\n    tag_449:\n        /* \"#utility.yul\":25128:25224   */\n      swap4\n      pop\n        /* \"#utility.yul\":25233:25298   */\n      tag_450\n        /* \"#utility.yul\":25291:25297   */\n      dup2\n        /* \"#utility.yul\":25286:25289   */\n      dup6\n        /* \"#utility.yul\":25279:25283   */\n      0x20\n        /* \"#utility.yul\":25272:25277   */\n      dup7\n        /* \"#utility.yul\":25268:25284   */\n      add\n        /* \"#utility.yul\":25233:25298   */\n      tag_134\n      jump\t// in\n    tag_450:\n        /* \"#utility.yul\":25323:25329   */\n      dup1\n        /* \"#utility.yul\":25318:25321   */\n      dup5\n        /* \"#utility.yul\":25314:25330   */\n      add\n        /* \"#utility.yul\":25307:25330   */\n      swap2\n      pop\n        /* \"#utility.yul\":25056:25336   */\n      pop\n        /* \"#utility.yul\":24946:25336   */\n      swap3\n      swap2\n      pop\n      pop\n      jump\t// out\n        /* \"#utility.yul\":25342:25617   */\n    tag_105:\n        /* \"#utility.yul\":25474:25477   */\n      0x00\n        /* \"#utility.yul\":25496:25591   */\n      tag_452\n        /* \"#utility.yul\":25587:25590   */\n      dup3\n        /* \"#utility.yul\":25578:25584   */\n      dup5\n        /* \"#utility.yul\":25496:25591   */\n      tag_196\n      jump\t// in\n    tag_452:\n        /* \"#utility.yul\":25489:25591   */\n      swap2\n      pop\n        /* \"#utility.yul\":25608:25611   */\n      dup2\n        /* \"#utility.yul\":25601:25611   */\n      swap1\n      pop\n        /* \"#utility.yul\":25342:25617   */\n      swap3\n      swap2\n      pop\n      pop\n      jump\t// out\n        /* \"#utility.yul\":25623:25843   */\n    tag_197:\n        /* \"#utility.yul\":25763:25797   */\n      0x5468652070726f6a656374206861642070726576696f75736c79206164646564\n        /* \"#utility.yul\":25759:25760   */\n      0x00\n        /* \"#utility.yul\":25751:25757   */\n      dup3\n        /* \"#utility.yul\":25747:25761   */\n      add\n        /* \"#utility.yul\":25740:25798   */\n      mstore\n        /* \"#utility.yul\":25832:25835   */\n      0x2e00000000000000000000000000000000000000000000000000000000000000\n        /* \"#utility.yul\":25827:25829   */\n      0x20\n        /* \"#utility.yul\":25819:25825   */\n      dup3\n        /* \"#utility.yul\":25815:25830   */\n      add\n        /* \"#utility.yul\":25808:25836   */\n      mstore\n        /* \"#utility.yul\":25623:25843   */\n      pop\n      jump\t// out\n        /* \"#utility.yul\":25849:26215   */\n    tag_198:\n        /* \"#utility.yul\":25991:25994   */\n      0x00\n        /* \"#utility.yul\":26012:26079   */\n      tag_455\n        /* \"#utility.yul\":26076:26078   */\n      0x21\n        /* \"#utility.yul\":26071:26074   */\n      dup4\n        /* \"#utility.yul\":26012:26079   */\n      tag_166\n      jump\t// in\n    tag_455:\n        /* \"#utility.yul\":26005:26079   */\n      swap2\n      pop\n        /* \"#utility.yul\":26088:26181   */\n      tag_456\n        /* \"#utility.yul\":26177:26180   */\n      dup3\n        /* \"#utility.yul\":26088:26181   */\n      tag_197\n      jump\t// in\n    tag_456:\n        /* \"#utility.yul\":26206:26208   */\n      0x40\n        /* \"#utility.yul\":26201:26204   */\n      dup3\n        /* \"#utility.yul\":26197:26209   */\n      add\n        /* \"#utility.yul\":26190:26209   */\n      swap1\n      pop\n        /* \"#utility.yul\":25849:26215   */\n      swap2\n      swap1\n      pop\n      jump\t// out\n        /* \"#utility.yul\":26221:26640   */\n    tag_111:\n        /* \"#utility.yul\":26387:26391   */\n      0x00\n        /* \"#utility.yul\":26425:26427   */\n      0x20\n        /* \"#utility.yul\":26414:26423   */\n      dup3\n        /* \"#utility.yul\":26410:26428   */\n      add\n        /* \"#utility.yul\":26402:26428   */\n      swap1\n      pop\n        /* \"#utility.yul\":26474:26483   */\n      dup2\n        /* \"#utility.yul\":26468:26472   */\n      dup2\n        /* \"#utility.yul\":26464:26484   */\n      sub\n        /* \"#utility.yul\":26460:26461   */\n      0x00\n        /* \"#utility.yul\":26449:26458   */\n      dup4\n        /* \"#utility.yul\":26445:26462   */\n      add\n        /* \"#utility.yul\":26438:26485   */\n      mstore\n        /* \"#utility.yul\":26502:26633   */\n      tag_458\n        /* \"#utility.yul\":26628:26632   */\n      dup2\n        /* \"#utility.yul\":26502:26633   */\n      tag_198\n      jump\t// in\n    tag_458:\n        /* \"#utility.yul\":26494:26633   */\n      swap1\n      pop\n        /* \"#utility.yul\":26221:26640   */\n      swap2\n      swap1\n      pop\n      jump\t// out\n\n    auxdata: 0xa26469706673582212204f2973092dde32899dcc566b5b2f7fd28428913b155f10f1c7ed744f88f1151064736f6c634300081a0033\n}\n",
				"bytecode": {
					"linkReferences": {},
					"object": "6080604052600160045f6101000a81548160ff021916908360ff1602179055503480156029575f80fd5b506119b2806100375f395ff3fe608060405234801561000f575f80fd5b5060043610610086575f3560e01c8063c343cc3211610059578063c343cc3214610136578063dcf4b52614610166578063ebff143914610196578063fb7c2135146101c657610086565b80630e42d15c1461008a5780631ba6c80e146100ba578063b3f98adc146100ea578063b439dc281461011a575b5f80fd5b6100a4600480360381019061009f9190610c5d565b6101f6565b6040516100b19190610e55565b60405180910390f35b6100d460048036038101906100cf9190610e9f565b610378565b6040516100e19190610ed9565b60405180910390f35b61010460048036038101906100ff9190610c5d565b6103ca565b6040516101119190610f0c565b60405180910390f35b610134600480360381019061012f9190611115565b6105e3565b005b610150600480360381019061014b919061119d565b6106f5565b60405161015d9190610f0c565b60405180910390f35b610180600480360381019061017b91906111f7565b6108b3565b60405161018d9190610ed9565b60405180910390f35b6101b060048036038101906101ab9190610e9f565b6108e6565b6040516101bd9190610f0c565b60405180910390f35b6101e060048036038101906101db919061123e565b610938565b6040516101ed9190610f0c565b60405180910390f35b6101fe610b48565b5f808360ff1660ff1681526020019081526020015f206040518060800160405290815f82015f9054906101000a900460ff1660ff1660ff16815260200160018201805461024a906112e1565b80601f0160208091040260200160405190810160405280929190818152602001828054610276906112e1565b80156102c15780601f10610298576101008083540402835291602001916102c1565b820191905f5260205f20905b8154815290600101906020018083116102a457829003601f168201915b505050505081526020016002820180548060200260200160405190810160405280929190818152602001828054801561034c57602002820191905f5260205f20905b815f9054906101000a900473ffffffffffffffffffffffffffffffffffffffff1673ffffffffffffffffffffffffffffffffffffffff1681526020019060010190808311610303575b50505050508152602001600382015f9054906101000a900460ff1660ff1660ff16815250509050919050565b5f60025f8373ffffffffffffffffffffffffffffffffffffffff1673ffffffffffffffffffffffffffffffffffffffff1681526020019081526020015f205f9054906101000a900460ff169050919050565b5f60045f9054906101000a900460ff1660ff168260ff1610610421576040517f08c379a00000000000000000000000000000000000000000000000000000000081526004016104189061136b565b60405180910390fd5b61042a336108e6565b1561046a576040517f08c379a0000000000000000000000000000000000000000000000000000000008152600401610461906113d3565b60405180910390fd5b8160ff1660025f3373ffffffffffffffffffffffffffffffffffffffff1673ffffffffffffffffffffffffffffffffffffffff1681526020019081526020015f205f9054906101000a900460ff1660ff16036104fb576040517f08c379a00000000000000000000000000000000000000000000000000000000081526004016104f29061143b565b60405180910390fd5b5f805f8460ff1660ff1681526020019081526020015f209050806003015f81819054906101000a900460ff168092919061053490611486565b91906101000a81548160ff021916908360ff16021790555050600160035f3373ffffffffffffffffffffffffffffffffffffffff1673ffffffffffffffffffffffffffffffffffffffff1681526020019081526020015f205f6101000a81548160ff0219169083151502179055507f12f4cbd97c99807b39bd5e73ae7ad1b31a6735455f063694ab12952fe9788d1d836040516105d19190610ed9565b60405180910390a16001915050919050565b8260ff1660025f3373ffffffffffffffffffffffffffffffffffffffff1673ffffffffffffffffffffffffffffffffffffffff1681526020019081526020015f205f9054906101000a900460ff1660ff1614610674576040517f08c379a000000000000000000000000000000000000000000000000000000000815260040161066b9061151e565b60405180910390fd5b5f805f8560ff1660ff1681526020019081526020015f2090508281600101908161069e91906116e2565b50818160020190805190602001906106b7929190610b74565b507fe2113e2f31e9059e4f64d1910b874f2e8ee4a4fd9081c4910d409f649dfe3b48836040516106e791906117e9565b60405180910390a150505050565b5f805f90505b83518160ff1610156108a8575f60025f868460ff168151811061072157610720611809565b5b602002602001015173ffffffffffffffffffffffffffffffffffffffff1673ffffffffffffffffffffffffffffffffffffffff1681526020019081526020015f205f9054906101000a900460ff1660ff16146107b2576040517f08c379a00000000000000000000000000000000000000000000000000000000081526004016107a990611880565b60405180910390fd5b8260025f868460ff16815181106107cc576107cb611809565b5b602002602001015173ffffffffffffffffffffffffffffffffffffffff1673ffffffffffffffffffffffffffffffffffffffff1681526020019081526020015f205f6101000a81548160ff021916908360ff1602179055505f60035f868460ff168151811061083e5761083d611809565b5b602002602001015173ffffffffffffffffffffffffffffffffffffffff1673ffffffffffffffffffffffffffffffffffffffff1681526020019081526020015f205f6101000a81548160ff02191690831515021790555080806108a090611486565b9150506106fb565b506001905092915050565b5f6001826040516108c491906118d8565b90815260200160405180910390205f9054906101000a900460ff169050919050565b5f60035f8373ffffffffffffffffffffffffffffffffffffffff1673ffffffffffffffffffffffffffffffffffffffff1681526020019081526020015f205f9054906101000a900460ff169050919050565b5f8060018460405161094a91906118d8565b90815260200160405180910390205f9054906101000a900460ff1660ff16146109a8576040517f08c379a000000000000000000000000000000000000000000000000000000000815260040161099f9061195e565b60405180910390fd5b5f604051806080016040528060045f9054906101000a900460ff1660ff1681526020018581526020018481526020015f60ff168152509050805f8060045f9054906101000a900460ff1660ff1660ff1681526020019081526020015f205f820151815f015f6101000a81548160ff021916908360ff1602179055506020820151816001019081610a3891906116e2565b506040820151816002019080519060200190610a55929190610b74565b506060820151816003015f6101000a81548160ff021916908360ff160217905550905050805f015160018260200151604051610a9191906118d8565b90815260200160405180910390205f6101000a81548160ff021916908360ff160217905550610ace8360045f9054906101000a900460ff166106f5565b5060045f81819054906101000a900460ff1680929190610aed90611486565b91906101000a81548160ff021916908360ff160217905550507fe2113e2f31e9059e4f64d1910b874f2e8ee4a4fd9081c4910d409f649dfe3b4884604051610b3591906117e9565b60405180910390a1600191505092915050565b60405180608001604052805f60ff16815260200160608152602001606081526020015f60ff1681525090565b828054828255905f5260205f20908101928215610bea579160200282015b82811115610be9578251825f6101000a81548173ffffffffffffffffffffffffffffffffffffffff021916908373ffffffffffffffffffffffffffffffffffffffff16021790555091602001919060010190610b92565b5b509050610bf79190610bfb565b5090565b5b80821115610c12575f815f905550600101610bfc565b5090565b5f604051905090565b5f80fd5b5f80fd5b5f60ff82169050919050565b610c3c81610c27565b8114610c46575f80fd5b50565b5f81359050610c5781610c33565b92915050565b5f60208284031215610c7257610c71610c1f565b5b5f610c7f84828501610c49565b91505092915050565b610c9181610c27565b82525050565b5f81519050919050565b5f82825260208201905092915050565b8281835e5f83830152505050565b5f601f19601f8301169050919050565b5f610cd982610c97565b610ce38185610ca1565b9350610cf3818560208601610cb1565b610cfc81610cbf565b840191505092915050565b5f81519050919050565b5f82825260208201905092915050565b5f819050602082019050919050565b5f73ffffffffffffffffffffffffffffffffffffffff82169050919050565b5f610d5982610d30565b9050919050565b610d6981610d4f565b82525050565b5f610d7a8383610d60565b60208301905092915050565b5f602082019050919050565b5f610d9c82610d07565b610da68185610d11565b9350610db183610d21565b805f5b83811015610de1578151610dc88882610d6f565b9750610dd383610d86565b925050600181019050610db4565b5085935050505092915050565b5f608083015f830151610e035f860182610c88565b5060208301518482036020860152610e1b8282610ccf565b91505060408301518482036040860152610e358282610d92565b9150506060830151610e4a6060860182610c88565b508091505092915050565b5f6020820190508181035f830152610e6d8184610dee565b905092915050565b610e7e81610d4f565b8114610e88575f80fd5b50565b5f81359050610e9981610e75565b92915050565b5f60208284031215610eb457610eb3610c1f565b5b5f610ec184828501610e8b565b91505092915050565b610ed381610c27565b82525050565b5f602082019050610eec5f830184610eca565b92915050565b5f8115159050919050565b610f0681610ef2565b82525050565b5f602082019050610f1f5f830184610efd565b92915050565b5f80fd5b5f80fd5b7f4e487b71000000000000000000000000000000000000000000000000000000005f52604160045260245ffd5b610f6382610cbf565b810181811067ffffffffffffffff82111715610f8257610f81610f2d565b5b80604052505050565b5f610f94610c16565b9050610fa08282610f5a565b919050565b5f67ffffffffffffffff821115610fbf57610fbe610f2d565b5b610fc882610cbf565b9050602081019050919050565b828183375f83830152505050565b5f610ff5610ff084610fa5565b610f8b565b90508281526020810184848401111561101157611010610f29565b5b61101c848285610fd5565b509392505050565b5f82601f83011261103857611037610f25565b5b8135611048848260208601610fe3565b91505092915050565b5f67ffffffffffffffff82111561106b5761106a610f2d565b5b602082029050602081019050919050565b5f80fd5b5f61109261108d84611051565b610f8b565b905080838252602082019050602084028301858111156110b5576110b461107c565b5b835b818110156110de57806110ca8882610e8b565b8452602084019350506020810190506110b7565b5050509392505050565b5f82601f8301126110fc576110fb610f25565b5b813561110c848260208601611080565b91505092915050565b5f805f6060848603121561112c5761112b610c1f565b5b5f61113986828701610c49565b935050602084013567ffffffffffffffff81111561115a57611159610c23565b5b61116686828701611024565b925050604084013567ffffffffffffffff81111561118757611186610c23565b5b611193868287016110e8565b9150509250925092565b5f80604083850312156111b3576111b2610c1f565b5b5f83013567ffffffffffffffff8111156111d0576111cf610c23565b5b6111dc858286016110e8565b92505060206111ed85828601610c49565b9150509250929050565b5f6020828403121561120c5761120b610c1f565b5b5f82013567ffffffffffffffff81111561122957611228610c23565b5b61123584828501611024565b91505092915050565b5f806040838503121561125457611253610c1f565b5b5f83013567ffffffffffffffff81111561127157611270610c23565b5b61127d85828601611024565b925050602083013567ffffffffffffffff81111561129e5761129d610c23565b5b6112aa858286016110e8565b9150509250929050565b7f4e487b71000000000000000000000000000000000000000000000000000000005f52602260045260245ffd5b5f60028204905060018216806112f857607f821691505b60208210810361130b5761130a6112b4565b5b50919050565b5f82825260208201905092915050565b7f496e76616c69642070726f6a6563742069642e000000000000000000000000005f82015250565b5f611355601383611311565b915061136082611321565b602082019050919050565b5f6020820190508181035f83015261138281611349565b9050919050565b7f596f75206861766520616c726561647920766f7465642e0000000000000000005f82015250565b5f6113bd601783611311565b91506113c882611389565b602082019050919050565b5f6020820190508181035f8301526113ea816113b1565b9050919050565b7f596f752063616e206e6f7420766f746520796f75722067726f75702e000000005f82015250565b5f611425601c83611311565b9150611430826113f1565b602082019050919050565b5f6020820190508181035f83015261145281611419565b9050919050565b7f4e487b71000000000000000000000000000000000000000000000000000000005f52601160045260245ffd5b5f61149082610c27565b915060ff82036114a3576114a2611459565b5b600182019050919050565b7f596f752063616e206e6f74206368616e676520616e6f746865722070726f6a655f8201527f63742064657461696c732e000000000000000000000000000000000000000000602082015250565b5f611508602b83611311565b9150611513826114ae565b604082019050919050565b5f6020820190508181035f830152611535816114fc565b9050919050565b5f819050815f5260205f209050919050565b5f6020601f8301049050919050565b5f82821b905092915050565b5f600883026115987fffffffffffffffffffffffffffffffffffffffffffffffffffffffffffffffff8261155d565b6115a2868361155d565b95508019841693508086168417925050509392505050565b5f819050919050565b5f819050919050565b5f6115e66115e16115dc846115ba565b6115c3565b6115ba565b9050919050565b5f819050919050565b6115ff836115cc565b61161361160b826115ed565b848454611569565b825550505050565b5f90565b61162761161b565b6116328184846115f6565b505050565b5b818110156116555761164a5f8261161f565b600181019050611638565b5050565b601f82111561169a5761166b8161153c565b6116748461154e565b81016020851015611683578190505b61169761168f8561154e565b830182611637565b50505b505050565b5f82821c905092915050565b5f6116ba5f198460080261169f565b1980831691505092915050565b5f6116d283836116ab565b9150826002028217905092915050565b6116eb82610c97565b67ffffffffffffffff81111561170457611703610f2d565b5b61170e82546112e1565b611719828285611659565b5f60209050601f83116001811461174a575f8415611738578287015190505b61174285826116c7565b8655506117a9565b601f1984166117588661153c565b5f5b8281101561177f5784890151825560018201915060208501945060208101905061175a565b8683101561179c5784890151611798601f8916826116ab565b8355505b6001600288020188555050505b505050505050565b5f6117bb82610c97565b6117c58185611311565b93506117d5818560208601610cb1565b6117de81610cbf565b840191505092915050565b5f6020820190508181035f83015261180181846117b1565b905092915050565b7f4e487b71000000000000000000000000000000000000000000000000000000005f52603260045260245ffd5b7f57616c6c6574206861642070726576696f75736c792061646465642e000000005f82015250565b5f61186a601c83611311565b915061187582611836565b602082019050919050565b5f6020820190508181035f8301526118978161185e565b9050919050565b5f81905092915050565b5f6118b282610c97565b6118bc818561189e565b93506118cc818560208601610cb1565b80840191505092915050565b5f6118e382846118a8565b915081905092915050565b7f5468652070726f6a656374206861642070726576696f75736c792061646465645f8201527f2e00000000000000000000000000000000000000000000000000000000000000602082015250565b5f611948602183611311565b9150611953826118ee565b604082019050919050565b5f6020820190508181035f8301526119758161193c565b905091905056fea26469706673582212204f2973092dde32899dcc566b5b2f7fd28428913b155f10f1c7ed744f88f1151064736f6c634300081a0033",
					"opcodes": "PUSH1 0x80 PUSH1 0x40 MSTORE PUSH1 0x1 PUSH1 0x4 PUSH0 PUSH2 0x100 EXP DUP2 SLOAD DUP2 PUSH1 0xFF MUL NOT AND SWAP1 DUP4 PUSH1 0xFF AND MUL OR SWAP1 SSTORE POP CALLVALUE DUP1 ISZERO PUSH1 0x29 JUMPI PUSH0 DUP1 REVERT JUMPDEST POP PUSH2 0x19B2 DUP1 PUSH2 0x37 PUSH0 CODECOPY PUSH0 RETURN INVALID PUSH1 0x80 PUSH1 0x40 MSTORE CALLVALUE DUP1 ISZERO PUSH2 0xF JUMPI PUSH0 DUP1 REVERT JUMPDEST POP PUSH1 0x4 CALLDATASIZE LT PUSH2 0x86 JUMPI PUSH0 CALLDATALOAD PUSH1 0xE0 SHR DUP1 PUSH4 0xC343CC32 GT PUSH2 0x59 JUMPI DUP1 PUSH4 0xC343CC32 EQ PUSH2 0x136 JUMPI DUP1 PUSH4 0xDCF4B526 EQ PUSH2 0x166 JUMPI DUP1 PUSH4 0xEBFF1439 EQ PUSH2 0x196 JUMPI DUP1 PUSH4 0xFB7C2135 EQ PUSH2 0x1C6 JUMPI PUSH2 0x86 JUMP JUMPDEST DUP1 PUSH4 0xE42D15C EQ PUSH2 0x8A JUMPI DUP1 PUSH4 0x1BA6C80E EQ PUSH2 0xBA JUMPI DUP1 PUSH4 0xB3F98ADC EQ PUSH2 0xEA JUMPI DUP1 PUSH4 0xB439DC28 EQ PUSH2 0x11A JUMPI JUMPDEST PUSH0 DUP1 REVERT JUMPDEST PUSH2 0xA4 PUSH1 0x4 DUP1 CALLDATASIZE SUB DUP2 ADD SWAP1 PUSH2 0x9F SWAP2 SWAP1 PUSH2 0xC5D JUMP JUMPDEST PUSH2 0x1F6 JUMP JUMPDEST PUSH1 0x40 MLOAD PUSH2 0xB1 SWAP2 SWAP1 PUSH2 0xE55 JUMP JUMPDEST PUSH1 0x40 MLOAD DUP1 SWAP2 SUB SWAP1 RETURN JUMPDEST PUSH2 0xD4 PUSH1 0x4 DUP1 CALLDATASIZE SUB DUP2 ADD SWAP1 PUSH2 0xCF SWAP2 SWAP1 PUSH2 0xE9F JUMP JUMPDEST PUSH2 0x378 JUMP JUMPDEST PUSH1 0x40 MLOAD PUSH2 0xE1 SWAP2 SWAP1 PUSH2 0xED9 JUMP JUMPDEST PUSH1 0x40 MLOAD DUP1 SWAP2 SUB SWAP1 RETURN JUMPDEST PUSH2 0x104 PUSH1 0x4 DUP1 CALLDATASIZE SUB DUP2 ADD SWAP1 PUSH2 0xFF SWAP2 SWAP1 PUSH2 0xC5D JUMP JUMPDEST PUSH2 0x3CA JUMP JUMPDEST PUSH1 0x40 MLOAD PUSH2 0x111 SWAP2 SWAP1 PUSH2 0xF0C JUMP JUMPDEST PUSH1 0x40 MLOAD DUP1 SWAP2 SUB SWAP1 RETURN JUMPDEST PUSH2 0x134 PUSH1 0x4 DUP1 CALLDATASIZE SUB DUP2 ADD SWAP1 PUSH2 0x12F SWAP2 SWAP1 PUSH2 0x1115 JUMP JUMPDEST PUSH2 0x5E3 JUMP JUMPDEST STOP JUMPDEST PUSH2 0x150 PUSH1 0x4 DUP1 CALLDATASIZE SUB DUP2 ADD SWAP1 PUSH2 0x14B SWAP2 SWAP1 PUSH2 0x119D JUMP JUMPDEST PUSH2 0x6F5 JUMP JUMPDEST PUSH1 0x40 MLOAD PUSH2 0x15D SWAP2 SWAP1 PUSH2 0xF0C JUMP JUMPDEST PUSH1 0x40 MLOAD DUP1 SWAP2 SUB SWAP1 RETURN JUMPDEST PUSH2 0x180 PUSH1 0x4 DUP1 CALLDATASIZE SUB DUP2 ADD SWAP1 PUSH2 0x17B SWAP2 SWAP1 PUSH2 0x11F7 JUMP JUMPDEST PUSH2 0x8B3 JUMP JUMPDEST PUSH1 0x40 MLOAD PUSH2 0x18D SWAP2 SWAP1 PUSH2 0xED9 JUMP JUMPDEST PUSH1 0x40 MLOAD DUP1 SWAP2 SUB SWAP1 RETURN JUMPDEST PUSH2 0x1B0 PUSH1 0x4 DUP1 CALLDATASIZE SUB DUP2 ADD SWAP1 PUSH2 0x1AB SWAP2 SWAP1 PUSH2 0xE9F JUMP JUMPDEST PUSH2 0x8E6 JUMP JUMPDEST PUSH1 0x40 MLOAD PUSH2 0x1BD SWAP2 SWAP1 PUSH2 0xF0C JUMP JUMPDEST PUSH1 0x40 MLOAD DUP1 SWAP2 SUB SWAP1 RETURN JUMPDEST PUSH2 0x1E0 PUSH1 0x4 DUP1 CALLDATASIZE SUB DUP2 ADD SWAP1 PUSH2 0x1DB SWAP2 SWAP1 PUSH2 0x123E JUMP JUMPDEST PUSH2 0x938 JUMP JUMPDEST PUSH1 0x40 MLOAD PUSH2 0x1ED SWAP2 SWAP1 PUSH2 0xF0C JUMP JUMPDEST PUSH1 0x40 MLOAD DUP1 SWAP2 SUB SWAP1 RETURN JUMPDEST PUSH2 0x1FE PUSH2 0xB48 JUMP JUMPDEST PUSH0 DUP1 DUP4 PUSH1 0xFF AND PUSH1 0xFF AND DUP2 MSTORE PUSH1 0x20 ADD SWAP1 DUP2 MSTORE PUSH1 0x20 ADD PUSH0 KECCAK256 PUSH1 0x40 MLOAD DUP1 PUSH1 0x80 ADD PUSH1 0x40 MSTORE SWAP1 DUP2 PUSH0 DUP3 ADD PUSH0 SWAP1 SLOAD SWAP1 PUSH2 0x100 EXP SWAP1 DIV PUSH1 0xFF AND PUSH1 0xFF AND PUSH1 0xFF AND DUP2 MSTORE PUSH1 0x20 ADD PUSH1 0x1 DUP3 ADD DUP1 SLOAD PUSH2 0x24A SWAP1 PUSH2 0x12E1 JUMP JUMPDEST DUP1 PUSH1 0x1F ADD PUSH1 0x20 DUP1 SWAP2 DIV MUL PUSH1 0x20 ADD PUSH1 0x40 MLOAD SWAP1 DUP2 ADD PUSH1 0x40 MSTORE DUP1 SWAP3 SWAP2 SWAP1 DUP2 DUP2 MSTORE PUSH1 0x20 ADD DUP3 DUP1 SLOAD PUSH2 0x276 SWAP1 PUSH2 0x12E1 JUMP JUMPDEST DUP1 ISZERO PUSH2 0x2C1 JUMPI DUP1 PUSH1 0x1F LT PUSH2 0x298 JUMPI PUSH2 0x100 DUP1 DUP4 SLOAD DIV MUL DUP4 MSTORE SWAP2 PUSH1 0x20 ADD SWAP2 PUSH2 0x2C1 JUMP JUMPDEST DUP3 ADD SWAP2 SWAP1 PUSH0 MSTORE PUSH1 0x20 PUSH0 KECCAK256 SWAP1 JUMPDEST DUP2 SLOAD DUP2 MSTORE SWAP1 PUSH1 0x1 ADD SWAP1 PUSH1 0x20 ADD DUP1 DUP4 GT PUSH2 0x2A4 JUMPI DUP3 SWAP1 SUB PUSH1 0x1F AND DUP3 ADD SWAP2 JUMPDEST POP POP POP POP POP DUP2 MSTORE PUSH1 0x20 ADD PUSH1 0x2 DUP3 ADD DUP1 SLOAD DUP1 PUSH1 0x20 MUL PUSH1 0x20 ADD PUSH1 0x40 MLOAD SWAP1 DUP2 ADD PUSH1 0x40 MSTORE DUP1 SWAP3 SWAP2 SWAP1 DUP2 DUP2 MSTORE PUSH1 0x20 ADD DUP3 DUP1 SLOAD DUP1 ISZERO PUSH2 0x34C JUMPI PUSH1 0x20 MUL DUP3 ADD SWAP2 SWAP1 PUSH0 MSTORE PUSH1 0x20 PUSH0 KECCAK256 SWAP1 JUMPDEST DUP2 PUSH0 SWAP1 SLOAD SWAP1 PUSH2 0x100 EXP SWAP1 DIV PUSH20 0xFFFFFFFFFFFFFFFFFFFFFFFFFFFFFFFFFFFFFFFF AND PUSH20 0xFFFFFFFFFFFFFFFFFFFFFFFFFFFFFFFFFFFFFFFF AND DUP2 MSTORE PUSH1 0x20 ADD SWAP1 PUSH1 0x1 ADD SWAP1 DUP1 DUP4 GT PUSH2 0x303 JUMPI JUMPDEST POP POP POP POP POP DUP2 MSTORE PUSH1 0x20 ADD PUSH1 0x3 DUP3 ADD PUSH0 SWAP1 SLOAD SWAP1 PUSH2 0x100 EXP SWAP1 DIV PUSH1 0xFF AND PUSH1 0xFF AND PUSH1 0xFF AND DUP2 MSTORE POP POP SWAP1 POP SWAP2 SWAP1 POP JUMP JUMPDEST PUSH0 PUSH1 0x2 PUSH0 DUP4 PUSH20 0xFFFFFFFFFFFFFFFFFFFFFFFFFFFFFFFFFFFFFFFF AND PUSH20 0xFFFFFFFFFFFFFFFFFFFFFFFFFFFFFFFFFFFFFFFF AND DUP2 MSTORE PUSH1 0x20 ADD SWAP1 DUP2 MSTORE PUSH1 0x20 ADD PUSH0 KECCAK256 PUSH0 SWAP1 SLOAD SWAP1 PUSH2 0x100 EXP SWAP1 DIV PUSH1 0xFF AND SWAP1 POP SWAP2 SWAP1 POP JUMP JUMPDEST PUSH0 PUSH1 0x4 PUSH0 SWAP1 SLOAD SWAP1 PUSH2 0x100 EXP SWAP1 DIV PUSH1 0xFF AND PUSH1 0xFF AND DUP3 PUSH1 0xFF AND LT PUSH2 0x421 JUMPI PUSH1 0x40 MLOAD PUSH32 0x8C379A000000000000000000000000000000000000000000000000000000000 DUP2 MSTORE PUSH1 0x4 ADD PUSH2 0x418 SWAP1 PUSH2 0x136B JUMP JUMPDEST PUSH1 0x40 MLOAD DUP1 SWAP2 SUB SWAP1 REVERT JUMPDEST PUSH2 0x42A CALLER PUSH2 0x8E6 JUMP JUMPDEST ISZERO PUSH2 0x46A JUMPI PUSH1 0x40 MLOAD PUSH32 0x8C379A000000000000000000000000000000000000000000000000000000000 DUP2 MSTORE PUSH1 0x4 ADD PUSH2 0x461 SWAP1 PUSH2 0x13D3 JUMP JUMPDEST PUSH1 0x40 MLOAD DUP1 SWAP2 SUB SWAP1 REVERT JUMPDEST DUP2 PUSH1 0xFF AND PUSH1 0x2 PUSH0 CALLER PUSH20 0xFFFFFFFFFFFFFFFFFFFFFFFFFFFFFFFFFFFFFFFF AND PUSH20 0xFFFFFFFFFFFFFFFFFFFFFFFFFFFFFFFFFFFFFFFF AND DUP2 MSTORE PUSH1 0x20 ADD SWAP1 DUP2 MSTORE PUSH1 0x20 ADD PUSH0 KECCAK256 PUSH0 SWAP1 SLOAD SWAP1 PUSH2 0x100 EXP SWAP1 DIV PUSH1 0xFF AND PUSH1 0xFF AND SUB PUSH2 0x4FB JUMPI PUSH1 0x40 MLOAD PUSH32 0x8C379A000000000000000000000000000000000000000000000000000000000 DUP2 MSTORE PUSH1 0x4 ADD PUSH2 0x4F2 SWAP1 PUSH2 0x143B JUMP JUMPDEST PUSH1 0x40 MLOAD DUP1 SWAP2 SUB SWAP1 REVERT JUMPDEST PUSH0 DUP1 PUSH0 DUP5 PUSH1 0xFF AND PUSH1 0xFF AND DUP2 MSTORE PUSH1 0x20 ADD SWAP1 DUP2 MSTORE PUSH1 0x20 ADD PUSH0 KECCAK256 SWAP1 POP DUP1 PUSH1 0x3 ADD PUSH0 DUP2 DUP2 SWAP1 SLOAD SWAP1 PUSH2 0x100 EXP SWAP1 DIV PUSH1 0xFF AND DUP1 SWAP3 SWAP2 SWAP1 PUSH2 0x534 SWAP1 PUSH2 0x1486 JUMP JUMPDEST SWAP2 SWAP1 PUSH2 0x100 EXP DUP2 SLOAD DUP2 PUSH1 0xFF MUL NOT AND SWAP1 DUP4 PUSH1 0xFF AND MUL OR SWAP1 SSTORE POP POP PUSH1 0x1 PUSH1 0x3 PUSH0 CALLER PUSH20 0xFFFFFFFFFFFFFFFFFFFFFFFFFFFFFFFFFFFFFFFF AND PUSH20 0xFFFFFFFFFFFFFFFFFFFFFFFFFFFFFFFFFFFFFFFF AND DUP2 MSTORE PUSH1 0x20 ADD SWAP1 DUP2 MSTORE PUSH1 0x20 ADD PUSH0 KECCAK256 PUSH0 PUSH2 0x100 EXP DUP2 SLOAD DUP2 PUSH1 0xFF MUL NOT AND SWAP1 DUP4 ISZERO ISZERO MUL OR SWAP1 SSTORE POP PUSH32 0x12F4CBD97C99807B39BD5E73AE7AD1B31A6735455F063694AB12952FE9788D1D DUP4 PUSH1 0x40 MLOAD PUSH2 0x5D1 SWAP2 SWAP1 PUSH2 0xED9 JUMP JUMPDEST PUSH1 0x40 MLOAD DUP1 SWAP2 SUB SWAP1 LOG1 PUSH1 0x1 SWAP2 POP POP SWAP2 SWAP1 POP JUMP JUMPDEST DUP3 PUSH1 0xFF AND PUSH1 0x2 PUSH0 CALLER PUSH20 0xFFFFFFFFFFFFFFFFFFFFFFFFFFFFFFFFFFFFFFFF AND PUSH20 0xFFFFFFFFFFFFFFFFFFFFFFFFFFFFFFFFFFFFFFFF AND DUP2 MSTORE PUSH1 0x20 ADD SWAP1 DUP2 MSTORE PUSH1 0x20 ADD PUSH0 KECCAK256 PUSH0 SWAP1 SLOAD SWAP1 PUSH2 0x100 EXP SWAP1 DIV PUSH1 0xFF AND PUSH1 0xFF AND EQ PUSH2 0x674 JUMPI PUSH1 0x40 MLOAD PUSH32 0x8C379A000000000000000000000000000000000000000000000000000000000 DUP2 MSTORE PUSH1 0x4 ADD PUSH2 0x66B SWAP1 PUSH2 0x151E JUMP JUMPDEST PUSH1 0x40 MLOAD DUP1 SWAP2 SUB SWAP1 REVERT JUMPDEST PUSH0 DUP1 PUSH0 DUP6 PUSH1 0xFF AND PUSH1 0xFF AND DUP2 MSTORE PUSH1 0x20 ADD SWAP1 DUP2 MSTORE PUSH1 0x20 ADD PUSH0 KECCAK256 SWAP1 POP DUP3 DUP2 PUSH1 0x1 ADD SWAP1 DUP2 PUSH2 0x69E SWAP2 SWAP1 PUSH2 0x16E2 JUMP JUMPDEST POP DUP2 DUP2 PUSH1 0x2 ADD SWAP1 DUP1 MLOAD SWAP1 PUSH1 0x20 ADD SWAP1 PUSH2 0x6B7 SWAP3 SWAP2 SWAP1 PUSH2 0xB74 JUMP JUMPDEST POP PUSH32 0xE2113E2F31E9059E4F64D1910B874F2E8EE4A4FD9081C4910D409F649DFE3B48 DUP4 PUSH1 0x40 MLOAD PUSH2 0x6E7 SWAP2 SWAP1 PUSH2 0x17E9 JUMP JUMPDEST PUSH1 0x40 MLOAD DUP1 SWAP2 SUB SWAP1 LOG1 POP POP POP POP JUMP JUMPDEST PUSH0 DUP1 PUSH0 SWAP1 POP JUMPDEST DUP4 MLOAD DUP2 PUSH1 0xFF AND LT ISZERO PUSH2 0x8A8 JUMPI PUSH0 PUSH1 0x2 PUSH0 DUP7 DUP5 PUSH1 0xFF AND DUP2 MLOAD DUP2 LT PUSH2 0x721 JUMPI PUSH2 0x720 PUSH2 0x1809 JUMP JUMPDEST JUMPDEST PUSH1 0x20 MUL PUSH1 0x20 ADD ADD MLOAD PUSH20 0xFFFFFFFFFFFFFFFFFFFFFFFFFFFFFFFFFFFFFFFF AND PUSH20 0xFFFFFFFFFFFFFFFFFFFFFFFFFFFFFFFFFFFFFFFF AND DUP2 MSTORE PUSH1 0x20 ADD SWAP1 DUP2 MSTORE PUSH1 0x20 ADD PUSH0 KECCAK256 PUSH0 SWAP1 SLOAD SWAP1 PUSH2 0x100 EXP SWAP1 DIV PUSH1 0xFF AND PUSH1 0xFF AND EQ PUSH2 0x7B2 JUMPI PUSH1 0x40 MLOAD PUSH32 0x8C379A000000000000000000000000000000000000000000000000000000000 DUP2 MSTORE PUSH1 0x4 ADD PUSH2 0x7A9 SWAP1 PUSH2 0x1880 JUMP JUMPDEST PUSH1 0x40 MLOAD DUP1 SWAP2 SUB SWAP1 REVERT JUMPDEST DUP3 PUSH1 0x2 PUSH0 DUP7 DUP5 PUSH1 0xFF AND DUP2 MLOAD DUP2 LT PUSH2 0x7CC JUMPI PUSH2 0x7CB PUSH2 0x1809 JUMP JUMPDEST JUMPDEST PUSH1 0x20 MUL PUSH1 0x20 ADD ADD MLOAD PUSH20 0xFFFFFFFFFFFFFFFFFFFFFFFFFFFFFFFFFFFFFFFF AND PUSH20 0xFFFFFFFFFFFFFFFFFFFFFFFFFFFFFFFFFFFFFFFF AND DUP2 MSTORE PUSH1 0x20 ADD SWAP1 DUP2 MSTORE PUSH1 0x20 ADD PUSH0 KECCAK256 PUSH0 PUSH2 0x100 EXP DUP2 SLOAD DUP2 PUSH1 0xFF MUL NOT AND SWAP1 DUP4 PUSH1 0xFF AND MUL OR SWAP1 SSTORE POP PUSH0 PUSH1 0x3 PUSH0 DUP7 DUP5 PUSH1 0xFF AND DUP2 MLOAD DUP2 LT PUSH2 0x83E JUMPI PUSH2 0x83D PUSH2 0x1809 JUMP JUMPDEST JUMPDEST PUSH1 0x20 MUL PUSH1 0x20 ADD ADD MLOAD PUSH20 0xFFFFFFFFFFFFFFFFFFFFFFFFFFFFFFFFFFFFFFFF AND PUSH20 0xFFFFFFFFFFFFFFFFFFFFFFFFFFFFFFFFFFFFFFFF AND DUP2 MSTORE PUSH1 0x20 ADD SWAP1 DUP2 MSTORE PUSH1 0x20 ADD PUSH0 KECCAK256 PUSH0 PUSH2 0x100 EXP DUP2 SLOAD DUP2 PUSH1 0xFF MUL NOT AND SWAP1 DUP4 ISZERO ISZERO MUL OR SWAP1 SSTORE POP DUP1 DUP1 PUSH2 0x8A0 SWAP1 PUSH2 0x1486 JUMP JUMPDEST SWAP2 POP POP PUSH2 0x6FB JUMP JUMPDEST POP PUSH1 0x1 SWAP1 POP SWAP3 SWAP2 POP POP JUMP JUMPDEST PUSH0 PUSH1 0x1 DUP3 PUSH1 0x40 MLOAD PUSH2 0x8C4 SWAP2 SWAP1 PUSH2 0x18D8 JUMP JUMPDEST SWAP1 DUP2 MSTORE PUSH1 0x20 ADD PUSH1 0x40 MLOAD DUP1 SWAP2 SUB SWAP1 KECCAK256 PUSH0 SWAP1 SLOAD SWAP1 PUSH2 0x100 EXP SWAP1 DIV PUSH1 0xFF AND SWAP1 POP SWAP2 SWAP1 POP JUMP JUMPDEST PUSH0 PUSH1 0x3 PUSH0 DUP4 PUSH20 0xFFFFFFFFFFFFFFFFFFFFFFFFFFFFFFFFFFFFFFFF AND PUSH20 0xFFFFFFFFFFFFFFFFFFFFFFFFFFFFFFFFFFFFFFFF AND DUP2 MSTORE PUSH1 0x20 ADD SWAP1 DUP2 MSTORE PUSH1 0x20 ADD PUSH0 KECCAK256 PUSH0 SWAP1 SLOAD SWAP1 PUSH2 0x100 EXP SWAP1 DIV PUSH1 0xFF AND SWAP1 POP SWAP2 SWAP1 POP JUMP JUMPDEST PUSH0 DUP1 PUSH1 0x1 DUP5 PUSH1 0x40 MLOAD PUSH2 0x94A SWAP2 SWAP1 PUSH2 0x18D8 JUMP JUMPDEST SWAP1 DUP2 MSTORE PUSH1 0x20 ADD PUSH1 0x40 MLOAD DUP1 SWAP2 SUB SWAP1 KECCAK256 PUSH0 SWAP1 SLOAD SWAP1 PUSH2 0x100 EXP SWAP1 DIV PUSH1 0xFF AND PUSH1 0xFF AND EQ PUSH2 0x9A8 JUMPI PUSH1 0x40 MLOAD PUSH32 0x8C379A000000000000000000000000000000000000000000000000000000000 DUP2 MSTORE PUSH1 0x4 ADD PUSH2 0x99F SWAP1 PUSH2 0x195E JUMP JUMPDEST PUSH1 0x40 MLOAD DUP1 SWAP2 SUB SWAP1 REVERT JUMPDEST PUSH0 PUSH1 0x40 MLOAD DUP1 PUSH1 0x80 ADD PUSH1 0x40 MSTORE DUP1 PUSH1 0x4 PUSH0 SWAP1 SLOAD SWAP1 PUSH2 0x100 EXP SWAP1 DIV PUSH1 0xFF AND PUSH1 0xFF AND DUP2 MSTORE PUSH1 0x20 ADD DUP6 DUP2 MSTORE PUSH1 0x20 ADD DUP5 DUP2 MSTORE PUSH1 0x20 ADD PUSH0 PUSH1 0xFF AND DUP2 MSTORE POP SWAP1 POP DUP1 PUSH0 DUP1 PUSH1 0x4 PUSH0 SWAP1 SLOAD SWAP1 PUSH2 0x100 EXP SWAP1 DIV PUSH1 0xFF AND PUSH1 0xFF AND PUSH1 0xFF AND DUP2 MSTORE PUSH1 0x20 ADD SWAP1 DUP2 MSTORE PUSH1 0x20 ADD PUSH0 KECCAK256 PUSH0 DUP3 ADD MLOAD DUP2 PUSH0 ADD PUSH0 PUSH2 0x100 EXP DUP2 SLOAD DUP2 PUSH1 0xFF MUL NOT AND SWAP1 DUP4 PUSH1 0xFF AND MUL OR SWAP1 SSTORE POP PUSH1 0x20 DUP3 ADD MLOAD DUP2 PUSH1 0x1 ADD SWAP1 DUP2 PUSH2 0xA38 SWAP2 SWAP1 PUSH2 0x16E2 JUMP JUMPDEST POP PUSH1 0x40 DUP3 ADD MLOAD DUP2 PUSH1 0x2 ADD SWAP1 DUP1 MLOAD SWAP1 PUSH1 0x20 ADD SWAP1 PUSH2 0xA55 SWAP3 SWAP2 SWAP1 PUSH2 0xB74 JUMP JUMPDEST POP PUSH1 0x60 DUP3 ADD MLOAD DUP2 PUSH1 0x3 ADD PUSH0 PUSH2 0x100 EXP DUP2 SLOAD DUP2 PUSH1 0xFF MUL NOT AND SWAP1 DUP4 PUSH1 0xFF AND MUL OR SWAP1 SSTORE POP SWAP1 POP POP DUP1 PUSH0 ADD MLOAD PUSH1 0x1 DUP3 PUSH1 0x20 ADD MLOAD PUSH1 0x40 MLOAD PUSH2 0xA91 SWAP2 SWAP1 PUSH2 0x18D8 JUMP JUMPDEST SWAP1 DUP2 MSTORE PUSH1 0x20 ADD PUSH1 0x40 MLOAD DUP1 SWAP2 SUB SWAP1 KECCAK256 PUSH0 PUSH2 0x100 EXP DUP2 SLOAD DUP2 PUSH1 0xFF MUL NOT AND SWAP1 DUP4 PUSH1 0xFF AND MUL OR SWAP1 SSTORE POP PUSH2 0xACE DUP4 PUSH1 0x4 PUSH0 SWAP1 SLOAD SWAP1 PUSH2 0x100 EXP SWAP1 DIV PUSH1 0xFF AND PUSH2 0x6F5 JUMP JUMPDEST POP PUSH1 0x4 PUSH0 DUP2 DUP2 SWAP1 SLOAD SWAP1 PUSH2 0x100 EXP SWAP1 DIV PUSH1 0xFF AND DUP1 SWAP3 SWAP2 SWAP1 PUSH2 0xAED SWAP1 PUSH2 0x1486 JUMP JUMPDEST SWAP2 SWAP1 PUSH2 0x100 EXP DUP2 SLOAD DUP2 PUSH1 0xFF MUL NOT AND SWAP1 DUP4 PUSH1 0xFF AND MUL OR SWAP1 SSTORE POP POP PUSH32 0xE2113E2F31E9059E4F64D1910B874F2E8EE4A4FD9081C4910D409F649DFE3B48 DUP5 PUSH1 0x40 MLOAD PUSH2 0xB35 SWAP2 SWAP1 PUSH2 0x17E9 JUMP JUMPDEST PUSH1 0x40 MLOAD DUP1 SWAP2 SUB SWAP1 LOG1 PUSH1 0x1 SWAP2 POP POP SWAP3 SWAP2 POP POP JUMP JUMPDEST PUSH1 0x40 MLOAD DUP1 PUSH1 0x80 ADD PUSH1 0x40 MSTORE DUP1 PUSH0 PUSH1 0xFF AND DUP2 MSTORE PUSH1 0x20 ADD PUSH1 0x60 DUP2 MSTORE PUSH1 0x20 ADD PUSH1 0x60 DUP2 MSTORE PUSH1 0x20 ADD PUSH0 PUSH1 0xFF AND DUP2 MSTORE POP SWAP1 JUMP JUMPDEST DUP3 DUP1 SLOAD DUP3 DUP3 SSTORE SWAP1 PUSH0 MSTORE PUSH1 0x20 PUSH0 KECCAK256 SWAP1 DUP2 ADD SWAP3 DUP3 ISZERO PUSH2 0xBEA JUMPI SWAP2 PUSH1 0x20 MUL DUP3 ADD JUMPDEST DUP3 DUP2 GT ISZERO PUSH2 0xBE9 JUMPI DUP3 MLOAD DUP3 PUSH0 PUSH2 0x100 EXP DUP2 SLOAD DUP2 PUSH20 0xFFFFFFFFFFFFFFFFFFFFFFFFFFFFFFFFFFFFFFFF MUL NOT AND SWAP1 DUP4 PUSH20 0xFFFFFFFFFFFFFFFFFFFFFFFFFFFFFFFFFFFFFFFF AND MUL OR SWAP1 SSTORE POP SWAP2 PUSH1 0x20 ADD SWAP2 SWAP1 PUSH1 0x1 ADD SWAP1 PUSH2 0xB92 JUMP JUMPDEST JUMPDEST POP SWAP1 POP PUSH2 0xBF7 SWAP2 SWAP1 PUSH2 0xBFB JUMP JUMPDEST POP SWAP1 JUMP JUMPDEST JUMPDEST DUP1 DUP3 GT ISZERO PUSH2 0xC12 JUMPI PUSH0 DUP2 PUSH0 SWAP1 SSTORE POP PUSH1 0x1 ADD PUSH2 0xBFC JUMP JUMPDEST POP SWAP1 JUMP JUMPDEST PUSH0 PUSH1 0x40 MLOAD SWAP1 POP SWAP1 JUMP JUMPDEST PUSH0 DUP1 REVERT JUMPDEST PUSH0 DUP1 REVERT JUMPDEST PUSH0 PUSH1 0xFF DUP3 AND SWAP1 POP SWAP2 SWAP1 POP JUMP JUMPDEST PUSH2 0xC3C DUP2 PUSH2 0xC27 JUMP JUMPDEST DUP2 EQ PUSH2 0xC46 JUMPI PUSH0 DUP1 REVERT JUMPDEST POP JUMP JUMPDEST PUSH0 DUP2 CALLDATALOAD SWAP1 POP PUSH2 0xC57 DUP2 PUSH2 0xC33 JUMP JUMPDEST SWAP3 SWAP2 POP POP JUMP JUMPDEST PUSH0 PUSH1 0x20 DUP3 DUP5 SUB SLT ISZERO PUSH2 0xC72 JUMPI PUSH2 0xC71 PUSH2 0xC1F JUMP JUMPDEST JUMPDEST PUSH0 PUSH2 0xC7F DUP5 DUP3 DUP6 ADD PUSH2 0xC49 JUMP JUMPDEST SWAP2 POP POP SWAP3 SWAP2 POP POP JUMP JUMPDEST PUSH2 0xC91 DUP2 PUSH2 0xC27 JUMP JUMPDEST DUP3 MSTORE POP POP JUMP JUMPDEST PUSH0 DUP2 MLOAD SWAP1 POP SWAP2 SWAP1 POP JUMP JUMPDEST PUSH0 DUP3 DUP3 MSTORE PUSH1 0x20 DUP3 ADD SWAP1 POP SWAP3 SWAP2 POP POP JUMP JUMPDEST DUP3 DUP2 DUP4 MCOPY PUSH0 DUP4 DUP4 ADD MSTORE POP POP POP JUMP JUMPDEST PUSH0 PUSH1 0x1F NOT PUSH1 0x1F DUP4 ADD AND SWAP1 POP SWAP2 SWAP1 POP JUMP JUMPDEST PUSH0 PUSH2 0xCD9 DUP3 PUSH2 0xC97 JUMP JUMPDEST PUSH2 0xCE3 DUP2 DUP6 PUSH2 0xCA1 JUMP JUMPDEST SWAP4 POP PUSH2 0xCF3 DUP2 DUP6 PUSH1 0x20 DUP7 ADD PUSH2 0xCB1 JUMP JUMPDEST PUSH2 0xCFC DUP2 PUSH2 0xCBF JUMP JUMPDEST DUP5 ADD SWAP2 POP POP SWAP3 SWAP2 POP POP JUMP JUMPDEST PUSH0 DUP2 MLOAD SWAP1 POP SWAP2 SWAP1 POP JUMP JUMPDEST PUSH0 DUP3 DUP3 MSTORE PUSH1 0x20 DUP3 ADD SWAP1 POP SWAP3 SWAP2 POP POP JUMP JUMPDEST PUSH0 DUP2 SWAP1 POP PUSH1 0x20 DUP3 ADD SWAP1 POP SWAP2 SWAP1 POP JUMP JUMPDEST PUSH0 PUSH20 0xFFFFFFFFFFFFFFFFFFFFFFFFFFFFFFFFFFFFFFFF DUP3 AND SWAP1 POP SWAP2 SWAP1 POP JUMP JUMPDEST PUSH0 PUSH2 0xD59 DUP3 PUSH2 0xD30 JUMP JUMPDEST SWAP1 POP SWAP2 SWAP1 POP JUMP JUMPDEST PUSH2 0xD69 DUP2 PUSH2 0xD4F JUMP JUMPDEST DUP3 MSTORE POP POP JUMP JUMPDEST PUSH0 PUSH2 0xD7A DUP4 DUP4 PUSH2 0xD60 JUMP JUMPDEST PUSH1 0x20 DUP4 ADD SWAP1 POP SWAP3 SWAP2 POP POP JUMP JUMPDEST PUSH0 PUSH1 0x20 DUP3 ADD SWAP1 POP SWAP2 SWAP1 POP JUMP JUMPDEST PUSH0 PUSH2 0xD9C DUP3 PUSH2 0xD07 JUMP JUMPDEST PUSH2 0xDA6 DUP2 DUP6 PUSH2 0xD11 JUMP JUMPDEST SWAP4 POP PUSH2 0xDB1 DUP4 PUSH2 0xD21 JUMP JUMPDEST DUP1 PUSH0 JUMPDEST DUP4 DUP2 LT ISZERO PUSH2 0xDE1 JUMPI DUP2 MLOAD PUSH2 0xDC8 DUP9 DUP3 PUSH2 0xD6F JUMP JUMPDEST SWAP8 POP PUSH2 0xDD3 DUP4 PUSH2 0xD86 JUMP JUMPDEST SWAP3 POP POP PUSH1 0x1 DUP2 ADD SWAP1 POP PUSH2 0xDB4 JUMP JUMPDEST POP DUP6 SWAP4 POP POP POP POP SWAP3 SWAP2 POP POP JUMP JUMPDEST PUSH0 PUSH1 0x80 DUP4 ADD PUSH0 DUP4 ADD MLOAD PUSH2 0xE03 PUSH0 DUP7 ADD DUP3 PUSH2 0xC88 JUMP JUMPDEST POP PUSH1 0x20 DUP4 ADD MLOAD DUP5 DUP3 SUB PUSH1 0x20 DUP7 ADD MSTORE PUSH2 0xE1B DUP3 DUP3 PUSH2 0xCCF JUMP JUMPDEST SWAP2 POP POP PUSH1 0x40 DUP4 ADD MLOAD DUP5 DUP3 SUB PUSH1 0x40 DUP7 ADD MSTORE PUSH2 0xE35 DUP3 DUP3 PUSH2 0xD92 JUMP JUMPDEST SWAP2 POP POP PUSH1 0x60 DUP4 ADD MLOAD PUSH2 0xE4A PUSH1 0x60 DUP7 ADD DUP3 PUSH2 0xC88 JUMP JUMPDEST POP DUP1 SWAP2 POP POP SWAP3 SWAP2 POP POP JUMP JUMPDEST PUSH0 PUSH1 0x20 DUP3 ADD SWAP1 POP DUP2 DUP2 SUB PUSH0 DUP4 ADD MSTORE PUSH2 0xE6D DUP2 DUP5 PUSH2 0xDEE JUMP JUMPDEST SWAP1 POP SWAP3 SWAP2 POP POP JUMP JUMPDEST PUSH2 0xE7E DUP2 PUSH2 0xD4F JUMP JUMPDEST DUP2 EQ PUSH2 0xE88 JUMPI PUSH0 DUP1 REVERT JUMPDEST POP JUMP JUMPDEST PUSH0 DUP2 CALLDATALOAD SWAP1 POP PUSH2 0xE99 DUP2 PUSH2 0xE75 JUMP JUMPDEST SWAP3 SWAP2 POP POP JUMP JUMPDEST PUSH0 PUSH1 0x20 DUP3 DUP5 SUB SLT ISZERO PUSH2 0xEB4 JUMPI PUSH2 0xEB3 PUSH2 0xC1F JUMP JUMPDEST JUMPDEST PUSH0 PUSH2 0xEC1 DUP5 DUP3 DUP6 ADD PUSH2 0xE8B JUMP JUMPDEST SWAP2 POP POP SWAP3 SWAP2 POP POP JUMP JUMPDEST PUSH2 0xED3 DUP2 PUSH2 0xC27 JUMP JUMPDEST DUP3 MSTORE POP POP JUMP JUMPDEST PUSH0 PUSH1 0x20 DUP3 ADD SWAP1 POP PUSH2 0xEEC PUSH0 DUP4 ADD DUP5 PUSH2 0xECA JUMP JUMPDEST SWAP3 SWAP2 POP POP JUMP JUMPDEST PUSH0 DUP2 ISZERO ISZERO SWAP1 POP SWAP2 SWAP1 POP JUMP JUMPDEST PUSH2 0xF06 DUP2 PUSH2 0xEF2 JUMP JUMPDEST DUP3 MSTORE POP POP JUMP JUMPDEST PUSH0 PUSH1 0x20 DUP3 ADD SWAP1 POP PUSH2 0xF1F PUSH0 DUP4 ADD DUP5 PUSH2 0xEFD JUMP JUMPDEST SWAP3 SWAP2 POP POP JUMP JUMPDEST PUSH0 DUP1 REVERT JUMPDEST PUSH0 DUP1 REVERT JUMPDEST PUSH32 0x4E487B7100000000000000000000000000000000000000000000000000000000 PUSH0 MSTORE PUSH1 0x41 PUSH1 0x4 MSTORE PUSH1 0x24 PUSH0 REVERT JUMPDEST PUSH2 0xF63 DUP3 PUSH2 0xCBF JUMP JUMPDEST DUP2 ADD DUP2 DUP2 LT PUSH8 0xFFFFFFFFFFFFFFFF DUP3 GT OR ISZERO PUSH2 0xF82 JUMPI PUSH2 0xF81 PUSH2 0xF2D JUMP JUMPDEST JUMPDEST DUP1 PUSH1 0x40 MSTORE POP POP POP JUMP JUMPDEST PUSH0 PUSH2 0xF94 PUSH2 0xC16 JUMP JUMPDEST SWAP1 POP PUSH2 0xFA0 DUP3 DUP3 PUSH2 0xF5A JUMP JUMPDEST SWAP2 SWAP1 POP JUMP JUMPDEST PUSH0 PUSH8 0xFFFFFFFFFFFFFFFF DUP3 GT ISZERO PUSH2 0xFBF JUMPI PUSH2 0xFBE PUSH2 0xF2D JUMP JUMPDEST JUMPDEST PUSH2 0xFC8 DUP3 PUSH2 0xCBF JUMP JUMPDEST SWAP1 POP PUSH1 0x20 DUP2 ADD SWAP1 POP SWAP2 SWAP1 POP JUMP JUMPDEST DUP3 DUP2 DUP4 CALLDATACOPY PUSH0 DUP4 DUP4 ADD MSTORE POP POP POP JUMP JUMPDEST PUSH0 PUSH2 0xFF5 PUSH2 0xFF0 DUP5 PUSH2 0xFA5 JUMP JUMPDEST PUSH2 0xF8B JUMP JUMPDEST SWAP1 POP DUP3 DUP2 MSTORE PUSH1 0x20 DUP2 ADD DUP5 DUP5 DUP5 ADD GT ISZERO PUSH2 0x1011 JUMPI PUSH2 0x1010 PUSH2 0xF29 JUMP JUMPDEST JUMPDEST PUSH2 0x101C DUP5 DUP3 DUP6 PUSH2 0xFD5 JUMP JUMPDEST POP SWAP4 SWAP3 POP POP POP JUMP JUMPDEST PUSH0 DUP3 PUSH1 0x1F DUP4 ADD SLT PUSH2 0x1038 JUMPI PUSH2 0x1037 PUSH2 0xF25 JUMP JUMPDEST JUMPDEST DUP2 CALLDATALOAD PUSH2 0x1048 DUP5 DUP3 PUSH1 0x20 DUP7 ADD PUSH2 0xFE3 JUMP JUMPDEST SWAP2 POP POP SWAP3 SWAP2 POP POP JUMP JUMPDEST PUSH0 PUSH8 0xFFFFFFFFFFFFFFFF DUP3 GT ISZERO PUSH2 0x106B JUMPI PUSH2 0x106A PUSH2 0xF2D JUMP JUMPDEST JUMPDEST PUSH1 0x20 DUP3 MUL SWAP1 POP PUSH1 0x20 DUP2 ADD SWAP1 POP SWAP2 SWAP1 POP JUMP JUMPDEST PUSH0 DUP1 REVERT JUMPDEST PUSH0 PUSH2 0x1092 PUSH2 0x108D DUP5 PUSH2 0x1051 JUMP JUMPDEST PUSH2 0xF8B JUMP JUMPDEST SWAP1 POP DUP1 DUP4 DUP3 MSTORE PUSH1 0x20 DUP3 ADD SWAP1 POP PUSH1 0x20 DUP5 MUL DUP4 ADD DUP6 DUP2 GT ISZERO PUSH2 0x10B5 JUMPI PUSH2 0x10B4 PUSH2 0x107C JUMP JUMPDEST JUMPDEST DUP4 JUMPDEST DUP2 DUP2 LT ISZERO PUSH2 0x10DE JUMPI DUP1 PUSH2 0x10CA DUP9 DUP3 PUSH2 0xE8B JUMP JUMPDEST DUP5 MSTORE PUSH1 0x20 DUP5 ADD SWAP4 POP POP PUSH1 0x20 DUP2 ADD SWAP1 POP PUSH2 0x10B7 JUMP JUMPDEST POP POP POP SWAP4 SWAP3 POP POP POP JUMP JUMPDEST PUSH0 DUP3 PUSH1 0x1F DUP4 ADD SLT PUSH2 0x10FC JUMPI PUSH2 0x10FB PUSH2 0xF25 JUMP JUMPDEST JUMPDEST DUP2 CALLDATALOAD PUSH2 0x110C DUP5 DUP3 PUSH1 0x20 DUP7 ADD PUSH2 0x1080 JUMP JUMPDEST SWAP2 POP POP SWAP3 SWAP2 POP POP JUMP JUMPDEST PUSH0 DUP1 PUSH0 PUSH1 0x60 DUP5 DUP7 SUB SLT ISZERO PUSH2 0x112C JUMPI PUSH2 0x112B PUSH2 0xC1F JUMP JUMPDEST JUMPDEST PUSH0 PUSH2 0x1139 DUP7 DUP3 DUP8 ADD PUSH2 0xC49 JUMP JUMPDEST SWAP4 POP POP PUSH1 0x20 DUP5 ADD CALLDATALOAD PUSH8 0xFFFFFFFFFFFFFFFF DUP2 GT ISZERO PUSH2 0x115A JUMPI PUSH2 0x1159 PUSH2 0xC23 JUMP JUMPDEST JUMPDEST PUSH2 0x1166 DUP7 DUP3 DUP8 ADD PUSH2 0x1024 JUMP JUMPDEST SWAP3 POP POP PUSH1 0x40 DUP5 ADD CALLDATALOAD PUSH8 0xFFFFFFFFFFFFFFFF DUP2 GT ISZERO PUSH2 0x1187 JUMPI PUSH2 0x1186 PUSH2 0xC23 JUMP JUMPDEST JUMPDEST PUSH2 0x1193 DUP7 DUP3 DUP8 ADD PUSH2 0x10E8 JUMP JUMPDEST SWAP2 POP POP SWAP3 POP SWAP3 POP SWAP3 JUMP JUMPDEST PUSH0 DUP1 PUSH1 0x40 DUP4 DUP6 SUB SLT ISZERO PUSH2 0x11B3 JUMPI PUSH2 0x11B2 PUSH2 0xC1F JUMP JUMPDEST JUMPDEST PUSH0 DUP4 ADD CALLDATALOAD PUSH8 0xFFFFFFFFFFFFFFFF DUP2 GT ISZERO PUSH2 0x11D0 JUMPI PUSH2 0x11CF PUSH2 0xC23 JUMP JUMPDEST JUMPDEST PUSH2 0x11DC DUP6 DUP3 DUP7 ADD PUSH2 0x10E8 JUMP JUMPDEST SWAP3 POP POP PUSH1 0x20 PUSH2 0x11ED DUP6 DUP3 DUP7 ADD PUSH2 0xC49 JUMP JUMPDEST SWAP2 POP POP SWAP3 POP SWAP3 SWAP1 POP JUMP JUMPDEST PUSH0 PUSH1 0x20 DUP3 DUP5 SUB SLT ISZERO PUSH2 0x120C JUMPI PUSH2 0x120B PUSH2 0xC1F JUMP JUMPDEST JUMPDEST PUSH0 DUP3 ADD CALLDATALOAD PUSH8 0xFFFFFFFFFFFFFFFF DUP2 GT ISZERO PUSH2 0x1229 JUMPI PUSH2 0x1228 PUSH2 0xC23 JUMP JUMPDEST JUMPDEST PUSH2 0x1235 DUP5 DUP3 DUP6 ADD PUSH2 0x1024 JUMP JUMPDEST SWAP2 POP POP SWAP3 SWAP2 POP POP JUMP JUMPDEST PUSH0 DUP1 PUSH1 0x40 DUP4 DUP6 SUB SLT ISZERO PUSH2 0x1254 JUMPI PUSH2 0x1253 PUSH2 0xC1F JUMP JUMPDEST JUMPDEST PUSH0 DUP4 ADD CALLDATALOAD PUSH8 0xFFFFFFFFFFFFFFFF DUP2 GT ISZERO PUSH2 0x1271 JUMPI PUSH2 0x1270 PUSH2 0xC23 JUMP JUMPDEST JUMPDEST PUSH2 0x127D DUP6 DUP3 DUP7 ADD PUSH2 0x1024 JUMP JUMPDEST SWAP3 POP POP PUSH1 0x20 DUP4 ADD CALLDATALOAD PUSH8 0xFFFFFFFFFFFFFFFF DUP2 GT ISZERO PUSH2 0x129E JUMPI PUSH2 0x129D PUSH2 0xC23 JUMP JUMPDEST JUMPDEST PUSH2 0x12AA DUP6 DUP3 DUP7 ADD PUSH2 0x10E8 JUMP JUMPDEST SWAP2 POP POP SWAP3 POP SWAP3 SWAP1 POP JUMP JUMPDEST PUSH32 0x4E487B7100000000000000000000000000000000000000000000000000000000 PUSH0 MSTORE PUSH1 0x22 PUSH1 0x4 MSTORE PUSH1 0x24 PUSH0 REVERT JUMPDEST PUSH0 PUSH1 0x2 DUP3 DIV SWAP1 POP PUSH1 0x1 DUP3 AND DUP1 PUSH2 0x12F8 JUMPI PUSH1 0x7F DUP3 AND SWAP2 POP JUMPDEST PUSH1 0x20 DUP3 LT DUP2 SUB PUSH2 0x130B JUMPI PUSH2 0x130A PUSH2 0x12B4 JUMP JUMPDEST JUMPDEST POP SWAP2 SWAP1 POP JUMP JUMPDEST PUSH0 DUP3 DUP3 MSTORE PUSH1 0x20 DUP3 ADD SWAP1 POP SWAP3 SWAP2 POP POP JUMP JUMPDEST PUSH32 0x496E76616C69642070726F6A6563742069642E00000000000000000000000000 PUSH0 DUP3 ADD MSTORE POP JUMP JUMPDEST PUSH0 PUSH2 0x1355 PUSH1 0x13 DUP4 PUSH2 0x1311 JUMP JUMPDEST SWAP2 POP PUSH2 0x1360 DUP3 PUSH2 0x1321 JUMP JUMPDEST PUSH1 0x20 DUP3 ADD SWAP1 POP SWAP2 SWAP1 POP JUMP JUMPDEST PUSH0 PUSH1 0x20 DUP3 ADD SWAP1 POP DUP2 DUP2 SUB PUSH0 DUP4 ADD MSTORE PUSH2 0x1382 DUP2 PUSH2 0x1349 JUMP JUMPDEST SWAP1 POP SWAP2 SWAP1 POP JUMP JUMPDEST PUSH32 0x596F75206861766520616C726561647920766F7465642E000000000000000000 PUSH0 DUP3 ADD MSTORE POP JUMP JUMPDEST PUSH0 PUSH2 0x13BD PUSH1 0x17 DUP4 PUSH2 0x1311 JUMP JUMPDEST SWAP2 POP PUSH2 0x13C8 DUP3 PUSH2 0x1389 JUMP JUMPDEST PUSH1 0x20 DUP3 ADD SWAP1 POP SWAP2 SWAP1 POP JUMP JUMPDEST PUSH0 PUSH1 0x20 DUP3 ADD SWAP1 POP DUP2 DUP2 SUB PUSH0 DUP4 ADD MSTORE PUSH2 0x13EA DUP2 PUSH2 0x13B1 JUMP JUMPDEST SWAP1 POP SWAP2 SWAP1 POP JUMP JUMPDEST PUSH32 0x596F752063616E206E6F7420766F746520796F75722067726F75702E00000000 PUSH0 DUP3 ADD MSTORE POP JUMP JUMPDEST PUSH0 PUSH2 0x1425 PUSH1 0x1C DUP4 PUSH2 0x1311 JUMP JUMPDEST SWAP2 POP PUSH2 0x1430 DUP3 PUSH2 0x13F1 JUMP JUMPDEST PUSH1 0x20 DUP3 ADD SWAP1 POP SWAP2 SWAP1 POP JUMP JUMPDEST PUSH0 PUSH1 0x20 DUP3 ADD SWAP1 POP DUP2 DUP2 SUB PUSH0 DUP4 ADD MSTORE PUSH2 0x1452 DUP2 PUSH2 0x1419 JUMP JUMPDEST SWAP1 POP SWAP2 SWAP1 POP JUMP JUMPDEST PUSH32 0x4E487B7100000000000000000000000000000000000000000000000000000000 PUSH0 MSTORE PUSH1 0x11 PUSH1 0x4 MSTORE PUSH1 0x24 PUSH0 REVERT JUMPDEST PUSH0 PUSH2 0x1490 DUP3 PUSH2 0xC27 JUMP JUMPDEST SWAP2 POP PUSH1 0xFF DUP3 SUB PUSH2 0x14A3 JUMPI PUSH2 0x14A2 PUSH2 0x1459 JUMP JUMPDEST JUMPDEST PUSH1 0x1 DUP3 ADD SWAP1 POP SWAP2 SWAP1 POP JUMP JUMPDEST PUSH32 0x596F752063616E206E6F74206368616E676520616E6F746865722070726F6A65 PUSH0 DUP3 ADD MSTORE PUSH32 0x63742064657461696C732E000000000000000000000000000000000000000000 PUSH1 0x20 DUP3 ADD MSTORE POP JUMP JUMPDEST PUSH0 PUSH2 0x1508 PUSH1 0x2B DUP4 PUSH2 0x1311 JUMP JUMPDEST SWAP2 POP PUSH2 0x1513 DUP3 PUSH2 0x14AE JUMP JUMPDEST PUSH1 0x40 DUP3 ADD SWAP1 POP SWAP2 SWAP1 POP JUMP JUMPDEST PUSH0 PUSH1 0x20 DUP3 ADD SWAP1 POP DUP2 DUP2 SUB PUSH0 DUP4 ADD MSTORE PUSH2 0x1535 DUP2 PUSH2 0x14FC JUMP JUMPDEST SWAP1 POP SWAP2 SWAP1 POP JUMP JUMPDEST PUSH0 DUP2 SWAP1 POP DUP2 PUSH0 MSTORE PUSH1 0x20 PUSH0 KECCAK256 SWAP1 POP SWAP2 SWAP1 POP JUMP JUMPDEST PUSH0 PUSH1 0x20 PUSH1 0x1F DUP4 ADD DIV SWAP1 POP SWAP2 SWAP1 POP JUMP JUMPDEST PUSH0 DUP3 DUP3 SHL SWAP1 POP SWAP3 SWAP2 POP POP JUMP JUMPDEST PUSH0 PUSH1 0x8 DUP4 MUL PUSH2 0x1598 PUSH32 0xFFFFFFFFFFFFFFFFFFFFFFFFFFFFFFFFFFFFFFFFFFFFFFFFFFFFFFFFFFFFFFFF DUP3 PUSH2 0x155D JUMP JUMPDEST PUSH2 0x15A2 DUP7 DUP4 PUSH2 0x155D JUMP JUMPDEST SWAP6 POP DUP1 NOT DUP5 AND SWAP4 POP DUP1 DUP7 AND DUP5 OR SWAP3 POP POP POP SWAP4 SWAP3 POP POP POP JUMP JUMPDEST PUSH0 DUP2 SWAP1 POP SWAP2 SWAP1 POP JUMP JUMPDEST PUSH0 DUP2 SWAP1 POP SWAP2 SWAP1 POP JUMP JUMPDEST PUSH0 PUSH2 0x15E6 PUSH2 0x15E1 PUSH2 0x15DC DUP5 PUSH2 0x15BA JUMP JUMPDEST PUSH2 0x15C3 JUMP JUMPDEST PUSH2 0x15BA JUMP JUMPDEST SWAP1 POP SWAP2 SWAP1 POP JUMP JUMPDEST PUSH0 DUP2 SWAP1 POP SWAP2 SWAP1 POP JUMP JUMPDEST PUSH2 0x15FF DUP4 PUSH2 0x15CC JUMP JUMPDEST PUSH2 0x1613 PUSH2 0x160B DUP3 PUSH2 0x15ED JUMP JUMPDEST DUP5 DUP5 SLOAD PUSH2 0x1569 JUMP JUMPDEST DUP3 SSTORE POP POP POP POP JUMP JUMPDEST PUSH0 SWAP1 JUMP JUMPDEST PUSH2 0x1627 PUSH2 0x161B JUMP JUMPDEST PUSH2 0x1632 DUP2 DUP5 DUP5 PUSH2 0x15F6 JUMP JUMPDEST POP POP POP JUMP JUMPDEST JUMPDEST DUP2 DUP2 LT ISZERO PUSH2 0x1655 JUMPI PUSH2 0x164A PUSH0 DUP3 PUSH2 0x161F JUMP JUMPDEST PUSH1 0x1 DUP2 ADD SWAP1 POP PUSH2 0x1638 JUMP JUMPDEST POP POP JUMP JUMPDEST PUSH1 0x1F DUP3 GT ISZERO PUSH2 0x169A JUMPI PUSH2 0x166B DUP2 PUSH2 0x153C JUMP JUMPDEST PUSH2 0x1674 DUP5 PUSH2 0x154E JUMP JUMPDEST DUP2 ADD PUSH1 0x20 DUP6 LT ISZERO PUSH2 0x1683 JUMPI DUP2 SWAP1 POP JUMPDEST PUSH2 0x1697 PUSH2 0x168F DUP6 PUSH2 0x154E JUMP JUMPDEST DUP4 ADD DUP3 PUSH2 0x1637 JUMP JUMPDEST POP POP JUMPDEST POP POP POP JUMP JUMPDEST PUSH0 DUP3 DUP3 SHR SWAP1 POP SWAP3 SWAP2 POP POP JUMP JUMPDEST PUSH0 PUSH2 0x16BA PUSH0 NOT DUP5 PUSH1 0x8 MUL PUSH2 0x169F JUMP JUMPDEST NOT DUP1 DUP4 AND SWAP2 POP POP SWAP3 SWAP2 POP POP JUMP JUMPDEST PUSH0 PUSH2 0x16D2 DUP4 DUP4 PUSH2 0x16AB JUMP JUMPDEST SWAP2 POP DUP3 PUSH1 0x2 MUL DUP3 OR SWAP1 POP SWAP3 SWAP2 POP POP JUMP JUMPDEST PUSH2 0x16EB DUP3 PUSH2 0xC97 JUMP JUMPDEST PUSH8 0xFFFFFFFFFFFFFFFF DUP2 GT ISZERO PUSH2 0x1704 JUMPI PUSH2 0x1703 PUSH2 0xF2D JUMP JUMPDEST JUMPDEST PUSH2 0x170E DUP3 SLOAD PUSH2 0x12E1 JUMP JUMPDEST PUSH2 0x1719 DUP3 DUP3 DUP6 PUSH2 0x1659 JUMP JUMPDEST PUSH0 PUSH1 0x20 SWAP1 POP PUSH1 0x1F DUP4 GT PUSH1 0x1 DUP2 EQ PUSH2 0x174A JUMPI PUSH0 DUP5 ISZERO PUSH2 0x1738 JUMPI DUP3 DUP8 ADD MLOAD SWAP1 POP JUMPDEST PUSH2 0x1742 DUP6 DUP3 PUSH2 0x16C7 JUMP JUMPDEST DUP7 SSTORE POP PUSH2 0x17A9 JUMP JUMPDEST PUSH1 0x1F NOT DUP5 AND PUSH2 0x1758 DUP7 PUSH2 0x153C JUMP JUMPDEST PUSH0 JUMPDEST DUP3 DUP2 LT ISZERO PUSH2 0x177F JUMPI DUP5 DUP10 ADD MLOAD DUP3 SSTORE PUSH1 0x1 DUP3 ADD SWAP2 POP PUSH1 0x20 DUP6 ADD SWAP5 POP PUSH1 0x20 DUP2 ADD SWAP1 POP PUSH2 0x175A JUMP JUMPDEST DUP7 DUP4 LT ISZERO PUSH2 0x179C JUMPI DUP5 DUP10 ADD MLOAD PUSH2 0x1798 PUSH1 0x1F DUP10 AND DUP3 PUSH2 0x16AB JUMP JUMPDEST DUP4 SSTORE POP JUMPDEST PUSH1 0x1 PUSH1 0x2 DUP9 MUL ADD DUP9 SSTORE POP POP POP JUMPDEST POP POP POP POP POP POP JUMP JUMPDEST PUSH0 PUSH2 0x17BB DUP3 PUSH2 0xC97 JUMP JUMPDEST PUSH2 0x17C5 DUP2 DUP6 PUSH2 0x1311 JUMP JUMPDEST SWAP4 POP PUSH2 0x17D5 DUP2 DUP6 PUSH1 0x20 DUP7 ADD PUSH2 0xCB1 JUMP JUMPDEST PUSH2 0x17DE DUP2 PUSH2 0xCBF JUMP JUMPDEST DUP5 ADD SWAP2 POP POP SWAP3 SWAP2 POP POP JUMP JUMPDEST PUSH0 PUSH1 0x20 DUP3 ADD SWAP1 POP DUP2 DUP2 SUB PUSH0 DUP4 ADD MSTORE PUSH2 0x1801 DUP2 DUP5 PUSH2 0x17B1 JUMP JUMPDEST SWAP1 POP SWAP3 SWAP2 POP POP JUMP JUMPDEST PUSH32 0x4E487B7100000000000000000000000000000000000000000000000000000000 PUSH0 MSTORE PUSH1 0x32 PUSH1 0x4 MSTORE PUSH1 0x24 PUSH0 REVERT JUMPDEST PUSH32 0x57616C6C6574206861642070726576696F75736C792061646465642E00000000 PUSH0 DUP3 ADD MSTORE POP JUMP JUMPDEST PUSH0 PUSH2 0x186A PUSH1 0x1C DUP4 PUSH2 0x1311 JUMP JUMPDEST SWAP2 POP PUSH2 0x1875 DUP3 PUSH2 0x1836 JUMP JUMPDEST PUSH1 0x20 DUP3 ADD SWAP1 POP SWAP2 SWAP1 POP JUMP JUMPDEST PUSH0 PUSH1 0x20 DUP3 ADD SWAP1 POP DUP2 DUP2 SUB PUSH0 DUP4 ADD MSTORE PUSH2 0x1897 DUP2 PUSH2 0x185E JUMP JUMPDEST SWAP1 POP SWAP2 SWAP1 POP JUMP JUMPDEST PUSH0 DUP2 SWAP1 POP SWAP3 SWAP2 POP POP JUMP JUMPDEST PUSH0 PUSH2 0x18B2 DUP3 PUSH2 0xC97 JUMP JUMPDEST PUSH2 0x18BC DUP2 DUP6 PUSH2 0x189E JUMP JUMPDEST SWAP4 POP PUSH2 0x18CC DUP2 DUP6 PUSH1 0x20 DUP7 ADD PUSH2 0xCB1 JUMP JUMPDEST DUP1 DUP5 ADD SWAP2 POP POP SWAP3 SWAP2 POP POP JUMP JUMPDEST PUSH0 PUSH2 0x18E3 DUP3 DUP5 PUSH2 0x18A8 JUMP JUMPDEST SWAP2 POP DUP2 SWAP1 POP SWAP3 SWAP2 POP POP JUMP JUMPDEST PUSH32 0x5468652070726F6A656374206861642070726576696F75736C79206164646564 PUSH0 DUP3 ADD MSTORE PUSH32 0x2E00000000000000000000000000000000000000000000000000000000000000 PUSH1 0x20 DUP3 ADD MSTORE POP JUMP JUMPDEST PUSH0 PUSH2 0x1948 PUSH1 0x21 DUP4 PUSH2 0x1311 JUMP JUMPDEST SWAP2 POP PUSH2 0x1953 DUP3 PUSH2 0x18EE JUMP JUMPDEST PUSH1 0x40 DUP3 ADD SWAP1 POP SWAP2 SWAP1 POP JUMP JUMPDEST PUSH0 PUSH1 0x20 DUP3 ADD SWAP1 POP DUP2 DUP2 SUB PUSH0 DUP4 ADD MSTORE PUSH2 0x1975 DUP2 PUSH2 0x193C JUMP JUMPDEST SWAP1 POP SWAP2 SWAP1 POP JUMP INVALID LOG2 PUSH5 0x6970667358 0x22 SLT KECCAK256 0x4F 0x29 PUSH20 0x92DDE32899DCC566B5B2F7FD28428913B155F10 CALL 0xC7 0xED PUSH21 0x4F88F1151064736F6C634300081A00330000000000 "
				},
				"gasEstimates": {
					"creation": {
						"codeDepositCost": "1315600",
						"executionCost": "25633",
						"totalCost": "1341233"
					},
					"external": {
						"addProject(string,address[])": "infinite",
						"getIsVoted(address)": "2914",
						"getProjectDetail(uint8)": "infinite",
						"getProjectIDByName(string)": "infinite",
						"getWalletGroup(address)": "2893",
						"identifyWallets(address[],uint8)": "infinite",
						"updateProject(uint8,string,address[])": "infinite",
						"vote(uint8)": "infinite"
					}
				},
				"methodIdentifiers": {
					"addProject(string,address[])": "fb7c2135",
					"getIsVoted(address)": "ebff1439",
					"getProjectDetail(uint8)": "0e42d15c",
					"getProjectIDByName(string)": "dcf4b526",
					"getWalletGroup(address)": "1ba6c80e",
					"identifyWallets(address[],uint8)": "c343cc32",
					"updateProject(uint8,string,address[])": "b439dc28",
					"vote(uint8)": "b3f98adc"
				}
			},
			"storageLayout": {
				"storage": [
					{
						"astId": 16,
						"contract": "contracts/Classes/Class4/KapsulVoting.sol:KapsulVoting",
						"label": "projectDetail",
						"offset": 0,
						"slot": "0",
						"type": "t_mapping(t_uint8,t_struct(Project)11_storage)"
					},
					{
						"astId": 20,
						"contract": "contracts/Classes/Class4/KapsulVoting.sol:KapsulVoting",
						"label": "projectIDByName",
						"offset": 0,
						"slot": "1",
						"type": "t_mapping(t_string_memory_ptr,t_uint8)"
					},
					{
						"astId": 24,
						"contract": "contracts/Classes/Class4/KapsulVoting.sol:KapsulVoting",
						"label": "walletGroup",
						"offset": 0,
						"slot": "2",
						"type": "t_mapping(t_address,t_uint8)"
					},
					{
						"astId": 28,
						"contract": "contracts/Classes/Class4/KapsulVoting.sol:KapsulVoting",
						"label": "isVoted",
						"offset": 0,
						"slot": "3",
						"type": "t_mapping(t_address,t_bool)"
					},
					{
						"astId": 43,
						"contract": "contracts/Classes/Class4/KapsulVoting.sol:KapsulVoting",
						"label": "groupCount",
						"offset": 0,
						"slot": "4",
						"type": "t_uint8"
					}
				],
				"types": {
					"t_address": {
						"encoding": "inplace",
						"label": "address",
						"numberOfBytes": "20"
					},
					"t_array(t_address)dyn_storage": {
						"base": "t_address",
						"encoding": "dynamic_array",
						"label": "address[]",
						"numberOfBytes": "32"
					},
					"t_bool": {
						"encoding": "inplace",
						"label": "bool",
						"numberOfBytes": "1"
					},
					"t_mapping(t_address,t_bool)": {
						"encoding": "mapping",
						"key": "t_address",
						"label": "mapping(address => bool)",
						"numberOfBytes": "32",
						"value": "t_bool"
					},
					"t_mapping(t_address,t_uint8)": {
						"encoding": "mapping",
						"key": "t_address",
						"label": "mapping(address => uint8)",
						"numberOfBytes": "32",
						"value": "t_uint8"
					},
					"t_mapping(t_string_memory_ptr,t_uint8)": {
						"encoding": "mapping",
						"key": "t_string_memory_ptr",
						"label": "mapping(string => uint8)",
						"numberOfBytes": "32",
						"value": "t_uint8"
					},
					"t_mapping(t_uint8,t_struct(Project)11_storage)": {
						"encoding": "mapping",
						"key": "t_uint8",
						"label": "mapping(uint8 => struct KapsulVoting.Project)",
						"numberOfBytes": "32",
						"value": "t_struct(Project)11_storage"
					},
					"t_string_memory_ptr": {
						"encoding": "bytes",
						"label": "string",
						"numberOfBytes": "32"
					},
					"t_string_storage": {
						"encoding": "bytes",
						"label": "string",
						"numberOfBytes": "32"
					},
					"t_struct(Project)11_storage": {
						"encoding": "inplace",
						"label": "struct KapsulVoting.Project",
						"members": [
							{
								"astId": 3,
								"contract": "contracts/Classes/Class4/KapsulVoting.sol:KapsulVoting",
								"label": "id",
								"offset": 0,
								"slot": "0",
								"type": "t_uint8"
							},
							{
								"astId": 5,
								"contract": "contracts/Classes/Class4/KapsulVoting.sol:KapsulVoting",
								"label": "projectName",
								"offset": 0,
								"slot": "1",
								"type": "t_string_storage"
							},
							{
								"astId": 8,
								"contract": "contracts/Classes/Class4/KapsulVoting.sol:KapsulVoting",
								"label": "teamWallets",
								"offset": 0,
								"slot": "2",
								"type": "t_array(t_address)dyn_storage"
							},
							{
								"astId": 10,
								"contract": "contracts/Classes/Class4/KapsulVoting.sol:KapsulVoting",
								"label": "voteCount",
								"offset": 0,
								"slot": "3",
								"type": "t_uint8"
							}
						],
						"numberOfBytes": "128"
					},
					"t_uint8": {
						"encoding": "inplace",
						"label": "uint8",
						"numberOfBytes": "1"
					}
				}
			},
			"userdoc": {
				"kind": "user",
				"methods": {},
				"version": 1
			}
		}
	}
}