{
	"contracts/Exercise.sol": {
		"Exercise": {
			"abi": [
				{
					"inputs": [],
					"stateMutability": "nonpayable",
					"type": "constructor"
				},
				{
					"inputs": [],
					"name": "get_id",
					"outputs": [
						{
							"internalType": "uint8",
							"name": "",
							"type": "uint8"
						}
					],
					"stateMutability": "view",
					"type": "function"
				},
				{
					"inputs": [
						{
							"internalType": "uint8",
							"name": "_id",
							"type": "uint8"
						}
					],
					"name": "set_id",
					"outputs": [
						{
							"internalType": "bool",
							"name": "",
							"type": "bool"
						}
					],
					"stateMutability": "nonpayable",
					"type": "function"
				}
			],
			"devdoc": {
				"kind": "dev",
				"methods": {},
				"version": 1
			},
			"evm": {
				"assembly": "    /* \"contracts/Exercise.sol\":96:504  contract Exercise {... */\n  mstore(0x40, 0x80)\n    /* \"contracts/Exercise.sol\":158:209  constructor(){... */\n  callvalue\n  dup1\n  iszero\n  tag_1\n  jumpi\n  0x00\n  dup1\n  revert\ntag_1:\n  pop\n    /* \"contracts/Exercise.sol\":190:200  msg.sender */\n  caller\n    /* \"contracts/Exercise.sol\":182:187  owner */\n  0x00\n  dup1\n    /* \"contracts/Exercise.sol\":182:200  owner = msg.sender */\n  0x0100\n  exp\n  dup2\n  sload\n  dup2\n  0xffffffffffffffffffffffffffffffffffffffff\n  mul\n  not\n  and\n  swap1\n  dup4\n  0xffffffffffffffffffffffffffffffffffffffff\n  and\n  mul\n  or\n  swap1\n  sstore\n  pop\n    /* \"contracts/Exercise.sol\":96:504  contract Exercise {... */\n  dataSize(sub_0)\n  dup1\n  dataOffset(sub_0)\n  0x00\n  codecopy\n  0x00\n  return\nstop\n\nsub_0: assembly {\n        /* \"contracts/Exercise.sol\":96:504  contract Exercise {... */\n      mstore(0x40, 0x80)\n      callvalue\n      dup1\n      iszero\n      tag_1\n      jumpi\n      0x00\n      dup1\n      revert\n    tag_1:\n      pop\n      jumpi(tag_2, lt(calldatasize, 0x04))\n      shr(0xe0, calldataload(0x00))\n      dup1\n      0xc4e37339\n      eq\n      tag_3\n      jumpi\n      dup1\n      0xf43fa805\n      eq\n      tag_4\n      jumpi\n    tag_2:\n      0x00\n      dup1\n      revert\n        /* \"contracts/Exercise.sol\":298:499  function set_id(uint8 _id) public returns(bool){... */\n    tag_3:\n      tag_5\n      0x04\n      dup1\n      calldatasize\n      sub\n      dup2\n      add\n      swap1\n      tag_6\n      swap2\n      swap1\n      tag_7\n      jump\t// in\n    tag_6:\n      tag_8\n      jump\t// in\n    tag_5:\n      mload(0x40)\n      tag_9\n      swap2\n      swap1\n      tag_10\n      jump\t// in\n    tag_9:\n      mload(0x40)\n      dup1\n      swap2\n      sub\n      swap1\n      return\n        /* \"contracts/Exercise.sol\":217:290  function get_id() public view returns(uint8) {... */\n    tag_4:\n      tag_11\n      tag_12\n      jump\t// in\n    tag_11:\n      mload(0x40)\n      tag_13\n      swap2\n      swap1\n      tag_14\n      jump\t// in\n    tag_13:\n      mload(0x40)\n      dup1\n      swap2\n      sub\n      swap1\n      return\n        /* \"contracts/Exercise.sol\":298:499  function set_id(uint8 _id) public returns(bool){... */\n    tag_8:\n        /* \"contracts/Exercise.sol\":340:344  bool */\n      0x00\n        /* \"contracts/Exercise.sol\":377:379  42 */\n      0x2a\n        /* \"contracts/Exercise.sol\":370:373  _id */\n      dup3\n        /* \"contracts/Exercise.sol\":370:379  _id == 42 */\n      0xff\n      and\n      eq\n        /* \"contracts/Exercise.sol\":370:402  _id == 42 && msg.sender != owner */\n      dup1\n      iszero\n      tag_16\n      jumpi\n      pop\n        /* \"contracts/Exercise.sol\":397:402  owner */\n      0x00\n      dup1\n      sload\n      swap1\n      0x0100\n      exp\n      swap1\n      div\n      0xffffffffffffffffffffffffffffffffffffffff\n      and\n        /* \"contracts/Exercise.sol\":383:402  msg.sender != owner */\n      0xffffffffffffffffffffffffffffffffffffffff\n      and\n        /* \"contracts/Exercise.sol\":383:393  msg.sender */\n      caller\n        /* \"contracts/Exercise.sol\":383:402  msg.sender != owner */\n      0xffffffffffffffffffffffffffffffffffffffff\n      and\n      eq\n      iszero\n        /* \"contracts/Exercise.sol\":370:402  _id == 42 && msg.sender != owner */\n    tag_16:\n        /* \"contracts/Exercise.sol\":366:467  if (_id == 42 && msg.sender != owner)... */\n      iszero\n      tag_17\n      jumpi\n        /* \"contracts/Exercise.sol\":424:429  false */\n      0x00\n        /* \"contracts/Exercise.sol\":417:429  return false */\n      swap1\n      pop\n      jump(tag_15)\n        /* \"contracts/Exercise.sol\":366:467  if (_id == 42 && msg.sender != owner)... */\n    tag_17:\n        /* \"contracts/Exercise.sol\":464:467  _id */\n      dup2\n        /* \"contracts/Exercise.sol\":459:461  id */\n      0x00\n      0x14\n        /* \"contracts/Exercise.sol\":459:467  id = _id */\n      0x0100\n      exp\n      dup2\n      sload\n      dup2\n      0xff\n      mul\n      not\n      and\n      swap1\n      dup4\n      0xff\n      and\n      mul\n      or\n      swap1\n      sstore\n      pop\n        /* \"contracts/Exercise.sol\":487:491  true */\n      0x01\n        /* \"contracts/Exercise.sol\":480:491  return true */\n      swap1\n      pop\n        /* \"contracts/Exercise.sol\":298:499  function set_id(uint8 _id) public returns(bool){... */\n    tag_15:\n      swap2\n      swap1\n      pop\n      jump\t// out\n        /* \"contracts/Exercise.sol\":217:290  function get_id() public view returns(uint8) {... */\n    tag_12:\n        /* \"contracts/Exercise.sol\":255:260  uint8 */\n      0x00\n        /* \"contracts/Exercise.sol\":280:282  id */\n      dup1\n      0x14\n      swap1\n      sload\n      swap1\n      0x0100\n      exp\n      swap1\n      div\n      0xff\n      and\n        /* \"contracts/Exercise.sol\":273:282  return id */\n      swap1\n      pop\n        /* \"contracts/Exercise.sol\":217:290  function get_id() public view returns(uint8) {... */\n      swap1\n      jump\t// out\n        /* \"#utility.yul\":88:205   */\n    tag_21:\n        /* \"#utility.yul\":197:198   */\n      0x00\n        /* \"#utility.yul\":194:195   */\n      dup1\n        /* \"#utility.yul\":187:199   */\n      revert\n        /* \"#utility.yul\":334:420   */\n    tag_23:\n        /* \"#utility.yul\":369:376   */\n      0x00\n        /* \"#utility.yul\":409:413   */\n      0xff\n        /* \"#utility.yul\":402:407   */\n      dup3\n        /* \"#utility.yul\":398:414   */\n      and\n        /* \"#utility.yul\":387:414   */\n      swap1\n      pop\n        /* \"#utility.yul\":334:420   */\n      swap2\n      swap1\n      pop\n      jump\t// out\n        /* \"#utility.yul\":426:544   */\n    tag_24:\n        /* \"#utility.yul\":497:519   */\n      tag_35\n        /* \"#utility.yul\":513:518   */\n      dup2\n        /* \"#utility.yul\":497:519   */\n      tag_23\n      jump\t// in\n    tag_35:\n        /* \"#utility.yul\":490:495   */\n      dup2\n        /* \"#utility.yul\":487:520   */\n      eq\n        /* \"#utility.yul\":477:538   */\n      tag_36\n      jumpi\n        /* \"#utility.yul\":534:535   */\n      0x00\n        /* \"#utility.yul\":531:532   */\n      dup1\n        /* \"#utility.yul\":524:536   */\n      revert\n        /* \"#utility.yul\":477:538   */\n    tag_36:\n        /* \"#utility.yul\":426:544   */\n      pop\n      jump\t// out\n        /* \"#utility.yul\":550:685   */\n    tag_25:\n        /* \"#utility.yul\":594:599   */\n      0x00\n        /* \"#utility.yul\":632:638   */\n      dup2\n        /* \"#utility.yul\":619:639   */\n      calldataload\n        /* \"#utility.yul\":610:639   */\n      swap1\n      pop\n        /* \"#utility.yul\":648:679   */\n      tag_38\n        /* \"#utility.yul\":673:678   */\n      dup2\n        /* \"#utility.yul\":648:679   */\n      tag_24\n      jump\t// in\n    tag_38:\n        /* \"#utility.yul\":550:685   */\n      swap3\n      swap2\n      pop\n      pop\n      jump\t// out\n        /* \"#utility.yul\":691:1016   */\n    tag_7:\n        /* \"#utility.yul\":748:754   */\n      0x00\n        /* \"#utility.yul\":797:799   */\n      0x20\n        /* \"#utility.yul\":785:794   */\n      dup3\n        /* \"#utility.yul\":776:783   */\n      dup5\n        /* \"#utility.yul\":772:795   */\n      sub\n        /* \"#utility.yul\":768:800   */\n      slt\n        /* \"#utility.yul\":765:884   */\n      iszero\n      tag_40\n      jumpi\n        /* \"#utility.yul\":803:882   */\n      tag_41\n      tag_21\n      jump\t// in\n    tag_41:\n        /* \"#utility.yul\":765:884   */\n    tag_40:\n        /* \"#utility.yul\":923:924   */\n      0x00\n        /* \"#utility.yul\":948:999   */\n      tag_42\n        /* \"#utility.yul\":991:998   */\n      dup5\n        /* \"#utility.yul\":982:988   */\n      dup3\n        /* \"#utility.yul\":971:980   */\n      dup6\n        /* \"#utility.yul\":967:989   */\n      add\n        /* \"#utility.yul\":948:999   */\n      tag_25\n      jump\t// in\n    tag_42:\n        /* \"#utility.yul\":938:999   */\n      swap2\n      pop\n        /* \"#utility.yul\":894:1009   */\n      pop\n        /* \"#utility.yul\":691:1016   */\n      swap3\n      swap2\n      pop\n      pop\n      jump\t// out\n        /* \"#utility.yul\":1022:1112   */\n    tag_26:\n        /* \"#utility.yul\":1056:1063   */\n      0x00\n        /* \"#utility.yul\":1099:1104   */\n      dup2\n        /* \"#utility.yul\":1092:1105   */\n      iszero\n        /* \"#utility.yul\":1085:1106   */\n      iszero\n        /* \"#utility.yul\":1074:1106   */\n      swap1\n      pop\n        /* \"#utility.yul\":1022:1112   */\n      swap2\n      swap1\n      pop\n      jump\t// out\n        /* \"#utility.yul\":1118:1227   */\n    tag_27:\n        /* \"#utility.yul\":1199:1220   */\n      tag_45\n        /* \"#utility.yul\":1214:1219   */\n      dup2\n        /* \"#utility.yul\":1199:1220   */\n      tag_26\n      jump\t// in\n    tag_45:\n        /* \"#utility.yul\":1194:1197   */\n      dup3\n        /* \"#utility.yul\":1187:1221   */\n      mstore\n        /* \"#utility.yul\":1118:1227   */\n      pop\n      pop\n      jump\t// out\n        /* \"#utility.yul\":1233:1443   */\n    tag_10:\n        /* \"#utility.yul\":1320:1324   */\n      0x00\n        /* \"#utility.yul\":1358:1360   */\n      0x20\n        /* \"#utility.yul\":1347:1356   */\n      dup3\n        /* \"#utility.yul\":1343:1361   */\n      add\n        /* \"#utility.yul\":1335:1361   */\n      swap1\n      pop\n        /* \"#utility.yul\":1371:1436   */\n      tag_47\n        /* \"#utility.yul\":1433:1434   */\n      0x00\n        /* \"#utility.yul\":1422:1431   */\n      dup4\n        /* \"#utility.yul\":1418:1435   */\n      add\n        /* \"#utility.yul\":1409:1415   */\n      dup5\n        /* \"#utility.yul\":1371:1436   */\n      tag_27\n      jump\t// in\n    tag_47:\n        /* \"#utility.yul\":1233:1443   */\n      swap3\n      swap2\n      pop\n      pop\n      jump\t// out\n        /* \"#utility.yul\":1449:1561   */\n    tag_28:\n        /* \"#utility.yul\":1532:1554   */\n      tag_49\n        /* \"#utility.yul\":1548:1553   */\n      dup2\n        /* \"#utility.yul\":1532:1554   */\n      tag_23\n      jump\t// in\n    tag_49:\n        /* \"#utility.yul\":1527:1530   */\n      dup3\n        /* \"#utility.yul\":1520:1555   */\n      mstore\n        /* \"#utility.yul\":1449:1561   */\n      pop\n      pop\n      jump\t// out\n        /* \"#utility.yul\":1567:1781   */\n    tag_14:\n        /* \"#utility.yul\":1656:1660   */\n      0x00\n        /* \"#utility.yul\":1694:1696   */\n      0x20\n        /* \"#utility.yul\":1683:1692   */\n      dup3\n        /* \"#utility.yul\":1679:1697   */\n      add\n        /* \"#utility.yul\":1671:1697   */\n      swap1\n      pop\n        /* \"#utility.yul\":1707:1774   */\n      tag_51\n        /* \"#utility.yul\":1771:1772   */\n      0x00\n        /* \"#utility.yul\":1760:1769   */\n      dup4\n        /* \"#utility.yul\":1756:1773   */\n      add\n        /* \"#utility.yul\":1747:1753   */\n      dup5\n        /* \"#utility.yul\":1707:1774   */\n      tag_28\n      jump\t// in\n    tag_51:\n        /* \"#utility.yul\":1567:1781   */\n      swap3\n      swap2\n      pop\n      pop\n      jump\t// out\n\n    auxdata: 0xa26469706673582212201ba7372c18dfa968961fef65a2b3509029ee507c08a59ab470ddf87e659985a564736f6c634300081a0033\n}\n",
				"bytecode": {
					"linkReferences": {},
					"object": "6080604052348015600e575f80fd5b50335f806101000a81548173ffffffffffffffffffffffffffffffffffffffff021916908373ffffffffffffffffffffffffffffffffffffffff1602179055506102218061005b5f395ff3fe608060405234801561000f575f80fd5b5060043610610034575f3560e01c8063c4e3733914610038578063f43fa80514610068575b5f80fd5b610052600480360381019061004d9190610165565b610086565b60405161005f91906101aa565b60405180910390f35b610070610116565b60405161007d91906101d2565b60405180910390f35b5f602a8260ff161480156100e557505f8054906101000a900473ffffffffffffffffffffffffffffffffffffffff1673ffffffffffffffffffffffffffffffffffffffff163373ffffffffffffffffffffffffffffffffffffffff1614155b156100f2575f9050610111565b815f60146101000a81548160ff021916908360ff160217905550600190505b919050565b5f8060149054906101000a900460ff16905090565b5f80fd5b5f60ff82169050919050565b6101448161012f565b811461014e575f80fd5b50565b5f8135905061015f8161013b565b92915050565b5f6020828403121561017a5761017961012b565b5b5f61018784828501610151565b91505092915050565b5f8115159050919050565b6101a481610190565b82525050565b5f6020820190506101bd5f83018461019b565b92915050565b6101cc8161012f565b82525050565b5f6020820190506101e55f8301846101c3565b9291505056fea26469706673582212201ba7372c18dfa968961fef65a2b3509029ee507c08a59ab470ddf87e659985a564736f6c634300081a0033",
					"opcodes": "PUSH1 0x80 PUSH1 0x40 MSTORE CALLVALUE DUP1 ISZERO PUSH1 0xE JUMPI PUSH0 DUP1 REVERT JUMPDEST POP CALLER PUSH0 DUP1 PUSH2 0x100 EXP DUP2 SLOAD DUP2 PUSH20 0xFFFFFFFFFFFFFFFFFFFFFFFFFFFFFFFFFFFFFFFF MUL NOT AND SWAP1 DUP4 PUSH20 0xFFFFFFFFFFFFFFFFFFFFFFFFFFFFFFFFFFFFFFFF AND MUL OR SWAP1 SSTORE POP PUSH2 0x221 DUP1 PUSH2 0x5B PUSH0 CODECOPY PUSH0 RETURN INVALID PUSH1 0x80 PUSH1 0x40 MSTORE CALLVALUE DUP1 ISZERO PUSH2 0xF JUMPI PUSH0 DUP1 REVERT JUMPDEST POP PUSH1 0x4 CALLDATASIZE LT PUSH2 0x34 JUMPI PUSH0 CALLDATALOAD PUSH1 0xE0 SHR DUP1 PUSH4 0xC4E37339 EQ PUSH2 0x38 JUMPI DUP1 PUSH4 0xF43FA805 EQ PUSH2 0x68 JUMPI JUMPDEST PUSH0 DUP1 REVERT JUMPDEST PUSH2 0x52 PUSH1 0x4 DUP1 CALLDATASIZE SUB DUP2 ADD SWAP1 PUSH2 0x4D SWAP2 SWAP1 PUSH2 0x165 JUMP JUMPDEST PUSH2 0x86 JUMP JUMPDEST PUSH1 0x40 MLOAD PUSH2 0x5F SWAP2 SWAP1 PUSH2 0x1AA JUMP JUMPDEST PUSH1 0x40 MLOAD DUP1 SWAP2 SUB SWAP1 RETURN JUMPDEST PUSH2 0x70 PUSH2 0x116 JUMP JUMPDEST PUSH1 0x40 MLOAD PUSH2 0x7D SWAP2 SWAP1 PUSH2 0x1D2 JUMP JUMPDEST PUSH1 0x40 MLOAD DUP1 SWAP2 SUB SWAP1 RETURN JUMPDEST PUSH0 PUSH1 0x2A DUP3 PUSH1 0xFF AND EQ DUP1 ISZERO PUSH2 0xE5 JUMPI POP PUSH0 DUP1 SLOAD SWAP1 PUSH2 0x100 EXP SWAP1 DIV PUSH20 0xFFFFFFFFFFFFFFFFFFFFFFFFFFFFFFFFFFFFFFFF AND PUSH20 0xFFFFFFFFFFFFFFFFFFFFFFFFFFFFFFFFFFFFFFFF AND CALLER PUSH20 0xFFFFFFFFFFFFFFFFFFFFFFFFFFFFFFFFFFFFFFFF AND EQ ISZERO JUMPDEST ISZERO PUSH2 0xF2 JUMPI PUSH0 SWAP1 POP PUSH2 0x111 JUMP JUMPDEST DUP2 PUSH0 PUSH1 0x14 PUSH2 0x100 EXP DUP2 SLOAD DUP2 PUSH1 0xFF MUL NOT AND SWAP1 DUP4 PUSH1 0xFF AND MUL OR SWAP1 SSTORE POP PUSH1 0x1 SWAP1 POP JUMPDEST SWAP2 SWAP1 POP JUMP JUMPDEST PUSH0 DUP1 PUSH1 0x14 SWAP1 SLOAD SWAP1 PUSH2 0x100 EXP SWAP1 DIV PUSH1 0xFF AND SWAP1 POP SWAP1 JUMP JUMPDEST PUSH0 DUP1 REVERT JUMPDEST PUSH0 PUSH1 0xFF DUP3 AND SWAP1 POP SWAP2 SWAP1 POP JUMP JUMPDEST PUSH2 0x144 DUP2 PUSH2 0x12F JUMP JUMPDEST DUP2 EQ PUSH2 0x14E JUMPI PUSH0 DUP1 REVERT JUMPDEST POP JUMP JUMPDEST PUSH0 DUP2 CALLDATALOAD SWAP1 POP PUSH2 0x15F DUP2 PUSH2 0x13B JUMP JUMPDEST SWAP3 SWAP2 POP POP JUMP JUMPDEST PUSH0 PUSH1 0x20 DUP3 DUP5 SUB SLT ISZERO PUSH2 0x17A JUMPI PUSH2 0x179 PUSH2 0x12B JUMP JUMPDEST JUMPDEST PUSH0 PUSH2 0x187 DUP5 DUP3 DUP6 ADD PUSH2 0x151 JUMP JUMPDEST SWAP2 POP POP SWAP3 SWAP2 POP POP JUMP JUMPDEST PUSH0 DUP2 ISZERO ISZERO SWAP1 POP SWAP2 SWAP1 POP JUMP JUMPDEST PUSH2 0x1A4 DUP2 PUSH2 0x190 JUMP JUMPDEST DUP3 MSTORE POP POP JUMP JUMPDEST PUSH0 PUSH1 0x20 DUP3 ADD SWAP1 POP PUSH2 0x1BD PUSH0 DUP4 ADD DUP5 PUSH2 0x19B JUMP JUMPDEST SWAP3 SWAP2 POP POP JUMP JUMPDEST PUSH2 0x1CC DUP2 PUSH2 0x12F JUMP JUMPDEST DUP3 MSTORE POP POP JUMP JUMPDEST PUSH0 PUSH1 0x20 DUP3 ADD SWAP1 POP PUSH2 0x1E5 PUSH0 DUP4 ADD DUP5 PUSH2 0x1C3 JUMP JUMPDEST SWAP3 SWAP2 POP POP JUMP INVALID LOG2 PUSH5 0x6970667358 0x22 SLT KECCAK256 SHL 0xA7 CALLDATACOPY 0x2C XOR 0xDF 0xA9 PUSH9 0x961FEF65A2B3509029 0xEE POP PUSH29 0x8A59AB470DDF87E659985A564736F6C634300081A0033000000000000 "
				},
				"gasEstimates": {
					"creation": {
						"codeDepositCost": "109000",
						"executionCost": "24422",
						"totalCost": "133422"
					},
					"external": {
						"get_id()": "2524",
						"set_id(uint8)": "27109"
					}
				},
				"methodIdentifiers": {
					"get_id()": "f43fa805",
					"set_id(uint8)": "c4e37339"
				}
			},
			"storageLayout": {
				"storage": [
					{
						"astId": 3,
						"contract": "contracts/Exercise.sol:Exercise",
						"label": "owner",
						"offset": 0,
						"slot": "0",
						"type": "t_address"
					},
					{
						"astId": 5,
						"contract": "contracts/Exercise.sol:Exercise",
						"label": "id",
						"offset": 20,
						"slot": "0",
						"type": "t_uint8"
					}
				],
				"types": {
					"t_address": {
						"encoding": "inplace",
						"label": "address",
						"numberOfBytes": "20"
					},
					"t_uint8": {
						"encoding": "inplace",
						"label": "uint8",
						"numberOfBytes": "1"
					}
				}
			},
			"userdoc": {
				"kind": "user",
				"methods": {},
				"version": 1
			}
		}
	}
}