{
	"contracts/Exercises/Exercise3/First.sol": {
		"First": {
			"abi": [
				{
					"inputs": [
						{
							"internalType": "address",
							"name": "_contractAddress",
							"type": "address"
						},
						{
							"internalType": "uint256",
							"name": "_id",
							"type": "uint256"
						},
						{
							"internalType": "string",
							"name": "_name",
							"type": "string"
						},
						{
							"internalType": "uint8",
							"name": "_age",
							"type": "uint8"
						},
						{
							"internalType": "uint8",
							"name": "_gender",
							"type": "uint8"
						}
					],
					"name": "addHuman",
					"outputs": [],
					"stateMutability": "nonpayable",
					"type": "function"
				},
				{
					"inputs": [
						{
							"internalType": "uint256",
							"name": "_index",
							"type": "uint256"
						}
					],
					"name": "getFromHumanList",
					"outputs": [
						{
							"components": [
								{
									"internalType": "uint256",
									"name": "id",
									"type": "uint256"
								},
								{
									"internalType": "string",
									"name": "name",
									"type": "string"
								},
								{
									"internalType": "uint8",
									"name": "age",
									"type": "uint8"
								},
								{
									"internalType": "uint8",
									"name": "gender",
									"type": "uint8"
								}
							],
							"internalType": "struct Human",
							"name": "",
							"type": "tuple"
						}
					],
					"stateMutability": "view",
					"type": "function"
				}
			],
			"devdoc": {
				"kind": "dev",
				"methods": {},
				"version": 1
			},
			"evm": {
				"assembly": "    /* \"contracts/Exercises/Exercise3/First.sol\":539:988  contract First{... */\n  mstore(0x40, 0x80)\n  callvalue\n  dup1\n  iszero\n  tag_1\n  jumpi\n  0x00\n  dup1\n  revert\ntag_1:\n  pop\n  dataSize(sub_0)\n  dup1\n  dataOffset(sub_0)\n  0x00\n  codecopy\n  0x00\n  return\nstop\n\nsub_0: assembly {\n        /* \"contracts/Exercises/Exercise3/First.sol\":539:988  contract First{... */\n      mstore(0x40, 0x80)\n      callvalue\n      dup1\n      iszero\n      tag_1\n      jumpi\n      0x00\n      dup1\n      revert\n    tag_1:\n      pop\n      jumpi(tag_2, lt(calldatasize, 0x04))\n      shr(0xe0, calldataload(0x00))\n      dup1\n      0xbefb2e7d\n      eq\n      tag_3\n      jumpi\n      dup1\n      0xdaab0515\n      eq\n      tag_4\n      jumpi\n    tag_2:\n      0x00\n      dup1\n      revert\n        /* \"contracts/Exercises/Exercise3/First.sol\":586:859  function addHuman(address _contractAddress, uint256 _id, string memory _name, uint8 _age, uint8 _gender) public{... */\n    tag_3:\n      tag_5\n      0x04\n      dup1\n      calldatasize\n      sub\n      dup2\n      add\n      swap1\n      tag_6\n      swap2\n      swap1\n      tag_7\n      jump\t// in\n    tag_6:\n      tag_8\n      jump\t// in\n    tag_5:\n      stop\n        /* \"contracts/Exercises/Exercise3/First.sol\":867:985  function getFromHumanList(uint256 _index) public view returns(Human memory){... */\n    tag_4:\n      tag_9\n      0x04\n      dup1\n      calldatasize\n      sub\n      dup2\n      add\n      swap1\n      tag_10\n      swap2\n      swap1\n      tag_11\n      jump\t// in\n    tag_10:\n      tag_12\n      jump\t// in\n    tag_9:\n      mload(0x40)\n      tag_13\n      swap2\n      swap1\n      tag_14\n      jump\t// in\n    tag_13:\n      mload(0x40)\n      dup1\n      swap2\n      sub\n      swap1\n      return\n        /* \"contracts/Exercises/Exercise3/First.sol\":586:859  function addHuman(address _contractAddress, uint256 _id, string memory _name, uint8 _age, uint8 _gender) public{... */\n    tag_8:\n        /* \"contracts/Exercises/Exercise3/First.sol\":708:736  ISecondContract _newContract */\n      0x00\n        /* \"contracts/Exercises/Exercise3/First.sol\":754:770  _contractAddress */\n      dup6\n        /* \"contracts/Exercises/Exercise3/First.sol\":708:771  ISecondContract _newContract =ISecondContract(_contractAddress) */\n      swap1\n      pop\n        /* \"contracts/Exercises/Exercise3/First.sol\":782:791  humanList */\n      0x00\n        /* \"contracts/Exercises/Exercise3/First.sol\":797:809  _newContract */\n      dup2\n        /* \"contracts/Exercises/Exercise3/First.sol\":797:823  _newContract.generateHuman */\n      0xffffffffffffffffffffffffffffffffffffffff\n      and\n      0xbcd8b698\n        /* \"contracts/Exercises/Exercise3/First.sol\":824:827  _id */\n      dup8\n        /* \"contracts/Exercises/Exercise3/First.sol\":829:834  _name */\n      dup8\n        /* \"contracts/Exercises/Exercise3/First.sol\":836:840  _age */\n      dup8\n        /* \"contracts/Exercises/Exercise3/First.sol\":842:849  _gender */\n      dup8\n        /* \"contracts/Exercises/Exercise3/First.sol\":797:850  _newContract.generateHuman(_id, _name, _age, _gender) */\n      mload(0x40)\n      dup6\n      0xffffffff\n      and\n      0xe0\n      shl\n      dup2\n      mstore\n      0x04\n      add\n      tag_16\n      swap5\n      swap4\n      swap3\n      swap2\n      swap1\n      tag_17\n      jump\t// in\n    tag_16:\n      0x00\n      mload(0x40)\n      dup1\n      dup4\n      sub\n      dup2\n      0x00\n      dup8\n      gas\n      call\n      iszero\n      dup1\n      iszero\n      tag_19\n      jumpi\n      returndatasize\n      0x00\n      dup1\n      returndatacopy\n      revert(0x00, returndatasize)\n    tag_19:\n      pop\n      pop\n      pop\n      pop\n      mload(0x40)\n      returndatasize\n      0x00\n      dup3\n      returndatacopy\n      returndatasize\n      not(0x1f)\n      0x1f\n      dup3\n      add\n      and\n      dup3\n      add\n      dup1\n      0x40\n      mstore\n      pop\n      dup2\n      add\n      swap1\n      tag_20\n      swap2\n      swap1\n      tag_21\n      jump\t// in\n    tag_20:\n        /* \"contracts/Exercises/Exercise3/First.sol\":782:851  humanList.push(_newContract.generateHuman(_id, _name, _age, _gender)) */\n      swap1\n      dup1\n      0x01\n      dup2\n      sload\n      add\n      dup1\n      dup3\n      sstore\n      dup1\n      swap2\n      pop\n      pop\n      0x01\n      swap1\n      sub\n      swap1\n      0x00\n      mstore\n      keccak256(0x00, 0x20)\n      swap1\n      0x03\n      mul\n      add\n      0x00\n      swap1\n      swap2\n      swap1\n      swap2\n      swap1\n      swap2\n      pop\n      0x00\n      dup3\n      add\n      mload\n      dup2\n      0x00\n      add\n      sstore\n      0x20\n      dup3\n      add\n      mload\n      dup2\n      0x01\n      add\n      swap1\n      dup2\n      tag_23\n      swap2\n      swap1\n      tag_24\n      jump\t// in\n    tag_23:\n      pop\n      0x40\n      dup3\n      add\n      mload\n      dup2\n      0x02\n      add\n      exp(0x0100, 0x00)\n      dup2\n      sload\n      dup2\n      0xff\n      mul\n      not\n      and\n      swap1\n      dup4\n      0xff\n      and\n      mul\n      or\n      swap1\n      sstore\n      pop\n      0x60\n      dup3\n      add\n      mload\n      dup2\n      0x02\n      add\n      exp(0x0100, 0x01)\n      dup2\n      sload\n      dup2\n      0xff\n      mul\n      not\n      and\n      swap1\n      dup4\n      0xff\n      and\n      mul\n      or\n      swap1\n      sstore\n      pop\n      pop\n      pop\n        /* \"contracts/Exercises/Exercise3/First.sol\":697:859  {... */\n      pop\n        /* \"contracts/Exercises/Exercise3/First.sol\":586:859  function addHuman(address _contractAddress, uint256 _id, string memory _name, uint8 _age, uint8 _gender) public{... */\n      pop\n      pop\n      pop\n      pop\n      pop\n      jump\t// out\n        /* \"contracts/Exercises/Exercise3/First.sol\":867:985  function getFromHumanList(uint256 _index) public view returns(Human memory){... */\n    tag_12:\n        /* \"contracts/Exercises/Exercise3/First.sol\":929:941  Human memory */\n      tag_25\n      tag_26\n      jump\t// in\n    tag_25:\n        /* \"contracts/Exercises/Exercise3/First.sol\":960:969  humanList */\n      0x00\n        /* \"contracts/Exercises/Exercise3/First.sol\":970:976  _index */\n      dup3\n        /* \"contracts/Exercises/Exercise3/First.sol\":960:977  humanList[_index] */\n      dup2\n      sload\n      dup2\n      lt\n      tag_28\n      jumpi\n      tag_29\n      tag_30\n      jump\t// in\n    tag_29:\n    tag_28:\n      swap1\n      0x00\n      mstore\n      keccak256(0x00, 0x20)\n      swap1\n      0x03\n      mul\n      add\n        /* \"contracts/Exercises/Exercise3/First.sol\":953:977  return humanList[_index] */\n      mload(0x40)\n      dup1\n      0x80\n      add\n      0x40\n      mstore\n      swap1\n      dup2\n      0x00\n      dup3\n      add\n      sload\n      dup2\n      mstore\n      0x20\n      add\n      0x01\n      dup3\n      add\n      dup1\n      sload\n      tag_32\n      swap1\n      tag_33\n      jump\t// in\n    tag_32:\n      dup1\n      0x1f\n      add\n      0x20\n      dup1\n      swap2\n      div\n      mul\n      0x20\n      add\n      mload(0x40)\n      swap1\n      dup2\n      add\n      0x40\n      mstore\n      dup1\n      swap3\n      swap2\n      swap1\n      dup2\n      dup2\n      mstore\n      0x20\n      add\n      dup3\n      dup1\n      sload\n      tag_34\n      swap1\n      tag_33\n      jump\t// in\n    tag_34:\n      dup1\n      iszero\n      tag_35\n      jumpi\n      dup1\n      0x1f\n      lt\n      tag_36\n      jumpi\n      0x0100\n      dup1\n      dup4\n      sload\n      div\n      mul\n      dup4\n      mstore\n      swap2\n      0x20\n      add\n      swap2\n      jump(tag_35)\n    tag_36:\n      dup3\n      add\n      swap2\n      swap1\n      0x00\n      mstore\n      keccak256(0x00, 0x20)\n      swap1\n    tag_37:\n      dup2\n      sload\n      dup2\n      mstore\n      swap1\n      0x01\n      add\n      swap1\n      0x20\n      add\n      dup1\n      dup4\n      gt\n      tag_37\n      jumpi\n      dup3\n      swap1\n      sub\n      0x1f\n      and\n      dup3\n      add\n      swap2\n    tag_35:\n      pop\n      pop\n      pop\n      pop\n      pop\n      dup2\n      mstore\n      0x20\n      add\n      0x02\n      dup3\n      add\n      0x00\n      swap1\n      sload\n      swap1\n      0x0100\n      exp\n      swap1\n      div\n      0xff\n      and\n      0xff\n      and\n      0xff\n      and\n      dup2\n      mstore\n      0x20\n      add\n      0x02\n      dup3\n      add\n      0x01\n      swap1\n      sload\n      swap1\n      0x0100\n      exp\n      swap1\n      div\n      0xff\n      and\n      0xff\n      and\n      0xff\n      and\n      dup2\n      mstore\n      pop\n      pop\n      swap1\n      pop\n        /* \"contracts/Exercises/Exercise3/First.sol\":867:985  function getFromHumanList(uint256 _index) public view returns(Human memory){... */\n      swap2\n      swap1\n      pop\n      jump\t// out\n    tag_26:\n      mload(0x40)\n      dup1\n      0x80\n      add\n      0x40\n      mstore\n      dup1\n      0x00\n      dup2\n      mstore\n      0x20\n      add\n      0x60\n      dup2\n      mstore\n      0x20\n      add\n      and(0xff, 0x00)\n      dup2\n      mstore\n      0x20\n      add\n      and(0xff, 0x00)\n      dup2\n      mstore\n      pop\n      swap1\n      jump\t// out\n        /* \"#utility.yul\":7:82   */\n    tag_38:\n        /* \"#utility.yul\":40:46   */\n      0x00\n        /* \"#utility.yul\":73:75   */\n      0x40\n        /* \"#utility.yul\":67:76   */\n      mload\n        /* \"#utility.yul\":57:76   */\n      swap1\n      pop\n        /* \"#utility.yul\":7:82   */\n      swap1\n      jump\t// out\n        /* \"#utility.yul\":88:205   */\n    tag_39:\n        /* \"#utility.yul\":197:198   */\n      0x00\n        /* \"#utility.yul\":194:195   */\n      dup1\n        /* \"#utility.yul\":187:199   */\n      revert\n        /* \"#utility.yul\":211:328   */\n    tag_40:\n        /* \"#utility.yul\":320:321   */\n      0x00\n        /* \"#utility.yul\":317:318   */\n      dup1\n        /* \"#utility.yul\":310:322   */\n      revert\n        /* \"#utility.yul\":334:460   */\n    tag_41:\n        /* \"#utility.yul\":371:378   */\n      0x00\n        /* \"#utility.yul\":411:453   */\n      0xffffffffffffffffffffffffffffffffffffffff\n        /* \"#utility.yul\":404:409   */\n      dup3\n        /* \"#utility.yul\":400:454   */\n      and\n        /* \"#utility.yul\":389:454   */\n      swap1\n      pop\n        /* \"#utility.yul\":334:460   */\n      swap2\n      swap1\n      pop\n      jump\t// out\n        /* \"#utility.yul\":466:562   */\n    tag_42:\n        /* \"#utility.yul\":503:510   */\n      0x00\n        /* \"#utility.yul\":532:556   */\n      tag_101\n        /* \"#utility.yul\":550:555   */\n      dup3\n        /* \"#utility.yul\":532:556   */\n      tag_41\n      jump\t// in\n    tag_101:\n        /* \"#utility.yul\":521:556   */\n      swap1\n      pop\n        /* \"#utility.yul\":466:562   */\n      swap2\n      swap1\n      pop\n      jump\t// out\n        /* \"#utility.yul\":568:690   */\n    tag_43:\n        /* \"#utility.yul\":641:665   */\n      tag_103\n        /* \"#utility.yul\":659:664   */\n      dup2\n        /* \"#utility.yul\":641:665   */\n      tag_42\n      jump\t// in\n    tag_103:\n        /* \"#utility.yul\":634:639   */\n      dup2\n        /* \"#utility.yul\":631:666   */\n      eq\n        /* \"#utility.yul\":621:684   */\n      tag_104\n      jumpi\n        /* \"#utility.yul\":680:681   */\n      0x00\n        /* \"#utility.yul\":677:678   */\n      dup1\n        /* \"#utility.yul\":670:682   */\n      revert\n        /* \"#utility.yul\":621:684   */\n    tag_104:\n        /* \"#utility.yul\":568:690   */\n      pop\n      jump\t// out\n        /* \"#utility.yul\":696:835   */\n    tag_44:\n        /* \"#utility.yul\":742:747   */\n      0x00\n        /* \"#utility.yul\":780:786   */\n      dup2\n        /* \"#utility.yul\":767:787   */\n      calldataload\n        /* \"#utility.yul\":758:787   */\n      swap1\n      pop\n        /* \"#utility.yul\":796:829   */\n      tag_106\n        /* \"#utility.yul\":823:828   */\n      dup2\n        /* \"#utility.yul\":796:829   */\n      tag_43\n      jump\t// in\n    tag_106:\n        /* \"#utility.yul\":696:835   */\n      swap3\n      swap2\n      pop\n      pop\n      jump\t// out\n        /* \"#utility.yul\":841:918   */\n    tag_45:\n        /* \"#utility.yul\":878:885   */\n      0x00\n        /* \"#utility.yul\":907:912   */\n      dup2\n        /* \"#utility.yul\":896:912   */\n      swap1\n      pop\n        /* \"#utility.yul\":841:918   */\n      swap2\n      swap1\n      pop\n      jump\t// out\n        /* \"#utility.yul\":924:1046   */\n    tag_46:\n        /* \"#utility.yul\":997:1021   */\n      tag_109\n        /* \"#utility.yul\":1015:1020   */\n      dup2\n        /* \"#utility.yul\":997:1021   */\n      tag_45\n      jump\t// in\n    tag_109:\n        /* \"#utility.yul\":990:995   */\n      dup2\n        /* \"#utility.yul\":987:1022   */\n      eq\n        /* \"#utility.yul\":977:1040   */\n      tag_110\n      jumpi\n        /* \"#utility.yul\":1036:1037   */\n      0x00\n        /* \"#utility.yul\":1033:1034   */\n      dup1\n        /* \"#utility.yul\":1026:1038   */\n      revert\n        /* \"#utility.yul\":977:1040   */\n    tag_110:\n        /* \"#utility.yul\":924:1046   */\n      pop\n      jump\t// out\n        /* \"#utility.yul\":1052:1191   */\n    tag_47:\n        /* \"#utility.yul\":1098:1103   */\n      0x00\n        /* \"#utility.yul\":1136:1142   */\n      dup2\n        /* \"#utility.yul\":1123:1143   */\n      calldataload\n        /* \"#utility.yul\":1114:1143   */\n      swap1\n      pop\n        /* \"#utility.yul\":1152:1185   */\n      tag_112\n        /* \"#utility.yul\":1179:1184   */\n      dup2\n        /* \"#utility.yul\":1152:1185   */\n      tag_46\n      jump\t// in\n    tag_112:\n        /* \"#utility.yul\":1052:1191   */\n      swap3\n      swap2\n      pop\n      pop\n      jump\t// out\n        /* \"#utility.yul\":1197:1314   */\n    tag_48:\n        /* \"#utility.yul\":1306:1307   */\n      0x00\n        /* \"#utility.yul\":1303:1304   */\n      dup1\n        /* \"#utility.yul\":1296:1308   */\n      revert\n        /* \"#utility.yul\":1320:1437   */\n    tag_49:\n        /* \"#utility.yul\":1429:1430   */\n      0x00\n        /* \"#utility.yul\":1426:1427   */\n      dup1\n        /* \"#utility.yul\":1419:1431   */\n      revert\n        /* \"#utility.yul\":1443:1545   */\n    tag_50:\n        /* \"#utility.yul\":1484:1490   */\n      0x00\n        /* \"#utility.yul\":1535:1537   */\n      0x1f\n        /* \"#utility.yul\":1531:1538   */\n      not\n        /* \"#utility.yul\":1526:1528   */\n      0x1f\n        /* \"#utility.yul\":1519:1524   */\n      dup4\n        /* \"#utility.yul\":1515:1529   */\n      add\n        /* \"#utility.yul\":1511:1539   */\n      and\n        /* \"#utility.yul\":1501:1539   */\n      swap1\n      pop\n        /* \"#utility.yul\":1443:1545   */\n      swap2\n      swap1\n      pop\n      jump\t// out\n        /* \"#utility.yul\":1551:1731   */\n    tag_51:\n        /* \"#utility.yul\":1599:1676   */\n      0x4e487b7100000000000000000000000000000000000000000000000000000000\n        /* \"#utility.yul\":1596:1597   */\n      0x00\n        /* \"#utility.yul\":1589:1677   */\n      mstore\n        /* \"#utility.yul\":1696:1700   */\n      0x41\n        /* \"#utility.yul\":1693:1694   */\n      0x04\n        /* \"#utility.yul\":1686:1701   */\n      mstore\n        /* \"#utility.yul\":1720:1724   */\n      0x24\n        /* \"#utility.yul\":1717:1718   */\n      0x00\n        /* \"#utility.yul\":1710:1725   */\n      revert\n        /* \"#utility.yul\":1737:2018   */\n    tag_52:\n        /* \"#utility.yul\":1820:1847   */\n      tag_118\n        /* \"#utility.yul\":1842:1846   */\n      dup3\n        /* \"#utility.yul\":1820:1847   */\n      tag_50\n      jump\t// in\n    tag_118:\n        /* \"#utility.yul\":1812:1818   */\n      dup2\n        /* \"#utility.yul\":1808:1848   */\n      add\n        /* \"#utility.yul\":1950:1956   */\n      dup2\n        /* \"#utility.yul\":1938:1948   */\n      dup2\n        /* \"#utility.yul\":1935:1957   */\n      lt\n        /* \"#utility.yul\":1914:1932   */\n      0xffffffffffffffff\n        /* \"#utility.yul\":1902:1912   */\n      dup3\n        /* \"#utility.yul\":1899:1933   */\n      gt\n        /* \"#utility.yul\":1896:1958   */\n      or\n        /* \"#utility.yul\":1893:1981   */\n      iszero\n      tag_119\n      jumpi\n        /* \"#utility.yul\":1961:1979   */\n      tag_120\n      tag_51\n      jump\t// in\n    tag_120:\n        /* \"#utility.yul\":1893:1981   */\n    tag_119:\n        /* \"#utility.yul\":2001:2011   */\n      dup1\n        /* \"#utility.yul\":1997:1999   */\n      0x40\n        /* \"#utility.yul\":1990:2012   */\n      mstore\n        /* \"#utility.yul\":1780:2018   */\n      pop\n        /* \"#utility.yul\":1737:2018   */\n      pop\n      pop\n      jump\t// out\n        /* \"#utility.yul\":2024:2153   */\n    tag_53:\n        /* \"#utility.yul\":2058:2064   */\n      0x00\n        /* \"#utility.yul\":2085:2105   */\n      tag_122\n      tag_38\n      jump\t// in\n    tag_122:\n        /* \"#utility.yul\":2075:2105   */\n      swap1\n      pop\n        /* \"#utility.yul\":2114:2147   */\n      tag_123\n        /* \"#utility.yul\":2142:2146   */\n      dup3\n        /* \"#utility.yul\":2134:2140   */\n      dup3\n        /* \"#utility.yul\":2114:2147   */\n      tag_52\n      jump\t// in\n    tag_123:\n        /* \"#utility.yul\":2024:2153   */\n      swap2\n      swap1\n      pop\n      jump\t// out\n        /* \"#utility.yul\":2159:2467   */\n    tag_54:\n        /* \"#utility.yul\":2221:2225   */\n      0x00\n        /* \"#utility.yul\":2311:2329   */\n      0xffffffffffffffff\n        /* \"#utility.yul\":2303:2309   */\n      dup3\n        /* \"#utility.yul\":2300:2330   */\n      gt\n        /* \"#utility.yul\":2297:2353   */\n      iszero\n      tag_125\n      jumpi\n        /* \"#utility.yul\":2333:2351   */\n      tag_126\n      tag_51\n      jump\t// in\n    tag_126:\n        /* \"#utility.yul\":2297:2353   */\n    tag_125:\n        /* \"#utility.yul\":2371:2400   */\n      tag_127\n        /* \"#utility.yul\":2393:2399   */\n      dup3\n        /* \"#utility.yul\":2371:2400   */\n      tag_50\n      jump\t// in\n    tag_127:\n        /* \"#utility.yul\":2363:2400   */\n      swap1\n      pop\n        /* \"#utility.yul\":2455:2459   */\n      0x20\n        /* \"#utility.yul\":2449:2453   */\n      dup2\n        /* \"#utility.yul\":2445:2460   */\n      add\n        /* \"#utility.yul\":2437:2460   */\n      swap1\n      pop\n        /* \"#utility.yul\":2159:2467   */\n      swap2\n      swap1\n      pop\n      jump\t// out\n        /* \"#utility.yul\":2473:2621   */\n    tag_55:\n        /* \"#utility.yul\":2571:2577   */\n      dup3\n        /* \"#utility.yul\":2566:2569   */\n      dup2\n        /* \"#utility.yul\":2561:2564   */\n      dup4\n        /* \"#utility.yul\":2548:2578   */\n      calldatacopy\n        /* \"#utility.yul\":2612:2613   */\n      0x00\n        /* \"#utility.yul\":2603:2609   */\n      dup4\n        /* \"#utility.yul\":2598:2601   */\n      dup4\n        /* \"#utility.yul\":2594:2610   */\n      add\n        /* \"#utility.yul\":2587:2614   */\n      mstore\n        /* \"#utility.yul\":2473:2621   */\n      pop\n      pop\n      pop\n      jump\t// out\n        /* \"#utility.yul\":2627:3052   */\n    tag_56:\n        /* \"#utility.yul\":2705:2710   */\n      0x00\n        /* \"#utility.yul\":2730:2796   */\n      tag_130\n        /* \"#utility.yul\":2746:2795   */\n      tag_131\n        /* \"#utility.yul\":2788:2794   */\n      dup5\n        /* \"#utility.yul\":2746:2795   */\n      tag_54\n      jump\t// in\n    tag_131:\n        /* \"#utility.yul\":2730:2796   */\n      tag_53\n      jump\t// in\n    tag_130:\n        /* \"#utility.yul\":2721:2796   */\n      swap1\n      pop\n        /* \"#utility.yul\":2819:2825   */\n      dup3\n        /* \"#utility.yul\":2812:2817   */\n      dup2\n        /* \"#utility.yul\":2805:2826   */\n      mstore\n        /* \"#utility.yul\":2857:2861   */\n      0x20\n        /* \"#utility.yul\":2850:2855   */\n      dup2\n        /* \"#utility.yul\":2846:2862   */\n      add\n        /* \"#utility.yul\":2895:2898   */\n      dup5\n        /* \"#utility.yul\":2886:2892   */\n      dup5\n        /* \"#utility.yul\":2881:2884   */\n      dup5\n        /* \"#utility.yul\":2877:2893   */\n      add\n        /* \"#utility.yul\":2874:2899   */\n      gt\n        /* \"#utility.yul\":2871:2983   */\n      iszero\n      tag_132\n      jumpi\n        /* \"#utility.yul\":2902:2981   */\n      tag_133\n      tag_49\n      jump\t// in\n    tag_133:\n        /* \"#utility.yul\":2871:2983   */\n    tag_132:\n        /* \"#utility.yul\":2992:3046   */\n      tag_134\n        /* \"#utility.yul\":3039:3045   */\n      dup5\n        /* \"#utility.yul\":3034:3037   */\n      dup3\n        /* \"#utility.yul\":3029:3032   */\n      dup6\n        /* \"#utility.yul\":2992:3046   */\n      tag_55\n      jump\t// in\n    tag_134:\n        /* \"#utility.yul\":2711:3052   */\n      pop\n        /* \"#utility.yul\":2627:3052   */\n      swap4\n      swap3\n      pop\n      pop\n      pop\n      jump\t// out\n        /* \"#utility.yul\":3072:3412   */\n    tag_57:\n        /* \"#utility.yul\":3128:3133   */\n      0x00\n        /* \"#utility.yul\":3177:3180   */\n      dup3\n        /* \"#utility.yul\":3170:3174   */\n      0x1f\n        /* \"#utility.yul\":3162:3168   */\n      dup4\n        /* \"#utility.yul\":3158:3175   */\n      add\n        /* \"#utility.yul\":3154:3181   */\n      slt\n        /* \"#utility.yul\":3144:3266   */\n      tag_136\n      jumpi\n        /* \"#utility.yul\":3185:3264   */\n      tag_137\n      tag_48\n      jump\t// in\n    tag_137:\n        /* \"#utility.yul\":3144:3266   */\n    tag_136:\n        /* \"#utility.yul\":3302:3308   */\n      dup2\n        /* \"#utility.yul\":3289:3309   */\n      calldataload\n        /* \"#utility.yul\":3327:3406   */\n      tag_138\n        /* \"#utility.yul\":3402:3405   */\n      dup5\n        /* \"#utility.yul\":3394:3400   */\n      dup3\n        /* \"#utility.yul\":3387:3391   */\n      0x20\n        /* \"#utility.yul\":3379:3385   */\n      dup7\n        /* \"#utility.yul\":3375:3392   */\n      add\n        /* \"#utility.yul\":3327:3406   */\n      tag_56\n      jump\t// in\n    tag_138:\n        /* \"#utility.yul\":3318:3406   */\n      swap2\n      pop\n        /* \"#utility.yul\":3134:3412   */\n      pop\n        /* \"#utility.yul\":3072:3412   */\n      swap3\n      swap2\n      pop\n      pop\n      jump\t// out\n        /* \"#utility.yul\":3418:3504   */\n    tag_58:\n        /* \"#utility.yul\":3453:3460   */\n      0x00\n        /* \"#utility.yul\":3493:3497   */\n      0xff\n        /* \"#utility.yul\":3486:3491   */\n      dup3\n        /* \"#utility.yul\":3482:3498   */\n      and\n        /* \"#utility.yul\":3471:3498   */\n      swap1\n      pop\n        /* \"#utility.yul\":3418:3504   */\n      swap2\n      swap1\n      pop\n      jump\t// out\n        /* \"#utility.yul\":3510:3628   */\n    tag_59:\n        /* \"#utility.yul\":3581:3603   */\n      tag_141\n        /* \"#utility.yul\":3597:3602   */\n      dup2\n        /* \"#utility.yul\":3581:3603   */\n      tag_58\n      jump\t// in\n    tag_141:\n        /* \"#utility.yul\":3574:3579   */\n      dup2\n        /* \"#utility.yul\":3571:3604   */\n      eq\n        /* \"#utility.yul\":3561:3622   */\n      tag_142\n      jumpi\n        /* \"#utility.yul\":3618:3619   */\n      0x00\n        /* \"#utility.yul\":3615:3616   */\n      dup1\n        /* \"#utility.yul\":3608:3620   */\n      revert\n        /* \"#utility.yul\":3561:3622   */\n    tag_142:\n        /* \"#utility.yul\":3510:3628   */\n      pop\n      jump\t// out\n        /* \"#utility.yul\":3634:3769   */\n    tag_60:\n        /* \"#utility.yul\":3678:3683   */\n      0x00\n        /* \"#utility.yul\":3716:3722   */\n      dup2\n        /* \"#utility.yul\":3703:3723   */\n      calldataload\n        /* \"#utility.yul\":3694:3723   */\n      swap1\n      pop\n        /* \"#utility.yul\":3732:3763   */\n      tag_144\n        /* \"#utility.yul\":3757:3762   */\n      dup2\n        /* \"#utility.yul\":3732:3763   */\n      tag_59\n      jump\t// in\n    tag_144:\n        /* \"#utility.yul\":3634:3769   */\n      swap3\n      swap2\n      pop\n      pop\n      jump\t// out\n        /* \"#utility.yul\":3775:4858   */\n    tag_7:\n        /* \"#utility.yul\":3876:3882   */\n      0x00\n        /* \"#utility.yul\":3884:3890   */\n      dup1\n        /* \"#utility.yul\":3892:3898   */\n      0x00\n        /* \"#utility.yul\":3900:3906   */\n      dup1\n        /* \"#utility.yul\":3908:3914   */\n      0x00\n        /* \"#utility.yul\":3957:3960   */\n      0xa0\n        /* \"#utility.yul\":3945:3954   */\n      dup7\n        /* \"#utility.yul\":3936:3943   */\n      dup9\n        /* \"#utility.yul\":3932:3955   */\n      sub\n        /* \"#utility.yul\":3928:3961   */\n      slt\n        /* \"#utility.yul\":3925:4045   */\n      iszero\n      tag_146\n      jumpi\n        /* \"#utility.yul\":3964:4043   */\n      tag_147\n      tag_39\n      jump\t// in\n    tag_147:\n        /* \"#utility.yul\":3925:4045   */\n    tag_146:\n        /* \"#utility.yul\":4084:4085   */\n      0x00\n        /* \"#utility.yul\":4109:4162   */\n      tag_148\n        /* \"#utility.yul\":4154:4161   */\n      dup9\n        /* \"#utility.yul\":4145:4151   */\n      dup3\n        /* \"#utility.yul\":4134:4143   */\n      dup10\n        /* \"#utility.yul\":4130:4152   */\n      add\n        /* \"#utility.yul\":4109:4162   */\n      tag_44\n      jump\t// in\n    tag_148:\n        /* \"#utility.yul\":4099:4162   */\n      swap6\n      pop\n        /* \"#utility.yul\":4055:4172   */\n      pop\n        /* \"#utility.yul\":4211:4213   */\n      0x20\n        /* \"#utility.yul\":4237:4290   */\n      tag_149\n        /* \"#utility.yul\":4282:4289   */\n      dup9\n        /* \"#utility.yul\":4273:4279   */\n      dup3\n        /* \"#utility.yul\":4262:4271   */\n      dup10\n        /* \"#utility.yul\":4258:4280   */\n      add\n        /* \"#utility.yul\":4237:4290   */\n      tag_47\n      jump\t// in\n    tag_149:\n        /* \"#utility.yul\":4227:4290   */\n      swap5\n      pop\n        /* \"#utility.yul\":4182:4300   */\n      pop\n        /* \"#utility.yul\":4367:4369   */\n      0x40\n        /* \"#utility.yul\":4356:4365   */\n      dup7\n        /* \"#utility.yul\":4352:4370   */\n      add\n        /* \"#utility.yul\":4339:4371   */\n      calldataload\n        /* \"#utility.yul\":4398:4416   */\n      0xffffffffffffffff\n        /* \"#utility.yul\":4390:4396   */\n      dup2\n        /* \"#utility.yul\":4387:4417   */\n      gt\n        /* \"#utility.yul\":4384:4501   */\n      iszero\n      tag_150\n      jumpi\n        /* \"#utility.yul\":4420:4499   */\n      tag_151\n      tag_40\n      jump\t// in\n    tag_151:\n        /* \"#utility.yul\":4384:4501   */\n    tag_150:\n        /* \"#utility.yul\":4525:4588   */\n      tag_152\n        /* \"#utility.yul\":4580:4587   */\n      dup9\n        /* \"#utility.yul\":4571:4577   */\n      dup3\n        /* \"#utility.yul\":4560:4569   */\n      dup10\n        /* \"#utility.yul\":4556:4578   */\n      add\n        /* \"#utility.yul\":4525:4588   */\n      tag_57\n      jump\t// in\n    tag_152:\n        /* \"#utility.yul\":4515:4588   */\n      swap4\n      pop\n        /* \"#utility.yul\":4310:4598   */\n      pop\n        /* \"#utility.yul\":4637:4639   */\n      0x60\n        /* \"#utility.yul\":4663:4714   */\n      tag_153\n        /* \"#utility.yul\":4706:4713   */\n      dup9\n        /* \"#utility.yul\":4697:4703   */\n      dup3\n        /* \"#utility.yul\":4686:4695   */\n      dup10\n        /* \"#utility.yul\":4682:4704   */\n      add\n        /* \"#utility.yul\":4663:4714   */\n      tag_60\n      jump\t// in\n    tag_153:\n        /* \"#utility.yul\":4653:4714   */\n      swap3\n      pop\n        /* \"#utility.yul\":4608:4724   */\n      pop\n        /* \"#utility.yul\":4763:4766   */\n      0x80\n        /* \"#utility.yul\":4790:4841   */\n      tag_154\n        /* \"#utility.yul\":4833:4840   */\n      dup9\n        /* \"#utility.yul\":4824:4830   */\n      dup3\n        /* \"#utility.yul\":4813:4822   */\n      dup10\n        /* \"#utility.yul\":4809:4831   */\n      add\n        /* \"#utility.yul\":4790:4841   */\n      tag_60\n      jump\t// in\n    tag_154:\n        /* \"#utility.yul\":4780:4841   */\n      swap2\n      pop\n        /* \"#utility.yul\":4734:4851   */\n      pop\n        /* \"#utility.yul\":3775:4858   */\n      swap3\n      swap6\n      pop\n      swap3\n      swap6\n      swap1\n      swap4\n      pop\n      jump\t// out\n        /* \"#utility.yul\":4864:5193   */\n    tag_11:\n        /* \"#utility.yul\":4923:4929   */\n      0x00\n        /* \"#utility.yul\":4972:4974   */\n      0x20\n        /* \"#utility.yul\":4960:4969   */\n      dup3\n        /* \"#utility.yul\":4951:4958   */\n      dup5\n        /* \"#utility.yul\":4947:4970   */\n      sub\n        /* \"#utility.yul\":4943:4975   */\n      slt\n        /* \"#utility.yul\":4940:5059   */\n      iszero\n      tag_156\n      jumpi\n        /* \"#utility.yul\":4978:5057   */\n      tag_157\n      tag_39\n      jump\t// in\n    tag_157:\n        /* \"#utility.yul\":4940:5059   */\n    tag_156:\n        /* \"#utility.yul\":5098:5099   */\n      0x00\n        /* \"#utility.yul\":5123:5176   */\n      tag_158\n        /* \"#utility.yul\":5168:5175   */\n      dup5\n        /* \"#utility.yul\":5159:5165   */\n      dup3\n        /* \"#utility.yul\":5148:5157   */\n      dup6\n        /* \"#utility.yul\":5144:5166   */\n      add\n        /* \"#utility.yul\":5123:5176   */\n      tag_47\n      jump\t// in\n    tag_158:\n        /* \"#utility.yul\":5113:5176   */\n      swap2\n      pop\n        /* \"#utility.yul\":5069:5186   */\n      pop\n        /* \"#utility.yul\":4864:5193   */\n      swap3\n      swap2\n      pop\n      pop\n      jump\t// out\n        /* \"#utility.yul\":5199:5307   */\n    tag_61:\n        /* \"#utility.yul\":5276:5300   */\n      tag_160\n        /* \"#utility.yul\":5294:5299   */\n      dup2\n        /* \"#utility.yul\":5276:5300   */\n      tag_45\n      jump\t// in\n    tag_160:\n        /* \"#utility.yul\":5271:5274   */\n      dup3\n        /* \"#utility.yul\":5264:5301   */\n      mstore\n        /* \"#utility.yul\":5199:5307   */\n      pop\n      pop\n      jump\t// out\n        /* \"#utility.yul\":5313:5412   */\n    tag_62:\n        /* \"#utility.yul\":5365:5371   */\n      0x00\n        /* \"#utility.yul\":5399:5404   */\n      dup2\n        /* \"#utility.yul\":5393:5405   */\n      mload\n        /* \"#utility.yul\":5383:5405   */\n      swap1\n      pop\n        /* \"#utility.yul\":5313:5412   */\n      swap2\n      swap1\n      pop\n      jump\t// out\n        /* \"#utility.yul\":5418:5577   */\n    tag_63:\n        /* \"#utility.yul\":5492:5503   */\n      0x00\n        /* \"#utility.yul\":5526:5532   */\n      dup3\n        /* \"#utility.yul\":5521:5524   */\n      dup3\n        /* \"#utility.yul\":5514:5533   */\n      mstore\n        /* \"#utility.yul\":5566:5570   */\n      0x20\n        /* \"#utility.yul\":5561:5564   */\n      dup3\n        /* \"#utility.yul\":5557:5571   */\n      add\n        /* \"#utility.yul\":5542:5571   */\n      swap1\n      pop\n        /* \"#utility.yul\":5418:5577   */\n      swap3\n      swap2\n      pop\n      pop\n      jump\t// out\n        /* \"#utility.yul\":5583:5722   */\n    tag_64:\n        /* \"#utility.yul\":5672:5678   */\n      dup3\n        /* \"#utility.yul\":5667:5670   */\n      dup2\n        /* \"#utility.yul\":5662:5665   */\n      dup4\n        /* \"#utility.yul\":5656:5679   */\n      mcopy\n        /* \"#utility.yul\":5713:5714   */\n      0x00\n        /* \"#utility.yul\":5704:5710   */\n      dup4\n        /* \"#utility.yul\":5699:5702   */\n      dup4\n        /* \"#utility.yul\":5695:5711   */\n      add\n        /* \"#utility.yul\":5688:5715   */\n      mstore\n        /* \"#utility.yul\":5583:5722   */\n      pop\n      pop\n      pop\n      jump\t// out\n        /* \"#utility.yul\":5728:6085   */\n    tag_65:\n        /* \"#utility.yul\":5806:5809   */\n      0x00\n        /* \"#utility.yul\":5834:5873   */\n      tag_165\n        /* \"#utility.yul\":5867:5872   */\n      dup3\n        /* \"#utility.yul\":5834:5873   */\n      tag_62\n      jump\t// in\n    tag_165:\n        /* \"#utility.yul\":5889:5950   */\n      tag_166\n        /* \"#utility.yul\":5943:5949   */\n      dup2\n        /* \"#utility.yul\":5938:5941   */\n      dup6\n        /* \"#utility.yul\":5889:5950   */\n      tag_63\n      jump\t// in\n    tag_166:\n        /* \"#utility.yul\":5882:5950   */\n      swap4\n      pop\n        /* \"#utility.yul\":5959:6024   */\n      tag_167\n        /* \"#utility.yul\":6017:6023   */\n      dup2\n        /* \"#utility.yul\":6012:6015   */\n      dup6\n        /* \"#utility.yul\":6005:6009   */\n      0x20\n        /* \"#utility.yul\":5998:6003   */\n      dup7\n        /* \"#utility.yul\":5994:6010   */\n      add\n        /* \"#utility.yul\":5959:6024   */\n      tag_64\n      jump\t// in\n    tag_167:\n        /* \"#utility.yul\":6049:6078   */\n      tag_168\n        /* \"#utility.yul\":6071:6077   */\n      dup2\n        /* \"#utility.yul\":6049:6078   */\n      tag_50\n      jump\t// in\n    tag_168:\n        /* \"#utility.yul\":6044:6047   */\n      dup5\n        /* \"#utility.yul\":6040:6079   */\n      add\n        /* \"#utility.yul\":6033:6079   */\n      swap2\n      pop\n        /* \"#utility.yul\":5810:6085   */\n      pop\n        /* \"#utility.yul\":5728:6085   */\n      swap3\n      swap2\n      pop\n      pop\n      jump\t// out\n        /* \"#utility.yul\":6091:6193   */\n    tag_66:\n        /* \"#utility.yul\":6164:6186   */\n      tag_170\n        /* \"#utility.yul\":6180:6185   */\n      dup2\n        /* \"#utility.yul\":6164:6186   */\n      tag_58\n      jump\t// in\n    tag_170:\n        /* \"#utility.yul\":6159:6162   */\n      dup3\n        /* \"#utility.yul\":6152:6187   */\n      mstore\n        /* \"#utility.yul\":6091:6193   */\n      pop\n      pop\n      jump\t// out\n        /* \"#utility.yul\":6235:7172   */\n    tag_67:\n        /* \"#utility.yul\":6346:6349   */\n      0x00\n        /* \"#utility.yul\":6382:6386   */\n      0x80\n        /* \"#utility.yul\":6377:6380   */\n      dup4\n        /* \"#utility.yul\":6373:6387   */\n      add\n        /* \"#utility.yul\":6467:6471   */\n      0x00\n        /* \"#utility.yul\":6460:6465   */\n      dup4\n        /* \"#utility.yul\":6456:6472   */\n      add\n        /* \"#utility.yul\":6450:6473   */\n      mload\n        /* \"#utility.yul\":6486:6549   */\n      tag_172\n        /* \"#utility.yul\":6543:6547   */\n      0x00\n        /* \"#utility.yul\":6538:6541   */\n      dup7\n        /* \"#utility.yul\":6534:6548   */\n      add\n        /* \"#utility.yul\":6520:6532   */\n      dup3\n        /* \"#utility.yul\":6486:6549   */\n      tag_61\n      jump\t// in\n    tag_172:\n        /* \"#utility.yul\":6397:6559   */\n      pop\n        /* \"#utility.yul\":6641:6645   */\n      0x20\n        /* \"#utility.yul\":6634:6639   */\n      dup4\n        /* \"#utility.yul\":6630:6646   */\n      add\n        /* \"#utility.yul\":6624:6647   */\n      mload\n        /* \"#utility.yul\":6694:6697   */\n      dup5\n        /* \"#utility.yul\":6688:6692   */\n      dup3\n        /* \"#utility.yul\":6684:6698   */\n      sub\n        /* \"#utility.yul\":6677:6681   */\n      0x20\n        /* \"#utility.yul\":6672:6675   */\n      dup7\n        /* \"#utility.yul\":6668:6682   */\n      add\n        /* \"#utility.yul\":6661:6699   */\n      mstore\n        /* \"#utility.yul\":6720:6793   */\n      tag_173\n        /* \"#utility.yul\":6788:6792   */\n      dup3\n        /* \"#utility.yul\":6774:6786   */\n      dup3\n        /* \"#utility.yul\":6720:6793   */\n      tag_65\n      jump\t// in\n    tag_173:\n        /* \"#utility.yul\":6712:6793   */\n      swap2\n      pop\n        /* \"#utility.yul\":6569:6804   */\n      pop\n        /* \"#utility.yul\":6885:6889   */\n      0x40\n        /* \"#utility.yul\":6878:6883   */\n      dup4\n        /* \"#utility.yul\":6874:6890   */\n      add\n        /* \"#utility.yul\":6868:6891   */\n      mload\n        /* \"#utility.yul\":6904:6963   */\n      tag_174\n        /* \"#utility.yul\":6957:6961   */\n      0x40\n        /* \"#utility.yul\":6952:6955   */\n      dup7\n        /* \"#utility.yul\":6948:6962   */\n      add\n        /* \"#utility.yul\":6934:6946   */\n      dup3\n        /* \"#utility.yul\":6904:6963   */\n      tag_66\n      jump\t// in\n    tag_174:\n        /* \"#utility.yul\":6814:6973   */\n      pop\n        /* \"#utility.yul\":7057:7061   */\n      0x60\n        /* \"#utility.yul\":7050:7055   */\n      dup4\n        /* \"#utility.yul\":7046:7062   */\n      add\n        /* \"#utility.yul\":7040:7063   */\n      mload\n        /* \"#utility.yul\":7076:7135   */\n      tag_175\n        /* \"#utility.yul\":7129:7133   */\n      0x60\n        /* \"#utility.yul\":7124:7127   */\n      dup7\n        /* \"#utility.yul\":7120:7134   */\n      add\n        /* \"#utility.yul\":7106:7118   */\n      dup3\n        /* \"#utility.yul\":7076:7135   */\n      tag_66\n      jump\t// in\n    tag_175:\n        /* \"#utility.yul\":6983:7145   */\n      pop\n        /* \"#utility.yul\":7162:7166   */\n      dup1\n        /* \"#utility.yul\":7155:7166   */\n      swap2\n      pop\n        /* \"#utility.yul\":6351:7172   */\n      pop\n        /* \"#utility.yul\":6235:7172   */\n      swap3\n      swap2\n      pop\n      pop\n      jump\t// out\n        /* \"#utility.yul\":7178:7535   */\n    tag_14:\n        /* \"#utility.yul\":7313:7317   */\n      0x00\n        /* \"#utility.yul\":7351:7353   */\n      0x20\n        /* \"#utility.yul\":7340:7349   */\n      dup3\n        /* \"#utility.yul\":7336:7354   */\n      add\n        /* \"#utility.yul\":7328:7354   */\n      swap1\n      pop\n        /* \"#utility.yul\":7400:7409   */\n      dup2\n        /* \"#utility.yul\":7394:7398   */\n      dup2\n        /* \"#utility.yul\":7390:7410   */\n      sub\n        /* \"#utility.yul\":7386:7387   */\n      0x00\n        /* \"#utility.yul\":7375:7384   */\n      dup4\n        /* \"#utility.yul\":7371:7388   */\n      add\n        /* \"#utility.yul\":7364:7411   */\n      mstore\n        /* \"#utility.yul\":7428:7528   */\n      tag_177\n        /* \"#utility.yul\":7523:7527   */\n      dup2\n        /* \"#utility.yul\":7514:7520   */\n      dup5\n        /* \"#utility.yul\":7428:7528   */\n      tag_67\n      jump\t// in\n    tag_177:\n        /* \"#utility.yul\":7420:7528   */\n      swap1\n      pop\n        /* \"#utility.yul\":7178:7535   */\n      swap3\n      swap2\n      pop\n      pop\n      jump\t// out\n        /* \"#utility.yul\":7541:7659   */\n    tag_68:\n        /* \"#utility.yul\":7628:7652   */\n      tag_179\n        /* \"#utility.yul\":7646:7651   */\n      dup2\n        /* \"#utility.yul\":7628:7652   */\n      tag_45\n      jump\t// in\n    tag_179:\n        /* \"#utility.yul\":7623:7626   */\n      dup3\n        /* \"#utility.yul\":7616:7653   */\n      mstore\n        /* \"#utility.yul\":7541:7659   */\n      pop\n      pop\n      jump\t// out\n        /* \"#utility.yul\":7665:7834   */\n    tag_69:\n        /* \"#utility.yul\":7749:7760   */\n      0x00\n        /* \"#utility.yul\":7783:7789   */\n      dup3\n        /* \"#utility.yul\":7778:7781   */\n      dup3\n        /* \"#utility.yul\":7771:7790   */\n      mstore\n        /* \"#utility.yul\":7823:7827   */\n      0x20\n        /* \"#utility.yul\":7818:7821   */\n      dup3\n        /* \"#utility.yul\":7814:7828   */\n      add\n        /* \"#utility.yul\":7799:7828   */\n      swap1\n      pop\n        /* \"#utility.yul\":7665:7834   */\n      swap3\n      swap2\n      pop\n      pop\n      jump\t// out\n        /* \"#utility.yul\":7840:8217   */\n    tag_70:\n        /* \"#utility.yul\":7928:7931   */\n      0x00\n        /* \"#utility.yul\":7956:7995   */\n      tag_182\n        /* \"#utility.yul\":7989:7994   */\n      dup3\n        /* \"#utility.yul\":7956:7995   */\n      tag_62\n      jump\t// in\n    tag_182:\n        /* \"#utility.yul\":8011:8082   */\n      tag_183\n        /* \"#utility.yul\":8075:8081   */\n      dup2\n        /* \"#utility.yul\":8070:8073   */\n      dup6\n        /* \"#utility.yul\":8011:8082   */\n      tag_69\n      jump\t// in\n    tag_183:\n        /* \"#utility.yul\":8004:8082   */\n      swap4\n      pop\n        /* \"#utility.yul\":8091:8156   */\n      tag_184\n        /* \"#utility.yul\":8149:8155   */\n      dup2\n        /* \"#utility.yul\":8144:8147   */\n      dup6\n        /* \"#utility.yul\":8137:8141   */\n      0x20\n        /* \"#utility.yul\":8130:8135   */\n      dup7\n        /* \"#utility.yul\":8126:8142   */\n      add\n        /* \"#utility.yul\":8091:8156   */\n      tag_64\n      jump\t// in\n    tag_184:\n        /* \"#utility.yul\":8181:8210   */\n      tag_185\n        /* \"#utility.yul\":8203:8209   */\n      dup2\n        /* \"#utility.yul\":8181:8210   */\n      tag_50\n      jump\t// in\n    tag_185:\n        /* \"#utility.yul\":8176:8179   */\n      dup5\n        /* \"#utility.yul\":8172:8211   */\n      add\n        /* \"#utility.yul\":8165:8211   */\n      swap2\n      pop\n        /* \"#utility.yul\":7932:8217   */\n      pop\n        /* \"#utility.yul\":7840:8217   */\n      swap3\n      swap2\n      pop\n      pop\n      jump\t// out\n        /* \"#utility.yul\":8223:8335   */\n    tag_71:\n        /* \"#utility.yul\":8306:8328   */\n      tag_187\n        /* \"#utility.yul\":8322:8327   */\n      dup2\n        /* \"#utility.yul\":8306:8328   */\n      tag_58\n      jump\t// in\n    tag_187:\n        /* \"#utility.yul\":8301:8304   */\n      dup3\n        /* \"#utility.yul\":8294:8329   */\n      mstore\n        /* \"#utility.yul\":8223:8335   */\n      pop\n      pop\n      jump\t// out\n        /* \"#utility.yul\":8341:8969   */\n    tag_17:\n        /* \"#utility.yul\":8530:8534   */\n      0x00\n        /* \"#utility.yul\":8568:8571   */\n      0x80\n        /* \"#utility.yul\":8557:8566   */\n      dup3\n        /* \"#utility.yul\":8553:8572   */\n      add\n        /* \"#utility.yul\":8545:8572   */\n      swap1\n      pop\n        /* \"#utility.yul\":8582:8653   */\n      tag_189\n        /* \"#utility.yul\":8650:8651   */\n      0x00\n        /* \"#utility.yul\":8639:8648   */\n      dup4\n        /* \"#utility.yul\":8635:8652   */\n      add\n        /* \"#utility.yul\":8626:8632   */\n      dup8\n        /* \"#utility.yul\":8582:8653   */\n      tag_68\n      jump\t// in\n    tag_189:\n        /* \"#utility.yul\":8700:8709   */\n      dup2\n        /* \"#utility.yul\":8694:8698   */\n      dup2\n        /* \"#utility.yul\":8690:8710   */\n      sub\n        /* \"#utility.yul\":8685:8687   */\n      0x20\n        /* \"#utility.yul\":8674:8683   */\n      dup4\n        /* \"#utility.yul\":8670:8688   */\n      add\n        /* \"#utility.yul\":8663:8711   */\n      mstore\n        /* \"#utility.yul\":8728:8806   */\n      tag_190\n        /* \"#utility.yul\":8801:8805   */\n      dup2\n        /* \"#utility.yul\":8792:8798   */\n      dup7\n        /* \"#utility.yul\":8728:8806   */\n      tag_70\n      jump\t// in\n    tag_190:\n        /* \"#utility.yul\":8720:8806   */\n      swap1\n      pop\n        /* \"#utility.yul\":8816:8884   */\n      tag_191\n        /* \"#utility.yul\":8880:8882   */\n      0x40\n        /* \"#utility.yul\":8869:8878   */\n      dup4\n        /* \"#utility.yul\":8865:8883   */\n      add\n        /* \"#utility.yul\":8856:8862   */\n      dup6\n        /* \"#utility.yul\":8816:8884   */\n      tag_71\n      jump\t// in\n    tag_191:\n        /* \"#utility.yul\":8894:8962   */\n      tag_192\n        /* \"#utility.yul\":8958:8960   */\n      0x60\n        /* \"#utility.yul\":8947:8956   */\n      dup4\n        /* \"#utility.yul\":8943:8961   */\n      add\n        /* \"#utility.yul\":8934:8940   */\n      dup5\n        /* \"#utility.yul\":8894:8962   */\n      tag_71\n      jump\t// in\n    tag_192:\n        /* \"#utility.yul\":8341:8969   */\n      swap6\n      swap5\n      pop\n      pop\n      pop\n      pop\n      pop\n      jump\t// out\n        /* \"#utility.yul\":8975:9092   */\n    tag_72:\n        /* \"#utility.yul\":9084:9085   */\n      0x00\n        /* \"#utility.yul\":9081:9082   */\n      dup1\n        /* \"#utility.yul\":9074:9086   */\n      revert\n        /* \"#utility.yul\":9098:9215   */\n    tag_73:\n        /* \"#utility.yul\":9207:9208   */\n      0x00\n        /* \"#utility.yul\":9204:9205   */\n      dup1\n        /* \"#utility.yul\":9197:9209   */\n      revert\n        /* \"#utility.yul\":9221:9364   */\n    tag_74:\n        /* \"#utility.yul\":9278:9283   */\n      0x00\n        /* \"#utility.yul\":9309:9315   */\n      dup2\n        /* \"#utility.yul\":9303:9316   */\n      mload\n        /* \"#utility.yul\":9294:9316   */\n      swap1\n      pop\n        /* \"#utility.yul\":9325:9358   */\n      tag_196\n        /* \"#utility.yul\":9352:9357   */\n      dup2\n        /* \"#utility.yul\":9325:9358   */\n      tag_46\n      jump\t// in\n    tag_196:\n        /* \"#utility.yul\":9221:9364   */\n      swap3\n      swap2\n      pop\n      pop\n      jump\t// out\n        /* \"#utility.yul\":9370:9804   */\n    tag_75:\n        /* \"#utility.yul\":9459:9464   */\n      0x00\n        /* \"#utility.yul\":9484:9550   */\n      tag_198\n        /* \"#utility.yul\":9500:9549   */\n      tag_199\n        /* \"#utility.yul\":9542:9548   */\n      dup5\n        /* \"#utility.yul\":9500:9549   */\n      tag_54\n      jump\t// in\n    tag_199:\n        /* \"#utility.yul\":9484:9550   */\n      tag_53\n      jump\t// in\n    tag_198:\n        /* \"#utility.yul\":9475:9550   */\n      swap1\n      pop\n        /* \"#utility.yul\":9573:9579   */\n      dup3\n        /* \"#utility.yul\":9566:9571   */\n      dup2\n        /* \"#utility.yul\":9559:9580   */\n      mstore\n        /* \"#utility.yul\":9611:9615   */\n      0x20\n        /* \"#utility.yul\":9604:9609   */\n      dup2\n        /* \"#utility.yul\":9600:9616   */\n      add\n        /* \"#utility.yul\":9649:9652   */\n      dup5\n        /* \"#utility.yul\":9640:9646   */\n      dup5\n        /* \"#utility.yul\":9635:9638   */\n      dup5\n        /* \"#utility.yul\":9631:9647   */\n      add\n        /* \"#utility.yul\":9628:9653   */\n      gt\n        /* \"#utility.yul\":9625:9737   */\n      iszero\n      tag_200\n      jumpi\n        /* \"#utility.yul\":9656:9735   */\n      tag_201\n      tag_49\n      jump\t// in\n    tag_201:\n        /* \"#utility.yul\":9625:9737   */\n    tag_200:\n        /* \"#utility.yul\":9746:9798   */\n      tag_202\n        /* \"#utility.yul\":9791:9797   */\n      dup5\n        /* \"#utility.yul\":9786:9789   */\n      dup3\n        /* \"#utility.yul\":9781:9784   */\n      dup6\n        /* \"#utility.yul\":9746:9798   */\n      tag_64\n      jump\t// in\n    tag_202:\n        /* \"#utility.yul\":9465:9804   */\n      pop\n        /* \"#utility.yul\":9370:9804   */\n      swap4\n      swap3\n      pop\n      pop\n      pop\n      jump\t// out\n        /* \"#utility.yul\":9824:10179   */\n    tag_76:\n        /* \"#utility.yul\":9891:9896   */\n      0x00\n        /* \"#utility.yul\":9940:9943   */\n      dup3\n        /* \"#utility.yul\":9933:9937   */\n      0x1f\n        /* \"#utility.yul\":9925:9931   */\n      dup4\n        /* \"#utility.yul\":9921:9938   */\n      add\n        /* \"#utility.yul\":9917:9944   */\n      slt\n        /* \"#utility.yul\":9907:10029   */\n      tag_204\n      jumpi\n        /* \"#utility.yul\":9948:10027   */\n      tag_205\n      tag_48\n      jump\t// in\n    tag_205:\n        /* \"#utility.yul\":9907:10029   */\n    tag_204:\n        /* \"#utility.yul\":10058:10064   */\n      dup2\n        /* \"#utility.yul\":10052:10065   */\n      mload\n        /* \"#utility.yul\":10083:10173   */\n      tag_206\n        /* \"#utility.yul\":10169:10172   */\n      dup5\n        /* \"#utility.yul\":10161:10167   */\n      dup3\n        /* \"#utility.yul\":10154:10158   */\n      0x20\n        /* \"#utility.yul\":10146:10152   */\n      dup7\n        /* \"#utility.yul\":10142:10159   */\n      add\n        /* \"#utility.yul\":10083:10173   */\n      tag_75\n      jump\t// in\n    tag_206:\n        /* \"#utility.yul\":10074:10173   */\n      swap2\n      pop\n        /* \"#utility.yul\":9897:10179   */\n      pop\n        /* \"#utility.yul\":9824:10179   */\n      swap3\n      swap2\n      pop\n      pop\n      jump\t// out\n        /* \"#utility.yul\":10185:10324   */\n    tag_77:\n        /* \"#utility.yul\":10240:10245   */\n      0x00\n        /* \"#utility.yul\":10271:10277   */\n      dup2\n        /* \"#utility.yul\":10265:10278   */\n      mload\n        /* \"#utility.yul\":10256:10278   */\n      swap1\n      pop\n        /* \"#utility.yul\":10287:10318   */\n      tag_208\n        /* \"#utility.yul\":10312:10317   */\n      dup2\n        /* \"#utility.yul\":10287:10318   */\n      tag_59\n      jump\t// in\n    tag_208:\n        /* \"#utility.yul\":10185:10324   */\n      swap3\n      swap2\n      pop\n      pop\n      jump\t// out\n        /* \"#utility.yul\":10350:11455   */\n    tag_78:\n        /* \"#utility.yul\":10431:10436   */\n      0x00\n        /* \"#utility.yul\":10475:10479   */\n      0x80\n        /* \"#utility.yul\":10463:10472   */\n      dup3\n        /* \"#utility.yul\":10458:10461   */\n      dup5\n        /* \"#utility.yul\":10454:10473   */\n      sub\n        /* \"#utility.yul\":10450:10480   */\n      slt\n        /* \"#utility.yul\":10447:10564   */\n      iszero\n      tag_210\n      jumpi\n        /* \"#utility.yul\":10483:10562   */\n      tag_211\n      tag_72\n      jump\t// in\n    tag_211:\n        /* \"#utility.yul\":10447:10564   */\n    tag_210:\n        /* \"#utility.yul\":10582:10603   */\n      tag_212\n        /* \"#utility.yul\":10598:10602   */\n      0x80\n        /* \"#utility.yul\":10582:10603   */\n      tag_53\n      jump\t// in\n    tag_212:\n        /* \"#utility.yul\":10573:10603   */\n      swap1\n      pop\n        /* \"#utility.yul\":10660:10661   */\n      0x00\n        /* \"#utility.yul\":10700:10760   */\n      tag_213\n        /* \"#utility.yul\":10756:10759   */\n      dup5\n        /* \"#utility.yul\":10747:10753   */\n      dup3\n        /* \"#utility.yul\":10736:10745   */\n      dup6\n        /* \"#utility.yul\":10732:10754   */\n      add\n        /* \"#utility.yul\":10700:10760   */\n      tag_74\n      jump\t// in\n    tag_213:\n        /* \"#utility.yul\":10693:10697   */\n      0x00\n        /* \"#utility.yul\":10686:10691   */\n      dup4\n        /* \"#utility.yul\":10682:10698   */\n      add\n        /* \"#utility.yul\":10675:10761   */\n      mstore\n        /* \"#utility.yul\":10613:10772   */\n      pop\n        /* \"#utility.yul\":10852:10854   */\n      0x20\n        /* \"#utility.yul\":10841:10850   */\n      dup3\n        /* \"#utility.yul\":10837:10855   */\n      add\n        /* \"#utility.yul\":10831:10856   */\n      mload\n        /* \"#utility.yul\":10883:10901   */\n      0xffffffffffffffff\n        /* \"#utility.yul\":10875:10881   */\n      dup2\n        /* \"#utility.yul\":10872:10902   */\n      gt\n        /* \"#utility.yul\":10869:10986   */\n      iszero\n      tag_214\n      jumpi\n        /* \"#utility.yul\":10905:10984   */\n      tag_215\n      tag_73\n      jump\t// in\n    tag_215:\n        /* \"#utility.yul\":10869:10986   */\n    tag_214:\n        /* \"#utility.yul\":11025:11095   */\n      tag_216\n        /* \"#utility.yul\":11091:11094   */\n      dup5\n        /* \"#utility.yul\":11082:11088   */\n      dup3\n        /* \"#utility.yul\":11071:11080   */\n      dup6\n        /* \"#utility.yul\":11067:11089   */\n      add\n        /* \"#utility.yul\":11025:11095   */\n      tag_76\n      jump\t// in\n    tag_216:\n        /* \"#utility.yul\":11018:11022   */\n      0x20\n        /* \"#utility.yul\":11011:11016   */\n      dup4\n        /* \"#utility.yul\":11007:11023   */\n      add\n        /* \"#utility.yul\":11000:11096   */\n      mstore\n        /* \"#utility.yul\":10782:11107   */\n      pop\n        /* \"#utility.yul\":11165:11167   */\n      0x40\n        /* \"#utility.yul\":11206:11264   */\n      tag_217\n        /* \"#utility.yul\":11260:11263   */\n      dup5\n        /* \"#utility.yul\":11251:11257   */\n      dup3\n        /* \"#utility.yul\":11240:11249   */\n      dup6\n        /* \"#utility.yul\":11236:11258   */\n      add\n        /* \"#utility.yul\":11206:11264   */\n      tag_77\n      jump\t// in\n    tag_217:\n        /* \"#utility.yul\":11199:11203   */\n      0x40\n        /* \"#utility.yul\":11192:11197   */\n      dup4\n        /* \"#utility.yul\":11188:11204   */\n      add\n        /* \"#utility.yul\":11181:11265   */\n      mstore\n        /* \"#utility.yul\":11117:11276   */\n      pop\n        /* \"#utility.yul\":11337:11339   */\n      0x60\n        /* \"#utility.yul\":11378:11436   */\n      tag_218\n        /* \"#utility.yul\":11432:11435   */\n      dup5\n        /* \"#utility.yul\":11423:11429   */\n      dup3\n        /* \"#utility.yul\":11412:11421   */\n      dup6\n        /* \"#utility.yul\":11408:11430   */\n      add\n        /* \"#utility.yul\":11378:11436   */\n      tag_77\n      jump\t// in\n    tag_218:\n        /* \"#utility.yul\":11371:11375   */\n      0x60\n        /* \"#utility.yul\":11364:11369   */\n      dup4\n        /* \"#utility.yul\":11360:11376   */\n      add\n        /* \"#utility.yul\":11353:11437   */\n      mstore\n        /* \"#utility.yul\":11286:11448   */\n      pop\n        /* \"#utility.yul\":10350:11455   */\n      swap3\n      swap2\n      pop\n      pop\n      jump\t// out\n        /* \"#utility.yul\":11461:12007   */\n    tag_21:\n        /* \"#utility.yul\":11552:11558   */\n      0x00\n        /* \"#utility.yul\":11601:11603   */\n      0x20\n        /* \"#utility.yul\":11589:11598   */\n      dup3\n        /* \"#utility.yul\":11580:11587   */\n      dup5\n        /* \"#utility.yul\":11576:11599   */\n      sub\n        /* \"#utility.yul\":11572:11604   */\n      slt\n        /* \"#utility.yul\":11569:11688   */\n      iszero\n      tag_220\n      jumpi\n        /* \"#utility.yul\":11607:11686   */\n      tag_221\n      tag_39\n      jump\t// in\n    tag_221:\n        /* \"#utility.yul\":11569:11688   */\n    tag_220:\n        /* \"#utility.yul\":11748:11749   */\n      0x00\n        /* \"#utility.yul\":11737:11746   */\n      dup3\n        /* \"#utility.yul\":11733:11750   */\n      add\n        /* \"#utility.yul\":11727:11751   */\n      mload\n        /* \"#utility.yul\":11778:11796   */\n      0xffffffffffffffff\n        /* \"#utility.yul\":11770:11776   */\n      dup2\n        /* \"#utility.yul\":11767:11797   */\n      gt\n        /* \"#utility.yul\":11764:11881   */\n      iszero\n      tag_222\n      jumpi\n        /* \"#utility.yul\":11800:11879   */\n      tag_223\n      tag_40\n      jump\t// in\n    tag_223:\n        /* \"#utility.yul\":11764:11881   */\n    tag_222:\n        /* \"#utility.yul\":11905:11990   */\n      tag_224\n        /* \"#utility.yul\":11982:11989   */\n      dup5\n        /* \"#utility.yul\":11973:11979   */\n      dup3\n        /* \"#utility.yul\":11962:11971   */\n      dup6\n        /* \"#utility.yul\":11958:11980   */\n      add\n        /* \"#utility.yul\":11905:11990   */\n      tag_78\n      jump\t// in\n    tag_224:\n        /* \"#utility.yul\":11895:11990   */\n      swap2\n      pop\n        /* \"#utility.yul\":11698:12000   */\n      pop\n        /* \"#utility.yul\":11461:12007   */\n      swap3\n      swap2\n      pop\n      pop\n      jump\t// out\n        /* \"#utility.yul\":12013:12193   */\n    tag_79:\n        /* \"#utility.yul\":12061:12138   */\n      0x4e487b7100000000000000000000000000000000000000000000000000000000\n        /* \"#utility.yul\":12058:12059   */\n      0x00\n        /* \"#utility.yul\":12051:12139   */\n      mstore\n        /* \"#utility.yul\":12158:12162   */\n      0x22\n        /* \"#utility.yul\":12155:12156   */\n      0x04\n        /* \"#utility.yul\":12148:12163   */\n      mstore\n        /* \"#utility.yul\":12182:12186   */\n      0x24\n        /* \"#utility.yul\":12179:12180   */\n      0x00\n        /* \"#utility.yul\":12172:12187   */\n      revert\n        /* \"#utility.yul\":12199:12519   */\n    tag_33:\n        /* \"#utility.yul\":12243:12249   */\n      0x00\n        /* \"#utility.yul\":12280:12281   */\n      0x02\n        /* \"#utility.yul\":12274:12278   */\n      dup3\n        /* \"#utility.yul\":12270:12282   */\n      div\n        /* \"#utility.yul\":12260:12282   */\n      swap1\n      pop\n        /* \"#utility.yul\":12327:12328   */\n      0x01\n        /* \"#utility.yul\":12321:12325   */\n      dup3\n        /* \"#utility.yul\":12317:12329   */\n      and\n        /* \"#utility.yul\":12348:12366   */\n      dup1\n        /* \"#utility.yul\":12338:12419   */\n      tag_227\n      jumpi\n        /* \"#utility.yul\":12404:12408   */\n      0x7f\n        /* \"#utility.yul\":12396:12402   */\n      dup3\n        /* \"#utility.yul\":12392:12409   */\n      and\n        /* \"#utility.yul\":12382:12409   */\n      swap2\n      pop\n        /* \"#utility.yul\":12338:12419   */\n    tag_227:\n        /* \"#utility.yul\":12466:12468   */\n      0x20\n        /* \"#utility.yul\":12458:12464   */\n      dup3\n        /* \"#utility.yul\":12455:12469   */\n      lt\n        /* \"#utility.yul\":12435:12453   */\n      dup2\n        /* \"#utility.yul\":12432:12470   */\n      sub\n        /* \"#utility.yul\":12429:12513   */\n      tag_228\n      jumpi\n        /* \"#utility.yul\":12485:12503   */\n      tag_229\n      tag_79\n      jump\t// in\n    tag_229:\n        /* \"#utility.yul\":12429:12513   */\n    tag_228:\n        /* \"#utility.yul\":12250:12519   */\n      pop\n        /* \"#utility.yul\":12199:12519   */\n      swap2\n      swap1\n      pop\n      jump\t// out\n        /* \"#utility.yul\":12525:12666   */\n    tag_80:\n        /* \"#utility.yul\":12574:12578   */\n      0x00\n        /* \"#utility.yul\":12597:12600   */\n      dup2\n        /* \"#utility.yul\":12589:12600   */\n      swap1\n      pop\n        /* \"#utility.yul\":12620:12623   */\n      dup2\n        /* \"#utility.yul\":12617:12618   */\n      0x00\n        /* \"#utility.yul\":12610:12624   */\n      mstore\n        /* \"#utility.yul\":12654:12658   */\n      0x20\n        /* \"#utility.yul\":12651:12652   */\n      0x00\n        /* \"#utility.yul\":12641:12659   */\n      keccak256\n        /* \"#utility.yul\":12633:12659   */\n      swap1\n      pop\n        /* \"#utility.yul\":12525:12666   */\n      swap2\n      swap1\n      pop\n      jump\t// out\n        /* \"#utility.yul\":12672:12765   */\n    tag_81:\n        /* \"#utility.yul\":12709:12715   */\n      0x00\n        /* \"#utility.yul\":12756:12758   */\n      0x20\n        /* \"#utility.yul\":12751:12753   */\n      0x1f\n        /* \"#utility.yul\":12744:12749   */\n      dup4\n        /* \"#utility.yul\":12740:12754   */\n      add\n        /* \"#utility.yul\":12736:12759   */\n      div\n        /* \"#utility.yul\":12726:12759   */\n      swap1\n      pop\n        /* \"#utility.yul\":12672:12765   */\n      swap2\n      swap1\n      pop\n      jump\t// out\n        /* \"#utility.yul\":12771:12878   */\n    tag_82:\n        /* \"#utility.yul\":12815:12823   */\n      0x00\n        /* \"#utility.yul\":12865:12870   */\n      dup3\n        /* \"#utility.yul\":12859:12863   */\n      dup3\n        /* \"#utility.yul\":12855:12871   */\n      shl\n        /* \"#utility.yul\":12834:12871   */\n      swap1\n      pop\n        /* \"#utility.yul\":12771:12878   */\n      swap3\n      swap2\n      pop\n      pop\n      jump\t// out\n        /* \"#utility.yul\":12884:13277   */\n    tag_83:\n        /* \"#utility.yul\":12953:12959   */\n      0x00\n        /* \"#utility.yul\":13003:13004   */\n      0x08\n        /* \"#utility.yul\":12991:13001   */\n      dup4\n        /* \"#utility.yul\":12987:13005   */\n      mul\n        /* \"#utility.yul\":13026:13123   */\n      tag_234\n        /* \"#utility.yul\":13056:13122   */\n      0xffffffffffffffffffffffffffffffffffffffffffffffffffffffffffffffff\n        /* \"#utility.yul\":13045:13054   */\n      dup3\n        /* \"#utility.yul\":13026:13123   */\n      tag_82\n      jump\t// in\n    tag_234:\n        /* \"#utility.yul\":13144:13183   */\n      tag_235\n        /* \"#utility.yul\":13174:13182   */\n      dup7\n        /* \"#utility.yul\":13163:13172   */\n      dup4\n        /* \"#utility.yul\":13144:13183   */\n      tag_82\n      jump\t// in\n    tag_235:\n        /* \"#utility.yul\":13132:13183   */\n      swap6\n      pop\n        /* \"#utility.yul\":13216:13220   */\n      dup1\n        /* \"#utility.yul\":13212:13221   */\n      not\n        /* \"#utility.yul\":13205:13210   */\n      dup5\n        /* \"#utility.yul\":13201:13222   */\n      and\n        /* \"#utility.yul\":13192:13222   */\n      swap4\n      pop\n        /* \"#utility.yul\":13265:13269   */\n      dup1\n        /* \"#utility.yul\":13255:13263   */\n      dup7\n        /* \"#utility.yul\":13251:13270   */\n      and\n        /* \"#utility.yul\":13244:13249   */\n      dup5\n        /* \"#utility.yul\":13241:13271   */\n      or\n        /* \"#utility.yul\":13231:13271   */\n      swap3\n      pop\n        /* \"#utility.yul\":12960:13277   */\n      pop\n      pop\n        /* \"#utility.yul\":12884:13277   */\n      swap4\n      swap3\n      pop\n      pop\n      pop\n      jump\t// out\n        /* \"#utility.yul\":13283:13343   */\n    tag_84:\n        /* \"#utility.yul\":13311:13314   */\n      0x00\n        /* \"#utility.yul\":13332:13337   */\n      dup2\n        /* \"#utility.yul\":13325:13337   */\n      swap1\n      pop\n        /* \"#utility.yul\":13283:13343   */\n      swap2\n      swap1\n      pop\n      jump\t// out\n        /* \"#utility.yul\":13349:13491   */\n    tag_85:\n        /* \"#utility.yul\":13399:13408   */\n      0x00\n        /* \"#utility.yul\":13432:13485   */\n      tag_238\n        /* \"#utility.yul\":13450:13484   */\n      tag_239\n        /* \"#utility.yul\":13459:13483   */\n      tag_240\n        /* \"#utility.yul\":13477:13482   */\n      dup5\n        /* \"#utility.yul\":13459:13483   */\n      tag_45\n      jump\t// in\n    tag_240:\n        /* \"#utility.yul\":13450:13484   */\n      tag_84\n      jump\t// in\n    tag_239:\n        /* \"#utility.yul\":13432:13485   */\n      tag_45\n      jump\t// in\n    tag_238:\n        /* \"#utility.yul\":13419:13485   */\n      swap1\n      pop\n        /* \"#utility.yul\":13349:13491   */\n      swap2\n      swap1\n      pop\n      jump\t// out\n        /* \"#utility.yul\":13497:13572   */\n    tag_86:\n        /* \"#utility.yul\":13540:13543   */\n      0x00\n        /* \"#utility.yul\":13561:13566   */\n      dup2\n        /* \"#utility.yul\":13554:13566   */\n      swap1\n      pop\n        /* \"#utility.yul\":13497:13572   */\n      swap2\n      swap1\n      pop\n      jump\t// out\n        /* \"#utility.yul\":13578:13847   */\n    tag_87:\n        /* \"#utility.yul\":13688:13727   */\n      tag_243\n        /* \"#utility.yul\":13719:13726   */\n      dup4\n        /* \"#utility.yul\":13688:13727   */\n      tag_85\n      jump\t// in\n    tag_243:\n        /* \"#utility.yul\":13749:13840   */\n      tag_244\n        /* \"#utility.yul\":13798:13839   */\n      tag_245\n        /* \"#utility.yul\":13822:13838   */\n      dup3\n        /* \"#utility.yul\":13798:13839   */\n      tag_86\n      jump\t// in\n    tag_245:\n        /* \"#utility.yul\":13790:13796   */\n      dup5\n        /* \"#utility.yul\":13783:13787   */\n      dup5\n        /* \"#utility.yul\":13777:13788   */\n      sload\n        /* \"#utility.yul\":13749:13840   */\n      tag_83\n      jump\t// in\n    tag_244:\n        /* \"#utility.yul\":13743:13747   */\n      dup3\n        /* \"#utility.yul\":13736:13841   */\n      sstore\n        /* \"#utility.yul\":13654:13847   */\n      pop\n        /* \"#utility.yul\":13578:13847   */\n      pop\n      pop\n      pop\n      jump\t// out\n        /* \"#utility.yul\":13853:13926   */\n    tag_88:\n        /* \"#utility.yul\":13898:13901   */\n      0x00\n        /* \"#utility.yul\":13853:13926   */\n      swap1\n      jump\t// out\n        /* \"#utility.yul\":13932:14121   */\n    tag_89:\n        /* \"#utility.yul\":14009:14041   */\n      tag_248\n      tag_88\n      jump\t// in\n    tag_248:\n        /* \"#utility.yul\":14050:14115   */\n      tag_249\n        /* \"#utility.yul\":14108:14114   */\n      dup2\n        /* \"#utility.yul\":14100:14106   */\n      dup5\n        /* \"#utility.yul\":14094:14098   */\n      dup5\n        /* \"#utility.yul\":14050:14115   */\n      tag_87\n      jump\t// in\n    tag_249:\n        /* \"#utility.yul\":13985:14121   */\n      pop\n        /* \"#utility.yul\":13932:14121   */\n      pop\n      pop\n      jump\t// out\n        /* \"#utility.yul\":14127:14313   */\n    tag_90:\n        /* \"#utility.yul\":14187:14307   */\n    tag_251:\n        /* \"#utility.yul\":14204:14207   */\n      dup2\n        /* \"#utility.yul\":14197:14202   */\n      dup2\n        /* \"#utility.yul\":14194:14208   */\n      lt\n        /* \"#utility.yul\":14187:14307   */\n      iszero\n      tag_253\n      jumpi\n        /* \"#utility.yul\":14258:14297   */\n      tag_254\n        /* \"#utility.yul\":14295:14296   */\n      0x00\n        /* \"#utility.yul\":14288:14293   */\n      dup3\n        /* \"#utility.yul\":14258:14297   */\n      tag_89\n      jump\t// in\n    tag_254:\n        /* \"#utility.yul\":14231:14232   */\n      0x01\n        /* \"#utility.yul\":14224:14229   */\n      dup2\n        /* \"#utility.yul\":14220:14233   */\n      add\n        /* \"#utility.yul\":14211:14233   */\n      swap1\n      pop\n        /* \"#utility.yul\":14187:14307   */\n      jump(tag_251)\n    tag_253:\n        /* \"#utility.yul\":14127:14313   */\n      pop\n      pop\n      jump\t// out\n        /* \"#utility.yul\":14319:14862   */\n    tag_91:\n        /* \"#utility.yul\":14420:14422   */\n      0x1f\n        /* \"#utility.yul\":14415:14418   */\n      dup3\n        /* \"#utility.yul\":14412:14423   */\n      gt\n        /* \"#utility.yul\":14409:14855   */\n      iszero\n      tag_256\n      jumpi\n        /* \"#utility.yul\":14454:14492   */\n      tag_257\n        /* \"#utility.yul\":14486:14491   */\n      dup2\n        /* \"#utility.yul\":14454:14492   */\n      tag_80\n      jump\t// in\n    tag_257:\n        /* \"#utility.yul\":14538:14567   */\n      tag_258\n        /* \"#utility.yul\":14556:14566   */\n      dup5\n        /* \"#utility.yul\":14538:14567   */\n      tag_81\n      jump\t// in\n    tag_258:\n        /* \"#utility.yul\":14528:14536   */\n      dup2\n        /* \"#utility.yul\":14524:14568   */\n      add\n        /* \"#utility.yul\":14721:14723   */\n      0x20\n        /* \"#utility.yul\":14709:14719   */\n      dup6\n        /* \"#utility.yul\":14706:14724   */\n      lt\n        /* \"#utility.yul\":14703:14752   */\n      iszero\n      tag_259\n      jumpi\n        /* \"#utility.yul\":14742:14750   */\n      dup2\n        /* \"#utility.yul\":14727:14750   */\n      swap1\n      pop\n        /* \"#utility.yul\":14703:14752   */\n    tag_259:\n        /* \"#utility.yul\":14765:14845   */\n      tag_260\n        /* \"#utility.yul\":14821:14843   */\n      tag_261\n        /* \"#utility.yul\":14839:14842   */\n      dup6\n        /* \"#utility.yul\":14821:14843   */\n      tag_81\n      jump\t// in\n    tag_261:\n        /* \"#utility.yul\":14811:14819   */\n      dup4\n        /* \"#utility.yul\":14807:14844   */\n      add\n        /* \"#utility.yul\":14794:14805   */\n      dup3\n        /* \"#utility.yul\":14765:14845   */\n      tag_90\n      jump\t// in\n    tag_260:\n        /* \"#utility.yul\":14424:14855   */\n      pop\n      pop\n        /* \"#utility.yul\":14409:14855   */\n    tag_256:\n        /* \"#utility.yul\":14319:14862   */\n      pop\n      pop\n      pop\n      jump\t// out\n        /* \"#utility.yul\":14868:14985   */\n    tag_92:\n        /* \"#utility.yul\":14922:14930   */\n      0x00\n        /* \"#utility.yul\":14972:14977   */\n      dup3\n        /* \"#utility.yul\":14966:14970   */\n      dup3\n        /* \"#utility.yul\":14962:14978   */\n      shr\n        /* \"#utility.yul\":14941:14978   */\n      swap1\n      pop\n        /* \"#utility.yul\":14868:14985   */\n      swap3\n      swap2\n      pop\n      pop\n      jump\t// out\n        /* \"#utility.yul\":14991:15160   */\n    tag_93:\n        /* \"#utility.yul\":15035:15041   */\n      0x00\n        /* \"#utility.yul\":15068:15119   */\n      tag_264\n        /* \"#utility.yul\":15116:15117   */\n      0x00\n        /* \"#utility.yul\":15112:15118   */\n      not\n        /* \"#utility.yul\":15104:15109   */\n      dup5\n        /* \"#utility.yul\":15101:15102   */\n      0x08\n        /* \"#utility.yul\":15097:15110   */\n      mul\n        /* \"#utility.yul\":15068:15119   */\n      tag_92\n      jump\t// in\n    tag_264:\n        /* \"#utility.yul\":15064:15120   */\n      not\n        /* \"#utility.yul\":15149:15153   */\n      dup1\n        /* \"#utility.yul\":15143:15147   */\n      dup4\n        /* \"#utility.yul\":15139:15154   */\n      and\n        /* \"#utility.yul\":15129:15154   */\n      swap2\n      pop\n        /* \"#utility.yul\":15042:15160   */\n      pop\n        /* \"#utility.yul\":14991:15160   */\n      swap3\n      swap2\n      pop\n      pop\n      jump\t// out\n        /* \"#utility.yul\":15165:15460   */\n    tag_94:\n        /* \"#utility.yul\":15241:15245   */\n      0x00\n        /* \"#utility.yul\":15387:15416   */\n      tag_266\n        /* \"#utility.yul\":15412:15415   */\n      dup4\n        /* \"#utility.yul\":15406:15410   */\n      dup4\n        /* \"#utility.yul\":15387:15416   */\n      tag_93\n      jump\t// in\n    tag_266:\n        /* \"#utility.yul\":15379:15416   */\n      swap2\n      pop\n        /* \"#utility.yul\":15449:15452   */\n      dup3\n        /* \"#utility.yul\":15446:15447   */\n      0x02\n        /* \"#utility.yul\":15442:15453   */\n      mul\n        /* \"#utility.yul\":15436:15440   */\n      dup3\n        /* \"#utility.yul\":15433:15454   */\n      or\n        /* \"#utility.yul\":15425:15454   */\n      swap1\n      pop\n        /* \"#utility.yul\":15165:15460   */\n      swap3\n      swap2\n      pop\n      pop\n      jump\t// out\n        /* \"#utility.yul\":15465:16860   */\n    tag_24:\n        /* \"#utility.yul\":15582:15619   */\n      tag_268\n        /* \"#utility.yul\":15615:15618   */\n      dup3\n        /* \"#utility.yul\":15582:15619   */\n      tag_62\n      jump\t// in\n    tag_268:\n        /* \"#utility.yul\":15684:15702   */\n      0xffffffffffffffff\n        /* \"#utility.yul\":15676:15682   */\n      dup2\n        /* \"#utility.yul\":15673:15703   */\n      gt\n        /* \"#utility.yul\":15670:15726   */\n      iszero\n      tag_269\n      jumpi\n        /* \"#utility.yul\":15706:15724   */\n      tag_270\n      tag_51\n      jump\t// in\n    tag_270:\n        /* \"#utility.yul\":15670:15726   */\n    tag_269:\n        /* \"#utility.yul\":15750:15788   */\n      tag_271\n        /* \"#utility.yul\":15782:15786   */\n      dup3\n        /* \"#utility.yul\":15776:15787   */\n      sload\n        /* \"#utility.yul\":15750:15788   */\n      tag_33\n      jump\t// in\n    tag_271:\n        /* \"#utility.yul\":15835:15902   */\n      tag_272\n        /* \"#utility.yul\":15895:15901   */\n      dup3\n        /* \"#utility.yul\":15887:15893   */\n      dup3\n        /* \"#utility.yul\":15881:15885   */\n      dup6\n        /* \"#utility.yul\":15835:15902   */\n      tag_91\n      jump\t// in\n    tag_272:\n        /* \"#utility.yul\":15929:15930   */\n      0x00\n        /* \"#utility.yul\":15953:15957   */\n      0x20\n        /* \"#utility.yul\":15940:15957   */\n      swap1\n      pop\n        /* \"#utility.yul\":15985:15987   */\n      0x1f\n        /* \"#utility.yul\":15977:15983   */\n      dup4\n        /* \"#utility.yul\":15974:15988   */\n      gt\n        /* \"#utility.yul\":16002:16003   */\n      0x01\n        /* \"#utility.yul\":15997:16615   */\n      dup2\n      eq\n      tag_274\n      jumpi\n        /* \"#utility.yul\":16659:16660   */\n      0x00\n        /* \"#utility.yul\":16676:16682   */\n      dup5\n        /* \"#utility.yul\":16673:16750   */\n      iszero\n      tag_275\n      jumpi\n        /* \"#utility.yul\":16725:16734   */\n      dup3\n        /* \"#utility.yul\":16720:16723   */\n      dup8\n        /* \"#utility.yul\":16716:16735   */\n      add\n        /* \"#utility.yul\":16710:16736   */\n      mload\n        /* \"#utility.yul\":16701:16736   */\n      swap1\n      pop\n        /* \"#utility.yul\":16673:16750   */\n    tag_275:\n        /* \"#utility.yul\":16776:16843   */\n      tag_276\n        /* \"#utility.yul\":16836:16842   */\n      dup6\n        /* \"#utility.yul\":16829:16834   */\n      dup3\n        /* \"#utility.yul\":16776:16843   */\n      tag_94\n      jump\t// in\n    tag_276:\n        /* \"#utility.yul\":16770:16774   */\n      dup7\n        /* \"#utility.yul\":16763:16844   */\n      sstore\n        /* \"#utility.yul\":16632:16854   */\n      pop\n        /* \"#utility.yul\":15967:16854   */\n      jump(tag_273)\n        /* \"#utility.yul\":15997:16615   */\n    tag_274:\n        /* \"#utility.yul\":16049:16053   */\n      0x1f\n        /* \"#utility.yul\":16045:16054   */\n      not\n        /* \"#utility.yul\":16037:16043   */\n      dup5\n        /* \"#utility.yul\":16033:16055   */\n      and\n        /* \"#utility.yul\":16083:16120   */\n      tag_277\n        /* \"#utility.yul\":16115:16119   */\n      dup7\n        /* \"#utility.yul\":16083:16120   */\n      tag_80\n      jump\t// in\n    tag_277:\n        /* \"#utility.yul\":16142:16143   */\n      0x00\n        /* \"#utility.yul\":16156:16364   */\n    tag_278:\n        /* \"#utility.yul\":16170:16177   */\n      dup3\n        /* \"#utility.yul\":16167:16168   */\n      dup2\n        /* \"#utility.yul\":16164:16178   */\n      lt\n        /* \"#utility.yul\":16156:16364   */\n      iszero\n      tag_280\n      jumpi\n        /* \"#utility.yul\":16249:16258   */\n      dup5\n        /* \"#utility.yul\":16244:16247   */\n      dup10\n        /* \"#utility.yul\":16240:16259   */\n      add\n        /* \"#utility.yul\":16234:16260   */\n      mload\n        /* \"#utility.yul\":16226:16232   */\n      dup3\n        /* \"#utility.yul\":16219:16261   */\n      sstore\n        /* \"#utility.yul\":16300:16301   */\n      0x01\n        /* \"#utility.yul\":16292:16298   */\n      dup3\n        /* \"#utility.yul\":16288:16302   */\n      add\n        /* \"#utility.yul\":16278:16302   */\n      swap2\n      pop\n        /* \"#utility.yul\":16347:16349   */\n      0x20\n        /* \"#utility.yul\":16336:16345   */\n      dup6\n        /* \"#utility.yul\":16332:16350   */\n      add\n        /* \"#utility.yul\":16319:16350   */\n      swap5\n      pop\n        /* \"#utility.yul\":16193:16197   */\n      0x20\n        /* \"#utility.yul\":16190:16191   */\n      dup2\n        /* \"#utility.yul\":16186:16198   */\n      add\n        /* \"#utility.yul\":16181:16198   */\n      swap1\n      pop\n        /* \"#utility.yul\":16156:16364   */\n      jump(tag_278)\n    tag_280:\n        /* \"#utility.yul\":16392:16398   */\n      dup7\n        /* \"#utility.yul\":16383:16390   */\n      dup4\n        /* \"#utility.yul\":16380:16399   */\n      lt\n        /* \"#utility.yul\":16377:16556   */\n      iszero\n      tag_281\n      jumpi\n        /* \"#utility.yul\":16450:16459   */\n      dup5\n        /* \"#utility.yul\":16445:16448   */\n      dup10\n        /* \"#utility.yul\":16441:16460   */\n      add\n        /* \"#utility.yul\":16435:16461   */\n      mload\n        /* \"#utility.yul\":16493:16541   */\n      tag_282\n        /* \"#utility.yul\":16535:16539   */\n      0x1f\n        /* \"#utility.yul\":16527:16533   */\n      dup10\n        /* \"#utility.yul\":16523:16540   */\n      and\n        /* \"#utility.yul\":16512:16521   */\n      dup3\n        /* \"#utility.yul\":16493:16541   */\n      tag_93\n      jump\t// in\n    tag_282:\n        /* \"#utility.yul\":16485:16491   */\n      dup4\n        /* \"#utility.yul\":16478:16542   */\n      sstore\n        /* \"#utility.yul\":16400:16556   */\n      pop\n        /* \"#utility.yul\":16377:16556   */\n    tag_281:\n        /* \"#utility.yul\":16602:16603   */\n      0x01\n        /* \"#utility.yul\":16598:16599   */\n      0x02\n        /* \"#utility.yul\":16590:16596   */\n      dup9\n        /* \"#utility.yul\":16586:16600   */\n      mul\n        /* \"#utility.yul\":16582:16604   */\n      add\n        /* \"#utility.yul\":16576:16580   */\n      dup9\n        /* \"#utility.yul\":16569:16605   */\n      sstore\n        /* \"#utility.yul\":16004:16615   */\n      pop\n      pop\n      pop\n        /* \"#utility.yul\":15967:16854   */\n    tag_273:\n      pop\n        /* \"#utility.yul\":15557:16860   */\n      pop\n      pop\n      pop\n        /* \"#utility.yul\":15465:16860   */\n      pop\n      pop\n      jump\t// out\n        /* \"#utility.yul\":16866:17046   */\n    tag_30:\n        /* \"#utility.yul\":16914:16991   */\n      0x4e487b7100000000000000000000000000000000000000000000000000000000\n        /* \"#utility.yul\":16911:16912   */\n      0x00\n        /* \"#utility.yul\":16904:16992   */\n      mstore\n        /* \"#utility.yul\":17011:17015   */\n      0x32\n        /* \"#utility.yul\":17008:17009   */\n      0x04\n        /* \"#utility.yul\":17001:17016   */\n      mstore\n        /* \"#utility.yul\":17035:17039   */\n      0x24\n        /* \"#utility.yul\":17032:17033   */\n      0x00\n        /* \"#utility.yul\":17025:17040   */\n      revert\n\n    auxdata: 0xa26469706673582212201634aed2b37823ccbcd64310a3ee0b2a5b9619c214f1540581d8a710b936449564736f6c634300081a0033\n}\n",
				"bytecode": {
					"linkReferences": {},
					"object": "6080604052348015600e575f80fd5b50610bee8061001c5f395ff3fe608060405234801561000f575f80fd5b5060043610610034575f3560e01c8063befb2e7d14610038578063daab051514610054575b5f80fd5b610052600480360381019061004d91906104e0565b610084565b005b61006e60048036038101906100699190610573565b61019a565b60405161007b919061067c565b60405180910390f35b5f8590505f8173ffffffffffffffffffffffffffffffffffffffff1663bcd8b698878787876040518563ffffffff1660e01b81526004016100c89493929190610702565b5f604051808303815f875af11580156100e3573d5f803e3d5ffd5b505050506040513d5f823e3d601f19601f8201168201806040525081019061010b919061087b565b908060018154018082558091505060019003905f5260205f2090600302015f909190919091505f820151815f0155602082015181600101908161014e9190610abc565b506040820151816002015f6101000a81548160ff021916908360ff16021790555060608201518160020160016101000a81548160ff021916908360ff1602179055505050505050505050565b6101a26102a5565b5f82815481106101b5576101b4610b8b565b5b905f5260205f2090600302016040518060800160405290815f82015481526020016001820180546101e5906108ef565b80601f0160208091040260200160405190810160405280929190818152602001828054610211906108ef565b801561025c5780601f106102335761010080835404028352916020019161025c565b820191905f5260205f20905b81548152906001019060200180831161023f57829003601f168201915b50505050508152602001600282015f9054906101000a900460ff1660ff1660ff1681526020016002820160019054906101000a900460ff1660ff1660ff16815250509050919050565b60405180608001604052805f8152602001606081526020015f60ff1681526020015f60ff1681525090565b5f604051905090565b5f80fd5b5f80fd5b5f73ffffffffffffffffffffffffffffffffffffffff82169050919050565b5f61030a826102e1565b9050919050565b61031a81610300565b8114610324575f80fd5b50565b5f8135905061033581610311565b92915050565b5f819050919050565b61034d8161033b565b8114610357575f80fd5b50565b5f8135905061036881610344565b92915050565b5f80fd5b5f80fd5b5f601f19601f8301169050919050565b7f4e487b71000000000000000000000000000000000000000000000000000000005f52604160045260245ffd5b6103bc82610376565b810181811067ffffffffffffffff821117156103db576103da610386565b5b80604052505050565b5f6103ed6102d0565b90506103f982826103b3565b919050565b5f67ffffffffffffffff82111561041857610417610386565b5b61042182610376565b9050602081019050919050565b828183375f83830152505050565b5f61044e610449846103fe565b6103e4565b90508281526020810184848401111561046a57610469610372565b5b61047584828561042e565b509392505050565b5f82601f8301126104915761049061036e565b5b81356104a184826020860161043c565b91505092915050565b5f60ff82169050919050565b6104bf816104aa565b81146104c9575f80fd5b50565b5f813590506104da816104b6565b92915050565b5f805f805f60a086880312156104f9576104f86102d9565b5b5f61050688828901610327565b95505060206105178882890161035a565b945050604086013567ffffffffffffffff811115610538576105376102dd565b5b6105448882890161047d565b9350506060610555888289016104cc565b9250506080610566888289016104cc565b9150509295509295909350565b5f60208284031215610588576105876102d9565b5b5f6105958482850161035a565b91505092915050565b6105a78161033b565b82525050565b5f81519050919050565b5f82825260208201905092915050565b8281835e5f83830152505050565b5f6105df826105ad565b6105e981856105b7565b93506105f98185602086016105c7565b61060281610376565b840191505092915050565b610616816104aa565b82525050565b5f608083015f8301516106315f86018261059e565b506020830151848203602086015261064982826105d5565b915050604083015161065e604086018261060d565b506060830151610671606086018261060d565b508091505092915050565b5f6020820190508181035f830152610694818461061c565b905092915050565b6106a58161033b565b82525050565b5f82825260208201905092915050565b5f6106c5826105ad565b6106cf81856106ab565b93506106df8185602086016105c7565b6106e881610376565b840191505092915050565b6106fc816104aa565b82525050565b5f6080820190506107155f83018761069c565b818103602083015261072781866106bb565b905061073660408301856106f3565b61074360608301846106f3565b95945050505050565b5f80fd5b5f80fd5b5f8151905061076281610344565b92915050565b5f61077a610775846103fe565b6103e4565b90508281526020810184848401111561079657610795610372565b5b6107a18482856105c7565b509392505050565b5f82601f8301126107bd576107bc61036e565b5b81516107cd848260208601610768565b91505092915050565b5f815190506107e4816104b6565b92915050565b5f608082840312156107ff576107fe61074c565b5b61080960806103e4565b90505f61081884828501610754565b5f83015250602082015167ffffffffffffffff81111561083b5761083a610750565b5b610847848285016107a9565b602083015250604061085b848285016107d6565b604083015250606061086f848285016107d6565b60608301525092915050565b5f602082840312156108905761088f6102d9565b5b5f82015167ffffffffffffffff8111156108ad576108ac6102dd565b5b6108b9848285016107ea565b91505092915050565b7f4e487b71000000000000000000000000000000000000000000000000000000005f52602260045260245ffd5b5f600282049050600182168061090657607f821691505b602082108103610919576109186108c2565b5b50919050565b5f819050815f5260205f209050919050565b5f6020601f8301049050919050565b5f82821b905092915050565b5f6008830261097b7fffffffffffffffffffffffffffffffffffffffffffffffffffffffffffffffff82610940565b6109858683610940565b95508019841693508086168417925050509392505050565b5f819050919050565b5f6109c06109bb6109b68461033b565b61099d565b61033b565b9050919050565b5f819050919050565b6109d9836109a6565b6109ed6109e5826109c7565b84845461094c565b825550505050565b5f90565b610a016109f5565b610a0c8184846109d0565b505050565b5b81811015610a2f57610a245f826109f9565b600181019050610a12565b5050565b601f821115610a7457610a458161091f565b610a4e84610931565b81016020851015610a5d578190505b610a71610a6985610931565b830182610a11565b50505b505050565b5f82821c905092915050565b5f610a945f1984600802610a79565b1980831691505092915050565b5f610aac8383610a85565b9150826002028217905092915050565b610ac5826105ad565b67ffffffffffffffff811115610ade57610add610386565b5b610ae882546108ef565b610af3828285610a33565b5f60209050601f831160018114610b24575f8415610b12578287015190505b610b1c8582610aa1565b865550610b83565b601f198416610b328661091f565b5f5b82811015610b5957848901518255600182019150602085019450602081019050610b34565b86831015610b765784890151610b72601f891682610a85565b8355505b6001600288020188555050505b505050505050565b7f4e487b71000000000000000000000000000000000000000000000000000000005f52603260045260245ffdfea26469706673582212201634aed2b37823ccbcd64310a3ee0b2a5b9619c214f1540581d8a710b936449564736f6c634300081a0033",
					"opcodes": "PUSH1 0x80 PUSH1 0x40 MSTORE CALLVALUE DUP1 ISZERO PUSH1 0xE JUMPI PUSH0 DUP1 REVERT JUMPDEST POP PUSH2 0xBEE DUP1 PUSH2 0x1C PUSH0 CODECOPY PUSH0 RETURN INVALID PUSH1 0x80 PUSH1 0x40 MSTORE CALLVALUE DUP1 ISZERO PUSH2 0xF JUMPI PUSH0 DUP1 REVERT JUMPDEST POP PUSH1 0x4 CALLDATASIZE LT PUSH2 0x34 JUMPI PUSH0 CALLDATALOAD PUSH1 0xE0 SHR DUP1 PUSH4 0xBEFB2E7D EQ PUSH2 0x38 JUMPI DUP1 PUSH4 0xDAAB0515 EQ PUSH2 0x54 JUMPI JUMPDEST PUSH0 DUP1 REVERT JUMPDEST PUSH2 0x52 PUSH1 0x4 DUP1 CALLDATASIZE SUB DUP2 ADD SWAP1 PUSH2 0x4D SWAP2 SWAP1 PUSH2 0x4E0 JUMP JUMPDEST PUSH2 0x84 JUMP JUMPDEST STOP JUMPDEST PUSH2 0x6E PUSH1 0x4 DUP1 CALLDATASIZE SUB DUP2 ADD SWAP1 PUSH2 0x69 SWAP2 SWAP1 PUSH2 0x573 JUMP JUMPDEST PUSH2 0x19A JUMP JUMPDEST PUSH1 0x40 MLOAD PUSH2 0x7B SWAP2 SWAP1 PUSH2 0x67C JUMP JUMPDEST PUSH1 0x40 MLOAD DUP1 SWAP2 SUB SWAP1 RETURN JUMPDEST PUSH0 DUP6 SWAP1 POP PUSH0 DUP2 PUSH20 0xFFFFFFFFFFFFFFFFFFFFFFFFFFFFFFFFFFFFFFFF AND PUSH4 0xBCD8B698 DUP8 DUP8 DUP8 DUP8 PUSH1 0x40 MLOAD DUP6 PUSH4 0xFFFFFFFF AND PUSH1 0xE0 SHL DUP2 MSTORE PUSH1 0x4 ADD PUSH2 0xC8 SWAP5 SWAP4 SWAP3 SWAP2 SWAP1 PUSH2 0x702 JUMP JUMPDEST PUSH0 PUSH1 0x40 MLOAD DUP1 DUP4 SUB DUP2 PUSH0 DUP8 GAS CALL ISZERO DUP1 ISZERO PUSH2 0xE3 JUMPI RETURNDATASIZE PUSH0 DUP1 RETURNDATACOPY RETURNDATASIZE PUSH0 REVERT JUMPDEST POP POP POP POP PUSH1 0x40 MLOAD RETURNDATASIZE PUSH0 DUP3 RETURNDATACOPY RETURNDATASIZE PUSH1 0x1F NOT PUSH1 0x1F DUP3 ADD AND DUP3 ADD DUP1 PUSH1 0x40 MSTORE POP DUP2 ADD SWAP1 PUSH2 0x10B SWAP2 SWAP1 PUSH2 0x87B JUMP JUMPDEST SWAP1 DUP1 PUSH1 0x1 DUP2 SLOAD ADD DUP1 DUP3 SSTORE DUP1 SWAP2 POP POP PUSH1 0x1 SWAP1 SUB SWAP1 PUSH0 MSTORE PUSH1 0x20 PUSH0 KECCAK256 SWAP1 PUSH1 0x3 MUL ADD PUSH0 SWAP1 SWAP2 SWAP1 SWAP2 SWAP1 SWAP2 POP PUSH0 DUP3 ADD MLOAD DUP2 PUSH0 ADD SSTORE PUSH1 0x20 DUP3 ADD MLOAD DUP2 PUSH1 0x1 ADD SWAP1 DUP2 PUSH2 0x14E SWAP2 SWAP1 PUSH2 0xABC JUMP JUMPDEST POP PUSH1 0x40 DUP3 ADD MLOAD DUP2 PUSH1 0x2 ADD PUSH0 PUSH2 0x100 EXP DUP2 SLOAD DUP2 PUSH1 0xFF MUL NOT AND SWAP1 DUP4 PUSH1 0xFF AND MUL OR SWAP1 SSTORE POP PUSH1 0x60 DUP3 ADD MLOAD DUP2 PUSH1 0x2 ADD PUSH1 0x1 PUSH2 0x100 EXP DUP2 SLOAD DUP2 PUSH1 0xFF MUL NOT AND SWAP1 DUP4 PUSH1 0xFF AND MUL OR SWAP1 SSTORE POP POP POP POP POP POP POP POP POP JUMP JUMPDEST PUSH2 0x1A2 PUSH2 0x2A5 JUMP JUMPDEST PUSH0 DUP3 DUP2 SLOAD DUP2 LT PUSH2 0x1B5 JUMPI PUSH2 0x1B4 PUSH2 0xB8B JUMP JUMPDEST JUMPDEST SWAP1 PUSH0 MSTORE PUSH1 0x20 PUSH0 KECCAK256 SWAP1 PUSH1 0x3 MUL ADD PUSH1 0x40 MLOAD DUP1 PUSH1 0x80 ADD PUSH1 0x40 MSTORE SWAP1 DUP2 PUSH0 DUP3 ADD SLOAD DUP2 MSTORE PUSH1 0x20 ADD PUSH1 0x1 DUP3 ADD DUP1 SLOAD PUSH2 0x1E5 SWAP1 PUSH2 0x8EF JUMP JUMPDEST DUP1 PUSH1 0x1F ADD PUSH1 0x20 DUP1 SWAP2 DIV MUL PUSH1 0x20 ADD PUSH1 0x40 MLOAD SWAP1 DUP2 ADD PUSH1 0x40 MSTORE DUP1 SWAP3 SWAP2 SWAP1 DUP2 DUP2 MSTORE PUSH1 0x20 ADD DUP3 DUP1 SLOAD PUSH2 0x211 SWAP1 PUSH2 0x8EF JUMP JUMPDEST DUP1 ISZERO PUSH2 0x25C JUMPI DUP1 PUSH1 0x1F LT PUSH2 0x233 JUMPI PUSH2 0x100 DUP1 DUP4 SLOAD DIV MUL DUP4 MSTORE SWAP2 PUSH1 0x20 ADD SWAP2 PUSH2 0x25C JUMP JUMPDEST DUP3 ADD SWAP2 SWAP1 PUSH0 MSTORE PUSH1 0x20 PUSH0 KECCAK256 SWAP1 JUMPDEST DUP2 SLOAD DUP2 MSTORE SWAP1 PUSH1 0x1 ADD SWAP1 PUSH1 0x20 ADD DUP1 DUP4 GT PUSH2 0x23F JUMPI DUP3 SWAP1 SUB PUSH1 0x1F AND DUP3 ADD SWAP2 JUMPDEST POP POP POP POP POP DUP2 MSTORE PUSH1 0x20 ADD PUSH1 0x2 DUP3 ADD PUSH0 SWAP1 SLOAD SWAP1 PUSH2 0x100 EXP SWAP1 DIV PUSH1 0xFF AND PUSH1 0xFF AND PUSH1 0xFF AND DUP2 MSTORE PUSH1 0x20 ADD PUSH1 0x2 DUP3 ADD PUSH1 0x1 SWAP1 SLOAD SWAP1 PUSH2 0x100 EXP SWAP1 DIV PUSH1 0xFF AND PUSH1 0xFF AND PUSH1 0xFF AND DUP2 MSTORE POP POP SWAP1 POP SWAP2 SWAP1 POP JUMP JUMPDEST PUSH1 0x40 MLOAD DUP1 PUSH1 0x80 ADD PUSH1 0x40 MSTORE DUP1 PUSH0 DUP2 MSTORE PUSH1 0x20 ADD PUSH1 0x60 DUP2 MSTORE PUSH1 0x20 ADD PUSH0 PUSH1 0xFF AND DUP2 MSTORE PUSH1 0x20 ADD PUSH0 PUSH1 0xFF AND DUP2 MSTORE POP SWAP1 JUMP JUMPDEST PUSH0 PUSH1 0x40 MLOAD SWAP1 POP SWAP1 JUMP JUMPDEST PUSH0 DUP1 REVERT JUMPDEST PUSH0 DUP1 REVERT JUMPDEST PUSH0 PUSH20 0xFFFFFFFFFFFFFFFFFFFFFFFFFFFFFFFFFFFFFFFF DUP3 AND SWAP1 POP SWAP2 SWAP1 POP JUMP JUMPDEST PUSH0 PUSH2 0x30A DUP3 PUSH2 0x2E1 JUMP JUMPDEST SWAP1 POP SWAP2 SWAP1 POP JUMP JUMPDEST PUSH2 0x31A DUP2 PUSH2 0x300 JUMP JUMPDEST DUP2 EQ PUSH2 0x324 JUMPI PUSH0 DUP1 REVERT JUMPDEST POP JUMP JUMPDEST PUSH0 DUP2 CALLDATALOAD SWAP1 POP PUSH2 0x335 DUP2 PUSH2 0x311 JUMP JUMPDEST SWAP3 SWAP2 POP POP JUMP JUMPDEST PUSH0 DUP2 SWAP1 POP SWAP2 SWAP1 POP JUMP JUMPDEST PUSH2 0x34D DUP2 PUSH2 0x33B JUMP JUMPDEST DUP2 EQ PUSH2 0x357 JUMPI PUSH0 DUP1 REVERT JUMPDEST POP JUMP JUMPDEST PUSH0 DUP2 CALLDATALOAD SWAP1 POP PUSH2 0x368 DUP2 PUSH2 0x344 JUMP JUMPDEST SWAP3 SWAP2 POP POP JUMP JUMPDEST PUSH0 DUP1 REVERT JUMPDEST PUSH0 DUP1 REVERT JUMPDEST PUSH0 PUSH1 0x1F NOT PUSH1 0x1F DUP4 ADD AND SWAP1 POP SWAP2 SWAP1 POP JUMP JUMPDEST PUSH32 0x4E487B7100000000000000000000000000000000000000000000000000000000 PUSH0 MSTORE PUSH1 0x41 PUSH1 0x4 MSTORE PUSH1 0x24 PUSH0 REVERT JUMPDEST PUSH2 0x3BC DUP3 PUSH2 0x376 JUMP JUMPDEST DUP2 ADD DUP2 DUP2 LT PUSH8 0xFFFFFFFFFFFFFFFF DUP3 GT OR ISZERO PUSH2 0x3DB JUMPI PUSH2 0x3DA PUSH2 0x386 JUMP JUMPDEST JUMPDEST DUP1 PUSH1 0x40 MSTORE POP POP POP JUMP JUMPDEST PUSH0 PUSH2 0x3ED PUSH2 0x2D0 JUMP JUMPDEST SWAP1 POP PUSH2 0x3F9 DUP3 DUP3 PUSH2 0x3B3 JUMP JUMPDEST SWAP2 SWAP1 POP JUMP JUMPDEST PUSH0 PUSH8 0xFFFFFFFFFFFFFFFF DUP3 GT ISZERO PUSH2 0x418 JUMPI PUSH2 0x417 PUSH2 0x386 JUMP JUMPDEST JUMPDEST PUSH2 0x421 DUP3 PUSH2 0x376 JUMP JUMPDEST SWAP1 POP PUSH1 0x20 DUP2 ADD SWAP1 POP SWAP2 SWAP1 POP JUMP JUMPDEST DUP3 DUP2 DUP4 CALLDATACOPY PUSH0 DUP4 DUP4 ADD MSTORE POP POP POP JUMP JUMPDEST PUSH0 PUSH2 0x44E PUSH2 0x449 DUP5 PUSH2 0x3FE JUMP JUMPDEST PUSH2 0x3E4 JUMP JUMPDEST SWAP1 POP DUP3 DUP2 MSTORE PUSH1 0x20 DUP2 ADD DUP5 DUP5 DUP5 ADD GT ISZERO PUSH2 0x46A JUMPI PUSH2 0x469 PUSH2 0x372 JUMP JUMPDEST JUMPDEST PUSH2 0x475 DUP5 DUP3 DUP6 PUSH2 0x42E JUMP JUMPDEST POP SWAP4 SWAP3 POP POP POP JUMP JUMPDEST PUSH0 DUP3 PUSH1 0x1F DUP4 ADD SLT PUSH2 0x491 JUMPI PUSH2 0x490 PUSH2 0x36E JUMP JUMPDEST JUMPDEST DUP2 CALLDATALOAD PUSH2 0x4A1 DUP5 DUP3 PUSH1 0x20 DUP7 ADD PUSH2 0x43C JUMP JUMPDEST SWAP2 POP POP SWAP3 SWAP2 POP POP JUMP JUMPDEST PUSH0 PUSH1 0xFF DUP3 AND SWAP1 POP SWAP2 SWAP1 POP JUMP JUMPDEST PUSH2 0x4BF DUP2 PUSH2 0x4AA JUMP JUMPDEST DUP2 EQ PUSH2 0x4C9 JUMPI PUSH0 DUP1 REVERT JUMPDEST POP JUMP JUMPDEST PUSH0 DUP2 CALLDATALOAD SWAP1 POP PUSH2 0x4DA DUP2 PUSH2 0x4B6 JUMP JUMPDEST SWAP3 SWAP2 POP POP JUMP JUMPDEST PUSH0 DUP1 PUSH0 DUP1 PUSH0 PUSH1 0xA0 DUP7 DUP9 SUB SLT ISZERO PUSH2 0x4F9 JUMPI PUSH2 0x4F8 PUSH2 0x2D9 JUMP JUMPDEST JUMPDEST PUSH0 PUSH2 0x506 DUP9 DUP3 DUP10 ADD PUSH2 0x327 JUMP JUMPDEST SWAP6 POP POP PUSH1 0x20 PUSH2 0x517 DUP9 DUP3 DUP10 ADD PUSH2 0x35A JUMP JUMPDEST SWAP5 POP POP PUSH1 0x40 DUP7 ADD CALLDATALOAD PUSH8 0xFFFFFFFFFFFFFFFF DUP2 GT ISZERO PUSH2 0x538 JUMPI PUSH2 0x537 PUSH2 0x2DD JUMP JUMPDEST JUMPDEST PUSH2 0x544 DUP9 DUP3 DUP10 ADD PUSH2 0x47D JUMP JUMPDEST SWAP4 POP POP PUSH1 0x60 PUSH2 0x555 DUP9 DUP3 DUP10 ADD PUSH2 0x4CC JUMP JUMPDEST SWAP3 POP POP PUSH1 0x80 PUSH2 0x566 DUP9 DUP3 DUP10 ADD PUSH2 0x4CC JUMP JUMPDEST SWAP2 POP POP SWAP3 SWAP6 POP SWAP3 SWAP6 SWAP1 SWAP4 POP JUMP JUMPDEST PUSH0 PUSH1 0x20 DUP3 DUP5 SUB SLT ISZERO PUSH2 0x588 JUMPI PUSH2 0x587 PUSH2 0x2D9 JUMP JUMPDEST JUMPDEST PUSH0 PUSH2 0x595 DUP5 DUP3 DUP6 ADD PUSH2 0x35A JUMP JUMPDEST SWAP2 POP POP SWAP3 SWAP2 POP POP JUMP JUMPDEST PUSH2 0x5A7 DUP2 PUSH2 0x33B JUMP JUMPDEST DUP3 MSTORE POP POP JUMP JUMPDEST PUSH0 DUP2 MLOAD SWAP1 POP SWAP2 SWAP1 POP JUMP JUMPDEST PUSH0 DUP3 DUP3 MSTORE PUSH1 0x20 DUP3 ADD SWAP1 POP SWAP3 SWAP2 POP POP JUMP JUMPDEST DUP3 DUP2 DUP4 MCOPY PUSH0 DUP4 DUP4 ADD MSTORE POP POP POP JUMP JUMPDEST PUSH0 PUSH2 0x5DF DUP3 PUSH2 0x5AD JUMP JUMPDEST PUSH2 0x5E9 DUP2 DUP6 PUSH2 0x5B7 JUMP JUMPDEST SWAP4 POP PUSH2 0x5F9 DUP2 DUP6 PUSH1 0x20 DUP7 ADD PUSH2 0x5C7 JUMP JUMPDEST PUSH2 0x602 DUP2 PUSH2 0x376 JUMP JUMPDEST DUP5 ADD SWAP2 POP POP SWAP3 SWAP2 POP POP JUMP JUMPDEST PUSH2 0x616 DUP2 PUSH2 0x4AA JUMP JUMPDEST DUP3 MSTORE POP POP JUMP JUMPDEST PUSH0 PUSH1 0x80 DUP4 ADD PUSH0 DUP4 ADD MLOAD PUSH2 0x631 PUSH0 DUP7 ADD DUP3 PUSH2 0x59E JUMP JUMPDEST POP PUSH1 0x20 DUP4 ADD MLOAD DUP5 DUP3 SUB PUSH1 0x20 DUP7 ADD MSTORE PUSH2 0x649 DUP3 DUP3 PUSH2 0x5D5 JUMP JUMPDEST SWAP2 POP POP PUSH1 0x40 DUP4 ADD MLOAD PUSH2 0x65E PUSH1 0x40 DUP7 ADD DUP3 PUSH2 0x60D JUMP JUMPDEST POP PUSH1 0x60 DUP4 ADD MLOAD PUSH2 0x671 PUSH1 0x60 DUP7 ADD DUP3 PUSH2 0x60D JUMP JUMPDEST POP DUP1 SWAP2 POP POP SWAP3 SWAP2 POP POP JUMP JUMPDEST PUSH0 PUSH1 0x20 DUP3 ADD SWAP1 POP DUP2 DUP2 SUB PUSH0 DUP4 ADD MSTORE PUSH2 0x694 DUP2 DUP5 PUSH2 0x61C JUMP JUMPDEST SWAP1 POP SWAP3 SWAP2 POP POP JUMP JUMPDEST PUSH2 0x6A5 DUP2 PUSH2 0x33B JUMP JUMPDEST DUP3 MSTORE POP POP JUMP JUMPDEST PUSH0 DUP3 DUP3 MSTORE PUSH1 0x20 DUP3 ADD SWAP1 POP SWAP3 SWAP2 POP POP JUMP JUMPDEST PUSH0 PUSH2 0x6C5 DUP3 PUSH2 0x5AD JUMP JUMPDEST PUSH2 0x6CF DUP2 DUP6 PUSH2 0x6AB JUMP JUMPDEST SWAP4 POP PUSH2 0x6DF DUP2 DUP6 PUSH1 0x20 DUP7 ADD PUSH2 0x5C7 JUMP JUMPDEST PUSH2 0x6E8 DUP2 PUSH2 0x376 JUMP JUMPDEST DUP5 ADD SWAP2 POP POP SWAP3 SWAP2 POP POP JUMP JUMPDEST PUSH2 0x6FC DUP2 PUSH2 0x4AA JUMP JUMPDEST DUP3 MSTORE POP POP JUMP JUMPDEST PUSH0 PUSH1 0x80 DUP3 ADD SWAP1 POP PUSH2 0x715 PUSH0 DUP4 ADD DUP8 PUSH2 0x69C JUMP JUMPDEST DUP2 DUP2 SUB PUSH1 0x20 DUP4 ADD MSTORE PUSH2 0x727 DUP2 DUP7 PUSH2 0x6BB JUMP JUMPDEST SWAP1 POP PUSH2 0x736 PUSH1 0x40 DUP4 ADD DUP6 PUSH2 0x6F3 JUMP JUMPDEST PUSH2 0x743 PUSH1 0x60 DUP4 ADD DUP5 PUSH2 0x6F3 JUMP JUMPDEST SWAP6 SWAP5 POP POP POP POP POP JUMP JUMPDEST PUSH0 DUP1 REVERT JUMPDEST PUSH0 DUP1 REVERT JUMPDEST PUSH0 DUP2 MLOAD SWAP1 POP PUSH2 0x762 DUP2 PUSH2 0x344 JUMP JUMPDEST SWAP3 SWAP2 POP POP JUMP JUMPDEST PUSH0 PUSH2 0x77A PUSH2 0x775 DUP5 PUSH2 0x3FE JUMP JUMPDEST PUSH2 0x3E4 JUMP JUMPDEST SWAP1 POP DUP3 DUP2 MSTORE PUSH1 0x20 DUP2 ADD DUP5 DUP5 DUP5 ADD GT ISZERO PUSH2 0x796 JUMPI PUSH2 0x795 PUSH2 0x372 JUMP JUMPDEST JUMPDEST PUSH2 0x7A1 DUP5 DUP3 DUP6 PUSH2 0x5C7 JUMP JUMPDEST POP SWAP4 SWAP3 POP POP POP JUMP JUMPDEST PUSH0 DUP3 PUSH1 0x1F DUP4 ADD SLT PUSH2 0x7BD JUMPI PUSH2 0x7BC PUSH2 0x36E JUMP JUMPDEST JUMPDEST DUP2 MLOAD PUSH2 0x7CD DUP5 DUP3 PUSH1 0x20 DUP7 ADD PUSH2 0x768 JUMP JUMPDEST SWAP2 POP POP SWAP3 SWAP2 POP POP JUMP JUMPDEST PUSH0 DUP2 MLOAD SWAP1 POP PUSH2 0x7E4 DUP2 PUSH2 0x4B6 JUMP JUMPDEST SWAP3 SWAP2 POP POP JUMP JUMPDEST PUSH0 PUSH1 0x80 DUP3 DUP5 SUB SLT ISZERO PUSH2 0x7FF JUMPI PUSH2 0x7FE PUSH2 0x74C JUMP JUMPDEST JUMPDEST PUSH2 0x809 PUSH1 0x80 PUSH2 0x3E4 JUMP JUMPDEST SWAP1 POP PUSH0 PUSH2 0x818 DUP5 DUP3 DUP6 ADD PUSH2 0x754 JUMP JUMPDEST PUSH0 DUP4 ADD MSTORE POP PUSH1 0x20 DUP3 ADD MLOAD PUSH8 0xFFFFFFFFFFFFFFFF DUP2 GT ISZERO PUSH2 0x83B JUMPI PUSH2 0x83A PUSH2 0x750 JUMP JUMPDEST JUMPDEST PUSH2 0x847 DUP5 DUP3 DUP6 ADD PUSH2 0x7A9 JUMP JUMPDEST PUSH1 0x20 DUP4 ADD MSTORE POP PUSH1 0x40 PUSH2 0x85B DUP5 DUP3 DUP6 ADD PUSH2 0x7D6 JUMP JUMPDEST PUSH1 0x40 DUP4 ADD MSTORE POP PUSH1 0x60 PUSH2 0x86F DUP5 DUP3 DUP6 ADD PUSH2 0x7D6 JUMP JUMPDEST PUSH1 0x60 DUP4 ADD MSTORE POP SWAP3 SWAP2 POP POP JUMP JUMPDEST PUSH0 PUSH1 0x20 DUP3 DUP5 SUB SLT ISZERO PUSH2 0x890 JUMPI PUSH2 0x88F PUSH2 0x2D9 JUMP JUMPDEST JUMPDEST PUSH0 DUP3 ADD MLOAD PUSH8 0xFFFFFFFFFFFFFFFF DUP2 GT ISZERO PUSH2 0x8AD JUMPI PUSH2 0x8AC PUSH2 0x2DD JUMP JUMPDEST JUMPDEST PUSH2 0x8B9 DUP5 DUP3 DUP6 ADD PUSH2 0x7EA JUMP JUMPDEST SWAP2 POP POP SWAP3 SWAP2 POP POP JUMP JUMPDEST PUSH32 0x4E487B7100000000000000000000000000000000000000000000000000000000 PUSH0 MSTORE PUSH1 0x22 PUSH1 0x4 MSTORE PUSH1 0x24 PUSH0 REVERT JUMPDEST PUSH0 PUSH1 0x2 DUP3 DIV SWAP1 POP PUSH1 0x1 DUP3 AND DUP1 PUSH2 0x906 JUMPI PUSH1 0x7F DUP3 AND SWAP2 POP JUMPDEST PUSH1 0x20 DUP3 LT DUP2 SUB PUSH2 0x919 JUMPI PUSH2 0x918 PUSH2 0x8C2 JUMP JUMPDEST JUMPDEST POP SWAP2 SWAP1 POP JUMP JUMPDEST PUSH0 DUP2 SWAP1 POP DUP2 PUSH0 MSTORE PUSH1 0x20 PUSH0 KECCAK256 SWAP1 POP SWAP2 SWAP1 POP JUMP JUMPDEST PUSH0 PUSH1 0x20 PUSH1 0x1F DUP4 ADD DIV SWAP1 POP SWAP2 SWAP1 POP JUMP JUMPDEST PUSH0 DUP3 DUP3 SHL SWAP1 POP SWAP3 SWAP2 POP POP JUMP JUMPDEST PUSH0 PUSH1 0x8 DUP4 MUL PUSH2 0x97B PUSH32 0xFFFFFFFFFFFFFFFFFFFFFFFFFFFFFFFFFFFFFFFFFFFFFFFFFFFFFFFFFFFFFFFF DUP3 PUSH2 0x940 JUMP JUMPDEST PUSH2 0x985 DUP7 DUP4 PUSH2 0x940 JUMP JUMPDEST SWAP6 POP DUP1 NOT DUP5 AND SWAP4 POP DUP1 DUP7 AND DUP5 OR SWAP3 POP POP POP SWAP4 SWAP3 POP POP POP JUMP JUMPDEST PUSH0 DUP2 SWAP1 POP SWAP2 SWAP1 POP JUMP JUMPDEST PUSH0 PUSH2 0x9C0 PUSH2 0x9BB PUSH2 0x9B6 DUP5 PUSH2 0x33B JUMP JUMPDEST PUSH2 0x99D JUMP JUMPDEST PUSH2 0x33B JUMP JUMPDEST SWAP1 POP SWAP2 SWAP1 POP JUMP JUMPDEST PUSH0 DUP2 SWAP1 POP SWAP2 SWAP1 POP JUMP JUMPDEST PUSH2 0x9D9 DUP4 PUSH2 0x9A6 JUMP JUMPDEST PUSH2 0x9ED PUSH2 0x9E5 DUP3 PUSH2 0x9C7 JUMP JUMPDEST DUP5 DUP5 SLOAD PUSH2 0x94C JUMP JUMPDEST DUP3 SSTORE POP POP POP POP JUMP JUMPDEST PUSH0 SWAP1 JUMP JUMPDEST PUSH2 0xA01 PUSH2 0x9F5 JUMP JUMPDEST PUSH2 0xA0C DUP2 DUP5 DUP5 PUSH2 0x9D0 JUMP JUMPDEST POP POP POP JUMP JUMPDEST JUMPDEST DUP2 DUP2 LT ISZERO PUSH2 0xA2F JUMPI PUSH2 0xA24 PUSH0 DUP3 PUSH2 0x9F9 JUMP JUMPDEST PUSH1 0x1 DUP2 ADD SWAP1 POP PUSH2 0xA12 JUMP JUMPDEST POP POP JUMP JUMPDEST PUSH1 0x1F DUP3 GT ISZERO PUSH2 0xA74 JUMPI PUSH2 0xA45 DUP2 PUSH2 0x91F JUMP JUMPDEST PUSH2 0xA4E DUP5 PUSH2 0x931 JUMP JUMPDEST DUP2 ADD PUSH1 0x20 DUP6 LT ISZERO PUSH2 0xA5D JUMPI DUP2 SWAP1 POP JUMPDEST PUSH2 0xA71 PUSH2 0xA69 DUP6 PUSH2 0x931 JUMP JUMPDEST DUP4 ADD DUP3 PUSH2 0xA11 JUMP JUMPDEST POP POP JUMPDEST POP POP POP JUMP JUMPDEST PUSH0 DUP3 DUP3 SHR SWAP1 POP SWAP3 SWAP2 POP POP JUMP JUMPDEST PUSH0 PUSH2 0xA94 PUSH0 NOT DUP5 PUSH1 0x8 MUL PUSH2 0xA79 JUMP JUMPDEST NOT DUP1 DUP4 AND SWAP2 POP POP SWAP3 SWAP2 POP POP JUMP JUMPDEST PUSH0 PUSH2 0xAAC DUP4 DUP4 PUSH2 0xA85 JUMP JUMPDEST SWAP2 POP DUP3 PUSH1 0x2 MUL DUP3 OR SWAP1 POP SWAP3 SWAP2 POP POP JUMP JUMPDEST PUSH2 0xAC5 DUP3 PUSH2 0x5AD JUMP JUMPDEST PUSH8 0xFFFFFFFFFFFFFFFF DUP2 GT ISZERO PUSH2 0xADE JUMPI PUSH2 0xADD PUSH2 0x386 JUMP JUMPDEST JUMPDEST PUSH2 0xAE8 DUP3 SLOAD PUSH2 0x8EF JUMP JUMPDEST PUSH2 0xAF3 DUP3 DUP3 DUP6 PUSH2 0xA33 JUMP JUMPDEST PUSH0 PUSH1 0x20 SWAP1 POP PUSH1 0x1F DUP4 GT PUSH1 0x1 DUP2 EQ PUSH2 0xB24 JUMPI PUSH0 DUP5 ISZERO PUSH2 0xB12 JUMPI DUP3 DUP8 ADD MLOAD SWAP1 POP JUMPDEST PUSH2 0xB1C DUP6 DUP3 PUSH2 0xAA1 JUMP JUMPDEST DUP7 SSTORE POP PUSH2 0xB83 JUMP JUMPDEST PUSH1 0x1F NOT DUP5 AND PUSH2 0xB32 DUP7 PUSH2 0x91F JUMP JUMPDEST PUSH0 JUMPDEST DUP3 DUP2 LT ISZERO PUSH2 0xB59 JUMPI DUP5 DUP10 ADD MLOAD DUP3 SSTORE PUSH1 0x1 DUP3 ADD SWAP2 POP PUSH1 0x20 DUP6 ADD SWAP5 POP PUSH1 0x20 DUP2 ADD SWAP1 POP PUSH2 0xB34 JUMP JUMPDEST DUP7 DUP4 LT ISZERO PUSH2 0xB76 JUMPI DUP5 DUP10 ADD MLOAD PUSH2 0xB72 PUSH1 0x1F DUP10 AND DUP3 PUSH2 0xA85 JUMP JUMPDEST DUP4 SSTORE POP JUMPDEST PUSH1 0x1 PUSH1 0x2 DUP9 MUL ADD DUP9 SSTORE POP POP POP JUMPDEST POP POP POP POP POP POP JUMP JUMPDEST PUSH32 0x4E487B7100000000000000000000000000000000000000000000000000000000 PUSH0 MSTORE PUSH1 0x32 PUSH1 0x4 MSTORE PUSH1 0x24 PUSH0 REVERT INVALID LOG2 PUSH5 0x6970667358 0x22 SLT KECCAK256 AND CALLVALUE 0xAE 0xD2 0xB3 PUSH25 0x23CCBCD64310A3EE0B2A5B9619C214F1540581D8A710B93644 SWAP6 PUSH5 0x736F6C6343 STOP ADDMOD BYTE STOP CALLER "
				},
				"gasEstimates": {
					"creation": {
						"codeDepositCost": "610800",
						"executionCost": "643",
						"totalCost": "611443"
					},
					"external": {
						"addHuman(address,uint256,string,uint8,uint8)": "infinite",
						"getFromHumanList(uint256)": "infinite"
					}
				},
				"methodIdentifiers": {
					"addHuman(address,uint256,string,uint8,uint8)": "befb2e7d",
					"getFromHumanList(uint256)": "daab0515"
				}
			},
			"storageLayout": {
				"storage": [
					{
						"astId": 29,
						"contract": "contracts/Exercises/Exercise3/First.sol:First",
						"label": "humanList",
						"offset": 0,
						"slot": "0",
						"type": "t_array(t_struct(Human)10_storage)dyn_storage"
					}
				],
				"types": {
					"t_array(t_struct(Human)10_storage)dyn_storage": {
						"base": "t_struct(Human)10_storage",
						"encoding": "dynamic_array",
						"label": "struct Human[]",
						"numberOfBytes": "32"
					},
					"t_string_storage": {
						"encoding": "bytes",
						"label": "string",
						"numberOfBytes": "32"
					},
					"t_struct(Human)10_storage": {
						"encoding": "inplace",
						"label": "struct Human",
						"members": [
							{
								"astId": 3,
								"contract": "contracts/Exercises/Exercise3/First.sol:First",
								"label": "id",
								"offset": 0,
								"slot": "0",
								"type": "t_uint256"
							},
							{
								"astId": 5,
								"contract": "contracts/Exercises/Exercise3/First.sol:First",
								"label": "name",
								"offset": 0,
								"slot": "1",
								"type": "t_string_storage"
							},
							{
								"astId": 7,
								"contract": "contracts/Exercises/Exercise3/First.sol:First",
								"label": "age",
								"offset": 0,
								"slot": "2",
								"type": "t_uint8"
							},
							{
								"astId": 9,
								"contract": "contracts/Exercises/Exercise3/First.sol:First",
								"label": "gender",
								"offset": 1,
								"slot": "2",
								"type": "t_uint8"
							}
						],
						"numberOfBytes": "96"
					},
					"t_uint256": {
						"encoding": "inplace",
						"label": "uint256",
						"numberOfBytes": "32"
					},
					"t_uint8": {
						"encoding": "inplace",
						"label": "uint8",
						"numberOfBytes": "1"
					}
				}
			},
			"userdoc": {
				"kind": "user",
				"methods": {},
				"version": 1
			}
		}
	}
}