{
	"contracts/Arrays.sol": {
		"Array": {
			"abi": [
				{
					"inputs": [
						{
							"internalType": "string",
							"name": "_name",
							"type": "string"
						},
						{
							"internalType": "uint256",
							"name": "_age",
							"type": "uint256"
						}
					],
					"name": "add_human",
					"outputs": [],
					"stateMutability": "nonpayable",
					"type": "function"
				},
				{
					"inputs": [
						{
							"internalType": "uint256",
							"name": "_number",
							"type": "uint256"
						}
					],
					"name": "add_number",
					"outputs": [],
					"stateMutability": "nonpayable",
					"type": "function"
				},
				{
					"inputs": [
						{
							"internalType": "uint256",
							"name": "_index",
							"type": "uint256"
						}
					],
					"name": "get_from_humanList",
					"outputs": [
						{
							"components": [
								{
									"internalType": "string",
									"name": "name",
									"type": "string"
								},
								{
									"internalType": "uint256",
									"name": "age",
									"type": "uint256"
								}
							],
							"internalType": "struct Array.Human",
							"name": "",
							"type": "tuple"
						}
					],
					"stateMutability": "view",
					"type": "function"
				},
				{
					"inputs": [
						{
							"internalType": "uint256",
							"name": "_index",
							"type": "uint256"
						}
					],
					"name": "get_number",
					"outputs": [
						{
							"internalType": "uint256",
							"name": "",
							"type": "uint256"
						}
					],
					"stateMutability": "view",
					"type": "function"
				}
			],
			"devdoc": {
				"kind": "dev",
				"methods": {},
				"version": 1
			},
			"evm": {
				"assembly": "    /* \"contracts/Arrays.sol\":62:750  contract Array{... */\n  mstore(0x40, 0x80)\n  callvalue\n  dup1\n  iszero\n  tag_1\n  jumpi\n  0x00\n  dup1\n  revert\ntag_1:\n  pop\n  dataSize(sub_0)\n  dup1\n  dataOffset(sub_0)\n  0x00\n  codecopy\n  0x00\n  return\nstop\n\nsub_0: assembly {\n        /* \"contracts/Arrays.sol\":62:750  contract Array{... */\n      mstore(0x40, 0x80)\n      callvalue\n      dup1\n      iszero\n      tag_1\n      jumpi\n      0x00\n      dup1\n      revert\n    tag_1:\n      pop\n      jumpi(tag_2, lt(calldatasize, 0x04))\n      shr(0xe0, calldataload(0x00))\n      dup1\n      0x129bcb28\n      eq\n      tag_3\n      jumpi\n      dup1\n      0x24f2824e\n      eq\n      tag_4\n      jumpi\n      dup1\n      0xbb658af2\n      eq\n      tag_5\n      jumpi\n      dup1\n      0xe3e2b1ba\n      eq\n      tag_6\n      jumpi\n    tag_2:\n      0x00\n      dup1\n      revert\n        /* \"contracts/Arrays.sol\":205:415  function add_human(string memory _name, uint256 _age) public{... */\n    tag_3:\n      tag_7\n      0x04\n      dup1\n      calldatasize\n      sub\n      dup2\n      add\n      swap1\n      tag_8\n      swap2\n      swap1\n      tag_9\n      jump\t// in\n    tag_8:\n      tag_10\n      jump\t// in\n    tag_7:\n      stop\n        /* \"contracts/Arrays.sol\":423:543  function get_from_humanList(uint256 _index) public view returns(Human memory){... */\n    tag_4:\n      tag_11\n      0x04\n      dup1\n      calldatasize\n      sub\n      dup2\n      add\n      swap1\n      tag_12\n      swap2\n      swap1\n      tag_13\n      jump\t// in\n    tag_12:\n      tag_14\n      jump\t// in\n    tag_11:\n      mload(0x40)\n      tag_15\n      swap2\n      swap1\n      tag_16\n      jump\t// in\n    tag_15:\n      mload(0x40)\n      dup1\n      swap2\n      sub\n      swap1\n      return\n        /* \"contracts/Arrays.sol\":642:747  function get_number(uint256 _index) public view returns(uint256){... */\n    tag_5:\n      tag_17\n      0x04\n      dup1\n      calldatasize\n      sub\n      dup2\n      add\n      swap1\n      tag_18\n      swap2\n      swap1\n      tag_13\n      jump\t// in\n    tag_18:\n      tag_19\n      jump\t// in\n    tag_17:\n      mload(0x40)\n      tag_20\n      swap2\n      swap1\n      tag_21\n      jump\t// in\n    tag_20:\n      mload(0x40)\n      dup1\n      swap2\n      sub\n      swap1\n      return\n        /* \"contracts/Arrays.sol\":551:634  function add_number(uint256 _number) public{... */\n    tag_6:\n      tag_22\n      0x04\n      dup1\n      calldatasize\n      sub\n      dup2\n      add\n      swap1\n      tag_23\n      swap2\n      swap1\n      tag_13\n      jump\t// in\n    tag_23:\n      tag_24\n      jump\t// in\n    tag_22:\n      stop\n        /* \"contracts/Arrays.sol\":205:415  function add_human(string memory _name, uint256 _age) public{... */\n    tag_10:\n        /* \"contracts/Arrays.sol\":276:298  Human memory _newHuman */\n      0x00\n        /* \"contracts/Arrays.sol\":301:369  Human({... */\n      mload(0x40)\n      dup1\n      0x40\n      add\n      0x40\n      mstore\n      dup1\n        /* \"contracts/Arrays.sol\":328:333  _name */\n      dup5\n        /* \"contracts/Arrays.sol\":301:369  Human({... */\n      dup2\n      mstore\n      0x20\n      add\n        /* \"contracts/Arrays.sol\":353:357  _age */\n      dup4\n        /* \"contracts/Arrays.sol\":301:369  Human({... */\n      dup2\n      mstore\n      pop\n        /* \"contracts/Arrays.sol\":276:369  Human memory _newHuman = Human({... */\n      swap1\n      pop\n        /* \"contracts/Arrays.sol\":382:391  humanList */\n      0x01\n        /* \"contracts/Arrays.sol\":397:406  _newHuman */\n      dup2\n        /* \"contracts/Arrays.sol\":382:407  humanList.push(_newHuman) */\n      swap1\n      dup1\n      0x01\n      dup2\n      sload\n      add\n      dup1\n      dup3\n      sstore\n      dup1\n      swap2\n      pop\n      pop\n      0x01\n      swap1\n      sub\n      swap1\n      0x00\n      mstore\n      keccak256(0x00, 0x20)\n      swap1\n      0x02\n      mul\n      add\n      0x00\n      swap1\n      swap2\n      swap1\n      swap2\n      swap1\n      swap2\n      pop\n      0x00\n      dup3\n      add\n      mload\n      dup2\n      0x00\n      add\n      swap1\n      dup2\n      tag_27\n      swap2\n      swap1\n      tag_28\n      jump\t// in\n    tag_27:\n      pop\n      0x20\n      dup3\n      add\n      mload\n      dup2\n      0x01\n      add\n      sstore\n      pop\n      pop\n        /* \"contracts/Arrays.sol\":265:415  {... */\n      pop\n        /* \"contracts/Arrays.sol\":205:415  function add_human(string memory _name, uint256 _age) public{... */\n      pop\n      pop\n      jump\t// out\n        /* \"contracts/Arrays.sol\":423:543  function get_from_humanList(uint256 _index) public view returns(Human memory){... */\n    tag_14:\n        /* \"contracts/Arrays.sol\":487:499  Human memory */\n      tag_29\n      tag_30\n      jump\t// in\n    tag_29:\n        /* \"contracts/Arrays.sol\":518:527  humanList */\n      0x01\n        /* \"contracts/Arrays.sol\":528:534  _index */\n      dup3\n        /* \"contracts/Arrays.sol\":518:535  humanList[_index] */\n      dup2\n      sload\n      dup2\n      lt\n      tag_32\n      jumpi\n      tag_33\n      tag_34\n      jump\t// in\n    tag_33:\n    tag_32:\n      swap1\n      0x00\n      mstore\n      keccak256(0x00, 0x20)\n      swap1\n      0x02\n      mul\n      add\n        /* \"contracts/Arrays.sol\":511:535  return humanList[_index] */\n      mload(0x40)\n      dup1\n      0x40\n      add\n      0x40\n      mstore\n      swap1\n      dup2\n      0x00\n      dup3\n      add\n      dup1\n      sload\n      tag_36\n      swap1\n      tag_37\n      jump\t// in\n    tag_36:\n      dup1\n      0x1f\n      add\n      0x20\n      dup1\n      swap2\n      div\n      mul\n      0x20\n      add\n      mload(0x40)\n      swap1\n      dup2\n      add\n      0x40\n      mstore\n      dup1\n      swap3\n      swap2\n      swap1\n      dup2\n      dup2\n      mstore\n      0x20\n      add\n      dup3\n      dup1\n      sload\n      tag_38\n      swap1\n      tag_37\n      jump\t// in\n    tag_38:\n      dup1\n      iszero\n      tag_39\n      jumpi\n      dup1\n      0x1f\n      lt\n      tag_40\n      jumpi\n      0x0100\n      dup1\n      dup4\n      sload\n      div\n      mul\n      dup4\n      mstore\n      swap2\n      0x20\n      add\n      swap2\n      jump(tag_39)\n    tag_40:\n      dup3\n      add\n      swap2\n      swap1\n      0x00\n      mstore\n      keccak256(0x00, 0x20)\n      swap1\n    tag_41:\n      dup2\n      sload\n      dup2\n      mstore\n      swap1\n      0x01\n      add\n      swap1\n      0x20\n      add\n      dup1\n      dup4\n      gt\n      tag_41\n      jumpi\n      dup3\n      swap1\n      sub\n      0x1f\n      and\n      dup3\n      add\n      swap2\n    tag_39:\n      pop\n      pop\n      pop\n      pop\n      pop\n      dup2\n      mstore\n      0x20\n      add\n      0x01\n      dup3\n      add\n      sload\n      dup2\n      mstore\n      pop\n      pop\n      swap1\n      pop\n        /* \"contracts/Arrays.sol\":423:543  function get_from_humanList(uint256 _index) public view returns(Human memory){... */\n      swap2\n      swap1\n      pop\n      jump\t// out\n        /* \"contracts/Arrays.sol\":642:747  function get_number(uint256 _index) public view returns(uint256){... */\n    tag_19:\n        /* \"contracts/Arrays.sol\":698:705  uint256 */\n      0x00\n        /* \"contracts/Arrays.sol\":724:731  numbers */\n      dup1\n        /* \"contracts/Arrays.sol\":732:738  _index */\n      dup3\n        /* \"contracts/Arrays.sol\":724:739  numbers[_index] */\n      dup2\n      sload\n      dup2\n      lt\n      tag_43\n      jumpi\n      tag_44\n      tag_34\n      jump\t// in\n    tag_44:\n    tag_43:\n      swap1\n      0x00\n      mstore\n      keccak256(0x00, 0x20)\n      add\n      sload\n        /* \"contracts/Arrays.sol\":717:739  return numbers[_index] */\n      swap1\n      pop\n        /* \"contracts/Arrays.sol\":642:747  function get_number(uint256 _index) public view returns(uint256){... */\n      swap2\n      swap1\n      pop\n      jump\t// out\n        /* \"contracts/Arrays.sol\":551:634  function add_number(uint256 _number) public{... */\n    tag_24:\n        /* \"contracts/Arrays.sol\":605:612  numbers */\n      0x00\n        /* \"contracts/Arrays.sol\":618:625  _number */\n      dup2\n        /* \"contracts/Arrays.sol\":605:626  numbers.push(_number) */\n      swap1\n      dup1\n      0x01\n      dup2\n      sload\n      add\n      dup1\n      dup3\n      sstore\n      dup1\n      swap2\n      pop\n      pop\n      0x01\n      swap1\n      sub\n      swap1\n      0x00\n      mstore\n      keccak256(0x00, 0x20)\n      add\n      0x00\n      swap1\n      swap2\n      swap1\n      swap2\n      swap1\n      swap2\n      pop\n      sstore\n        /* \"contracts/Arrays.sol\":551:634  function add_number(uint256 _number) public{... */\n      pop\n      jump\t// out\n    tag_30:\n      mload(0x40)\n      dup1\n      0x40\n      add\n      0x40\n      mstore\n      dup1\n      0x60\n      dup2\n      mstore\n      0x20\n      add\n      0x00\n      dup2\n      mstore\n      pop\n      swap1\n      jump\t// out\n        /* \"#utility.yul\":7:82   */\n    tag_48:\n        /* \"#utility.yul\":40:46   */\n      0x00\n        /* \"#utility.yul\":73:75   */\n      0x40\n        /* \"#utility.yul\":67:76   */\n      mload\n        /* \"#utility.yul\":57:76   */\n      swap1\n      pop\n        /* \"#utility.yul\":7:82   */\n      swap1\n      jump\t// out\n        /* \"#utility.yul\":88:205   */\n    tag_49:\n        /* \"#utility.yul\":197:198   */\n      0x00\n        /* \"#utility.yul\":194:195   */\n      dup1\n        /* \"#utility.yul\":187:199   */\n      revert\n        /* \"#utility.yul\":211:328   */\n    tag_50:\n        /* \"#utility.yul\":320:321   */\n      0x00\n        /* \"#utility.yul\":317:318   */\n      dup1\n        /* \"#utility.yul\":310:322   */\n      revert\n        /* \"#utility.yul\":334:451   */\n    tag_51:\n        /* \"#utility.yul\":443:444   */\n      0x00\n        /* \"#utility.yul\":440:441   */\n      dup1\n        /* \"#utility.yul\":433:445   */\n      revert\n        /* \"#utility.yul\":457:574   */\n    tag_52:\n        /* \"#utility.yul\":566:567   */\n      0x00\n        /* \"#utility.yul\":563:564   */\n      dup1\n        /* \"#utility.yul\":556:568   */\n      revert\n        /* \"#utility.yul\":580:682   */\n    tag_53:\n        /* \"#utility.yul\":621:627   */\n      0x00\n        /* \"#utility.yul\":672:674   */\n      0x1f\n        /* \"#utility.yul\":668:675   */\n      not\n        /* \"#utility.yul\":663:665   */\n      0x1f\n        /* \"#utility.yul\":656:661   */\n      dup4\n        /* \"#utility.yul\":652:666   */\n      add\n        /* \"#utility.yul\":648:676   */\n      and\n        /* \"#utility.yul\":638:676   */\n      swap1\n      pop\n        /* \"#utility.yul\":580:682   */\n      swap2\n      swap1\n      pop\n      jump\t// out\n        /* \"#utility.yul\":688:868   */\n    tag_54:\n        /* \"#utility.yul\":736:813   */\n      0x4e487b7100000000000000000000000000000000000000000000000000000000\n        /* \"#utility.yul\":733:734   */\n      0x00\n        /* \"#utility.yul\":726:814   */\n      mstore\n        /* \"#utility.yul\":833:837   */\n      0x41\n        /* \"#utility.yul\":830:831   */\n      0x04\n        /* \"#utility.yul\":823:838   */\n      mstore\n        /* \"#utility.yul\":857:861   */\n      0x24\n        /* \"#utility.yul\":854:855   */\n      0x00\n        /* \"#utility.yul\":847:862   */\n      revert\n        /* \"#utility.yul\":874:1155   */\n    tag_55:\n        /* \"#utility.yul\":957:984   */\n      tag_96\n        /* \"#utility.yul\":979:983   */\n      dup3\n        /* \"#utility.yul\":957:984   */\n      tag_53\n      jump\t// in\n    tag_96:\n        /* \"#utility.yul\":949:955   */\n      dup2\n        /* \"#utility.yul\":945:985   */\n      add\n        /* \"#utility.yul\":1087:1093   */\n      dup2\n        /* \"#utility.yul\":1075:1085   */\n      dup2\n        /* \"#utility.yul\":1072:1094   */\n      lt\n        /* \"#utility.yul\":1051:1069   */\n      0xffffffffffffffff\n        /* \"#utility.yul\":1039:1049   */\n      dup3\n        /* \"#utility.yul\":1036:1070   */\n      gt\n        /* \"#utility.yul\":1033:1095   */\n      or\n        /* \"#utility.yul\":1030:1118   */\n      iszero\n      tag_97\n      jumpi\n        /* \"#utility.yul\":1098:1116   */\n      tag_98\n      tag_54\n      jump\t// in\n    tag_98:\n        /* \"#utility.yul\":1030:1118   */\n    tag_97:\n        /* \"#utility.yul\":1138:1148   */\n      dup1\n        /* \"#utility.yul\":1134:1136   */\n      0x40\n        /* \"#utility.yul\":1127:1149   */\n      mstore\n        /* \"#utility.yul\":917:1155   */\n      pop\n        /* \"#utility.yul\":874:1155   */\n      pop\n      pop\n      jump\t// out\n        /* \"#utility.yul\":1161:1290   */\n    tag_56:\n        /* \"#utility.yul\":1195:1201   */\n      0x00\n        /* \"#utility.yul\":1222:1242   */\n      tag_100\n      tag_48\n      jump\t// in\n    tag_100:\n        /* \"#utility.yul\":1212:1242   */\n      swap1\n      pop\n        /* \"#utility.yul\":1251:1284   */\n      tag_101\n        /* \"#utility.yul\":1279:1283   */\n      dup3\n        /* \"#utility.yul\":1271:1277   */\n      dup3\n        /* \"#utility.yul\":1251:1284   */\n      tag_55\n      jump\t// in\n    tag_101:\n        /* \"#utility.yul\":1161:1290   */\n      swap2\n      swap1\n      pop\n      jump\t// out\n        /* \"#utility.yul\":1296:1604   */\n    tag_57:\n        /* \"#utility.yul\":1358:1362   */\n      0x00\n        /* \"#utility.yul\":1448:1466   */\n      0xffffffffffffffff\n        /* \"#utility.yul\":1440:1446   */\n      dup3\n        /* \"#utility.yul\":1437:1467   */\n      gt\n        /* \"#utility.yul\":1434:1490   */\n      iszero\n      tag_103\n      jumpi\n        /* \"#utility.yul\":1470:1488   */\n      tag_104\n      tag_54\n      jump\t// in\n    tag_104:\n        /* \"#utility.yul\":1434:1490   */\n    tag_103:\n        /* \"#utility.yul\":1508:1537   */\n      tag_105\n        /* \"#utility.yul\":1530:1536   */\n      dup3\n        /* \"#utility.yul\":1508:1537   */\n      tag_53\n      jump\t// in\n    tag_105:\n        /* \"#utility.yul\":1500:1537   */\n      swap1\n      pop\n        /* \"#utility.yul\":1592:1596   */\n      0x20\n        /* \"#utility.yul\":1586:1590   */\n      dup2\n        /* \"#utility.yul\":1582:1597   */\n      add\n        /* \"#utility.yul\":1574:1597   */\n      swap1\n      pop\n        /* \"#utility.yul\":1296:1604   */\n      swap2\n      swap1\n      pop\n      jump\t// out\n        /* \"#utility.yul\":1610:1758   */\n    tag_58:\n        /* \"#utility.yul\":1708:1714   */\n      dup3\n        /* \"#utility.yul\":1703:1706   */\n      dup2\n        /* \"#utility.yul\":1698:1701   */\n      dup4\n        /* \"#utility.yul\":1685:1715   */\n      calldatacopy\n        /* \"#utility.yul\":1749:1750   */\n      0x00\n        /* \"#utility.yul\":1740:1746   */\n      dup4\n        /* \"#utility.yul\":1735:1738   */\n      dup4\n        /* \"#utility.yul\":1731:1747   */\n      add\n        /* \"#utility.yul\":1724:1751   */\n      mstore\n        /* \"#utility.yul\":1610:1758   */\n      pop\n      pop\n      pop\n      jump\t// out\n        /* \"#utility.yul\":1764:2189   */\n    tag_59:\n        /* \"#utility.yul\":1842:1847   */\n      0x00\n        /* \"#utility.yul\":1867:1933   */\n      tag_108\n        /* \"#utility.yul\":1883:1932   */\n      tag_109\n        /* \"#utility.yul\":1925:1931   */\n      dup5\n        /* \"#utility.yul\":1883:1932   */\n      tag_57\n      jump\t// in\n    tag_109:\n        /* \"#utility.yul\":1867:1933   */\n      tag_56\n      jump\t// in\n    tag_108:\n        /* \"#utility.yul\":1858:1933   */\n      swap1\n      pop\n        /* \"#utility.yul\":1956:1962   */\n      dup3\n        /* \"#utility.yul\":1949:1954   */\n      dup2\n        /* \"#utility.yul\":1942:1963   */\n      mstore\n        /* \"#utility.yul\":1994:1998   */\n      0x20\n        /* \"#utility.yul\":1987:1992   */\n      dup2\n        /* \"#utility.yul\":1983:1999   */\n      add\n        /* \"#utility.yul\":2032:2035   */\n      dup5\n        /* \"#utility.yul\":2023:2029   */\n      dup5\n        /* \"#utility.yul\":2018:2021   */\n      dup5\n        /* \"#utility.yul\":2014:2030   */\n      add\n        /* \"#utility.yul\":2011:2036   */\n      gt\n        /* \"#utility.yul\":2008:2120   */\n      iszero\n      tag_110\n      jumpi\n        /* \"#utility.yul\":2039:2118   */\n      tag_111\n      tag_52\n      jump\t// in\n    tag_111:\n        /* \"#utility.yul\":2008:2120   */\n    tag_110:\n        /* \"#utility.yul\":2129:2183   */\n      tag_112\n        /* \"#utility.yul\":2176:2182   */\n      dup5\n        /* \"#utility.yul\":2171:2174   */\n      dup3\n        /* \"#utility.yul\":2166:2169   */\n      dup6\n        /* \"#utility.yul\":2129:2183   */\n      tag_58\n      jump\t// in\n    tag_112:\n        /* \"#utility.yul\":1848:2189   */\n      pop\n        /* \"#utility.yul\":1764:2189   */\n      swap4\n      swap3\n      pop\n      pop\n      pop\n      jump\t// out\n        /* \"#utility.yul\":2209:2549   */\n    tag_60:\n        /* \"#utility.yul\":2265:2270   */\n      0x00\n        /* \"#utility.yul\":2314:2317   */\n      dup3\n        /* \"#utility.yul\":2307:2311   */\n      0x1f\n        /* \"#utility.yul\":2299:2305   */\n      dup4\n        /* \"#utility.yul\":2295:2312   */\n      add\n        /* \"#utility.yul\":2291:2318   */\n      slt\n        /* \"#utility.yul\":2281:2403   */\n      tag_114\n      jumpi\n        /* \"#utility.yul\":2322:2401   */\n      tag_115\n      tag_51\n      jump\t// in\n    tag_115:\n        /* \"#utility.yul\":2281:2403   */\n    tag_114:\n        /* \"#utility.yul\":2439:2445   */\n      dup2\n        /* \"#utility.yul\":2426:2446   */\n      calldataload\n        /* \"#utility.yul\":2464:2543   */\n      tag_116\n        /* \"#utility.yul\":2539:2542   */\n      dup5\n        /* \"#utility.yul\":2531:2537   */\n      dup3\n        /* \"#utility.yul\":2524:2528   */\n      0x20\n        /* \"#utility.yul\":2516:2522   */\n      dup7\n        /* \"#utility.yul\":2512:2529   */\n      add\n        /* \"#utility.yul\":2464:2543   */\n      tag_59\n      jump\t// in\n    tag_116:\n        /* \"#utility.yul\":2455:2543   */\n      swap2\n      pop\n        /* \"#utility.yul\":2271:2549   */\n      pop\n        /* \"#utility.yul\":2209:2549   */\n      swap3\n      swap2\n      pop\n      pop\n      jump\t// out\n        /* \"#utility.yul\":2555:2632   */\n    tag_61:\n        /* \"#utility.yul\":2592:2599   */\n      0x00\n        /* \"#utility.yul\":2621:2626   */\n      dup2\n        /* \"#utility.yul\":2610:2626   */\n      swap1\n      pop\n        /* \"#utility.yul\":2555:2632   */\n      swap2\n      swap1\n      pop\n      jump\t// out\n        /* \"#utility.yul\":2638:2760   */\n    tag_62:\n        /* \"#utility.yul\":2711:2735   */\n      tag_119\n        /* \"#utility.yul\":2729:2734   */\n      dup2\n        /* \"#utility.yul\":2711:2735   */\n      tag_61\n      jump\t// in\n    tag_119:\n        /* \"#utility.yul\":2704:2709   */\n      dup2\n        /* \"#utility.yul\":2701:2736   */\n      eq\n        /* \"#utility.yul\":2691:2754   */\n      tag_120\n      jumpi\n        /* \"#utility.yul\":2750:2751   */\n      0x00\n        /* \"#utility.yul\":2747:2748   */\n      dup1\n        /* \"#utility.yul\":2740:2752   */\n      revert\n        /* \"#utility.yul\":2691:2754   */\n    tag_120:\n        /* \"#utility.yul\":2638:2760   */\n      pop\n      jump\t// out\n        /* \"#utility.yul\":2766:2905   */\n    tag_63:\n        /* \"#utility.yul\":2812:2817   */\n      0x00\n        /* \"#utility.yul\":2850:2856   */\n      dup2\n        /* \"#utility.yul\":2837:2857   */\n      calldataload\n        /* \"#utility.yul\":2828:2857   */\n      swap1\n      pop\n        /* \"#utility.yul\":2866:2899   */\n      tag_122\n        /* \"#utility.yul\":2893:2898   */\n      dup2\n        /* \"#utility.yul\":2866:2899   */\n      tag_62\n      jump\t// in\n    tag_122:\n        /* \"#utility.yul\":2766:2905   */\n      swap3\n      swap2\n      pop\n      pop\n      jump\t// out\n        /* \"#utility.yul\":2911:3565   */\n    tag_9:\n        /* \"#utility.yul\":2989:2995   */\n      0x00\n        /* \"#utility.yul\":2997:3003   */\n      dup1\n        /* \"#utility.yul\":3046:3048   */\n      0x40\n        /* \"#utility.yul\":3034:3043   */\n      dup4\n        /* \"#utility.yul\":3025:3032   */\n      dup6\n        /* \"#utility.yul\":3021:3044   */\n      sub\n        /* \"#utility.yul\":3017:3049   */\n      slt\n        /* \"#utility.yul\":3014:3133   */\n      iszero\n      tag_124\n      jumpi\n        /* \"#utility.yul\":3052:3131   */\n      tag_125\n      tag_49\n      jump\t// in\n    tag_125:\n        /* \"#utility.yul\":3014:3133   */\n    tag_124:\n        /* \"#utility.yul\":3200:3201   */\n      0x00\n        /* \"#utility.yul\":3189:3198   */\n      dup4\n        /* \"#utility.yul\":3185:3202   */\n      add\n        /* \"#utility.yul\":3172:3203   */\n      calldataload\n        /* \"#utility.yul\":3230:3248   */\n      0xffffffffffffffff\n        /* \"#utility.yul\":3222:3228   */\n      dup2\n        /* \"#utility.yul\":3219:3249   */\n      gt\n        /* \"#utility.yul\":3216:3333   */\n      iszero\n      tag_126\n      jumpi\n        /* \"#utility.yul\":3252:3331   */\n      tag_127\n      tag_50\n      jump\t// in\n    tag_127:\n        /* \"#utility.yul\":3216:3333   */\n    tag_126:\n        /* \"#utility.yul\":3357:3420   */\n      tag_128\n        /* \"#utility.yul\":3412:3419   */\n      dup6\n        /* \"#utility.yul\":3403:3409   */\n      dup3\n        /* \"#utility.yul\":3392:3401   */\n      dup7\n        /* \"#utility.yul\":3388:3410   */\n      add\n        /* \"#utility.yul\":3357:3420   */\n      tag_60\n      jump\t// in\n    tag_128:\n        /* \"#utility.yul\":3347:3420   */\n      swap3\n      pop\n        /* \"#utility.yul\":3143:3430   */\n      pop\n        /* \"#utility.yul\":3469:3471   */\n      0x20\n        /* \"#utility.yul\":3495:3548   */\n      tag_129\n        /* \"#utility.yul\":3540:3547   */\n      dup6\n        /* \"#utility.yul\":3531:3537   */\n      dup3\n        /* \"#utility.yul\":3520:3529   */\n      dup7\n        /* \"#utility.yul\":3516:3538   */\n      add\n        /* \"#utility.yul\":3495:3548   */\n      tag_63\n      jump\t// in\n    tag_129:\n        /* \"#utility.yul\":3485:3548   */\n      swap2\n      pop\n        /* \"#utility.yul\":3440:3558   */\n      pop\n        /* \"#utility.yul\":2911:3565   */\n      swap3\n      pop\n      swap3\n      swap1\n      pop\n      jump\t// out\n        /* \"#utility.yul\":3571:3900   */\n    tag_13:\n        /* \"#utility.yul\":3630:3636   */\n      0x00\n        /* \"#utility.yul\":3679:3681   */\n      0x20\n        /* \"#utility.yul\":3667:3676   */\n      dup3\n        /* \"#utility.yul\":3658:3665   */\n      dup5\n        /* \"#utility.yul\":3654:3677   */\n      sub\n        /* \"#utility.yul\":3650:3682   */\n      slt\n        /* \"#utility.yul\":3647:3766   */\n      iszero\n      tag_131\n      jumpi\n        /* \"#utility.yul\":3685:3764   */\n      tag_132\n      tag_49\n      jump\t// in\n    tag_132:\n        /* \"#utility.yul\":3647:3766   */\n    tag_131:\n        /* \"#utility.yul\":3805:3806   */\n      0x00\n        /* \"#utility.yul\":3830:3883   */\n      tag_133\n        /* \"#utility.yul\":3875:3882   */\n      dup5\n        /* \"#utility.yul\":3866:3872   */\n      dup3\n        /* \"#utility.yul\":3855:3864   */\n      dup6\n        /* \"#utility.yul\":3851:3873   */\n      add\n        /* \"#utility.yul\":3830:3883   */\n      tag_63\n      jump\t// in\n    tag_133:\n        /* \"#utility.yul\":3820:3883   */\n      swap2\n      pop\n        /* \"#utility.yul\":3776:3893   */\n      pop\n        /* \"#utility.yul\":3571:3900   */\n      swap3\n      swap2\n      pop\n      pop\n      jump\t// out\n        /* \"#utility.yul\":3906:4005   */\n    tag_64:\n        /* \"#utility.yul\":3958:3964   */\n      0x00\n        /* \"#utility.yul\":3992:3997   */\n      dup2\n        /* \"#utility.yul\":3986:3998   */\n      mload\n        /* \"#utility.yul\":3976:3998   */\n      swap1\n      pop\n        /* \"#utility.yul\":3906:4005   */\n      swap2\n      swap1\n      pop\n      jump\t// out\n        /* \"#utility.yul\":4011:4170   */\n    tag_65:\n        /* \"#utility.yul\":4085:4096   */\n      0x00\n        /* \"#utility.yul\":4119:4125   */\n      dup3\n        /* \"#utility.yul\":4114:4117   */\n      dup3\n        /* \"#utility.yul\":4107:4126   */\n      mstore\n        /* \"#utility.yul\":4159:4163   */\n      0x20\n        /* \"#utility.yul\":4154:4157   */\n      dup3\n        /* \"#utility.yul\":4150:4164   */\n      add\n        /* \"#utility.yul\":4135:4164   */\n      swap1\n      pop\n        /* \"#utility.yul\":4011:4170   */\n      swap3\n      swap2\n      pop\n      pop\n      jump\t// out\n        /* \"#utility.yul\":4176:4315   */\n    tag_66:\n        /* \"#utility.yul\":4265:4271   */\n      dup3\n        /* \"#utility.yul\":4260:4263   */\n      dup2\n        /* \"#utility.yul\":4255:4258   */\n      dup4\n        /* \"#utility.yul\":4249:4272   */\n      mcopy\n        /* \"#utility.yul\":4306:4307   */\n      0x00\n        /* \"#utility.yul\":4297:4303   */\n      dup4\n        /* \"#utility.yul\":4292:4295   */\n      dup4\n        /* \"#utility.yul\":4288:4304   */\n      add\n        /* \"#utility.yul\":4281:4308   */\n      mstore\n        /* \"#utility.yul\":4176:4315   */\n      pop\n      pop\n      pop\n      jump\t// out\n        /* \"#utility.yul\":4321:4678   */\n    tag_67:\n        /* \"#utility.yul\":4399:4402   */\n      0x00\n        /* \"#utility.yul\":4427:4466   */\n      tag_138\n        /* \"#utility.yul\":4460:4465   */\n      dup3\n        /* \"#utility.yul\":4427:4466   */\n      tag_64\n      jump\t// in\n    tag_138:\n        /* \"#utility.yul\":4482:4543   */\n      tag_139\n        /* \"#utility.yul\":4536:4542   */\n      dup2\n        /* \"#utility.yul\":4531:4534   */\n      dup6\n        /* \"#utility.yul\":4482:4543   */\n      tag_65\n      jump\t// in\n    tag_139:\n        /* \"#utility.yul\":4475:4543   */\n      swap4\n      pop\n        /* \"#utility.yul\":4552:4617   */\n      tag_140\n        /* \"#utility.yul\":4610:4616   */\n      dup2\n        /* \"#utility.yul\":4605:4608   */\n      dup6\n        /* \"#utility.yul\":4598:4602   */\n      0x20\n        /* \"#utility.yul\":4591:4596   */\n      dup7\n        /* \"#utility.yul\":4587:4603   */\n      add\n        /* \"#utility.yul\":4552:4617   */\n      tag_66\n      jump\t// in\n    tag_140:\n        /* \"#utility.yul\":4642:4671   */\n      tag_141\n        /* \"#utility.yul\":4664:4670   */\n      dup2\n        /* \"#utility.yul\":4642:4671   */\n      tag_53\n      jump\t// in\n    tag_141:\n        /* \"#utility.yul\":4637:4640   */\n      dup5\n        /* \"#utility.yul\":4633:4672   */\n      add\n        /* \"#utility.yul\":4626:4672   */\n      swap2\n      pop\n        /* \"#utility.yul\":4403:4678   */\n      pop\n        /* \"#utility.yul\":4321:4678   */\n      swap3\n      swap2\n      pop\n      pop\n      jump\t// out\n        /* \"#utility.yul\":4684:4792   */\n    tag_68:\n        /* \"#utility.yul\":4761:4785   */\n      tag_143\n        /* \"#utility.yul\":4779:4784   */\n      dup2\n        /* \"#utility.yul\":4761:4785   */\n      tag_61\n      jump\t// in\n    tag_143:\n        /* \"#utility.yul\":4756:4759   */\n      dup3\n        /* \"#utility.yul\":4749:4786   */\n      mstore\n        /* \"#utility.yul\":4684:4792   */\n      pop\n      pop\n      jump\t// out\n        /* \"#utility.yul\":4846:5443   */\n    tag_69:\n        /* \"#utility.yul\":4957:4960   */\n      0x00\n        /* \"#utility.yul\":4993:4997   */\n      0x40\n        /* \"#utility.yul\":4988:4991   */\n      dup4\n        /* \"#utility.yul\":4984:4998   */\n      add\n        /* \"#utility.yul\":5080:5084   */\n      0x00\n        /* \"#utility.yul\":5073:5078   */\n      dup4\n        /* \"#utility.yul\":5069:5085   */\n      add\n        /* \"#utility.yul\":5063:5086   */\n      mload\n        /* \"#utility.yul\":5133:5136   */\n      dup5\n        /* \"#utility.yul\":5127:5131   */\n      dup3\n        /* \"#utility.yul\":5123:5137   */\n      sub\n        /* \"#utility.yul\":5116:5120   */\n      0x00\n        /* \"#utility.yul\":5111:5114   */\n      dup7\n        /* \"#utility.yul\":5107:5121   */\n      add\n        /* \"#utility.yul\":5100:5138   */\n      mstore\n        /* \"#utility.yul\":5159:5232   */\n      tag_145\n        /* \"#utility.yul\":5227:5231   */\n      dup3\n        /* \"#utility.yul\":5213:5225   */\n      dup3\n        /* \"#utility.yul\":5159:5232   */\n      tag_67\n      jump\t// in\n    tag_145:\n        /* \"#utility.yul\":5151:5232   */\n      swap2\n      pop\n        /* \"#utility.yul\":5008:5243   */\n      pop\n        /* \"#utility.yul\":5324:5328   */\n      0x20\n        /* \"#utility.yul\":5317:5322   */\n      dup4\n        /* \"#utility.yul\":5313:5329   */\n      add\n        /* \"#utility.yul\":5307:5330   */\n      mload\n        /* \"#utility.yul\":5343:5406   */\n      tag_146\n        /* \"#utility.yul\":5400:5404   */\n      0x20\n        /* \"#utility.yul\":5395:5398   */\n      dup7\n        /* \"#utility.yul\":5391:5405   */\n      add\n        /* \"#utility.yul\":5377:5389   */\n      dup3\n        /* \"#utility.yul\":5343:5406   */\n      tag_68\n      jump\t// in\n    tag_146:\n        /* \"#utility.yul\":5253:5416   */\n      pop\n        /* \"#utility.yul\":5433:5437   */\n      dup1\n        /* \"#utility.yul\":5426:5437   */\n      swap2\n      pop\n        /* \"#utility.yul\":4962:5443   */\n      pop\n        /* \"#utility.yul\":4846:5443   */\n      swap3\n      swap2\n      pop\n      pop\n      jump\t// out\n        /* \"#utility.yul\":5449:5806   */\n    tag_16:\n        /* \"#utility.yul\":5584:5588   */\n      0x00\n        /* \"#utility.yul\":5622:5624   */\n      0x20\n        /* \"#utility.yul\":5611:5620   */\n      dup3\n        /* \"#utility.yul\":5607:5625   */\n      add\n        /* \"#utility.yul\":5599:5625   */\n      swap1\n      pop\n        /* \"#utility.yul\":5671:5680   */\n      dup2\n        /* \"#utility.yul\":5665:5669   */\n      dup2\n        /* \"#utility.yul\":5661:5681   */\n      sub\n        /* \"#utility.yul\":5657:5658   */\n      0x00\n        /* \"#utility.yul\":5646:5655   */\n      dup4\n        /* \"#utility.yul\":5642:5659   */\n      add\n        /* \"#utility.yul\":5635:5682   */\n      mstore\n        /* \"#utility.yul\":5699:5799   */\n      tag_148\n        /* \"#utility.yul\":5794:5798   */\n      dup2\n        /* \"#utility.yul\":5785:5791   */\n      dup5\n        /* \"#utility.yul\":5699:5799   */\n      tag_69\n      jump\t// in\n    tag_148:\n        /* \"#utility.yul\":5691:5799   */\n      swap1\n      pop\n        /* \"#utility.yul\":5449:5806   */\n      swap3\n      swap2\n      pop\n      pop\n      jump\t// out\n        /* \"#utility.yul\":5812:5930   */\n    tag_70:\n        /* \"#utility.yul\":5899:5923   */\n      tag_150\n        /* \"#utility.yul\":5917:5922   */\n      dup2\n        /* \"#utility.yul\":5899:5923   */\n      tag_61\n      jump\t// in\n    tag_150:\n        /* \"#utility.yul\":5894:5897   */\n      dup3\n        /* \"#utility.yul\":5887:5924   */\n      mstore\n        /* \"#utility.yul\":5812:5930   */\n      pop\n      pop\n      jump\t// out\n        /* \"#utility.yul\":5936:6158   */\n    tag_21:\n        /* \"#utility.yul\":6029:6033   */\n      0x00\n        /* \"#utility.yul\":6067:6069   */\n      0x20\n        /* \"#utility.yul\":6056:6065   */\n      dup3\n        /* \"#utility.yul\":6052:6070   */\n      add\n        /* \"#utility.yul\":6044:6070   */\n      swap1\n      pop\n        /* \"#utility.yul\":6080:6151   */\n      tag_152\n        /* \"#utility.yul\":6148:6149   */\n      0x00\n        /* \"#utility.yul\":6137:6146   */\n      dup4\n        /* \"#utility.yul\":6133:6150   */\n      add\n        /* \"#utility.yul\":6124:6130   */\n      dup5\n        /* \"#utility.yul\":6080:6151   */\n      tag_70\n      jump\t// in\n    tag_152:\n        /* \"#utility.yul\":5936:6158   */\n      swap3\n      swap2\n      pop\n      pop\n      jump\t// out\n        /* \"#utility.yul\":6164:6344   */\n    tag_71:\n        /* \"#utility.yul\":6212:6289   */\n      0x4e487b7100000000000000000000000000000000000000000000000000000000\n        /* \"#utility.yul\":6209:6210   */\n      0x00\n        /* \"#utility.yul\":6202:6290   */\n      mstore\n        /* \"#utility.yul\":6309:6313   */\n      0x22\n        /* \"#utility.yul\":6306:6307   */\n      0x04\n        /* \"#utility.yul\":6299:6314   */\n      mstore\n        /* \"#utility.yul\":6333:6337   */\n      0x24\n        /* \"#utility.yul\":6330:6331   */\n      0x00\n        /* \"#utility.yul\":6323:6338   */\n      revert\n        /* \"#utility.yul\":6350:6670   */\n    tag_37:\n        /* \"#utility.yul\":6394:6400   */\n      0x00\n        /* \"#utility.yul\":6431:6432   */\n      0x02\n        /* \"#utility.yul\":6425:6429   */\n      dup3\n        /* \"#utility.yul\":6421:6433   */\n      div\n        /* \"#utility.yul\":6411:6433   */\n      swap1\n      pop\n        /* \"#utility.yul\":6478:6479   */\n      0x01\n        /* \"#utility.yul\":6472:6476   */\n      dup3\n        /* \"#utility.yul\":6468:6480   */\n      and\n        /* \"#utility.yul\":6499:6517   */\n      dup1\n        /* \"#utility.yul\":6489:6570   */\n      tag_155\n      jumpi\n        /* \"#utility.yul\":6555:6559   */\n      0x7f\n        /* \"#utility.yul\":6547:6553   */\n      dup3\n        /* \"#utility.yul\":6543:6560   */\n      and\n        /* \"#utility.yul\":6533:6560   */\n      swap2\n      pop\n        /* \"#utility.yul\":6489:6570   */\n    tag_155:\n        /* \"#utility.yul\":6617:6619   */\n      0x20\n        /* \"#utility.yul\":6609:6615   */\n      dup3\n        /* \"#utility.yul\":6606:6620   */\n      lt\n        /* \"#utility.yul\":6586:6604   */\n      dup2\n        /* \"#utility.yul\":6583:6621   */\n      sub\n        /* \"#utility.yul\":6580:6664   */\n      tag_156\n      jumpi\n        /* \"#utility.yul\":6636:6654   */\n      tag_157\n      tag_71\n      jump\t// in\n    tag_157:\n        /* \"#utility.yul\":6580:6664   */\n    tag_156:\n        /* \"#utility.yul\":6401:6670   */\n      pop\n        /* \"#utility.yul\":6350:6670   */\n      swap2\n      swap1\n      pop\n      jump\t// out\n        /* \"#utility.yul\":6676:6817   */\n    tag_72:\n        /* \"#utility.yul\":6725:6729   */\n      0x00\n        /* \"#utility.yul\":6748:6751   */\n      dup2\n        /* \"#utility.yul\":6740:6751   */\n      swap1\n      pop\n        /* \"#utility.yul\":6771:6774   */\n      dup2\n        /* \"#utility.yul\":6768:6769   */\n      0x00\n        /* \"#utility.yul\":6761:6775   */\n      mstore\n        /* \"#utility.yul\":6805:6809   */\n      0x20\n        /* \"#utility.yul\":6802:6803   */\n      0x00\n        /* \"#utility.yul\":6792:6810   */\n      keccak256\n        /* \"#utility.yul\":6784:6810   */\n      swap1\n      pop\n        /* \"#utility.yul\":6676:6817   */\n      swap2\n      swap1\n      pop\n      jump\t// out\n        /* \"#utility.yul\":6823:6916   */\n    tag_73:\n        /* \"#utility.yul\":6860:6866   */\n      0x00\n        /* \"#utility.yul\":6907:6909   */\n      0x20\n        /* \"#utility.yul\":6902:6904   */\n      0x1f\n        /* \"#utility.yul\":6895:6900   */\n      dup4\n        /* \"#utility.yul\":6891:6905   */\n      add\n        /* \"#utility.yul\":6887:6910   */\n      div\n        /* \"#utility.yul\":6877:6910   */\n      swap1\n      pop\n        /* \"#utility.yul\":6823:6916   */\n      swap2\n      swap1\n      pop\n      jump\t// out\n        /* \"#utility.yul\":6922:7029   */\n    tag_74:\n        /* \"#utility.yul\":6966:6974   */\n      0x00\n        /* \"#utility.yul\":7016:7021   */\n      dup3\n        /* \"#utility.yul\":7010:7014   */\n      dup3\n        /* \"#utility.yul\":7006:7022   */\n      shl\n        /* \"#utility.yul\":6985:7022   */\n      swap1\n      pop\n        /* \"#utility.yul\":6922:7029   */\n      swap3\n      swap2\n      pop\n      pop\n      jump\t// out\n        /* \"#utility.yul\":7035:7428   */\n    tag_75:\n        /* \"#utility.yul\":7104:7110   */\n      0x00\n        /* \"#utility.yul\":7154:7155   */\n      0x08\n        /* \"#utility.yul\":7142:7152   */\n      dup4\n        /* \"#utility.yul\":7138:7156   */\n      mul\n        /* \"#utility.yul\":7177:7274   */\n      tag_162\n        /* \"#utility.yul\":7207:7273   */\n      0xffffffffffffffffffffffffffffffffffffffffffffffffffffffffffffffff\n        /* \"#utility.yul\":7196:7205   */\n      dup3\n        /* \"#utility.yul\":7177:7274   */\n      tag_74\n      jump\t// in\n    tag_162:\n        /* \"#utility.yul\":7295:7334   */\n      tag_163\n        /* \"#utility.yul\":7325:7333   */\n      dup7\n        /* \"#utility.yul\":7314:7323   */\n      dup4\n        /* \"#utility.yul\":7295:7334   */\n      tag_74\n      jump\t// in\n    tag_163:\n        /* \"#utility.yul\":7283:7334   */\n      swap6\n      pop\n        /* \"#utility.yul\":7367:7371   */\n      dup1\n        /* \"#utility.yul\":7363:7372   */\n      not\n        /* \"#utility.yul\":7356:7361   */\n      dup5\n        /* \"#utility.yul\":7352:7373   */\n      and\n        /* \"#utility.yul\":7343:7373   */\n      swap4\n      pop\n        /* \"#utility.yul\":7416:7420   */\n      dup1\n        /* \"#utility.yul\":7406:7414   */\n      dup7\n        /* \"#utility.yul\":7402:7421   */\n      and\n        /* \"#utility.yul\":7395:7400   */\n      dup5\n        /* \"#utility.yul\":7392:7422   */\n      or\n        /* \"#utility.yul\":7382:7422   */\n      swap3\n      pop\n        /* \"#utility.yul\":7111:7428   */\n      pop\n      pop\n        /* \"#utility.yul\":7035:7428   */\n      swap4\n      swap3\n      pop\n      pop\n      pop\n      jump\t// out\n        /* \"#utility.yul\":7434:7494   */\n    tag_76:\n        /* \"#utility.yul\":7462:7465   */\n      0x00\n        /* \"#utility.yul\":7483:7488   */\n      dup2\n        /* \"#utility.yul\":7476:7488   */\n      swap1\n      pop\n        /* \"#utility.yul\":7434:7494   */\n      swap2\n      swap1\n      pop\n      jump\t// out\n        /* \"#utility.yul\":7500:7642   */\n    tag_77:\n        /* \"#utility.yul\":7550:7559   */\n      0x00\n        /* \"#utility.yul\":7583:7636   */\n      tag_166\n        /* \"#utility.yul\":7601:7635   */\n      tag_167\n        /* \"#utility.yul\":7610:7634   */\n      tag_168\n        /* \"#utility.yul\":7628:7633   */\n      dup5\n        /* \"#utility.yul\":7610:7634   */\n      tag_61\n      jump\t// in\n    tag_168:\n        /* \"#utility.yul\":7601:7635   */\n      tag_76\n      jump\t// in\n    tag_167:\n        /* \"#utility.yul\":7583:7636   */\n      tag_61\n      jump\t// in\n    tag_166:\n        /* \"#utility.yul\":7570:7636   */\n      swap1\n      pop\n        /* \"#utility.yul\":7500:7642   */\n      swap2\n      swap1\n      pop\n      jump\t// out\n        /* \"#utility.yul\":7648:7723   */\n    tag_78:\n        /* \"#utility.yul\":7691:7694   */\n      0x00\n        /* \"#utility.yul\":7712:7717   */\n      dup2\n        /* \"#utility.yul\":7705:7717   */\n      swap1\n      pop\n        /* \"#utility.yul\":7648:7723   */\n      swap2\n      swap1\n      pop\n      jump\t// out\n        /* \"#utility.yul\":7729:7998   */\n    tag_79:\n        /* \"#utility.yul\":7839:7878   */\n      tag_171\n        /* \"#utility.yul\":7870:7877   */\n      dup4\n        /* \"#utility.yul\":7839:7878   */\n      tag_77\n      jump\t// in\n    tag_171:\n        /* \"#utility.yul\":7900:7991   */\n      tag_172\n        /* \"#utility.yul\":7949:7990   */\n      tag_173\n        /* \"#utility.yul\":7973:7989   */\n      dup3\n        /* \"#utility.yul\":7949:7990   */\n      tag_78\n      jump\t// in\n    tag_173:\n        /* \"#utility.yul\":7941:7947   */\n      dup5\n        /* \"#utility.yul\":7934:7938   */\n      dup5\n        /* \"#utility.yul\":7928:7939   */\n      sload\n        /* \"#utility.yul\":7900:7991   */\n      tag_75\n      jump\t// in\n    tag_172:\n        /* \"#utility.yul\":7894:7898   */\n      dup3\n        /* \"#utility.yul\":7887:7992   */\n      sstore\n        /* \"#utility.yul\":7805:7998   */\n      pop\n        /* \"#utility.yul\":7729:7998   */\n      pop\n      pop\n      pop\n      jump\t// out\n        /* \"#utility.yul\":8004:8077   */\n    tag_80:\n        /* \"#utility.yul\":8049:8052   */\n      0x00\n        /* \"#utility.yul\":8004:8077   */\n      swap1\n      jump\t// out\n        /* \"#utility.yul\":8083:8272   */\n    tag_81:\n        /* \"#utility.yul\":8160:8192   */\n      tag_176\n      tag_80\n      jump\t// in\n    tag_176:\n        /* \"#utility.yul\":8201:8266   */\n      tag_177\n        /* \"#utility.yul\":8259:8265   */\n      dup2\n        /* \"#utility.yul\":8251:8257   */\n      dup5\n        /* \"#utility.yul\":8245:8249   */\n      dup5\n        /* \"#utility.yul\":8201:8266   */\n      tag_79\n      jump\t// in\n    tag_177:\n        /* \"#utility.yul\":8136:8272   */\n      pop\n        /* \"#utility.yul\":8083:8272   */\n      pop\n      pop\n      jump\t// out\n        /* \"#utility.yul\":8278:8464   */\n    tag_82:\n        /* \"#utility.yul\":8338:8458   */\n    tag_179:\n        /* \"#utility.yul\":8355:8358   */\n      dup2\n        /* \"#utility.yul\":8348:8353   */\n      dup2\n        /* \"#utility.yul\":8345:8359   */\n      lt\n        /* \"#utility.yul\":8338:8458   */\n      iszero\n      tag_181\n      jumpi\n        /* \"#utility.yul\":8409:8448   */\n      tag_182\n        /* \"#utility.yul\":8446:8447   */\n      0x00\n        /* \"#utility.yul\":8439:8444   */\n      dup3\n        /* \"#utility.yul\":8409:8448   */\n      tag_81\n      jump\t// in\n    tag_182:\n        /* \"#utility.yul\":8382:8383   */\n      0x01\n        /* \"#utility.yul\":8375:8380   */\n      dup2\n        /* \"#utility.yul\":8371:8384   */\n      add\n        /* \"#utility.yul\":8362:8384   */\n      swap1\n      pop\n        /* \"#utility.yul\":8338:8458   */\n      jump(tag_179)\n    tag_181:\n        /* \"#utility.yul\":8278:8464   */\n      pop\n      pop\n      jump\t// out\n        /* \"#utility.yul\":8470:9013   */\n    tag_83:\n        /* \"#utility.yul\":8571:8573   */\n      0x1f\n        /* \"#utility.yul\":8566:8569   */\n      dup3\n        /* \"#utility.yul\":8563:8574   */\n      gt\n        /* \"#utility.yul\":8560:9006   */\n      iszero\n      tag_184\n      jumpi\n        /* \"#utility.yul\":8605:8643   */\n      tag_185\n        /* \"#utility.yul\":8637:8642   */\n      dup2\n        /* \"#utility.yul\":8605:8643   */\n      tag_72\n      jump\t// in\n    tag_185:\n        /* \"#utility.yul\":8689:8718   */\n      tag_186\n        /* \"#utility.yul\":8707:8717   */\n      dup5\n        /* \"#utility.yul\":8689:8718   */\n      tag_73\n      jump\t// in\n    tag_186:\n        /* \"#utility.yul\":8679:8687   */\n      dup2\n        /* \"#utility.yul\":8675:8719   */\n      add\n        /* \"#utility.yul\":8872:8874   */\n      0x20\n        /* \"#utility.yul\":8860:8870   */\n      dup6\n        /* \"#utility.yul\":8857:8875   */\n      lt\n        /* \"#utility.yul\":8854:8903   */\n      iszero\n      tag_187\n      jumpi\n        /* \"#utility.yul\":8893:8901   */\n      dup2\n        /* \"#utility.yul\":8878:8901   */\n      swap1\n      pop\n        /* \"#utility.yul\":8854:8903   */\n    tag_187:\n        /* \"#utility.yul\":8916:8996   */\n      tag_188\n        /* \"#utility.yul\":8972:8994   */\n      tag_189\n        /* \"#utility.yul\":8990:8993   */\n      dup6\n        /* \"#utility.yul\":8972:8994   */\n      tag_73\n      jump\t// in\n    tag_189:\n        /* \"#utility.yul\":8962:8970   */\n      dup4\n        /* \"#utility.yul\":8958:8995   */\n      add\n        /* \"#utility.yul\":8945:8956   */\n      dup3\n        /* \"#utility.yul\":8916:8996   */\n      tag_82\n      jump\t// in\n    tag_188:\n        /* \"#utility.yul\":8575:9006   */\n      pop\n      pop\n        /* \"#utility.yul\":8560:9006   */\n    tag_184:\n        /* \"#utility.yul\":8470:9013   */\n      pop\n      pop\n      pop\n      jump\t// out\n        /* \"#utility.yul\":9019:9136   */\n    tag_84:\n        /* \"#utility.yul\":9073:9081   */\n      0x00\n        /* \"#utility.yul\":9123:9128   */\n      dup3\n        /* \"#utility.yul\":9117:9121   */\n      dup3\n        /* \"#utility.yul\":9113:9129   */\n      shr\n        /* \"#utility.yul\":9092:9129   */\n      swap1\n      pop\n        /* \"#utility.yul\":9019:9136   */\n      swap3\n      swap2\n      pop\n      pop\n      jump\t// out\n        /* \"#utility.yul\":9142:9311   */\n    tag_85:\n        /* \"#utility.yul\":9186:9192   */\n      0x00\n        /* \"#utility.yul\":9219:9270   */\n      tag_192\n        /* \"#utility.yul\":9267:9268   */\n      0x00\n        /* \"#utility.yul\":9263:9269   */\n      not\n        /* \"#utility.yul\":9255:9260   */\n      dup5\n        /* \"#utility.yul\":9252:9253   */\n      0x08\n        /* \"#utility.yul\":9248:9261   */\n      mul\n        /* \"#utility.yul\":9219:9270   */\n      tag_84\n      jump\t// in\n    tag_192:\n        /* \"#utility.yul\":9215:9271   */\n      not\n        /* \"#utility.yul\":9300:9304   */\n      dup1\n        /* \"#utility.yul\":9294:9298   */\n      dup4\n        /* \"#utility.yul\":9290:9305   */\n      and\n        /* \"#utility.yul\":9280:9305   */\n      swap2\n      pop\n        /* \"#utility.yul\":9193:9311   */\n      pop\n        /* \"#utility.yul\":9142:9311   */\n      swap3\n      swap2\n      pop\n      pop\n      jump\t// out\n        /* \"#utility.yul\":9316:9611   */\n    tag_86:\n        /* \"#utility.yul\":9392:9396   */\n      0x00\n        /* \"#utility.yul\":9538:9567   */\n      tag_194\n        /* \"#utility.yul\":9563:9566   */\n      dup4\n        /* \"#utility.yul\":9557:9561   */\n      dup4\n        /* \"#utility.yul\":9538:9567   */\n      tag_85\n      jump\t// in\n    tag_194:\n        /* \"#utility.yul\":9530:9567   */\n      swap2\n      pop\n        /* \"#utility.yul\":9600:9603   */\n      dup3\n        /* \"#utility.yul\":9597:9598   */\n      0x02\n        /* \"#utility.yul\":9593:9604   */\n      mul\n        /* \"#utility.yul\":9587:9591   */\n      dup3\n        /* \"#utility.yul\":9584:9605   */\n      or\n        /* \"#utility.yul\":9576:9605   */\n      swap1\n      pop\n        /* \"#utility.yul\":9316:9611   */\n      swap3\n      swap2\n      pop\n      pop\n      jump\t// out\n        /* \"#utility.yul\":9616:11011   */\n    tag_28:\n        /* \"#utility.yul\":9733:9770   */\n      tag_196\n        /* \"#utility.yul\":9766:9769   */\n      dup3\n        /* \"#utility.yul\":9733:9770   */\n      tag_64\n      jump\t// in\n    tag_196:\n        /* \"#utility.yul\":9835:9853   */\n      0xffffffffffffffff\n        /* \"#utility.yul\":9827:9833   */\n      dup2\n        /* \"#utility.yul\":9824:9854   */\n      gt\n        /* \"#utility.yul\":9821:9877   */\n      iszero\n      tag_197\n      jumpi\n        /* \"#utility.yul\":9857:9875   */\n      tag_198\n      tag_54\n      jump\t// in\n    tag_198:\n        /* \"#utility.yul\":9821:9877   */\n    tag_197:\n        /* \"#utility.yul\":9901:9939   */\n      tag_199\n        /* \"#utility.yul\":9933:9937   */\n      dup3\n        /* \"#utility.yul\":9927:9938   */\n      sload\n        /* \"#utility.yul\":9901:9939   */\n      tag_37\n      jump\t// in\n    tag_199:\n        /* \"#utility.yul\":9986:10053   */\n      tag_200\n        /* \"#utility.yul\":10046:10052   */\n      dup3\n        /* \"#utility.yul\":10038:10044   */\n      dup3\n        /* \"#utility.yul\":10032:10036   */\n      dup6\n        /* \"#utility.yul\":9986:10053   */\n      tag_83\n      jump\t// in\n    tag_200:\n        /* \"#utility.yul\":10080:10081   */\n      0x00\n        /* \"#utility.yul\":10104:10108   */\n      0x20\n        /* \"#utility.yul\":10091:10108   */\n      swap1\n      pop\n        /* \"#utility.yul\":10136:10138   */\n      0x1f\n        /* \"#utility.yul\":10128:10134   */\n      dup4\n        /* \"#utility.yul\":10125:10139   */\n      gt\n        /* \"#utility.yul\":10153:10154   */\n      0x01\n        /* \"#utility.yul\":10148:10766   */\n      dup2\n      eq\n      tag_202\n      jumpi\n        /* \"#utility.yul\":10810:10811   */\n      0x00\n        /* \"#utility.yul\":10827:10833   */\n      dup5\n        /* \"#utility.yul\":10824:10901   */\n      iszero\n      tag_203\n      jumpi\n        /* \"#utility.yul\":10876:10885   */\n      dup3\n        /* \"#utility.yul\":10871:10874   */\n      dup8\n        /* \"#utility.yul\":10867:10886   */\n      add\n        /* \"#utility.yul\":10861:10887   */\n      mload\n        /* \"#utility.yul\":10852:10887   */\n      swap1\n      pop\n        /* \"#utility.yul\":10824:10901   */\n    tag_203:\n        /* \"#utility.yul\":10927:10994   */\n      tag_204\n        /* \"#utility.yul\":10987:10993   */\n      dup6\n        /* \"#utility.yul\":10980:10985   */\n      dup3\n        /* \"#utility.yul\":10927:10994   */\n      tag_86\n      jump\t// in\n    tag_204:\n        /* \"#utility.yul\":10921:10925   */\n      dup7\n        /* \"#utility.yul\":10914:10995   */\n      sstore\n        /* \"#utility.yul\":10783:11005   */\n      pop\n        /* \"#utility.yul\":10118:11005   */\n      jump(tag_201)\n        /* \"#utility.yul\":10148:10766   */\n    tag_202:\n        /* \"#utility.yul\":10200:10204   */\n      0x1f\n        /* \"#utility.yul\":10196:10205   */\n      not\n        /* \"#utility.yul\":10188:10194   */\n      dup5\n        /* \"#utility.yul\":10184:10206   */\n      and\n        /* \"#utility.yul\":10234:10271   */\n      tag_205\n        /* \"#utility.yul\":10266:10270   */\n      dup7\n        /* \"#utility.yul\":10234:10271   */\n      tag_72\n      jump\t// in\n    tag_205:\n        /* \"#utility.yul\":10293:10294   */\n      0x00\n        /* \"#utility.yul\":10307:10515   */\n    tag_206:\n        /* \"#utility.yul\":10321:10328   */\n      dup3\n        /* \"#utility.yul\":10318:10319   */\n      dup2\n        /* \"#utility.yul\":10315:10329   */\n      lt\n        /* \"#utility.yul\":10307:10515   */\n      iszero\n      tag_208\n      jumpi\n        /* \"#utility.yul\":10400:10409   */\n      dup5\n        /* \"#utility.yul\":10395:10398   */\n      dup10\n        /* \"#utility.yul\":10391:10410   */\n      add\n        /* \"#utility.yul\":10385:10411   */\n      mload\n        /* \"#utility.yul\":10377:10383   */\n      dup3\n        /* \"#utility.yul\":10370:10412   */\n      sstore\n        /* \"#utility.yul\":10451:10452   */\n      0x01\n        /* \"#utility.yul\":10443:10449   */\n      dup3\n        /* \"#utility.yul\":10439:10453   */\n      add\n        /* \"#utility.yul\":10429:10453   */\n      swap2\n      pop\n        /* \"#utility.yul\":10498:10500   */\n      0x20\n        /* \"#utility.yul\":10487:10496   */\n      dup6\n        /* \"#utility.yul\":10483:10501   */\n      add\n        /* \"#utility.yul\":10470:10501   */\n      swap5\n      pop\n        /* \"#utility.yul\":10344:10348   */\n      0x20\n        /* \"#utility.yul\":10341:10342   */\n      dup2\n        /* \"#utility.yul\":10337:10349   */\n      add\n        /* \"#utility.yul\":10332:10349   */\n      swap1\n      pop\n        /* \"#utility.yul\":10307:10515   */\n      jump(tag_206)\n    tag_208:\n        /* \"#utility.yul\":10543:10549   */\n      dup7\n        /* \"#utility.yul\":10534:10541   */\n      dup4\n        /* \"#utility.yul\":10531:10550   */\n      lt\n        /* \"#utility.yul\":10528:10707   */\n      iszero\n      tag_209\n      jumpi\n        /* \"#utility.yul\":10601:10610   */\n      dup5\n        /* \"#utility.yul\":10596:10599   */\n      dup10\n        /* \"#utility.yul\":10592:10611   */\n      add\n        /* \"#utility.yul\":10586:10612   */\n      mload\n        /* \"#utility.yul\":10644:10692   */\n      tag_210\n        /* \"#utility.yul\":10686:10690   */\n      0x1f\n        /* \"#utility.yul\":10678:10684   */\n      dup10\n        /* \"#utility.yul\":10674:10691   */\n      and\n        /* \"#utility.yul\":10663:10672   */\n      dup3\n        /* \"#utility.yul\":10644:10692   */\n      tag_85\n      jump\t// in\n    tag_210:\n        /* \"#utility.yul\":10636:10642   */\n      dup4\n        /* \"#utility.yul\":10629:10693   */\n      sstore\n        /* \"#utility.yul\":10551:10707   */\n      pop\n        /* \"#utility.yul\":10528:10707   */\n    tag_209:\n        /* \"#utility.yul\":10753:10754   */\n      0x01\n        /* \"#utility.yul\":10749:10750   */\n      0x02\n        /* \"#utility.yul\":10741:10747   */\n      dup9\n        /* \"#utility.yul\":10737:10751   */\n      mul\n        /* \"#utility.yul\":10733:10755   */\n      add\n        /* \"#utility.yul\":10727:10731   */\n      dup9\n        /* \"#utility.yul\":10720:10756   */\n      sstore\n        /* \"#utility.yul\":10155:10766   */\n      pop\n      pop\n      pop\n        /* \"#utility.yul\":10118:11005   */\n    tag_201:\n      pop\n        /* \"#utility.yul\":9708:11011   */\n      pop\n      pop\n      pop\n        /* \"#utility.yul\":9616:11011   */\n      pop\n      pop\n      jump\t// out\n        /* \"#utility.yul\":11017:11197   */\n    tag_34:\n        /* \"#utility.yul\":11065:11142   */\n      0x4e487b7100000000000000000000000000000000000000000000000000000000\n        /* \"#utility.yul\":11062:11063   */\n      0x00\n        /* \"#utility.yul\":11055:11143   */\n      mstore\n        /* \"#utility.yul\":11162:11166   */\n      0x32\n        /* \"#utility.yul\":11159:11160   */\n      0x04\n        /* \"#utility.yul\":11152:11167   */\n      mstore\n        /* \"#utility.yul\":11186:11190   */\n      0x24\n        /* \"#utility.yul\":11183:11184   */\n      0x00\n        /* \"#utility.yul\":11176:11191   */\n      revert\n\n    auxdata: 0xa2646970667358221220610564d728ad2f87f881e98ca9867a7ee3050f9d237b1aaefd160071a96c156264736f6c634300081a0033\n}\n",
				"bytecode": {
					"linkReferences": {},
					"object": "6080604052348015600e575f80fd5b506108a68061001c5f395ff3fe608060405234801561000f575f80fd5b506004361061004a575f3560e01c8063129bcb281461004e57806324f2824e1461006a578063bb658af21461009a578063e3e2b1ba146100ca575b5f80fd5b61006860048036038101906100639190610404565b6100e6565b005b610084600480360381019061007f919061045e565b61014c565b6040516100919190610532565b60405180910390f35b6100b460048036038101906100af919061045e565b61021f565b6040516100c19190610561565b60405180910390f35b6100e460048036038101906100df919061045e565b610243565b005b5f6040518060400160405280848152602001838152509050600181908060018154018082558091505060019003905f5260205f2090600202015f909190919091505f820151815f01908161013a9190610774565b50602082015181600101555050505050565b61015461026b565b6001828154811061016857610167610843565b5b905f5260205f2090600202016040518060400160405290815f8201805461018e906105a7565b80601f01602080910402602001604051908101604052809291908181526020018280546101ba906105a7565b80156102055780601f106101dc57610100808354040283529160200191610205565b820191905f5260205f20905b8154815290600101906020018083116101e857829003601f168201915b505050505081526020016001820154815250509050919050565b5f80828154811061023357610232610843565b5b905f5260205f2001549050919050565b5f81908060018154018082558091505060019003905f5260205f20015f909190919091505550565b6040518060400160405280606081526020015f81525090565b5f604051905090565b5f80fd5b5f80fd5b5f80fd5b5f80fd5b5f601f19601f8301169050919050565b7f4e487b71000000000000000000000000000000000000000000000000000000005f52604160045260245ffd5b6102e38261029d565b810181811067ffffffffffffffff82111715610302576103016102ad565b5b80604052505050565b5f610314610284565b905061032082826102da565b919050565b5f67ffffffffffffffff82111561033f5761033e6102ad565b5b6103488261029d565b9050602081019050919050565b828183375f83830152505050565b5f61037561037084610325565b61030b565b90508281526020810184848401111561039157610390610299565b5b61039c848285610355565b509392505050565b5f82601f8301126103b8576103b7610295565b5b81356103c8848260208601610363565b91505092915050565b5f819050919050565b6103e3816103d1565b81146103ed575f80fd5b50565b5f813590506103fe816103da565b92915050565b5f806040838503121561041a5761041961028d565b5b5f83013567ffffffffffffffff81111561043757610436610291565b5b610443858286016103a4565b9250506020610454858286016103f0565b9150509250929050565b5f602082840312156104735761047261028d565b5b5f610480848285016103f0565b91505092915050565b5f81519050919050565b5f82825260208201905092915050565b8281835e5f83830152505050565b5f6104bb82610489565b6104c58185610493565b93506104d58185602086016104a3565b6104de8161029d565b840191505092915050565b6104f2816103d1565b82525050565b5f604083015f8301518482035f86015261051282826104b1565b915050602083015161052760208601826104e9565b508091505092915050565b5f6020820190508181035f83015261054a81846104f8565b905092915050565b61055b816103d1565b82525050565b5f6020820190506105745f830184610552565b92915050565b7f4e487b71000000000000000000000000000000000000000000000000000000005f52602260045260245ffd5b5f60028204905060018216806105be57607f821691505b6020821081036105d1576105d061057a565b5b50919050565b5f819050815f5260205f209050919050565b5f6020601f8301049050919050565b5f82821b905092915050565b5f600883026106337fffffffffffffffffffffffffffffffffffffffffffffffffffffffffffffffff826105f8565b61063d86836105f8565b95508019841693508086168417925050509392505050565b5f819050919050565b5f61067861067361066e846103d1565b610655565b6103d1565b9050919050565b5f819050919050565b6106918361065e565b6106a561069d8261067f565b848454610604565b825550505050565b5f90565b6106b96106ad565b6106c4818484610688565b505050565b5b818110156106e7576106dc5f826106b1565b6001810190506106ca565b5050565b601f82111561072c576106fd816105d7565b610706846105e9565b81016020851015610715578190505b610729610721856105e9565b8301826106c9565b50505b505050565b5f82821c905092915050565b5f61074c5f1984600802610731565b1980831691505092915050565b5f610764838361073d565b9150826002028217905092915050565b61077d82610489565b67ffffffffffffffff811115610796576107956102ad565b5b6107a082546105a7565b6107ab8282856106eb565b5f60209050601f8311600181146107dc575f84156107ca578287015190505b6107d48582610759565b86555061083b565b601f1984166107ea866105d7565b5f5b82811015610811578489015182556001820191506020850194506020810190506107ec565b8683101561082e578489015161082a601f89168261073d565b8355505b6001600288020188555050505b505050505050565b7f4e487b71000000000000000000000000000000000000000000000000000000005f52603260045260245ffdfea2646970667358221220610564d728ad2f87f881e98ca9867a7ee3050f9d237b1aaefd160071a96c156264736f6c634300081a0033",
					"opcodes": "PUSH1 0x80 PUSH1 0x40 MSTORE CALLVALUE DUP1 ISZERO PUSH1 0xE JUMPI PUSH0 DUP1 REVERT JUMPDEST POP PUSH2 0x8A6 DUP1 PUSH2 0x1C PUSH0 CODECOPY PUSH0 RETURN INVALID PUSH1 0x80 PUSH1 0x40 MSTORE CALLVALUE DUP1 ISZERO PUSH2 0xF JUMPI PUSH0 DUP1 REVERT JUMPDEST POP PUSH1 0x4 CALLDATASIZE LT PUSH2 0x4A JUMPI PUSH0 CALLDATALOAD PUSH1 0xE0 SHR DUP1 PUSH4 0x129BCB28 EQ PUSH2 0x4E JUMPI DUP1 PUSH4 0x24F2824E EQ PUSH2 0x6A JUMPI DUP1 PUSH4 0xBB658AF2 EQ PUSH2 0x9A JUMPI DUP1 PUSH4 0xE3E2B1BA EQ PUSH2 0xCA JUMPI JUMPDEST PUSH0 DUP1 REVERT JUMPDEST PUSH2 0x68 PUSH1 0x4 DUP1 CALLDATASIZE SUB DUP2 ADD SWAP1 PUSH2 0x63 SWAP2 SWAP1 PUSH2 0x404 JUMP JUMPDEST PUSH2 0xE6 JUMP JUMPDEST STOP JUMPDEST PUSH2 0x84 PUSH1 0x4 DUP1 CALLDATASIZE SUB DUP2 ADD SWAP1 PUSH2 0x7F SWAP2 SWAP1 PUSH2 0x45E JUMP JUMPDEST PUSH2 0x14C JUMP JUMPDEST PUSH1 0x40 MLOAD PUSH2 0x91 SWAP2 SWAP1 PUSH2 0x532 JUMP JUMPDEST PUSH1 0x40 MLOAD DUP1 SWAP2 SUB SWAP1 RETURN JUMPDEST PUSH2 0xB4 PUSH1 0x4 DUP1 CALLDATASIZE SUB DUP2 ADD SWAP1 PUSH2 0xAF SWAP2 SWAP1 PUSH2 0x45E JUMP JUMPDEST PUSH2 0x21F JUMP JUMPDEST PUSH1 0x40 MLOAD PUSH2 0xC1 SWAP2 SWAP1 PUSH2 0x561 JUMP JUMPDEST PUSH1 0x40 MLOAD DUP1 SWAP2 SUB SWAP1 RETURN JUMPDEST PUSH2 0xE4 PUSH1 0x4 DUP1 CALLDATASIZE SUB DUP2 ADD SWAP1 PUSH2 0xDF SWAP2 SWAP1 PUSH2 0x45E JUMP JUMPDEST PUSH2 0x243 JUMP JUMPDEST STOP JUMPDEST PUSH0 PUSH1 0x40 MLOAD DUP1 PUSH1 0x40 ADD PUSH1 0x40 MSTORE DUP1 DUP5 DUP2 MSTORE PUSH1 0x20 ADD DUP4 DUP2 MSTORE POP SWAP1 POP PUSH1 0x1 DUP2 SWAP1 DUP1 PUSH1 0x1 DUP2 SLOAD ADD DUP1 DUP3 SSTORE DUP1 SWAP2 POP POP PUSH1 0x1 SWAP1 SUB SWAP1 PUSH0 MSTORE PUSH1 0x20 PUSH0 KECCAK256 SWAP1 PUSH1 0x2 MUL ADD PUSH0 SWAP1 SWAP2 SWAP1 SWAP2 SWAP1 SWAP2 POP PUSH0 DUP3 ADD MLOAD DUP2 PUSH0 ADD SWAP1 DUP2 PUSH2 0x13A SWAP2 SWAP1 PUSH2 0x774 JUMP JUMPDEST POP PUSH1 0x20 DUP3 ADD MLOAD DUP2 PUSH1 0x1 ADD SSTORE POP POP POP POP POP JUMP JUMPDEST PUSH2 0x154 PUSH2 0x26B JUMP JUMPDEST PUSH1 0x1 DUP3 DUP2 SLOAD DUP2 LT PUSH2 0x168 JUMPI PUSH2 0x167 PUSH2 0x843 JUMP JUMPDEST JUMPDEST SWAP1 PUSH0 MSTORE PUSH1 0x20 PUSH0 KECCAK256 SWAP1 PUSH1 0x2 MUL ADD PUSH1 0x40 MLOAD DUP1 PUSH1 0x40 ADD PUSH1 0x40 MSTORE SWAP1 DUP2 PUSH0 DUP3 ADD DUP1 SLOAD PUSH2 0x18E SWAP1 PUSH2 0x5A7 JUMP JUMPDEST DUP1 PUSH1 0x1F ADD PUSH1 0x20 DUP1 SWAP2 DIV MUL PUSH1 0x20 ADD PUSH1 0x40 MLOAD SWAP1 DUP2 ADD PUSH1 0x40 MSTORE DUP1 SWAP3 SWAP2 SWAP1 DUP2 DUP2 MSTORE PUSH1 0x20 ADD DUP3 DUP1 SLOAD PUSH2 0x1BA SWAP1 PUSH2 0x5A7 JUMP JUMPDEST DUP1 ISZERO PUSH2 0x205 JUMPI DUP1 PUSH1 0x1F LT PUSH2 0x1DC JUMPI PUSH2 0x100 DUP1 DUP4 SLOAD DIV MUL DUP4 MSTORE SWAP2 PUSH1 0x20 ADD SWAP2 PUSH2 0x205 JUMP JUMPDEST DUP3 ADD SWAP2 SWAP1 PUSH0 MSTORE PUSH1 0x20 PUSH0 KECCAK256 SWAP1 JUMPDEST DUP2 SLOAD DUP2 MSTORE SWAP1 PUSH1 0x1 ADD SWAP1 PUSH1 0x20 ADD DUP1 DUP4 GT PUSH2 0x1E8 JUMPI DUP3 SWAP1 SUB PUSH1 0x1F AND DUP3 ADD SWAP2 JUMPDEST POP POP POP POP POP DUP2 MSTORE PUSH1 0x20 ADD PUSH1 0x1 DUP3 ADD SLOAD DUP2 MSTORE POP POP SWAP1 POP SWAP2 SWAP1 POP JUMP JUMPDEST PUSH0 DUP1 DUP3 DUP2 SLOAD DUP2 LT PUSH2 0x233 JUMPI PUSH2 0x232 PUSH2 0x843 JUMP JUMPDEST JUMPDEST SWAP1 PUSH0 MSTORE PUSH1 0x20 PUSH0 KECCAK256 ADD SLOAD SWAP1 POP SWAP2 SWAP1 POP JUMP JUMPDEST PUSH0 DUP2 SWAP1 DUP1 PUSH1 0x1 DUP2 SLOAD ADD DUP1 DUP3 SSTORE DUP1 SWAP2 POP POP PUSH1 0x1 SWAP1 SUB SWAP1 PUSH0 MSTORE PUSH1 0x20 PUSH0 KECCAK256 ADD PUSH0 SWAP1 SWAP2 SWAP1 SWAP2 SWAP1 SWAP2 POP SSTORE POP JUMP JUMPDEST PUSH1 0x40 MLOAD DUP1 PUSH1 0x40 ADD PUSH1 0x40 MSTORE DUP1 PUSH1 0x60 DUP2 MSTORE PUSH1 0x20 ADD PUSH0 DUP2 MSTORE POP SWAP1 JUMP JUMPDEST PUSH0 PUSH1 0x40 MLOAD SWAP1 POP SWAP1 JUMP JUMPDEST PUSH0 DUP1 REVERT JUMPDEST PUSH0 DUP1 REVERT JUMPDEST PUSH0 DUP1 REVERT JUMPDEST PUSH0 DUP1 REVERT JUMPDEST PUSH0 PUSH1 0x1F NOT PUSH1 0x1F DUP4 ADD AND SWAP1 POP SWAP2 SWAP1 POP JUMP JUMPDEST PUSH32 0x4E487B7100000000000000000000000000000000000000000000000000000000 PUSH0 MSTORE PUSH1 0x41 PUSH1 0x4 MSTORE PUSH1 0x24 PUSH0 REVERT JUMPDEST PUSH2 0x2E3 DUP3 PUSH2 0x29D JUMP JUMPDEST DUP2 ADD DUP2 DUP2 LT PUSH8 0xFFFFFFFFFFFFFFFF DUP3 GT OR ISZERO PUSH2 0x302 JUMPI PUSH2 0x301 PUSH2 0x2AD JUMP JUMPDEST JUMPDEST DUP1 PUSH1 0x40 MSTORE POP POP POP JUMP JUMPDEST PUSH0 PUSH2 0x314 PUSH2 0x284 JUMP JUMPDEST SWAP1 POP PUSH2 0x320 DUP3 DUP3 PUSH2 0x2DA JUMP JUMPDEST SWAP2 SWAP1 POP JUMP JUMPDEST PUSH0 PUSH8 0xFFFFFFFFFFFFFFFF DUP3 GT ISZERO PUSH2 0x33F JUMPI PUSH2 0x33E PUSH2 0x2AD JUMP JUMPDEST JUMPDEST PUSH2 0x348 DUP3 PUSH2 0x29D JUMP JUMPDEST SWAP1 POP PUSH1 0x20 DUP2 ADD SWAP1 POP SWAP2 SWAP1 POP JUMP JUMPDEST DUP3 DUP2 DUP4 CALLDATACOPY PUSH0 DUP4 DUP4 ADD MSTORE POP POP POP JUMP JUMPDEST PUSH0 PUSH2 0x375 PUSH2 0x370 DUP5 PUSH2 0x325 JUMP JUMPDEST PUSH2 0x30B JUMP JUMPDEST SWAP1 POP DUP3 DUP2 MSTORE PUSH1 0x20 DUP2 ADD DUP5 DUP5 DUP5 ADD GT ISZERO PUSH2 0x391 JUMPI PUSH2 0x390 PUSH2 0x299 JUMP JUMPDEST JUMPDEST PUSH2 0x39C DUP5 DUP3 DUP6 PUSH2 0x355 JUMP JUMPDEST POP SWAP4 SWAP3 POP POP POP JUMP JUMPDEST PUSH0 DUP3 PUSH1 0x1F DUP4 ADD SLT PUSH2 0x3B8 JUMPI PUSH2 0x3B7 PUSH2 0x295 JUMP JUMPDEST JUMPDEST DUP2 CALLDATALOAD PUSH2 0x3C8 DUP5 DUP3 PUSH1 0x20 DUP7 ADD PUSH2 0x363 JUMP JUMPDEST SWAP2 POP POP SWAP3 SWAP2 POP POP JUMP JUMPDEST PUSH0 DUP2 SWAP1 POP SWAP2 SWAP1 POP JUMP JUMPDEST PUSH2 0x3E3 DUP2 PUSH2 0x3D1 JUMP JUMPDEST DUP2 EQ PUSH2 0x3ED JUMPI PUSH0 DUP1 REVERT JUMPDEST POP JUMP JUMPDEST PUSH0 DUP2 CALLDATALOAD SWAP1 POP PUSH2 0x3FE DUP2 PUSH2 0x3DA JUMP JUMPDEST SWAP3 SWAP2 POP POP JUMP JUMPDEST PUSH0 DUP1 PUSH1 0x40 DUP4 DUP6 SUB SLT ISZERO PUSH2 0x41A JUMPI PUSH2 0x419 PUSH2 0x28D JUMP JUMPDEST JUMPDEST PUSH0 DUP4 ADD CALLDATALOAD PUSH8 0xFFFFFFFFFFFFFFFF DUP2 GT ISZERO PUSH2 0x437 JUMPI PUSH2 0x436 PUSH2 0x291 JUMP JUMPDEST JUMPDEST PUSH2 0x443 DUP6 DUP3 DUP7 ADD PUSH2 0x3A4 JUMP JUMPDEST SWAP3 POP POP PUSH1 0x20 PUSH2 0x454 DUP6 DUP3 DUP7 ADD PUSH2 0x3F0 JUMP JUMPDEST SWAP2 POP POP SWAP3 POP SWAP3 SWAP1 POP JUMP JUMPDEST PUSH0 PUSH1 0x20 DUP3 DUP5 SUB SLT ISZERO PUSH2 0x473 JUMPI PUSH2 0x472 PUSH2 0x28D JUMP JUMPDEST JUMPDEST PUSH0 PUSH2 0x480 DUP5 DUP3 DUP6 ADD PUSH2 0x3F0 JUMP JUMPDEST SWAP2 POP POP SWAP3 SWAP2 POP POP JUMP JUMPDEST PUSH0 DUP2 MLOAD SWAP1 POP SWAP2 SWAP1 POP JUMP JUMPDEST PUSH0 DUP3 DUP3 MSTORE PUSH1 0x20 DUP3 ADD SWAP1 POP SWAP3 SWAP2 POP POP JUMP JUMPDEST DUP3 DUP2 DUP4 MCOPY PUSH0 DUP4 DUP4 ADD MSTORE POP POP POP JUMP JUMPDEST PUSH0 PUSH2 0x4BB DUP3 PUSH2 0x489 JUMP JUMPDEST PUSH2 0x4C5 DUP2 DUP6 PUSH2 0x493 JUMP JUMPDEST SWAP4 POP PUSH2 0x4D5 DUP2 DUP6 PUSH1 0x20 DUP7 ADD PUSH2 0x4A3 JUMP JUMPDEST PUSH2 0x4DE DUP2 PUSH2 0x29D JUMP JUMPDEST DUP5 ADD SWAP2 POP POP SWAP3 SWAP2 POP POP JUMP JUMPDEST PUSH2 0x4F2 DUP2 PUSH2 0x3D1 JUMP JUMPDEST DUP3 MSTORE POP POP JUMP JUMPDEST PUSH0 PUSH1 0x40 DUP4 ADD PUSH0 DUP4 ADD MLOAD DUP5 DUP3 SUB PUSH0 DUP7 ADD MSTORE PUSH2 0x512 DUP3 DUP3 PUSH2 0x4B1 JUMP JUMPDEST SWAP2 POP POP PUSH1 0x20 DUP4 ADD MLOAD PUSH2 0x527 PUSH1 0x20 DUP7 ADD DUP3 PUSH2 0x4E9 JUMP JUMPDEST POP DUP1 SWAP2 POP POP SWAP3 SWAP2 POP POP JUMP JUMPDEST PUSH0 PUSH1 0x20 DUP3 ADD SWAP1 POP DUP2 DUP2 SUB PUSH0 DUP4 ADD MSTORE PUSH2 0x54A DUP2 DUP5 PUSH2 0x4F8 JUMP JUMPDEST SWAP1 POP SWAP3 SWAP2 POP POP JUMP JUMPDEST PUSH2 0x55B DUP2 PUSH2 0x3D1 JUMP JUMPDEST DUP3 MSTORE POP POP JUMP JUMPDEST PUSH0 PUSH1 0x20 DUP3 ADD SWAP1 POP PUSH2 0x574 PUSH0 DUP4 ADD DUP5 PUSH2 0x552 JUMP JUMPDEST SWAP3 SWAP2 POP POP JUMP JUMPDEST PUSH32 0x4E487B7100000000000000000000000000000000000000000000000000000000 PUSH0 MSTORE PUSH1 0x22 PUSH1 0x4 MSTORE PUSH1 0x24 PUSH0 REVERT JUMPDEST PUSH0 PUSH1 0x2 DUP3 DIV SWAP1 POP PUSH1 0x1 DUP3 AND DUP1 PUSH2 0x5BE JUMPI PUSH1 0x7F DUP3 AND SWAP2 POP JUMPDEST PUSH1 0x20 DUP3 LT DUP2 SUB PUSH2 0x5D1 JUMPI PUSH2 0x5D0 PUSH2 0x57A JUMP JUMPDEST JUMPDEST POP SWAP2 SWAP1 POP JUMP JUMPDEST PUSH0 DUP2 SWAP1 POP DUP2 PUSH0 MSTORE PUSH1 0x20 PUSH0 KECCAK256 SWAP1 POP SWAP2 SWAP1 POP JUMP JUMPDEST PUSH0 PUSH1 0x20 PUSH1 0x1F DUP4 ADD DIV SWAP1 POP SWAP2 SWAP1 POP JUMP JUMPDEST PUSH0 DUP3 DUP3 SHL SWAP1 POP SWAP3 SWAP2 POP POP JUMP JUMPDEST PUSH0 PUSH1 0x8 DUP4 MUL PUSH2 0x633 PUSH32 0xFFFFFFFFFFFFFFFFFFFFFFFFFFFFFFFFFFFFFFFFFFFFFFFFFFFFFFFFFFFFFFFF DUP3 PUSH2 0x5F8 JUMP JUMPDEST PUSH2 0x63D DUP7 DUP4 PUSH2 0x5F8 JUMP JUMPDEST SWAP6 POP DUP1 NOT DUP5 AND SWAP4 POP DUP1 DUP7 AND DUP5 OR SWAP3 POP POP POP SWAP4 SWAP3 POP POP POP JUMP JUMPDEST PUSH0 DUP2 SWAP1 POP SWAP2 SWAP1 POP JUMP JUMPDEST PUSH0 PUSH2 0x678 PUSH2 0x673 PUSH2 0x66E DUP5 PUSH2 0x3D1 JUMP JUMPDEST PUSH2 0x655 JUMP JUMPDEST PUSH2 0x3D1 JUMP JUMPDEST SWAP1 POP SWAP2 SWAP1 POP JUMP JUMPDEST PUSH0 DUP2 SWAP1 POP SWAP2 SWAP1 POP JUMP JUMPDEST PUSH2 0x691 DUP4 PUSH2 0x65E JUMP JUMPDEST PUSH2 0x6A5 PUSH2 0x69D DUP3 PUSH2 0x67F JUMP JUMPDEST DUP5 DUP5 SLOAD PUSH2 0x604 JUMP JUMPDEST DUP3 SSTORE POP POP POP POP JUMP JUMPDEST PUSH0 SWAP1 JUMP JUMPDEST PUSH2 0x6B9 PUSH2 0x6AD JUMP JUMPDEST PUSH2 0x6C4 DUP2 DUP5 DUP5 PUSH2 0x688 JUMP JUMPDEST POP POP POP JUMP JUMPDEST JUMPDEST DUP2 DUP2 LT ISZERO PUSH2 0x6E7 JUMPI PUSH2 0x6DC PUSH0 DUP3 PUSH2 0x6B1 JUMP JUMPDEST PUSH1 0x1 DUP2 ADD SWAP1 POP PUSH2 0x6CA JUMP JUMPDEST POP POP JUMP JUMPDEST PUSH1 0x1F DUP3 GT ISZERO PUSH2 0x72C JUMPI PUSH2 0x6FD DUP2 PUSH2 0x5D7 JUMP JUMPDEST PUSH2 0x706 DUP5 PUSH2 0x5E9 JUMP JUMPDEST DUP2 ADD PUSH1 0x20 DUP6 LT ISZERO PUSH2 0x715 JUMPI DUP2 SWAP1 POP JUMPDEST PUSH2 0x729 PUSH2 0x721 DUP6 PUSH2 0x5E9 JUMP JUMPDEST DUP4 ADD DUP3 PUSH2 0x6C9 JUMP JUMPDEST POP POP JUMPDEST POP POP POP JUMP JUMPDEST PUSH0 DUP3 DUP3 SHR SWAP1 POP SWAP3 SWAP2 POP POP JUMP JUMPDEST PUSH0 PUSH2 0x74C PUSH0 NOT DUP5 PUSH1 0x8 MUL PUSH2 0x731 JUMP JUMPDEST NOT DUP1 DUP4 AND SWAP2 POP POP SWAP3 SWAP2 POP POP JUMP JUMPDEST PUSH0 PUSH2 0x764 DUP4 DUP4 PUSH2 0x73D JUMP JUMPDEST SWAP2 POP DUP3 PUSH1 0x2 MUL DUP3 OR SWAP1 POP SWAP3 SWAP2 POP POP JUMP JUMPDEST PUSH2 0x77D DUP3 PUSH2 0x489 JUMP JUMPDEST PUSH8 0xFFFFFFFFFFFFFFFF DUP2 GT ISZERO PUSH2 0x796 JUMPI PUSH2 0x795 PUSH2 0x2AD JUMP JUMPDEST JUMPDEST PUSH2 0x7A0 DUP3 SLOAD PUSH2 0x5A7 JUMP JUMPDEST PUSH2 0x7AB DUP3 DUP3 DUP6 PUSH2 0x6EB JUMP JUMPDEST PUSH0 PUSH1 0x20 SWAP1 POP PUSH1 0x1F DUP4 GT PUSH1 0x1 DUP2 EQ PUSH2 0x7DC JUMPI PUSH0 DUP5 ISZERO PUSH2 0x7CA JUMPI DUP3 DUP8 ADD MLOAD SWAP1 POP JUMPDEST PUSH2 0x7D4 DUP6 DUP3 PUSH2 0x759 JUMP JUMPDEST DUP7 SSTORE POP PUSH2 0x83B JUMP JUMPDEST PUSH1 0x1F NOT DUP5 AND PUSH2 0x7EA DUP7 PUSH2 0x5D7 JUMP JUMPDEST PUSH0 JUMPDEST DUP3 DUP2 LT ISZERO PUSH2 0x811 JUMPI DUP5 DUP10 ADD MLOAD DUP3 SSTORE PUSH1 0x1 DUP3 ADD SWAP2 POP PUSH1 0x20 DUP6 ADD SWAP5 POP PUSH1 0x20 DUP2 ADD SWAP1 POP PUSH2 0x7EC JUMP JUMPDEST DUP7 DUP4 LT ISZERO PUSH2 0x82E JUMPI DUP5 DUP10 ADD MLOAD PUSH2 0x82A PUSH1 0x1F DUP10 AND DUP3 PUSH2 0x73D JUMP JUMPDEST DUP4 SSTORE POP JUMPDEST PUSH1 0x1 PUSH1 0x2 DUP9 MUL ADD DUP9 SSTORE POP POP POP JUMPDEST POP POP POP POP POP POP JUMP JUMPDEST PUSH32 0x4E487B7100000000000000000000000000000000000000000000000000000000 PUSH0 MSTORE PUSH1 0x32 PUSH1 0x4 MSTORE PUSH1 0x24 PUSH0 REVERT INVALID LOG2 PUSH5 0x6970667358 0x22 SLT KECCAK256 PUSH2 0x564 0xD7 0x28 0xAD 0x2F DUP8 0xF8 DUP2 0xE9 DUP13 0xA9 DUP7 PUSH27 0x7EE3050F9D237B1AAEFD160071A96C156264736F6C634300081A00 CALLER "
				},
				"gasEstimates": {
					"creation": {
						"codeDepositCost": "442800",
						"executionCost": "478",
						"totalCost": "443278"
					},
					"external": {
						"add_human(string,uint256)": "infinite",
						"add_number(uint256)": "46864",
						"get_from_humanList(uint256)": "infinite",
						"get_number(uint256)": "infinite"
					}
				},
				"methodIdentifiers": {
					"add_human(string,uint256)": "129bcb28",
					"add_number(uint256)": "e3e2b1ba",
					"get_from_humanList(uint256)": "24f2824e",
					"get_number(uint256)": "bb658af2"
				}
			},
			"storageLayout": {
				"storage": [
					{
						"astId": 4,
						"contract": "contracts/Arrays.sol:Array",
						"label": "numbers",
						"offset": 0,
						"slot": "0",
						"type": "t_array(t_uint256)dyn_storage"
					},
					{
						"astId": 8,
						"contract": "contracts/Arrays.sol:Array",
						"label": "humanList",
						"offset": 0,
						"slot": "1",
						"type": "t_array(t_struct(Human)13_storage)dyn_storage"
					}
				],
				"types": {
					"t_array(t_struct(Human)13_storage)dyn_storage": {
						"base": "t_struct(Human)13_storage",
						"encoding": "dynamic_array",
						"label": "struct Array.Human[]",
						"numberOfBytes": "32"
					},
					"t_array(t_uint256)dyn_storage": {
						"base": "t_uint256",
						"encoding": "dynamic_array",
						"label": "uint256[]",
						"numberOfBytes": "32"
					},
					"t_string_storage": {
						"encoding": "bytes",
						"label": "string",
						"numberOfBytes": "32"
					},
					"t_struct(Human)13_storage": {
						"encoding": "inplace",
						"label": "struct Array.Human",
						"members": [
							{
								"astId": 10,
								"contract": "contracts/Arrays.sol:Array",
								"label": "name",
								"offset": 0,
								"slot": "0",
								"type": "t_string_storage"
							},
							{
								"astId": 12,
								"contract": "contracts/Arrays.sol:Array",
								"label": "age",
								"offset": 0,
								"slot": "1",
								"type": "t_uint256"
							}
						],
						"numberOfBytes": "64"
					},
					"t_uint256": {
						"encoding": "inplace",
						"label": "uint256",
						"numberOfBytes": "32"
					}
				}
			},
			"userdoc": {
				"kind": "user",
				"methods": {},
				"version": 1
			}
		}
	}
}