{
	"contracts/Products.sol": {
		"Products": {
			"abi": [
				{
					"inputs": [],
					"stateMutability": "nonpayable",
					"type": "constructor"
				},
				{
					"inputs": [
						{
							"internalType": "uint8",
							"name": "_barcode",
							"type": "uint8"
						},
						{
							"internalType": "uint8",
							"name": "_station",
							"type": "uint8"
						}
					],
					"name": "addProduct",
					"outputs": [],
					"stateMutability": "nonpayable",
					"type": "function"
				},
				{
					"inputs": [
						{
							"internalType": "uint8",
							"name": "_barcode",
							"type": "uint8"
						}
					],
					"name": "changeStation",
					"outputs": [],
					"stateMutability": "nonpayable",
					"type": "function"
				},
				{
					"inputs": [],
					"name": "getProductList",
					"outputs": [
						{
							"internalType": "string",
							"name": "",
							"type": "string"
						}
					],
					"stateMutability": "view",
					"type": "function"
				},
				{
					"inputs": [
						{
							"internalType": "uint8",
							"name": "_barcode",
							"type": "uint8"
						}
					],
					"name": "getStation",
					"outputs": [
						{
							"internalType": "uint8",
							"name": "",
							"type": "uint8"
						}
					],
					"stateMutability": "view",
					"type": "function"
				},
				{
					"inputs": [
						{
							"internalType": "uint8",
							"name": "_stationNumber",
							"type": "uint8"
						}
					],
					"name": "getStationWallet",
					"outputs": [
						{
							"internalType": "address",
							"name": "",
							"type": "address"
						}
					],
					"stateMutability": "view",
					"type": "function"
				},
				{
					"inputs": [
						{
							"internalType": "uint8",
							"name": "_barcode",
							"type": "uint8"
						}
					],
					"name": "isThereBarcode",
					"outputs": [
						{
							"internalType": "bool",
							"name": "",
							"type": "bool"
						}
					],
					"stateMutability": "view",
					"type": "function"
				},
				{
					"inputs": [
						{
							"internalType": "address",
							"name": "_newOwner",
							"type": "address"
						}
					],
					"name": "transfer_ownership",
					"outputs": [],
					"stateMutability": "nonpayable",
					"type": "function"
				},
				{
					"inputs": [
						{
							"internalType": "uint8",
							"name": "_stationWallet",
							"type": "uint8"
						},
						{
							"internalType": "address",
							"name": "_walletAddress",
							"type": "address"
						}
					],
					"name": "updateStationWallet",
					"outputs": [],
					"stateMutability": "nonpayable",
					"type": "function"
				}
			],
			"devdoc": {
				"kind": "dev",
				"methods": {},
				"version": 1
			},
			"evm": {
				"assembly": "    /* \"contracts/Products.sol\":114:2845  contract Products{... */\n  mstore(0x40, 0x80)\n    /* \"contracts/Products.sol\":519:570  constructor(){... */\n  callvalue\n  dup1\n  iszero\n  tag_1\n  jumpi\n  0x00\n  dup1\n  revert\ntag_1:\n  pop\n    /* \"contracts/Products.sol\":551:561  msg.sender */\n  caller\n    /* \"contracts/Products.sol\":543:548  owner */\n  0x02\n  0x00\n    /* \"contracts/Products.sol\":543:561  owner = msg.sender */\n  0x0100\n  exp\n  dup2\n  sload\n  dup2\n  0xffffffffffffffffffffffffffffffffffffffff\n  mul\n  not\n  and\n  swap1\n  dup4\n  0xffffffffffffffffffffffffffffffffffffffff\n  and\n  mul\n  or\n  swap1\n  sstore\n  pop\n    /* \"contracts/Products.sol\":114:2845  contract Products{... */\n  dataSize(sub_0)\n  dup1\n  dataOffset(sub_0)\n  0x00\n  codecopy\n  0x00\n  return\nstop\n\nsub_0: assembly {\n        /* \"contracts/Products.sol\":114:2845  contract Products{... */\n      mstore(0x40, 0x80)\n      callvalue\n      dup1\n      iszero\n      tag_1\n      jumpi\n      0x00\n      dup1\n      revert\n    tag_1:\n      pop\n      jumpi(tag_2, lt(calldatasize, 0x04))\n      shr(0xe0, calldataload(0x00))\n      dup1\n      0xba7e0b30\n      gt\n      tag_11\n      jumpi\n      dup1\n      0xba7e0b30\n      eq\n      tag_7\n      jumpi\n      dup1\n      0xca273862\n      eq\n      tag_8\n      jumpi\n      dup1\n      0xd61d7746\n      eq\n      tag_9\n      jumpi\n      dup1\n      0xf0350c04\n      eq\n      tag_10\n      jumpi\n      jump(tag_2)\n    tag_11:\n      dup1\n      0x28f0637e\n      eq\n      tag_3\n      jumpi\n      dup1\n      0x34d2c0ad\n      eq\n      tag_4\n      jumpi\n      dup1\n      0x7edc24c9\n      eq\n      tag_5\n      jumpi\n      dup1\n      0xaad337ad\n      eq\n      tag_6\n      jumpi\n    tag_2:\n      0x00\n      dup1\n      revert\n        /* \"contracts/Products.sol\":2566:2842  function isThereBarcode(uint8 _barcode) public view returns(bool){... */\n    tag_3:\n      tag_12\n      0x04\n      dup1\n      calldatasize\n      sub\n      dup2\n      add\n      swap1\n      tag_13\n      swap2\n      swap1\n      tag_14\n      jump\t// in\n    tag_13:\n      tag_15\n      jump\t// in\n    tag_12:\n      mload(0x40)\n      tag_16\n      swap2\n      swap1\n      tag_17\n      jump\t// in\n    tag_16:\n      mload(0x40)\n      dup1\n      swap2\n      sub\n      swap1\n      return\n        /* \"contracts/Products.sol\":1595:1935  function getProductList() public view returns(string memory){... */\n    tag_4:\n      tag_18\n      tag_19\n      jump\t// in\n    tag_18:\n      mload(0x40)\n      tag_20\n      swap2\n      swap1\n      tag_21\n      jump\t// in\n    tag_20:\n      mload(0x40)\n      dup1\n      swap2\n      sub\n      swap1\n      return\n        /* \"contracts/Products.sol\":1943:2218  function getStation(uint8 _barcode) public view returns(uint8){... */\n    tag_5:\n      tag_22\n      0x04\n      dup1\n      calldatasize\n      sub\n      dup2\n      add\n      swap1\n      tag_23\n      swap2\n      swap1\n      tag_14\n      jump\t// in\n    tag_23:\n      tag_24\n      jump\t// in\n    tag_22:\n      mload(0x40)\n      tag_25\n      swap2\n      swap1\n      tag_26\n      jump\t// in\n    tag_25:\n      mload(0x40)\n      dup1\n      swap2\n      sub\n      swap1\n      return\n        /* \"contracts/Products.sol\":2230:2558  function changeStation(uint8 _barcode) public onlyOwner{... */\n    tag_6:\n      tag_27\n      0x04\n      dup1\n      calldatasize\n      sub\n      dup2\n      add\n      swap1\n      tag_28\n      swap2\n      swap1\n      tag_14\n      jump\t// in\n    tag_28:\n      tag_29\n      jump\t// in\n    tag_27:\n      stop\n        /* \"contracts/Products.sol\":1110:1583  function addProduct(uint8 _barcode, uint8 _station) public onlyOwner{... */\n    tag_7:\n      tag_30\n      0x04\n      dup1\n      calldatasize\n      sub\n      dup2\n      add\n      swap1\n      tag_31\n      swap2\n      swap1\n      tag_32\n      jump\t// in\n    tag_31:\n      tag_33\n      jump\t// in\n    tag_30:\n      stop\n        /* \"contracts/Products.sol\":838:995  function updateStationWallet(uint8 _stationWallet, address _walletAddress) public onlyOwner{... */\n    tag_8:\n      tag_34\n      0x04\n      dup1\n      calldatasize\n      sub\n      dup2\n      add\n      swap1\n      tag_35\n      swap2\n      swap1\n      tag_36\n      jump\t// in\n    tag_35:\n      tag_37\n      jump\t// in\n    tag_34:\n      stop\n        /* \"contracts/Products.sol\":698:830  function getStationWallet(uint8 _stationNumber) public view returns(address){... */\n    tag_9:\n      tag_38\n      0x04\n      dup1\n      calldatasize\n      sub\n      dup2\n      add\n      swap1\n      tag_39\n      swap2\n      swap1\n      tag_14\n      jump\t// in\n    tag_39:\n      tag_40\n      jump\t// in\n    tag_38:\n      mload(0x40)\n      tag_41\n      swap2\n      swap1\n      tag_42\n      jump\t// in\n    tag_41:\n      mload(0x40)\n      dup1\n      swap2\n      sub\n      swap1\n      return\n        /* \"contracts/Products.sol\":1003:1102  function transfer_ownership(address _newOwner) public onlyOwner{... */\n    tag_10:\n      tag_43\n      0x04\n      dup1\n      calldatasize\n      sub\n      dup2\n      add\n      swap1\n      tag_44\n      swap2\n      swap1\n      tag_45\n      jump\t// in\n    tag_44:\n      tag_46\n      jump\t// in\n    tag_43:\n      stop\n        /* \"contracts/Products.sol\":2566:2842  function isThereBarcode(uint8 _barcode) public view returns(bool){... */\n    tag_15:\n        /* \"contracts/Products.sol\":2626:2630  bool */\n      0x00\n        /* \"contracts/Products.sol\":2657:2663  uint i */\n      dup1\n        /* \"contracts/Products.sol\":2666:2667  0 */\n      0x00\n        /* \"contracts/Products.sol\":2657:2667  uint i = 0 */\n      swap1\n      pop\n        /* \"contracts/Products.sol\":2652:2810  for (uint i = 0; i < productList.length; i++) {... */\n    tag_48:\n        /* \"contracts/Products.sol\":2673:2684  productList */\n      0x01\n        /* \"contracts/Products.sol\":2673:2691  productList.length */\n      dup1\n      sload\n      swap1\n      pop\n        /* \"contracts/Products.sol\":2669:2670  i */\n      dup2\n        /* \"contracts/Products.sol\":2669:2691  i < productList.length */\n      lt\n        /* \"contracts/Products.sol\":2652:2810  for (uint i = 0; i < productList.length; i++) {... */\n      iszero\n      tag_49\n      jumpi\n        /* \"contracts/Products.sol\":2743:2751  _barcode */\n      dup3\n        /* \"contracts/Products.sol\":2717:2751  productList[i].barcode == _barcode */\n      0xff\n      and\n        /* \"contracts/Products.sol\":2717:2728  productList */\n      0x01\n        /* \"contracts/Products.sol\":2729:2730  i */\n      dup3\n        /* \"contracts/Products.sol\":2717:2731  productList[i] */\n      dup2\n      sload\n      dup2\n      lt\n      tag_51\n      jumpi\n      tag_52\n      tag_53\n      jump\t// in\n    tag_52:\n    tag_51:\n      swap1\n      0x00\n      mstore\n      keccak256(0x00, 0x20)\n      add\n        /* \"contracts/Products.sol\":2717:2739  productList[i].barcode */\n      0x00\n      add\n      0x00\n      swap1\n      sload\n      swap1\n      0x0100\n      exp\n      swap1\n      div\n      0xff\n      and\n        /* \"contracts/Products.sol\":2717:2751  productList[i].barcode == _barcode */\n      0xff\n      and\n      sub\n        /* \"contracts/Products.sol\":2713:2799  if (productList[i].barcode == _barcode) {... */\n      tag_55\n      jumpi\n        /* \"contracts/Products.sol\":2779:2783  true */\n      0x01\n        /* \"contracts/Products.sol\":2772:2783  return true */\n      swap2\n      pop\n      pop\n      jump(tag_47)\n        /* \"contracts/Products.sol\":2713:2799  if (productList[i].barcode == _barcode) {... */\n    tag_55:\n        /* \"contracts/Products.sol\":2693:2696  i++ */\n      dup1\n      dup1\n      0x01\n      add\n      swap2\n      pop\n      pop\n        /* \"contracts/Products.sol\":2652:2810  for (uint i = 0; i < productList.length; i++) {... */\n      jump(tag_48)\n    tag_49:\n      pop\n        /* \"contracts/Products.sol\":2829:2834  false */\n      0x00\n        /* \"contracts/Products.sol\":2822:2834  return false */\n      swap1\n      pop\n        /* \"contracts/Products.sol\":2566:2842  function isThereBarcode(uint8 _barcode) public view returns(bool){... */\n    tag_47:\n      swap2\n      swap1\n      pop\n      jump\t// out\n        /* \"contracts/Products.sol\":1595:1935  function getProductList() public view returns(string memory){... */\n    tag_19:\n        /* \"contracts/Products.sol\":1641:1654  string memory */\n      0x60\n        /* \"contracts/Products.sol\":1666:1683  string memory str */\n      dup1\n        /* \"contracts/Products.sol\":1699:1705  uint i */\n      0x00\n        /* \"contracts/Products.sol\":1694:1907  for (uint i = 0; i < productList.length; i++) {... */\n    tag_57:\n        /* \"contracts/Products.sol\":1715:1726  productList */\n      0x01\n        /* \"contracts/Products.sol\":1715:1733  productList.length */\n      dup1\n      sload\n      swap1\n      pop\n        /* \"contracts/Products.sol\":1711:1712  i */\n      dup2\n        /* \"contracts/Products.sol\":1711:1733  i < productList.length */\n      lt\n        /* \"contracts/Products.sol\":1694:1907  for (uint i = 0; i < productList.length; i++) {... */\n      iszero\n      tag_58\n      jumpi\n        /* \"contracts/Products.sol\":1775:1778  str */\n      dup2\n        /* \"contracts/Products.sol\":1793:1833  Strings.toString(productList[i].barcode) */\n      tag_60\n        /* \"contracts/Products.sol\":1810:1821  productList */\n      0x01\n        /* \"contracts/Products.sol\":1822:1823  i */\n      dup4\n        /* \"contracts/Products.sol\":1810:1824  productList[i] */\n      dup2\n      sload\n      dup2\n      lt\n      tag_61\n      jumpi\n      tag_62\n      tag_53\n      jump\t// in\n    tag_62:\n    tag_61:\n      swap1\n      0x00\n      mstore\n      keccak256(0x00, 0x20)\n      add\n        /* \"contracts/Products.sol\":1810:1832  productList[i].barcode */\n      0x00\n      add\n      0x00\n      swap1\n      sload\n      swap1\n      0x0100\n      exp\n      swap1\n      div\n      0xff\n      and\n        /* \"contracts/Products.sol\":1793:1833  Strings.toString(productList[i].barcode) */\n      0xff\n      and\n        /* \"contracts/Products.sol\":1793:1809  Strings.toString */\n      tag_64\n        /* \"contracts/Products.sol\":1793:1833  Strings.toString(productList[i].barcode) */\n      jump\t// in\n    tag_60:\n        /* \"contracts/Products.sol\":1849:1889  Strings.toString(productList[i].station) */\n      tag_65\n        /* \"contracts/Products.sol\":1866:1877  productList */\n      0x01\n        /* \"contracts/Products.sol\":1878:1879  i */\n      dup5\n        /* \"contracts/Products.sol\":1866:1880  productList[i] */\n      dup2\n      sload\n      dup2\n      lt\n      tag_66\n      jumpi\n      tag_67\n      tag_53\n      jump\t// in\n    tag_67:\n    tag_66:\n      swap1\n      0x00\n      mstore\n      keccak256(0x00, 0x20)\n      add\n        /* \"contracts/Products.sol\":1866:1888  productList[i].station */\n      0x00\n      add\n      0x01\n      swap1\n      sload\n      swap1\n      0x0100\n      exp\n      swap1\n      div\n      0xff\n      and\n        /* \"contracts/Products.sol\":1849:1889  Strings.toString(productList[i].station) */\n      0xff\n      and\n        /* \"contracts/Products.sol\":1849:1865  Strings.toString */\n      tag_64\n        /* \"contracts/Products.sol\":1849:1889  Strings.toString(productList[i].station) */\n      jump\t// in\n    tag_65:\n        /* \"contracts/Products.sol\":1761:1895  string.concat(str, \"Barcode: \", Strings.toString(productList[i].barcode), \" Station: \", Strings.toString(productList[i].station), \" \") */\n      add(0x20, mload(0x40))\n      tag_69\n      swap4\n      swap3\n      swap2\n      swap1\n      tag_70\n      jump\t// in\n    tag_69:\n      mload(0x40)\n      0x20\n      dup2\n      dup4\n      sub\n      sub\n      dup2\n      mstore\n      swap1\n      0x40\n      mstore\n        /* \"contracts/Products.sol\":1755:1895  str = string.concat(str, \"Barcode: \", Strings.toString(productList[i].barcode), \" Station: \", Strings.toString(productList[i].station), \" \") */\n      swap2\n      pop\n        /* \"contracts/Products.sol\":1735:1738  i++ */\n      dup1\n      dup1\n      0x01\n      add\n      swap2\n      pop\n      pop\n        /* \"contracts/Products.sol\":1694:1907  for (uint i = 0; i < productList.length; i++) {... */\n      jump(tag_57)\n    tag_58:\n      pop\n        /* \"contracts/Products.sol\":1924:1927  str */\n      dup1\n        /* \"contracts/Products.sol\":1917:1927  return str */\n      swap2\n      pop\n      pop\n        /* \"contracts/Products.sol\":1595:1935  function getProductList() public view returns(string memory){... */\n      swap1\n      jump\t// out\n        /* \"contracts/Products.sol\":1943:2218  function getStation(uint8 _barcode) public view returns(uint8){... */\n    tag_24:\n        /* \"contracts/Products.sol\":1999:2004  uint8 */\n      0x00\n        /* \"contracts/Products.sol\":2021:2027  uint i */\n      dup1\n        /* \"contracts/Products.sol\":2030:2031  0 */\n      0x00\n        /* \"contracts/Products.sol\":2021:2031  uint i = 0 */\n      swap1\n      pop\n        /* \"contracts/Products.sol\":2016:2192  for (uint i = 0; i < productList.length; i++) {... */\n    tag_72:\n        /* \"contracts/Products.sol\":2037:2048  productList */\n      0x01\n        /* \"contracts/Products.sol\":2037:2055  productList.length */\n      dup1\n      sload\n      swap1\n      pop\n        /* \"contracts/Products.sol\":2033:2034  i */\n      dup2\n        /* \"contracts/Products.sol\":2033:2055  i < productList.length */\n      lt\n        /* \"contracts/Products.sol\":2016:2192  for (uint i = 0; i < productList.length; i++) {... */\n      iszero\n      tag_73\n      jumpi\n        /* \"contracts/Products.sol\":2107:2115  _barcode */\n      dup3\n        /* \"contracts/Products.sol\":2081:2115  productList[i].barcode == _barcode */\n      0xff\n      and\n        /* \"contracts/Products.sol\":2081:2092  productList */\n      0x01\n        /* \"contracts/Products.sol\":2093:2094  i */\n      dup3\n        /* \"contracts/Products.sol\":2081:2095  productList[i] */\n      dup2\n      sload\n      dup2\n      lt\n      tag_75\n      jumpi\n      tag_76\n      tag_53\n      jump\t// in\n    tag_76:\n    tag_75:\n      swap1\n      0x00\n      mstore\n      keccak256(0x00, 0x20)\n      add\n        /* \"contracts/Products.sol\":2081:2103  productList[i].barcode */\n      0x00\n      add\n      0x00\n      swap1\n      sload\n      swap1\n      0x0100\n      exp\n      swap1\n      div\n      0xff\n      and\n        /* \"contracts/Products.sol\":2081:2115  productList[i].barcode == _barcode */\n      0xff\n      and\n      sub\n        /* \"contracts/Products.sol\":2077:2181  if (productList[i].barcode == _barcode) {... */\n      tag_78\n      jumpi\n        /* \"contracts/Products.sol\":2143:2154  productList */\n      0x01\n        /* \"contracts/Products.sol\":2155:2156  i */\n      dup2\n        /* \"contracts/Products.sol\":2143:2157  productList[i] */\n      dup2\n      sload\n      dup2\n      lt\n      tag_79\n      jumpi\n      tag_80\n      tag_53\n      jump\t// in\n    tag_80:\n    tag_79:\n      swap1\n      0x00\n      mstore\n      keccak256(0x00, 0x20)\n      add\n        /* \"contracts/Products.sol\":2143:2165  productList[i].station */\n      0x00\n      add\n      0x01\n      swap1\n      sload\n      swap1\n      0x0100\n      exp\n      swap1\n      div\n      0xff\n      and\n        /* \"contracts/Products.sol\":2136:2165  return productList[i].station */\n      swap2\n      pop\n      pop\n      jump(tag_71)\n        /* \"contracts/Products.sol\":2077:2181  if (productList[i].barcode == _barcode) {... */\n    tag_78:\n        /* \"contracts/Products.sol\":2057:2060  i++ */\n      dup1\n      dup1\n      0x01\n      add\n      swap2\n      pop\n      pop\n        /* \"contracts/Products.sol\":2016:2192  for (uint i = 0; i < productList.length; i++) {... */\n      jump(tag_72)\n    tag_73:\n      pop\n        /* \"contracts/Products.sol\":2209:2210  0 */\n      0x00\n        /* \"contracts/Products.sol\":2202:2210  return 0 */\n      swap1\n      pop\n        /* \"contracts/Products.sol\":1943:2218  function getStation(uint8 _barcode) public view returns(uint8){... */\n    tag_71:\n      swap2\n      swap1\n      pop\n      jump\t// out\n        /* \"contracts/Products.sol\":2230:2558  function changeStation(uint8 _barcode) public onlyOwner{... */\n    tag_29:\n        /* \"contracts/Products.sol\":633:638  owner */\n      0x02\n      0x00\n      swap1\n      sload\n      swap1\n      0x0100\n      exp\n      swap1\n      div\n      0xffffffffffffffffffffffffffffffffffffffff\n      and\n        /* \"contracts/Products.sol\":619:638  msg.sender == owner */\n      0xffffffffffffffffffffffffffffffffffffffff\n      and\n        /* \"contracts/Products.sol\":619:629  msg.sender */\n      caller\n        /* \"contracts/Products.sol\":619:638  msg.sender == owner */\n      0xffffffffffffffffffffffffffffffffffffffff\n      and\n      eq\n        /* \"contracts/Products.sol\":611:670  require(msg.sender == owner, \"This is only owner function\") */\n      tag_83\n      jumpi\n      mload(0x40)\n      0x08c379a000000000000000000000000000000000000000000000000000000000\n      dup2\n      mstore\n      0x04\n      add\n      tag_84\n      swap1\n      tag_85\n      jump\t// in\n    tag_84:\n      mload(0x40)\n      dup1\n      swap2\n      sub\n      swap1\n      revert\n    tag_83:\n        /* \"contracts/Products.sol\":2301:2307  uint i */\n      0x00\n        /* \"contracts/Products.sol\":2296:2551  for (uint i = 0; i < productList.length; i++) {... */\n    tag_87:\n        /* \"contracts/Products.sol\":2317:2328  productList */\n      0x01\n        /* \"contracts/Products.sol\":2317:2335  productList.length */\n      dup1\n      sload\n      swap1\n      pop\n        /* \"contracts/Products.sol\":2313:2314  i */\n      dup2\n        /* \"contracts/Products.sol\":2313:2335  i < productList.length */\n      lt\n        /* \"contracts/Products.sol\":2296:2551  for (uint i = 0; i < productList.length; i++) {... */\n      iszero\n      tag_88\n      jumpi\n        /* \"contracts/Products.sol\":2387:2395  _barcode */\n      dup2\n        /* \"contracts/Products.sol\":2361:2395  productList[i].barcode == _barcode */\n      0xff\n      and\n        /* \"contracts/Products.sol\":2361:2372  productList */\n      0x01\n        /* \"contracts/Products.sol\":2373:2374  i */\n      dup3\n        /* \"contracts/Products.sol\":2361:2375  productList[i] */\n      dup2\n      sload\n      dup2\n      lt\n      tag_90\n      jumpi\n      tag_91\n      tag_53\n      jump\t// in\n    tag_91:\n    tag_90:\n      swap1\n      0x00\n      mstore\n      keccak256(0x00, 0x20)\n      add\n        /* \"contracts/Products.sol\":2361:2383  productList[i].barcode */\n      0x00\n      add\n      0x00\n      swap1\n      sload\n      swap1\n      0x0100\n      exp\n      swap1\n      div\n      0xff\n      and\n        /* \"contracts/Products.sol\":2361:2395  productList[i].barcode == _barcode */\n      0xff\n      and\n      sub\n        /* \"contracts/Products.sol\":2357:2540  if (productList[i].barcode == _barcode) {... */\n      tag_93\n      jumpi\n        /* \"contracts/Products.sol\":2450:2451  3 */\n      0x03\n        /* \"contracts/Products.sol\":2424:2435  productList */\n      0x01\n        /* \"contracts/Products.sol\":2436:2437  i */\n      dup3\n        /* \"contracts/Products.sol\":2424:2438  productList[i] */\n      dup2\n      sload\n      dup2\n      lt\n      tag_94\n      jumpi\n      tag_95\n      tag_53\n      jump\t// in\n    tag_95:\n    tag_94:\n      swap1\n      0x00\n      mstore\n      keccak256(0x00, 0x20)\n      add\n        /* \"contracts/Products.sol\":2424:2446  productList[i].station */\n      0x00\n      add\n      0x01\n      swap1\n      sload\n      swap1\n      0x0100\n      exp\n      swap1\n      div\n      0xff\n      and\n        /* \"contracts/Products.sol\":2424:2451  productList[i].station != 3 */\n      0xff\n      and\n      sub\n        /* \"contracts/Products.sol\":2416:2481  require(productList[i].station != 3, \"It is in the last station\") */\n      tag_97\n      jumpi\n      mload(0x40)\n      0x08c379a000000000000000000000000000000000000000000000000000000000\n      dup2\n      mstore\n      0x04\n      add\n      tag_98\n      swap1\n      tag_99\n      jump\t// in\n    tag_98:\n      mload(0x40)\n      dup1\n      swap2\n      sub\n      swap1\n      revert\n    tag_97:\n        /* \"contracts/Products.sol\":2500:2511  productList */\n      0x01\n        /* \"contracts/Products.sol\":2512:2513  i */\n      dup2\n        /* \"contracts/Products.sol\":2500:2514  productList[i] */\n      dup2\n      sload\n      dup2\n      lt\n      tag_100\n      jumpi\n      tag_101\n      tag_53\n      jump\t// in\n    tag_101:\n    tag_100:\n      swap1\n      0x00\n      mstore\n      keccak256(0x00, 0x20)\n      add\n        /* \"contracts/Products.sol\":2500:2522  productList[i].station */\n      0x00\n      add\n      0x01\n        /* \"contracts/Products.sol\":2500:2524  productList[i].station++ */\n      dup2\n      dup2\n      swap1\n      sload\n      swap1\n      0x0100\n      exp\n      swap1\n      div\n      0xff\n      and\n      dup1\n      swap3\n      swap2\n      swap1\n      tag_103\n      swap1\n      tag_104\n      jump\t// in\n    tag_103:\n      swap2\n      swap1\n      0x0100\n      exp\n      dup2\n      sload\n      dup2\n      0xff\n      mul\n      not\n      and\n      swap1\n      dup4\n      0xff\n      and\n      mul\n      or\n      swap1\n      sstore\n      pop\n      pop\n        /* \"contracts/Products.sol\":2357:2540  if (productList[i].barcode == _barcode) {... */\n    tag_93:\n        /* \"contracts/Products.sol\":2337:2340  i++ */\n      dup1\n      dup1\n      0x01\n      add\n      swap2\n      pop\n      pop\n        /* \"contracts/Products.sol\":2296:2551  for (uint i = 0; i < productList.length; i++) {... */\n      jump(tag_87)\n    tag_88:\n      pop\n        /* \"contracts/Products.sol\":2230:2558  function changeStation(uint8 _barcode) public onlyOwner{... */\n      pop\n      jump\t// out\n        /* \"contracts/Products.sol\":1110:1583  function addProduct(uint8 _barcode, uint8 _station) public onlyOwner{... */\n    tag_33:\n        /* \"contracts/Products.sol\":633:638  owner */\n      0x02\n      0x00\n      swap1\n      sload\n      swap1\n      0x0100\n      exp\n      swap1\n      div\n      0xffffffffffffffffffffffffffffffffffffffff\n      and\n        /* \"contracts/Products.sol\":619:638  msg.sender == owner */\n      0xffffffffffffffffffffffffffffffffffffffff\n      and\n        /* \"contracts/Products.sol\":619:629  msg.sender */\n      caller\n        /* \"contracts/Products.sol\":619:638  msg.sender == owner */\n      0xffffffffffffffffffffffffffffffffffffffff\n      and\n      eq\n        /* \"contracts/Products.sol\":611:670  require(msg.sender == owner, \"This is only owner function\") */\n      tag_106\n      jumpi\n      mload(0x40)\n      0x08c379a000000000000000000000000000000000000000000000000000000000\n      dup2\n      mstore\n      0x04\n      add\n      tag_107\n      swap1\n      tag_85\n      jump\t// in\n    tag_107:\n      mload(0x40)\n      dup1\n      swap2\n      sub\n      swap1\n      revert\n    tag_106:\n        /* \"contracts/Products.sol\":1211:1225  stationWallets */\n      0x00\n        /* \"contracts/Products.sol\":1211:1235  stationWallets[_station] */\n      dup1\n        /* \"contracts/Products.sol\":1226:1234  _station */\n      dup3\n        /* \"contracts/Products.sol\":1211:1235  stationWallets[_station] */\n      0xff\n      and\n      0xff\n      and\n      dup2\n      mstore\n      0x20\n      add\n      swap1\n      dup2\n      mstore\n      0x20\n      add\n      0x00\n      keccak256\n      0x00\n      swap1\n      sload\n      swap1\n      0x0100\n      exp\n      swap1\n      div\n      0xffffffffffffffffffffffffffffffffffffffff\n      and\n        /* \"contracts/Products.sol\":1197:1235  msg.sender == stationWallets[_station] */\n      0xffffffffffffffffffffffffffffffffffffffff\n      and\n        /* \"contracts/Products.sol\":1197:1207  msg.sender */\n      caller\n        /* \"contracts/Products.sol\":1197:1235  msg.sender == stationWallets[_station] */\n      0xffffffffffffffffffffffffffffffffffffffff\n      and\n      eq\n        /* \"contracts/Products.sol\":1189:1252  require(msg.sender == stationWallets[_station], \"Not allowed.\") */\n      tag_109\n      jumpi\n      mload(0x40)\n      0x08c379a000000000000000000000000000000000000000000000000000000000\n      dup2\n      mstore\n      0x04\n      add\n      tag_110\n      swap1\n      tag_111\n      jump\t// in\n    tag_110:\n      mload(0x40)\n      dup1\n      swap2\n      sub\n      swap1\n      revert\n    tag_109:\n        /* \"contracts/Products.sol\":1283:1284  3 */\n      0x03\n        /* \"contracts/Products.sol\":1271:1279  _station */\n      dup2\n        /* \"contracts/Products.sol\":1271:1284  _station <= 3 */\n      0xff\n      and\n      gt\n      iszero\n        /* \"contracts/Products.sol\":1271:1301  _station <= 3 && _station >= 1 */\n      dup1\n      iszero\n      tag_112\n      jumpi\n      pop\n        /* \"contracts/Products.sol\":1300:1301  1 */\n      0x01\n        /* \"contracts/Products.sol\":1288:1296  _station */\n      dup2\n        /* \"contracts/Products.sol\":1288:1301  _station >= 1 */\n      0xff\n      and\n      lt\n      iszero\n        /* \"contracts/Products.sol\":1271:1301  _station <= 3 && _station >= 1 */\n    tag_112:\n        /* \"contracts/Products.sol\":1263:1331  require(_station <= 3 && _station >= 1, \"Station value is invalid.\") */\n      tag_113\n      jumpi\n      mload(0x40)\n      0x08c379a000000000000000000000000000000000000000000000000000000000\n      dup2\n      mstore\n      0x04\n      add\n      tag_114\n      swap1\n      tag_115\n      jump\t// in\n    tag_114:\n      mload(0x40)\n      dup1\n      swap2\n      sub\n      swap1\n      revert\n    tag_113:\n        /* \"contracts/Products.sol\":1351:1375  isThereBarcode(_barcode) */\n      tag_116\n        /* \"contracts/Products.sol\":1366:1374  _barcode */\n      dup3\n        /* \"contracts/Products.sol\":1351:1365  isThereBarcode */\n      tag_15\n        /* \"contracts/Products.sol\":1351:1375  isThereBarcode(_barcode) */\n      jump\t// in\n    tag_116:\n        /* \"contracts/Products.sol\":1350:1375  !isThereBarcode(_barcode) */\n      iszero\n        /* \"contracts/Products.sol\":1342:1401  require(!isThereBarcode(_barcode), \"Barcode already used.\") */\n      tag_117\n      jumpi\n      mload(0x40)\n      0x08c379a000000000000000000000000000000000000000000000000000000000\n      dup2\n      mstore\n      0x04\n      add\n      tag_118\n      swap1\n      tag_119\n      jump\t// in\n    tag_118:\n      mload(0x40)\n      dup1\n      swap2\n      sub\n      swap1\n      revert\n    tag_117:\n        /* \"contracts/Products.sol\":1414:1439  Product memory newProduct */\n      0x00\n        /* \"contracts/Products.sol\":1442:1526  Product({... */\n      mload(0x40)\n      dup1\n      0x40\n      add\n      0x40\n      mstore\n      dup1\n        /* \"contracts/Products.sol\":1474:1482  _barcode */\n      dup5\n        /* \"contracts/Products.sol\":1442:1526  Product({... */\n      0xff\n      and\n      dup2\n      mstore\n      0x20\n      add\n        /* \"contracts/Products.sol\":1506:1514  _station */\n      dup4\n        /* \"contracts/Products.sol\":1442:1526  Product({... */\n      0xff\n      and\n      dup2\n      mstore\n      pop\n        /* \"contracts/Products.sol\":1414:1526  Product memory newProduct = Product({... */\n      swap1\n      pop\n        /* \"contracts/Products.sol\":1547:1558  productList */\n      0x01\n        /* \"contracts/Products.sol\":1564:1574  newProduct */\n      dup2\n        /* \"contracts/Products.sol\":1547:1575  productList.push(newProduct) */\n      swap1\n      dup1\n      0x01\n      dup2\n      sload\n      add\n      dup1\n      dup3\n      sstore\n      dup1\n      swap2\n      pop\n      pop\n      0x01\n      swap1\n      sub\n      swap1\n      0x00\n      mstore\n      keccak256(0x00, 0x20)\n      add\n      0x00\n      swap1\n      swap2\n      swap1\n      swap2\n      swap1\n      swap2\n      pop\n      0x00\n      dup3\n      add\n      mload\n      dup2\n      0x00\n      add\n      exp(0x0100, 0x00)\n      dup2\n      sload\n      dup2\n      0xff\n      mul\n      not\n      and\n      swap1\n      dup4\n      0xff\n      and\n      mul\n      or\n      swap1\n      sstore\n      pop\n      0x20\n      dup3\n      add\n      mload\n      dup2\n      0x00\n      add\n      exp(0x0100, 0x01)\n      dup2\n      sload\n      dup2\n      0xff\n      mul\n      not\n      and\n      swap1\n      dup4\n      0xff\n      and\n      mul\n      or\n      swap1\n      sstore\n      pop\n      pop\n      pop\n        /* \"contracts/Products.sol\":1178:1583  {... */\n      pop\n        /* \"contracts/Products.sol\":1110:1583  function addProduct(uint8 _barcode, uint8 _station) public onlyOwner{... */\n      pop\n      pop\n      jump\t// out\n        /* \"contracts/Products.sol\":838:995  function updateStationWallet(uint8 _stationWallet, address _walletAddress) public onlyOwner{... */\n    tag_37:\n        /* \"contracts/Products.sol\":633:638  owner */\n      0x02\n      0x00\n      swap1\n      sload\n      swap1\n      0x0100\n      exp\n      swap1\n      div\n      0xffffffffffffffffffffffffffffffffffffffff\n      and\n        /* \"contracts/Products.sol\":619:638  msg.sender == owner */\n      0xffffffffffffffffffffffffffffffffffffffff\n      and\n        /* \"contracts/Products.sol\":619:629  msg.sender */\n      caller\n        /* \"contracts/Products.sol\":619:638  msg.sender == owner */\n      0xffffffffffffffffffffffffffffffffffffffff\n      and\n      eq\n        /* \"contracts/Products.sol\":611:670  require(msg.sender == owner, \"This is only owner function\") */\n      tag_122\n      jumpi\n      mload(0x40)\n      0x08c379a000000000000000000000000000000000000000000000000000000000\n      dup2\n      mstore\n      0x04\n      add\n      tag_123\n      swap1\n      tag_85\n      jump\t// in\n    tag_123:\n      mload(0x40)\n      dup1\n      swap2\n      sub\n      swap1\n      revert\n    tag_122:\n        /* \"contracts/Products.sol\":973:987  _walletAddress */\n      dup1\n        /* \"contracts/Products.sol\":940:954  stationWallets */\n      0x00\n        /* \"contracts/Products.sol\":940:970  stationWallets[_stationWallet] */\n      dup1\n        /* \"contracts/Products.sol\":955:969  _stationWallet */\n      dup5\n        /* \"contracts/Products.sol\":940:970  stationWallets[_stationWallet] */\n      0xff\n      and\n      0xff\n      and\n      dup2\n      mstore\n      0x20\n      add\n      swap1\n      dup2\n      mstore\n      0x20\n      add\n      0x00\n      keccak256\n      0x00\n        /* \"contracts/Products.sol\":940:987  stationWallets[_stationWallet] = _walletAddress */\n      0x0100\n      exp\n      dup2\n      sload\n      dup2\n      0xffffffffffffffffffffffffffffffffffffffff\n      mul\n      not\n      and\n      swap1\n      dup4\n      0xffffffffffffffffffffffffffffffffffffffff\n      and\n      mul\n      or\n      swap1\n      sstore\n      pop\n        /* \"contracts/Products.sol\":838:995  function updateStationWallet(uint8 _stationWallet, address _walletAddress) public onlyOwner{... */\n      pop\n      pop\n      jump\t// out\n        /* \"contracts/Products.sol\":698:830  function getStationWallet(uint8 _stationNumber) public view returns(address){... */\n    tag_40:\n        /* \"contracts/Products.sol\":766:773  address */\n      0x00\n        /* \"contracts/Products.sol\":792:806  stationWallets */\n      dup1\n        /* \"contracts/Products.sol\":792:822  stationWallets[_stationNumber] */\n      0x00\n        /* \"contracts/Products.sol\":807:821  _stationNumber */\n      dup4\n        /* \"contracts/Products.sol\":792:822  stationWallets[_stationNumber] */\n      0xff\n      and\n      0xff\n      and\n      dup2\n      mstore\n      0x20\n      add\n      swap1\n      dup2\n      mstore\n      0x20\n      add\n      0x00\n      keccak256\n      0x00\n      swap1\n      sload\n      swap1\n      0x0100\n      exp\n      swap1\n      div\n      0xffffffffffffffffffffffffffffffffffffffff\n      and\n        /* \"contracts/Products.sol\":785:822  return stationWallets[_stationNumber] */\n      swap1\n      pop\n        /* \"contracts/Products.sol\":698:830  function getStationWallet(uint8 _stationNumber) public view returns(address){... */\n      swap2\n      swap1\n      pop\n      jump\t// out\n        /* \"contracts/Products.sol\":1003:1102  function transfer_ownership(address _newOwner) public onlyOwner{... */\n    tag_46:\n        /* \"contracts/Products.sol\":633:638  owner */\n      0x02\n      0x00\n      swap1\n      sload\n      swap1\n      0x0100\n      exp\n      swap1\n      div\n      0xffffffffffffffffffffffffffffffffffffffff\n      and\n        /* \"contracts/Products.sol\":619:638  msg.sender == owner */\n      0xffffffffffffffffffffffffffffffffffffffff\n      and\n        /* \"contracts/Products.sol\":619:629  msg.sender */\n      caller\n        /* \"contracts/Products.sol\":619:638  msg.sender == owner */\n      0xffffffffffffffffffffffffffffffffffffffff\n      and\n      eq\n        /* \"contracts/Products.sol\":611:670  require(msg.sender == owner, \"This is only owner function\") */\n      tag_127\n      jumpi\n      mload(0x40)\n      0x08c379a000000000000000000000000000000000000000000000000000000000\n      dup2\n      mstore\n      0x04\n      add\n      tag_128\n      swap1\n      tag_85\n      jump\t// in\n    tag_128:\n      mload(0x40)\n      dup1\n      swap2\n      sub\n      swap1\n      revert\n    tag_127:\n        /* \"contracts/Products.sol\":1085:1094  _newOwner */\n      dup1\n        /* \"contracts/Products.sol\":1077:1082  owner */\n      0x02\n      0x00\n        /* \"contracts/Products.sol\":1077:1094  owner = _newOwner */\n      0x0100\n      exp\n      dup2\n      sload\n      dup2\n      0xffffffffffffffffffffffffffffffffffffffff\n      mul\n      not\n      and\n      swap1\n      dup4\n      0xffffffffffffffffffffffffffffffffffffffff\n      and\n      mul\n      or\n      swap1\n      sstore\n      pop\n        /* \"contracts/Products.sol\":1003:1102  function transfer_ownership(address _newOwner) public onlyOwner{... */\n      pop\n      jump\t// out\n        /* \"@openzeppelin/contracts/utils/Strings.sol\":637:1269  function toString(uint256 value) internal pure returns (string memory) {... */\n    tag_64:\n        /* \"@openzeppelin/contracts/utils/Strings.sol\":693:706  string memory */\n      0x60\n        /* \"@openzeppelin/contracts/utils/Strings.sol\":742:756  uint256 length */\n      0x00\n        /* \"@openzeppelin/contracts/utils/Strings.sol\":779:780  1 */\n      0x01\n        /* \"@openzeppelin/contracts/utils/Strings.sol\":759:776  Math.log10(value) */\n      tag_131\n        /* \"@openzeppelin/contracts/utils/Strings.sol\":770:775  value */\n      dup5\n        /* \"@openzeppelin/contracts/utils/Strings.sol\":759:769  Math.log10 */\n      tag_132\n        /* \"@openzeppelin/contracts/utils/Strings.sol\":759:776  Math.log10(value) */\n      jump\t// in\n    tag_131:\n        /* \"@openzeppelin/contracts/utils/Strings.sol\":759:780  Math.log10(value) + 1 */\n      add\n        /* \"@openzeppelin/contracts/utils/Strings.sol\":742:780  uint256 length = Math.log10(value) + 1 */\n      swap1\n      pop\n        /* \"@openzeppelin/contracts/utils/Strings.sol\":794:814  string memory buffer */\n      0x00\n        /* \"@openzeppelin/contracts/utils/Strings.sol\":828:834  length */\n      dup2\n        /* \"@openzeppelin/contracts/utils/Strings.sol\":817:835  new string(length) */\n      0xffffffffffffffff\n      dup2\n      gt\n      iszero\n      tag_133\n      jumpi\n      tag_134\n      tag_135\n      jump\t// in\n    tag_134:\n    tag_133:\n      mload(0x40)\n      swap1\n      dup1\n      dup3\n      mstore\n      dup1\n      0x1f\n      add\n      not(0x1f)\n      and\n      0x20\n      add\n      dup3\n      add\n      0x40\n      mstore\n      dup1\n      iszero\n      tag_136\n      jumpi\n      dup2\n      0x20\n      add\n      0x01\n      dup3\n      mul\n      dup1\n      calldatasize\n      dup4\n      calldatacopy\n      dup1\n      dup3\n      add\n      swap2\n      pop\n      pop\n      swap1\n      pop\n    tag_136:\n      pop\n        /* \"@openzeppelin/contracts/utils/Strings.sol\":794:835  string memory buffer = new string(length) */\n      swap1\n      pop\n        /* \"@openzeppelin/contracts/utils/Strings.sol\":849:860  uint256 ptr */\n      0x00\n        /* \"@openzeppelin/contracts/utils/Strings.sol\":944:950  length */\n      dup3\n        /* \"@openzeppelin/contracts/utils/Strings.sol\":940:942  32 */\n      0x20\n        /* \"@openzeppelin/contracts/utils/Strings.sol\":936:951  add(32, length) */\n      add\n        /* \"@openzeppelin/contracts/utils/Strings.sol\":928:934  buffer */\n      dup3\n        /* \"@openzeppelin/contracts/utils/Strings.sol\":924:952  add(buffer, add(32, length)) */\n      add\n        /* \"@openzeppelin/contracts/utils/Strings.sol\":917:952  ptr := add(buffer, add(32, length)) */\n      swap1\n      pop\n        /* \"@openzeppelin/contracts/utils/Strings.sol\":979:1226  while (true) {... */\n    tag_137:\n        /* \"@openzeppelin/contracts/utils/Strings.sol\":986:990  true */\n      0x01\n        /* \"@openzeppelin/contracts/utils/Strings.sol\":979:1226  while (true) {... */\n      iszero\n      tag_138\n      jumpi\n        /* \"@openzeppelin/contracts/utils/Strings.sol\":1010:1015  ptr-- */\n      dup1\n      dup1\n      0x01\n      swap1\n      sub\n      swap2\n      pop\n      pop\n        /* \"@openzeppelin/contracts/utils/Strings.sol\":1114:1124  HEX_DIGITS */\n      0x3031323334353637383961626364656600000000000000000000000000000000\n        /* \"@openzeppelin/contracts/utils/Strings.sol\":1109:1111  10 */\n      0x0a\n        /* \"@openzeppelin/contracts/utils/Strings.sol\":1102:1107  value */\n      dup7\n        /* \"@openzeppelin/contracts/utils/Strings.sol\":1098:1112  mod(value, 10) */\n      mod\n        /* \"@openzeppelin/contracts/utils/Strings.sol\":1093:1125  byte(mod(value, 10), HEX_DIGITS) */\n      byte\n        /* \"@openzeppelin/contracts/utils/Strings.sol\":1088:1091  ptr */\n      dup2\n        /* \"@openzeppelin/contracts/utils/Strings.sol\":1080:1126  mstore8(ptr, byte(mod(value, 10), HEX_DIGITS)) */\n      mstore8\n        /* \"@openzeppelin/contracts/utils/Strings.sol\":1170:1172  10 */\n      0x0a\n        /* \"@openzeppelin/contracts/utils/Strings.sol\":1161:1172  value /= 10 */\n      dup6\n      dup2\n      tag_139\n      jumpi\n      tag_140\n      tag_141\n      jump\t// in\n    tag_140:\n    tag_139:\n      div\n      swap5\n      pop\n        /* \"@openzeppelin/contracts/utils/Strings.sol\":1203:1204  0 */\n      0x00\n        /* \"@openzeppelin/contracts/utils/Strings.sol\":1194:1199  value */\n      dup6\n        /* \"@openzeppelin/contracts/utils/Strings.sol\":1194:1204  value == 0 */\n      sub\n        /* \"@openzeppelin/contracts/utils/Strings.sol\":979:1226  while (true) {... */\n      tag_137\n        /* \"@openzeppelin/contracts/utils/Strings.sol\":1190:1211  if (value == 0) break */\n      jumpi\n        /* \"@openzeppelin/contracts/utils/Strings.sol\":979:1226  while (true) {... */\n    tag_138:\n        /* \"@openzeppelin/contracts/utils/Strings.sol\":1246:1252  buffer */\n      dup2\n        /* \"@openzeppelin/contracts/utils/Strings.sol\":1239:1252  return buffer */\n      swap4\n      pop\n      pop\n      pop\n      pop\n        /* \"@openzeppelin/contracts/utils/Strings.sol\":637:1269  function toString(uint256 value) internal pure returns (string memory) {... */\n      swap2\n      swap1\n      pop\n      jump\t// out\n        /* \"@openzeppelin/contracts/utils/math/Math.sol\":25316:26232  function log10(uint256 value) internal pure returns (uint256) {... */\n    tag_132:\n        /* \"@openzeppelin/contracts/utils/math/Math.sol\":25369:25376  uint256 */\n      0x00\n        /* \"@openzeppelin/contracts/utils/math/Math.sol\":25388:25402  uint256 result */\n      dup1\n        /* \"@openzeppelin/contracts/utils/math/Math.sol\":25405:25406  0 */\n      0x00\n        /* \"@openzeppelin/contracts/utils/math/Math.sol\":25388:25406  uint256 result = 0 */\n      swap1\n      pop\n        /* \"@openzeppelin/contracts/utils/math/Math.sol\":25453:25461  10 ** 64 */\n      0x184f03e93ff9f4daa797ed6e38ed64bf6a1f010000000000000000\n        /* \"@openzeppelin/contracts/utils/math/Math.sol\":25444:25449  value */\n      dup4\n        /* \"@openzeppelin/contracts/utils/math/Math.sol\":25444:25461  value >= 10 ** 64 */\n      lt\n        /* \"@openzeppelin/contracts/utils/math/Math.sol\":25440:25543  if (value >= 10 ** 64) {... */\n      tag_144\n      jumpi\n        /* \"@openzeppelin/contracts/utils/math/Math.sol\":25490:25498  10 ** 64 */\n      0x184f03e93ff9f4daa797ed6e38ed64bf6a1f010000000000000000\n        /* \"@openzeppelin/contracts/utils/math/Math.sol\":25481:25498  value /= 10 ** 64 */\n      dup4\n      dup2\n      tag_145\n      jumpi\n      tag_146\n      tag_141\n      jump\t// in\n    tag_146:\n    tag_145:\n      div\n      swap3\n      pop\n        /* \"@openzeppelin/contracts/utils/math/Math.sol\":25526:25528  64 */\n      0x40\n        /* \"@openzeppelin/contracts/utils/math/Math.sol\":25516:25528  result += 64 */\n      dup2\n      add\n      swap1\n      pop\n        /* \"@openzeppelin/contracts/utils/math/Math.sol\":25440:25543  if (value >= 10 ** 64) {... */\n    tag_144:\n        /* \"@openzeppelin/contracts/utils/math/Math.sol\":25569:25577  10 ** 32 */\n      0x04ee2d6d415b85acef8100000000\n        /* \"@openzeppelin/contracts/utils/math/Math.sol\":25560:25565  value */\n      dup4\n        /* \"@openzeppelin/contracts/utils/math/Math.sol\":25560:25577  value >= 10 ** 32 */\n      lt\n        /* \"@openzeppelin/contracts/utils/math/Math.sol\":25556:25659  if (value >= 10 ** 32) {... */\n      tag_147\n      jumpi\n        /* \"@openzeppelin/contracts/utils/math/Math.sol\":25606:25614  10 ** 32 */\n      0x04ee2d6d415b85acef8100000000\n        /* \"@openzeppelin/contracts/utils/math/Math.sol\":25597:25614  value /= 10 ** 32 */\n      dup4\n      dup2\n      tag_148\n      jumpi\n      tag_149\n      tag_141\n      jump\t// in\n    tag_149:\n    tag_148:\n      div\n      swap3\n      pop\n        /* \"@openzeppelin/contracts/utils/math/Math.sol\":25642:25644  32 */\n      0x20\n        /* \"@openzeppelin/contracts/utils/math/Math.sol\":25632:25644  result += 32 */\n      dup2\n      add\n      swap1\n      pop\n        /* \"@openzeppelin/contracts/utils/math/Math.sol\":25556:25659  if (value >= 10 ** 32) {... */\n    tag_147:\n        /* \"@openzeppelin/contracts/utils/math/Math.sol\":25685:25693  10 ** 16 */\n      0x2386f26fc10000\n        /* \"@openzeppelin/contracts/utils/math/Math.sol\":25676:25681  value */\n      dup4\n        /* \"@openzeppelin/contracts/utils/math/Math.sol\":25676:25693  value >= 10 ** 16 */\n      lt\n        /* \"@openzeppelin/contracts/utils/math/Math.sol\":25672:25775  if (value >= 10 ** 16) {... */\n      tag_150\n      jumpi\n        /* \"@openzeppelin/contracts/utils/math/Math.sol\":25722:25730  10 ** 16 */\n      0x2386f26fc10000\n        /* \"@openzeppelin/contracts/utils/math/Math.sol\":25713:25730  value /= 10 ** 16 */\n      dup4\n      dup2\n      tag_151\n      jumpi\n      tag_152\n      tag_141\n      jump\t// in\n    tag_152:\n    tag_151:\n      div\n      swap3\n      pop\n        /* \"@openzeppelin/contracts/utils/math/Math.sol\":25758:25760  16 */\n      0x10\n        /* \"@openzeppelin/contracts/utils/math/Math.sol\":25748:25760  result += 16 */\n      dup2\n      add\n      swap1\n      pop\n        /* \"@openzeppelin/contracts/utils/math/Math.sol\":25672:25775  if (value >= 10 ** 16) {... */\n    tag_150:\n        /* \"@openzeppelin/contracts/utils/math/Math.sol\":25801:25808  10 ** 8 */\n      0x05f5e100\n        /* \"@openzeppelin/contracts/utils/math/Math.sol\":25792:25797  value */\n      dup4\n        /* \"@openzeppelin/contracts/utils/math/Math.sol\":25792:25808  value >= 10 ** 8 */\n      lt\n        /* \"@openzeppelin/contracts/utils/math/Math.sol\":25788:25888  if (value >= 10 ** 8) {... */\n      tag_153\n      jumpi\n        /* \"@openzeppelin/contracts/utils/math/Math.sol\":25837:25844  10 ** 8 */\n      0x05f5e100\n        /* \"@openzeppelin/contracts/utils/math/Math.sol\":25828:25844  value /= 10 ** 8 */\n      dup4\n      dup2\n      tag_154\n      jumpi\n      tag_155\n      tag_141\n      jump\t// in\n    tag_155:\n    tag_154:\n      div\n      swap3\n      pop\n        /* \"@openzeppelin/contracts/utils/math/Math.sol\":25872:25873  8 */\n      0x08\n        /* \"@openzeppelin/contracts/utils/math/Math.sol\":25862:25873  result += 8 */\n      dup2\n      add\n      swap1\n      pop\n        /* \"@openzeppelin/contracts/utils/math/Math.sol\":25788:25888  if (value >= 10 ** 8) {... */\n    tag_153:\n        /* \"@openzeppelin/contracts/utils/math/Math.sol\":25914:25921  10 ** 4 */\n      0x2710\n        /* \"@openzeppelin/contracts/utils/math/Math.sol\":25905:25910  value */\n      dup4\n        /* \"@openzeppelin/contracts/utils/math/Math.sol\":25905:25921  value >= 10 ** 4 */\n      lt\n        /* \"@openzeppelin/contracts/utils/math/Math.sol\":25901:26001  if (value >= 10 ** 4) {... */\n      tag_156\n      jumpi\n        /* \"@openzeppelin/contracts/utils/math/Math.sol\":25950:25957  10 ** 4 */\n      0x2710\n        /* \"@openzeppelin/contracts/utils/math/Math.sol\":25941:25957  value /= 10 ** 4 */\n      dup4\n      dup2\n      tag_157\n      jumpi\n      tag_158\n      tag_141\n      jump\t// in\n    tag_158:\n    tag_157:\n      div\n      swap3\n      pop\n        /* \"@openzeppelin/contracts/utils/math/Math.sol\":25985:25986  4 */\n      0x04\n        /* \"@openzeppelin/contracts/utils/math/Math.sol\":25975:25986  result += 4 */\n      dup2\n      add\n      swap1\n      pop\n        /* \"@openzeppelin/contracts/utils/math/Math.sol\":25901:26001  if (value >= 10 ** 4) {... */\n    tag_156:\n        /* \"@openzeppelin/contracts/utils/math/Math.sol\":26027:26034  10 ** 2 */\n      0x64\n        /* \"@openzeppelin/contracts/utils/math/Math.sol\":26018:26023  value */\n      dup4\n        /* \"@openzeppelin/contracts/utils/math/Math.sol\":26018:26034  value >= 10 ** 2 */\n      lt\n        /* \"@openzeppelin/contracts/utils/math/Math.sol\":26014:26114  if (value >= 10 ** 2) {... */\n      tag_159\n      jumpi\n        /* \"@openzeppelin/contracts/utils/math/Math.sol\":26063:26070  10 ** 2 */\n      0x64\n        /* \"@openzeppelin/contracts/utils/math/Math.sol\":26054:26070  value /= 10 ** 2 */\n      dup4\n      dup2\n      tag_160\n      jumpi\n      tag_161\n      tag_141\n      jump\t// in\n    tag_161:\n    tag_160:\n      div\n      swap3\n      pop\n        /* \"@openzeppelin/contracts/utils/math/Math.sol\":26098:26099  2 */\n      0x02\n        /* \"@openzeppelin/contracts/utils/math/Math.sol\":26088:26099  result += 2 */\n      dup2\n      add\n      swap1\n      pop\n        /* \"@openzeppelin/contracts/utils/math/Math.sol\":26014:26114  if (value >= 10 ** 2) {... */\n    tag_159:\n        /* \"@openzeppelin/contracts/utils/math/Math.sol\":26140:26147  10 ** 1 */\n      0x0a\n        /* \"@openzeppelin/contracts/utils/math/Math.sol\":26131:26136  value */\n      dup4\n        /* \"@openzeppelin/contracts/utils/math/Math.sol\":26131:26147  value >= 10 ** 1 */\n      lt\n        /* \"@openzeppelin/contracts/utils/math/Math.sol\":26127:26193  if (value >= 10 ** 1) {... */\n      tag_162\n      jumpi\n        /* \"@openzeppelin/contracts/utils/math/Math.sol\":26177:26178  1 */\n      0x01\n        /* \"@openzeppelin/contracts/utils/math/Math.sol\":26167:26178  result += 1 */\n      dup2\n      add\n      swap1\n      pop\n        /* \"@openzeppelin/contracts/utils/math/Math.sol\":26127:26193  if (value >= 10 ** 1) {... */\n    tag_162:\n        /* \"@openzeppelin/contracts/utils/math/Math.sol\":26219:26225  result */\n      dup1\n        /* \"@openzeppelin/contracts/utils/math/Math.sol\":26212:26225  return result */\n      swap2\n      pop\n      pop\n        /* \"@openzeppelin/contracts/utils/math/Math.sol\":25316:26232  function log10(uint256 value) internal pure returns (uint256) {... */\n      swap2\n      swap1\n      pop\n      jump\t// out\n        /* \"#utility.yul\":88:205   */\n    tag_164:\n        /* \"#utility.yul\":197:198   */\n      0x00\n        /* \"#utility.yul\":194:195   */\n      dup1\n        /* \"#utility.yul\":187:199   */\n      revert\n        /* \"#utility.yul\":334:420   */\n    tag_166:\n        /* \"#utility.yul\":369:376   */\n      0x00\n        /* \"#utility.yul\":409:413   */\n      0xff\n        /* \"#utility.yul\":402:407   */\n      dup3\n        /* \"#utility.yul\":398:414   */\n      and\n        /* \"#utility.yul\":387:414   */\n      swap1\n      pop\n        /* \"#utility.yul\":334:420   */\n      swap2\n      swap1\n      pop\n      jump\t// out\n        /* \"#utility.yul\":426:544   */\n    tag_167:\n        /* \"#utility.yul\":497:519   */\n      tag_204\n        /* \"#utility.yul\":513:518   */\n      dup2\n        /* \"#utility.yul\":497:519   */\n      tag_166\n      jump\t// in\n    tag_204:\n        /* \"#utility.yul\":490:495   */\n      dup2\n        /* \"#utility.yul\":487:520   */\n      eq\n        /* \"#utility.yul\":477:538   */\n      tag_205\n      jumpi\n        /* \"#utility.yul\":534:535   */\n      0x00\n        /* \"#utility.yul\":531:532   */\n      dup1\n        /* \"#utility.yul\":524:536   */\n      revert\n        /* \"#utility.yul\":477:538   */\n    tag_205:\n        /* \"#utility.yul\":426:544   */\n      pop\n      jump\t// out\n        /* \"#utility.yul\":550:685   */\n    tag_168:\n        /* \"#utility.yul\":594:599   */\n      0x00\n        /* \"#utility.yul\":632:638   */\n      dup2\n        /* \"#utility.yul\":619:639   */\n      calldataload\n        /* \"#utility.yul\":610:639   */\n      swap1\n      pop\n        /* \"#utility.yul\":648:679   */\n      tag_207\n        /* \"#utility.yul\":673:678   */\n      dup2\n        /* \"#utility.yul\":648:679   */\n      tag_167\n      jump\t// in\n    tag_207:\n        /* \"#utility.yul\":550:685   */\n      swap3\n      swap2\n      pop\n      pop\n      jump\t// out\n        /* \"#utility.yul\":691:1016   */\n    tag_14:\n        /* \"#utility.yul\":748:754   */\n      0x00\n        /* \"#utility.yul\":797:799   */\n      0x20\n        /* \"#utility.yul\":785:794   */\n      dup3\n        /* \"#utility.yul\":776:783   */\n      dup5\n        /* \"#utility.yul\":772:795   */\n      sub\n        /* \"#utility.yul\":768:800   */\n      slt\n        /* \"#utility.yul\":765:884   */\n      iszero\n      tag_209\n      jumpi\n        /* \"#utility.yul\":803:882   */\n      tag_210\n      tag_164\n      jump\t// in\n    tag_210:\n        /* \"#utility.yul\":765:884   */\n    tag_209:\n        /* \"#utility.yul\":923:924   */\n      0x00\n        /* \"#utility.yul\":948:999   */\n      tag_211\n        /* \"#utility.yul\":991:998   */\n      dup5\n        /* \"#utility.yul\":982:988   */\n      dup3\n        /* \"#utility.yul\":971:980   */\n      dup6\n        /* \"#utility.yul\":967:989   */\n      add\n        /* \"#utility.yul\":948:999   */\n      tag_168\n      jump\t// in\n    tag_211:\n        /* \"#utility.yul\":938:999   */\n      swap2\n      pop\n        /* \"#utility.yul\":894:1009   */\n      pop\n        /* \"#utility.yul\":691:1016   */\n      swap3\n      swap2\n      pop\n      pop\n      jump\t// out\n        /* \"#utility.yul\":1022:1112   */\n    tag_169:\n        /* \"#utility.yul\":1056:1063   */\n      0x00\n        /* \"#utility.yul\":1099:1104   */\n      dup2\n        /* \"#utility.yul\":1092:1105   */\n      iszero\n        /* \"#utility.yul\":1085:1106   */\n      iszero\n        /* \"#utility.yul\":1074:1106   */\n      swap1\n      pop\n        /* \"#utility.yul\":1022:1112   */\n      swap2\n      swap1\n      pop\n      jump\t// out\n        /* \"#utility.yul\":1118:1227   */\n    tag_170:\n        /* \"#utility.yul\":1199:1220   */\n      tag_214\n        /* \"#utility.yul\":1214:1219   */\n      dup2\n        /* \"#utility.yul\":1199:1220   */\n      tag_169\n      jump\t// in\n    tag_214:\n        /* \"#utility.yul\":1194:1197   */\n      dup3\n        /* \"#utility.yul\":1187:1221   */\n      mstore\n        /* \"#utility.yul\":1118:1227   */\n      pop\n      pop\n      jump\t// out\n        /* \"#utility.yul\":1233:1443   */\n    tag_17:\n        /* \"#utility.yul\":1320:1324   */\n      0x00\n        /* \"#utility.yul\":1358:1360   */\n      0x20\n        /* \"#utility.yul\":1347:1356   */\n      dup3\n        /* \"#utility.yul\":1343:1361   */\n      add\n        /* \"#utility.yul\":1335:1361   */\n      swap1\n      pop\n        /* \"#utility.yul\":1371:1436   */\n      tag_216\n        /* \"#utility.yul\":1433:1434   */\n      0x00\n        /* \"#utility.yul\":1422:1431   */\n      dup4\n        /* \"#utility.yul\":1418:1435   */\n      add\n        /* \"#utility.yul\":1409:1415   */\n      dup5\n        /* \"#utility.yul\":1371:1436   */\n      tag_170\n      jump\t// in\n    tag_216:\n        /* \"#utility.yul\":1233:1443   */\n      swap3\n      swap2\n      pop\n      pop\n      jump\t// out\n        /* \"#utility.yul\":1449:1548   */\n    tag_171:\n        /* \"#utility.yul\":1501:1507   */\n      0x00\n        /* \"#utility.yul\":1535:1540   */\n      dup2\n        /* \"#utility.yul\":1529:1541   */\n      mload\n        /* \"#utility.yul\":1519:1541   */\n      swap1\n      pop\n        /* \"#utility.yul\":1449:1548   */\n      swap2\n      swap1\n      pop\n      jump\t// out\n        /* \"#utility.yul\":1554:1723   */\n    tag_172:\n        /* \"#utility.yul\":1638:1649   */\n      0x00\n        /* \"#utility.yul\":1672:1678   */\n      dup3\n        /* \"#utility.yul\":1667:1670   */\n      dup3\n        /* \"#utility.yul\":1660:1679   */\n      mstore\n        /* \"#utility.yul\":1712:1716   */\n      0x20\n        /* \"#utility.yul\":1707:1710   */\n      dup3\n        /* \"#utility.yul\":1703:1717   */\n      add\n        /* \"#utility.yul\":1688:1717   */\n      swap1\n      pop\n        /* \"#utility.yul\":1554:1723   */\n      swap3\n      swap2\n      pop\n      pop\n      jump\t// out\n        /* \"#utility.yul\":1729:1868   */\n    tag_173:\n        /* \"#utility.yul\":1818:1824   */\n      dup3\n        /* \"#utility.yul\":1813:1816   */\n      dup2\n        /* \"#utility.yul\":1808:1811   */\n      dup4\n        /* \"#utility.yul\":1802:1825   */\n      mcopy\n        /* \"#utility.yul\":1859:1860   */\n      0x00\n        /* \"#utility.yul\":1850:1856   */\n      dup4\n        /* \"#utility.yul\":1845:1848   */\n      dup4\n        /* \"#utility.yul\":1841:1857   */\n      add\n        /* \"#utility.yul\":1834:1861   */\n      mstore\n        /* \"#utility.yul\":1729:1868   */\n      pop\n      pop\n      pop\n      jump\t// out\n        /* \"#utility.yul\":1874:1976   */\n    tag_174:\n        /* \"#utility.yul\":1915:1921   */\n      0x00\n        /* \"#utility.yul\":1966:1968   */\n      0x1f\n        /* \"#utility.yul\":1962:1969   */\n      not\n        /* \"#utility.yul\":1957:1959   */\n      0x1f\n        /* \"#utility.yul\":1950:1955   */\n      dup4\n        /* \"#utility.yul\":1946:1960   */\n      add\n        /* \"#utility.yul\":1942:1970   */\n      and\n        /* \"#utility.yul\":1932:1970   */\n      swap1\n      pop\n        /* \"#utility.yul\":1874:1976   */\n      swap2\n      swap1\n      pop\n      jump\t// out\n        /* \"#utility.yul\":1982:2359   */\n    tag_175:\n        /* \"#utility.yul\":2070:2073   */\n      0x00\n        /* \"#utility.yul\":2098:2137   */\n      tag_222\n        /* \"#utility.yul\":2131:2136   */\n      dup3\n        /* \"#utility.yul\":2098:2137   */\n      tag_171\n      jump\t// in\n    tag_222:\n        /* \"#utility.yul\":2153:2224   */\n      tag_223\n        /* \"#utility.yul\":2217:2223   */\n      dup2\n        /* \"#utility.yul\":2212:2215   */\n      dup6\n        /* \"#utility.yul\":2153:2224   */\n      tag_172\n      jump\t// in\n    tag_223:\n        /* \"#utility.yul\":2146:2224   */\n      swap4\n      pop\n        /* \"#utility.yul\":2233:2298   */\n      tag_224\n        /* \"#utility.yul\":2291:2297   */\n      dup2\n        /* \"#utility.yul\":2286:2289   */\n      dup6\n        /* \"#utility.yul\":2279:2283   */\n      0x20\n        /* \"#utility.yul\":2272:2277   */\n      dup7\n        /* \"#utility.yul\":2268:2284   */\n      add\n        /* \"#utility.yul\":2233:2298   */\n      tag_173\n      jump\t// in\n    tag_224:\n        /* \"#utility.yul\":2323:2352   */\n      tag_225\n        /* \"#utility.yul\":2345:2351   */\n      dup2\n        /* \"#utility.yul\":2323:2352   */\n      tag_174\n      jump\t// in\n    tag_225:\n        /* \"#utility.yul\":2318:2321   */\n      dup5\n        /* \"#utility.yul\":2314:2353   */\n      add\n        /* \"#utility.yul\":2307:2353   */\n      swap2\n      pop\n        /* \"#utility.yul\":2074:2359   */\n      pop\n        /* \"#utility.yul\":1982:2359   */\n      swap3\n      swap2\n      pop\n      pop\n      jump\t// out\n        /* \"#utility.yul\":2365:2678   */\n    tag_21:\n        /* \"#utility.yul\":2478:2482   */\n      0x00\n        /* \"#utility.yul\":2516:2518   */\n      0x20\n        /* \"#utility.yul\":2505:2514   */\n      dup3\n        /* \"#utility.yul\":2501:2519   */\n      add\n        /* \"#utility.yul\":2493:2519   */\n      swap1\n      pop\n        /* \"#utility.yul\":2565:2574   */\n      dup2\n        /* \"#utility.yul\":2559:2563   */\n      dup2\n        /* \"#utility.yul\":2555:2575   */\n      sub\n        /* \"#utility.yul\":2551:2552   */\n      0x00\n        /* \"#utility.yul\":2540:2549   */\n      dup4\n        /* \"#utility.yul\":2536:2553   */\n      add\n        /* \"#utility.yul\":2529:2576   */\n      mstore\n        /* \"#utility.yul\":2593:2671   */\n      tag_227\n        /* \"#utility.yul\":2666:2670   */\n      dup2\n        /* \"#utility.yul\":2657:2663   */\n      dup5\n        /* \"#utility.yul\":2593:2671   */\n      tag_175\n      jump\t// in\n    tag_227:\n        /* \"#utility.yul\":2585:2671   */\n      swap1\n      pop\n        /* \"#utility.yul\":2365:2678   */\n      swap3\n      swap2\n      pop\n      pop\n      jump\t// out\n        /* \"#utility.yul\":2684:2796   */\n    tag_176:\n        /* \"#utility.yul\":2767:2789   */\n      tag_229\n        /* \"#utility.yul\":2783:2788   */\n      dup2\n        /* \"#utility.yul\":2767:2789   */\n      tag_166\n      jump\t// in\n    tag_229:\n        /* \"#utility.yul\":2762:2765   */\n      dup3\n        /* \"#utility.yul\":2755:2790   */\n      mstore\n        /* \"#utility.yul\":2684:2796   */\n      pop\n      pop\n      jump\t// out\n        /* \"#utility.yul\":2802:3016   */\n    tag_26:\n        /* \"#utility.yul\":2891:2895   */\n      0x00\n        /* \"#utility.yul\":2929:2931   */\n      0x20\n        /* \"#utility.yul\":2918:2927   */\n      dup3\n        /* \"#utility.yul\":2914:2932   */\n      add\n        /* \"#utility.yul\":2906:2932   */\n      swap1\n      pop\n        /* \"#utility.yul\":2942:3009   */\n      tag_231\n        /* \"#utility.yul\":3006:3007   */\n      0x00\n        /* \"#utility.yul\":2995:3004   */\n      dup4\n        /* \"#utility.yul\":2991:3008   */\n      add\n        /* \"#utility.yul\":2982:2988   */\n      dup5\n        /* \"#utility.yul\":2942:3009   */\n      tag_176\n      jump\t// in\n    tag_231:\n        /* \"#utility.yul\":2802:3016   */\n      swap3\n      swap2\n      pop\n      pop\n      jump\t// out\n        /* \"#utility.yul\":3022:3488   */\n    tag_32:\n        /* \"#utility.yul\":3086:3092   */\n      0x00\n        /* \"#utility.yul\":3094:3100   */\n      dup1\n        /* \"#utility.yul\":3143:3145   */\n      0x40\n        /* \"#utility.yul\":3131:3140   */\n      dup4\n        /* \"#utility.yul\":3122:3129   */\n      dup6\n        /* \"#utility.yul\":3118:3141   */\n      sub\n        /* \"#utility.yul\":3114:3146   */\n      slt\n        /* \"#utility.yul\":3111:3230   */\n      iszero\n      tag_233\n      jumpi\n        /* \"#utility.yul\":3149:3228   */\n      tag_234\n      tag_164\n      jump\t// in\n    tag_234:\n        /* \"#utility.yul\":3111:3230   */\n    tag_233:\n        /* \"#utility.yul\":3269:3270   */\n      0x00\n        /* \"#utility.yul\":3294:3345   */\n      tag_235\n        /* \"#utility.yul\":3337:3344   */\n      dup6\n        /* \"#utility.yul\":3328:3334   */\n      dup3\n        /* \"#utility.yul\":3317:3326   */\n      dup7\n        /* \"#utility.yul\":3313:3335   */\n      add\n        /* \"#utility.yul\":3294:3345   */\n      tag_168\n      jump\t// in\n    tag_235:\n        /* \"#utility.yul\":3284:3345   */\n      swap3\n      pop\n        /* \"#utility.yul\":3240:3355   */\n      pop\n        /* \"#utility.yul\":3394:3396   */\n      0x20\n        /* \"#utility.yul\":3420:3471   */\n      tag_236\n        /* \"#utility.yul\":3463:3470   */\n      dup6\n        /* \"#utility.yul\":3454:3460   */\n      dup3\n        /* \"#utility.yul\":3443:3452   */\n      dup7\n        /* \"#utility.yul\":3439:3461   */\n      add\n        /* \"#utility.yul\":3420:3471   */\n      tag_168\n      jump\t// in\n    tag_236:\n        /* \"#utility.yul\":3410:3471   */\n      swap2\n      pop\n        /* \"#utility.yul\":3365:3481   */\n      pop\n        /* \"#utility.yul\":3022:3488   */\n      swap3\n      pop\n      swap3\n      swap1\n      pop\n      jump\t// out\n        /* \"#utility.yul\":3494:3620   */\n    tag_177:\n        /* \"#utility.yul\":3531:3538   */\n      0x00\n        /* \"#utility.yul\":3571:3613   */\n      0xffffffffffffffffffffffffffffffffffffffff\n        /* \"#utility.yul\":3564:3569   */\n      dup3\n        /* \"#utility.yul\":3560:3614   */\n      and\n        /* \"#utility.yul\":3549:3614   */\n      swap1\n      pop\n        /* \"#utility.yul\":3494:3620   */\n      swap2\n      swap1\n      pop\n      jump\t// out\n        /* \"#utility.yul\":3626:3722   */\n    tag_178:\n        /* \"#utility.yul\":3663:3670   */\n      0x00\n        /* \"#utility.yul\":3692:3716   */\n      tag_239\n        /* \"#utility.yul\":3710:3715   */\n      dup3\n        /* \"#utility.yul\":3692:3716   */\n      tag_177\n      jump\t// in\n    tag_239:\n        /* \"#utility.yul\":3681:3716   */\n      swap1\n      pop\n        /* \"#utility.yul\":3626:3722   */\n      swap2\n      swap1\n      pop\n      jump\t// out\n        /* \"#utility.yul\":3728:3850   */\n    tag_179:\n        /* \"#utility.yul\":3801:3825   */\n      tag_241\n        /* \"#utility.yul\":3819:3824   */\n      dup2\n        /* \"#utility.yul\":3801:3825   */\n      tag_178\n      jump\t// in\n    tag_241:\n        /* \"#utility.yul\":3794:3799   */\n      dup2\n        /* \"#utility.yul\":3791:3826   */\n      eq\n        /* \"#utility.yul\":3781:3844   */\n      tag_242\n      jumpi\n        /* \"#utility.yul\":3840:3841   */\n      0x00\n        /* \"#utility.yul\":3837:3838   */\n      dup1\n        /* \"#utility.yul\":3830:3842   */\n      revert\n        /* \"#utility.yul\":3781:3844   */\n    tag_242:\n        /* \"#utility.yul\":3728:3850   */\n      pop\n      jump\t// out\n        /* \"#utility.yul\":3856:3995   */\n    tag_180:\n        /* \"#utility.yul\":3902:3907   */\n      0x00\n        /* \"#utility.yul\":3940:3946   */\n      dup2\n        /* \"#utility.yul\":3927:3947   */\n      calldataload\n        /* \"#utility.yul\":3918:3947   */\n      swap1\n      pop\n        /* \"#utility.yul\":3956:3989   */\n      tag_244\n        /* \"#utility.yul\":3983:3988   */\n      dup2\n        /* \"#utility.yul\":3956:3989   */\n      tag_179\n      jump\t// in\n    tag_244:\n        /* \"#utility.yul\":3856:3995   */\n      swap3\n      swap2\n      pop\n      pop\n      jump\t// out\n        /* \"#utility.yul\":4001:4471   */\n    tag_36:\n        /* \"#utility.yul\":4067:4073   */\n      0x00\n        /* \"#utility.yul\":4075:4081   */\n      dup1\n        /* \"#utility.yul\":4124:4126   */\n      0x40\n        /* \"#utility.yul\":4112:4121   */\n      dup4\n        /* \"#utility.yul\":4103:4110   */\n      dup6\n        /* \"#utility.yul\":4099:4122   */\n      sub\n        /* \"#utility.yul\":4095:4127   */\n      slt\n        /* \"#utility.yul\":4092:4211   */\n      iszero\n      tag_246\n      jumpi\n        /* \"#utility.yul\":4130:4209   */\n      tag_247\n      tag_164\n      jump\t// in\n    tag_247:\n        /* \"#utility.yul\":4092:4211   */\n    tag_246:\n        /* \"#utility.yul\":4250:4251   */\n      0x00\n        /* \"#utility.yul\":4275:4326   */\n      tag_248\n        /* \"#utility.yul\":4318:4325   */\n      dup6\n        /* \"#utility.yul\":4309:4315   */\n      dup3\n        /* \"#utility.yul\":4298:4307   */\n      dup7\n        /* \"#utility.yul\":4294:4316   */\n      add\n        /* \"#utility.yul\":4275:4326   */\n      tag_168\n      jump\t// in\n    tag_248:\n        /* \"#utility.yul\":4265:4326   */\n      swap3\n      pop\n        /* \"#utility.yul\":4221:4336   */\n      pop\n        /* \"#utility.yul\":4375:4377   */\n      0x20\n        /* \"#utility.yul\":4401:4454   */\n      tag_249\n        /* \"#utility.yul\":4446:4453   */\n      dup6\n        /* \"#utility.yul\":4437:4443   */\n      dup3\n        /* \"#utility.yul\":4426:4435   */\n      dup7\n        /* \"#utility.yul\":4422:4444   */\n      add\n        /* \"#utility.yul\":4401:4454   */\n      tag_180\n      jump\t// in\n    tag_249:\n        /* \"#utility.yul\":4391:4454   */\n      swap2\n      pop\n        /* \"#utility.yul\":4346:4464   */\n      pop\n        /* \"#utility.yul\":4001:4471   */\n      swap3\n      pop\n      swap3\n      swap1\n      pop\n      jump\t// out\n        /* \"#utility.yul\":4477:4595   */\n    tag_181:\n        /* \"#utility.yul\":4564:4588   */\n      tag_251\n        /* \"#utility.yul\":4582:4587   */\n      dup2\n        /* \"#utility.yul\":4564:4588   */\n      tag_178\n      jump\t// in\n    tag_251:\n        /* \"#utility.yul\":4559:4562   */\n      dup3\n        /* \"#utility.yul\":4552:4589   */\n      mstore\n        /* \"#utility.yul\":4477:4595   */\n      pop\n      pop\n      jump\t// out\n        /* \"#utility.yul\":4601:4823   */\n    tag_42:\n        /* \"#utility.yul\":4694:4698   */\n      0x00\n        /* \"#utility.yul\":4732:4734   */\n      0x20\n        /* \"#utility.yul\":4721:4730   */\n      dup3\n        /* \"#utility.yul\":4717:4735   */\n      add\n        /* \"#utility.yul\":4709:4735   */\n      swap1\n      pop\n        /* \"#utility.yul\":4745:4816   */\n      tag_253\n        /* \"#utility.yul\":4813:4814   */\n      0x00\n        /* \"#utility.yul\":4802:4811   */\n      dup4\n        /* \"#utility.yul\":4798:4815   */\n      add\n        /* \"#utility.yul\":4789:4795   */\n      dup5\n        /* \"#utility.yul\":4745:4816   */\n      tag_181\n      jump\t// in\n    tag_253:\n        /* \"#utility.yul\":4601:4823   */\n      swap3\n      swap2\n      pop\n      pop\n      jump\t// out\n        /* \"#utility.yul\":4829:5158   */\n    tag_45:\n        /* \"#utility.yul\":4888:4894   */\n      0x00\n        /* \"#utility.yul\":4937:4939   */\n      0x20\n        /* \"#utility.yul\":4925:4934   */\n      dup3\n        /* \"#utility.yul\":4916:4923   */\n      dup5\n        /* \"#utility.yul\":4912:4935   */\n      sub\n        /* \"#utility.yul\":4908:4940   */\n      slt\n        /* \"#utility.yul\":4905:5024   */\n      iszero\n      tag_255\n      jumpi\n        /* \"#utility.yul\":4943:5022   */\n      tag_256\n      tag_164\n      jump\t// in\n    tag_256:\n        /* \"#utility.yul\":4905:5024   */\n    tag_255:\n        /* \"#utility.yul\":5063:5064   */\n      0x00\n        /* \"#utility.yul\":5088:5141   */\n      tag_257\n        /* \"#utility.yul\":5133:5140   */\n      dup5\n        /* \"#utility.yul\":5124:5130   */\n      dup3\n        /* \"#utility.yul\":5113:5122   */\n      dup6\n        /* \"#utility.yul\":5109:5131   */\n      add\n        /* \"#utility.yul\":5088:5141   */\n      tag_180\n      jump\t// in\n    tag_257:\n        /* \"#utility.yul\":5078:5141   */\n      swap2\n      pop\n        /* \"#utility.yul\":5034:5151   */\n      pop\n        /* \"#utility.yul\":4829:5158   */\n      swap3\n      swap2\n      pop\n      pop\n      jump\t// out\n        /* \"#utility.yul\":5164:5344   */\n    tag_53:\n        /* \"#utility.yul\":5212:5289   */\n      0x4e487b7100000000000000000000000000000000000000000000000000000000\n        /* \"#utility.yul\":5209:5210   */\n      0x00\n        /* \"#utility.yul\":5202:5290   */\n      mstore\n        /* \"#utility.yul\":5309:5313   */\n      0x32\n        /* \"#utility.yul\":5306:5307   */\n      0x04\n        /* \"#utility.yul\":5299:5314   */\n      mstore\n        /* \"#utility.yul\":5333:5337   */\n      0x24\n        /* \"#utility.yul\":5330:5331   */\n      0x00\n        /* \"#utility.yul\":5323:5338   */\n      revert\n        /* \"#utility.yul\":5350:5498   */\n    tag_182:\n        /* \"#utility.yul\":5452:5463   */\n      0x00\n        /* \"#utility.yul\":5489:5492   */\n      dup2\n        /* \"#utility.yul\":5474:5492   */\n      swap1\n      pop\n        /* \"#utility.yul\":5350:5498   */\n      swap3\n      swap2\n      pop\n      pop\n      jump\t// out\n        /* \"#utility.yul\":5504:5894   */\n    tag_183:\n        /* \"#utility.yul\":5610:5613   */\n      0x00\n        /* \"#utility.yul\":5638:5677   */\n      tag_261\n        /* \"#utility.yul\":5671:5676   */\n      dup3\n        /* \"#utility.yul\":5638:5677   */\n      tag_171\n      jump\t// in\n    tag_261:\n        /* \"#utility.yul\":5693:5782   */\n      tag_262\n        /* \"#utility.yul\":5775:5781   */\n      dup2\n        /* \"#utility.yul\":5770:5773   */\n      dup6\n        /* \"#utility.yul\":5693:5782   */\n      tag_182\n      jump\t// in\n    tag_262:\n        /* \"#utility.yul\":5686:5782   */\n      swap4\n      pop\n        /* \"#utility.yul\":5791:5856   */\n      tag_263\n        /* \"#utility.yul\":5849:5855   */\n      dup2\n        /* \"#utility.yul\":5844:5847   */\n      dup6\n        /* \"#utility.yul\":5837:5841   */\n      0x20\n        /* \"#utility.yul\":5830:5835   */\n      dup7\n        /* \"#utility.yul\":5826:5842   */\n      add\n        /* \"#utility.yul\":5791:5856   */\n      tag_173\n      jump\t// in\n    tag_263:\n        /* \"#utility.yul\":5881:5887   */\n      dup1\n        /* \"#utility.yul\":5876:5879   */\n      dup5\n        /* \"#utility.yul\":5872:5888   */\n      add\n        /* \"#utility.yul\":5865:5888   */\n      swap2\n      pop\n        /* \"#utility.yul\":5614:5894   */\n      pop\n        /* \"#utility.yul\":5504:5894   */\n      swap3\n      swap2\n      pop\n      pop\n      jump\t// out\n        /* \"#utility.yul\":5900:6086   */\n    tag_184:\n        /* \"#utility.yul\":6068:6079   */\n      0x426172636f64653a200000000000000000000000000000000000000000000000\n        /* \"#utility.yul\":6063:6066   */\n      dup2\n        /* \"#utility.yul\":6056:6080   */\n      mstore\n        /* \"#utility.yul\":5900:6086   */\n      pop\n      jump\t// out\n        /* \"#utility.yul\":6092:6280   */\n    tag_185:\n        /* \"#utility.yul\":6261:6273   */\n      0x2053746174696f6e3a2000000000000000000000000000000000000000000000\n        /* \"#utility.yul\":6256:6259   */\n      dup2\n        /* \"#utility.yul\":6249:6274   */\n      mstore\n        /* \"#utility.yul\":6092:6280   */\n      pop\n      jump\t// out\n        /* \"#utility.yul\":6286:6464   */\n    tag_186:\n        /* \"#utility.yul\":6454:6457   */\n      0x2000000000000000000000000000000000000000000000000000000000000000\n        /* \"#utility.yul\":6449:6452   */\n      dup2\n        /* \"#utility.yul\":6442:6458   */\n      mstore\n        /* \"#utility.yul\":6286:6464   */\n      pop\n      jump\t// out\n        /* \"#utility.yul\":6470:7860   */\n    tag_70:\n        /* \"#utility.yul\":6969:6972   */\n      0x00\n        /* \"#utility.yul\":6991:7086   */\n      tag_268\n        /* \"#utility.yul\":7082:7085   */\n      dup3\n        /* \"#utility.yul\":7073:7079   */\n      dup7\n        /* \"#utility.yul\":6991:7086   */\n      tag_183\n      jump\t// in\n    tag_268:\n        /* \"#utility.yul\":6984:7086   */\n      swap2\n      pop\n        /* \"#utility.yul\":7096:7233   */\n      tag_269\n        /* \"#utility.yul\":7229:7232   */\n      dup3\n        /* \"#utility.yul\":7096:7233   */\n      tag_184\n      jump\t// in\n    tag_269:\n        /* \"#utility.yul\":7258:7259   */\n      0x09\n        /* \"#utility.yul\":7253:7256   */\n      dup3\n        /* \"#utility.yul\":7249:7260   */\n      add\n        /* \"#utility.yul\":7242:7260   */\n      swap2\n      pop\n        /* \"#utility.yul\":7277:7372   */\n      tag_270\n        /* \"#utility.yul\":7368:7371   */\n      dup3\n        /* \"#utility.yul\":7359:7365   */\n      dup6\n        /* \"#utility.yul\":7277:7372   */\n      tag_183\n      jump\t// in\n    tag_270:\n        /* \"#utility.yul\":7270:7372   */\n      swap2\n      pop\n        /* \"#utility.yul\":7382:7520   */\n      tag_271\n        /* \"#utility.yul\":7516:7519   */\n      dup3\n        /* \"#utility.yul\":7382:7520   */\n      tag_185\n      jump\t// in\n    tag_271:\n        /* \"#utility.yul\":7545:7547   */\n      0x0a\n        /* \"#utility.yul\":7540:7543   */\n      dup3\n        /* \"#utility.yul\":7536:7548   */\n      add\n        /* \"#utility.yul\":7529:7548   */\n      swap2\n      pop\n        /* \"#utility.yul\":7565:7660   */\n      tag_272\n        /* \"#utility.yul\":7656:7659   */\n      dup3\n        /* \"#utility.yul\":7647:7653   */\n      dup5\n        /* \"#utility.yul\":7565:7660   */\n      tag_183\n      jump\t// in\n    tag_272:\n        /* \"#utility.yul\":7558:7660   */\n      swap2\n      pop\n        /* \"#utility.yul\":7670:7807   */\n      tag_273\n        /* \"#utility.yul\":7803:7806   */\n      dup3\n        /* \"#utility.yul\":7670:7807   */\n      tag_186\n      jump\t// in\n    tag_273:\n        /* \"#utility.yul\":7832:7833   */\n      0x01\n        /* \"#utility.yul\":7827:7830   */\n      dup3\n        /* \"#utility.yul\":7823:7834   */\n      add\n        /* \"#utility.yul\":7816:7834   */\n      swap2\n      pop\n        /* \"#utility.yul\":7851:7854   */\n      dup2\n        /* \"#utility.yul\":7844:7854   */\n      swap1\n      pop\n        /* \"#utility.yul\":6470:7860   */\n      swap5\n      swap4\n      pop\n      pop\n      pop\n      pop\n      jump\t// out\n        /* \"#utility.yul\":7866:8043   */\n    tag_187:\n        /* \"#utility.yul\":8006:8035   */\n      0x54686973206973206f6e6c79206f776e65722066756e6374696f6e0000000000\n        /* \"#utility.yul\":8002:8003   */\n      0x00\n        /* \"#utility.yul\":7994:8000   */\n      dup3\n        /* \"#utility.yul\":7990:8004   */\n      add\n        /* \"#utility.yul\":7983:8036   */\n      mstore\n        /* \"#utility.yul\":7866:8043   */\n      pop\n      jump\t// out\n        /* \"#utility.yul\":8049:8415   */\n    tag_188:\n        /* \"#utility.yul\":8191:8194   */\n      0x00\n        /* \"#utility.yul\":8212:8279   */\n      tag_276\n        /* \"#utility.yul\":8276:8278   */\n      0x1b\n        /* \"#utility.yul\":8271:8274   */\n      dup4\n        /* \"#utility.yul\":8212:8279   */\n      tag_172\n      jump\t// in\n    tag_276:\n        /* \"#utility.yul\":8205:8279   */\n      swap2\n      pop\n        /* \"#utility.yul\":8288:8381   */\n      tag_277\n        /* \"#utility.yul\":8377:8380   */\n      dup3\n        /* \"#utility.yul\":8288:8381   */\n      tag_187\n      jump\t// in\n    tag_277:\n        /* \"#utility.yul\":8406:8408   */\n      0x20\n        /* \"#utility.yul\":8401:8404   */\n      dup3\n        /* \"#utility.yul\":8397:8409   */\n      add\n        /* \"#utility.yul\":8390:8409   */\n      swap1\n      pop\n        /* \"#utility.yul\":8049:8415   */\n      swap2\n      swap1\n      pop\n      jump\t// out\n        /* \"#utility.yul\":8421:8840   */\n    tag_85:\n        /* \"#utility.yul\":8587:8591   */\n      0x00\n        /* \"#utility.yul\":8625:8627   */\n      0x20\n        /* \"#utility.yul\":8614:8623   */\n      dup3\n        /* \"#utility.yul\":8610:8628   */\n      add\n        /* \"#utility.yul\":8602:8628   */\n      swap1\n      pop\n        /* \"#utility.yul\":8674:8683   */\n      dup2\n        /* \"#utility.yul\":8668:8672   */\n      dup2\n        /* \"#utility.yul\":8664:8684   */\n      sub\n        /* \"#utility.yul\":8660:8661   */\n      0x00\n        /* \"#utility.yul\":8649:8658   */\n      dup4\n        /* \"#utility.yul\":8645:8662   */\n      add\n        /* \"#utility.yul\":8638:8685   */\n      mstore\n        /* \"#utility.yul\":8702:8833   */\n      tag_279\n        /* \"#utility.yul\":8828:8832   */\n      dup2\n        /* \"#utility.yul\":8702:8833   */\n      tag_188\n      jump\t// in\n    tag_279:\n        /* \"#utility.yul\":8694:8833   */\n      swap1\n      pop\n        /* \"#utility.yul\":8421:8840   */\n      swap2\n      swap1\n      pop\n      jump\t// out\n        /* \"#utility.yul\":8846:9021   */\n    tag_189:\n        /* \"#utility.yul\":8986:9013   */\n      0x497420697320696e20746865206c6173742073746174696f6e00000000000000\n        /* \"#utility.yul\":8982:8983   */\n      0x00\n        /* \"#utility.yul\":8974:8980   */\n      dup3\n        /* \"#utility.yul\":8970:8984   */\n      add\n        /* \"#utility.yul\":8963:9014   */\n      mstore\n        /* \"#utility.yul\":8846:9021   */\n      pop\n      jump\t// out\n        /* \"#utility.yul\":9027:9393   */\n    tag_190:\n        /* \"#utility.yul\":9169:9172   */\n      0x00\n        /* \"#utility.yul\":9190:9257   */\n      tag_282\n        /* \"#utility.yul\":9254:9256   */\n      0x19\n        /* \"#utility.yul\":9249:9252   */\n      dup4\n        /* \"#utility.yul\":9190:9257   */\n      tag_172\n      jump\t// in\n    tag_282:\n        /* \"#utility.yul\":9183:9257   */\n      swap2\n      pop\n        /* \"#utility.yul\":9266:9359   */\n      tag_283\n        /* \"#utility.yul\":9355:9358   */\n      dup3\n        /* \"#utility.yul\":9266:9359   */\n      tag_189\n      jump\t// in\n    tag_283:\n        /* \"#utility.yul\":9384:9386   */\n      0x20\n        /* \"#utility.yul\":9379:9382   */\n      dup3\n        /* \"#utility.yul\":9375:9387   */\n      add\n        /* \"#utility.yul\":9368:9387   */\n      swap1\n      pop\n        /* \"#utility.yul\":9027:9393   */\n      swap2\n      swap1\n      pop\n      jump\t// out\n        /* \"#utility.yul\":9399:9818   */\n    tag_99:\n        /* \"#utility.yul\":9565:9569   */\n      0x00\n        /* \"#utility.yul\":9603:9605   */\n      0x20\n        /* \"#utility.yul\":9592:9601   */\n      dup3\n        /* \"#utility.yul\":9588:9606   */\n      add\n        /* \"#utility.yul\":9580:9606   */\n      swap1\n      pop\n        /* \"#utility.yul\":9652:9661   */\n      dup2\n        /* \"#utility.yul\":9646:9650   */\n      dup2\n        /* \"#utility.yul\":9642:9662   */\n      sub\n        /* \"#utility.yul\":9638:9639   */\n      0x00\n        /* \"#utility.yul\":9627:9636   */\n      dup4\n        /* \"#utility.yul\":9623:9640   */\n      add\n        /* \"#utility.yul\":9616:9663   */\n      mstore\n        /* \"#utility.yul\":9680:9811   */\n      tag_285\n        /* \"#utility.yul\":9806:9810   */\n      dup2\n        /* \"#utility.yul\":9680:9811   */\n      tag_190\n      jump\t// in\n    tag_285:\n        /* \"#utility.yul\":9672:9811   */\n      swap1\n      pop\n        /* \"#utility.yul\":9399:9818   */\n      swap2\n      swap1\n      pop\n      jump\t// out\n        /* \"#utility.yul\":9824:10004   */\n    tag_191:\n        /* \"#utility.yul\":9872:9949   */\n      0x4e487b7100000000000000000000000000000000000000000000000000000000\n        /* \"#utility.yul\":9869:9870   */\n      0x00\n        /* \"#utility.yul\":9862:9950   */\n      mstore\n        /* \"#utility.yul\":9969:9973   */\n      0x11\n        /* \"#utility.yul\":9966:9967   */\n      0x04\n        /* \"#utility.yul\":9959:9974   */\n      mstore\n        /* \"#utility.yul\":9993:9997   */\n      0x24\n        /* \"#utility.yul\":9990:9991   */\n      0x00\n        /* \"#utility.yul\":9983:9998   */\n      revert\n        /* \"#utility.yul\":10010:10177   */\n    tag_104:\n        /* \"#utility.yul\":10047:10050   */\n      0x00\n        /* \"#utility.yul\":10070:10092   */\n      tag_288\n        /* \"#utility.yul\":10086:10091   */\n      dup3\n        /* \"#utility.yul\":10070:10092   */\n      tag_166\n      jump\t// in\n    tag_288:\n        /* \"#utility.yul\":10061:10092   */\n      swap2\n      pop\n        /* \"#utility.yul\":10114:10118   */\n      0xff\n        /* \"#utility.yul\":10107:10112   */\n      dup3\n        /* \"#utility.yul\":10104:10119   */\n      sub\n        /* \"#utility.yul\":10101:10142   */\n      tag_289\n      jumpi\n        /* \"#utility.yul\":10122:10140   */\n      tag_290\n      tag_191\n      jump\t// in\n    tag_290:\n        /* \"#utility.yul\":10101:10142   */\n    tag_289:\n        /* \"#utility.yul\":10169:10170   */\n      0x01\n        /* \"#utility.yul\":10162:10167   */\n      dup3\n        /* \"#utility.yul\":10158:10171   */\n      add\n        /* \"#utility.yul\":10151:10171   */\n      swap1\n      pop\n        /* \"#utility.yul\":10010:10177   */\n      swap2\n      swap1\n      pop\n      jump\t// out\n        /* \"#utility.yul\":10183:10345   */\n    tag_192:\n        /* \"#utility.yul\":10323:10337   */\n      0x4e6f7420616c6c6f7765642e0000000000000000000000000000000000000000\n        /* \"#utility.yul\":10319:10320   */\n      0x00\n        /* \"#utility.yul\":10311:10317   */\n      dup3\n        /* \"#utility.yul\":10307:10321   */\n      add\n        /* \"#utility.yul\":10300:10338   */\n      mstore\n        /* \"#utility.yul\":10183:10345   */\n      pop\n      jump\t// out\n        /* \"#utility.yul\":10351:10717   */\n    tag_193:\n        /* \"#utility.yul\":10493:10496   */\n      0x00\n        /* \"#utility.yul\":10514:10581   */\n      tag_293\n        /* \"#utility.yul\":10578:10580   */\n      0x0c\n        /* \"#utility.yul\":10573:10576   */\n      dup4\n        /* \"#utility.yul\":10514:10581   */\n      tag_172\n      jump\t// in\n    tag_293:\n        /* \"#utility.yul\":10507:10581   */\n      swap2\n      pop\n        /* \"#utility.yul\":10590:10683   */\n      tag_294\n        /* \"#utility.yul\":10679:10682   */\n      dup3\n        /* \"#utility.yul\":10590:10683   */\n      tag_192\n      jump\t// in\n    tag_294:\n        /* \"#utility.yul\":10708:10710   */\n      0x20\n        /* \"#utility.yul\":10703:10706   */\n      dup3\n        /* \"#utility.yul\":10699:10711   */\n      add\n        /* \"#utility.yul\":10692:10711   */\n      swap1\n      pop\n        /* \"#utility.yul\":10351:10717   */\n      swap2\n      swap1\n      pop\n      jump\t// out\n        /* \"#utility.yul\":10723:11142   */\n    tag_111:\n        /* \"#utility.yul\":10889:10893   */\n      0x00\n        /* \"#utility.yul\":10927:10929   */\n      0x20\n        /* \"#utility.yul\":10916:10925   */\n      dup3\n        /* \"#utility.yul\":10912:10930   */\n      add\n        /* \"#utility.yul\":10904:10930   */\n      swap1\n      pop\n        /* \"#utility.yul\":10976:10985   */\n      dup2\n        /* \"#utility.yul\":10970:10974   */\n      dup2\n        /* \"#utility.yul\":10966:10986   */\n      sub\n        /* \"#utility.yul\":10962:10963   */\n      0x00\n        /* \"#utility.yul\":10951:10960   */\n      dup4\n        /* \"#utility.yul\":10947:10964   */\n      add\n        /* \"#utility.yul\":10940:10987   */\n      mstore\n        /* \"#utility.yul\":11004:11135   */\n      tag_296\n        /* \"#utility.yul\":11130:11134   */\n      dup2\n        /* \"#utility.yul\":11004:11135   */\n      tag_193\n      jump\t// in\n    tag_296:\n        /* \"#utility.yul\":10996:11135   */\n      swap1\n      pop\n        /* \"#utility.yul\":10723:11142   */\n      swap2\n      swap1\n      pop\n      jump\t// out\n        /* \"#utility.yul\":11148:11323   */\n    tag_194:\n        /* \"#utility.yul\":11288:11315   */\n      0x53746174696f6e2076616c756520697320696e76616c69642e00000000000000\n        /* \"#utility.yul\":11284:11285   */\n      0x00\n        /* \"#utility.yul\":11276:11282   */\n      dup3\n        /* \"#utility.yul\":11272:11286   */\n      add\n        /* \"#utility.yul\":11265:11316   */\n      mstore\n        /* \"#utility.yul\":11148:11323   */\n      pop\n      jump\t// out\n        /* \"#utility.yul\":11329:11695   */\n    tag_195:\n        /* \"#utility.yul\":11471:11474   */\n      0x00\n        /* \"#utility.yul\":11492:11559   */\n      tag_299\n        /* \"#utility.yul\":11556:11558   */\n      0x19\n        /* \"#utility.yul\":11551:11554   */\n      dup4\n        /* \"#utility.yul\":11492:11559   */\n      tag_172\n      jump\t// in\n    tag_299:\n        /* \"#utility.yul\":11485:11559   */\n      swap2\n      pop\n        /* \"#utility.yul\":11568:11661   */\n      tag_300\n        /* \"#utility.yul\":11657:11660   */\n      dup3\n        /* \"#utility.yul\":11568:11661   */\n      tag_194\n      jump\t// in\n    tag_300:\n        /* \"#utility.yul\":11686:11688   */\n      0x20\n        /* \"#utility.yul\":11681:11684   */\n      dup3\n        /* \"#utility.yul\":11677:11689   */\n      add\n        /* \"#utility.yul\":11670:11689   */\n      swap1\n      pop\n        /* \"#utility.yul\":11329:11695   */\n      swap2\n      swap1\n      pop\n      jump\t// out\n        /* \"#utility.yul\":11701:12120   */\n    tag_115:\n        /* \"#utility.yul\":11867:11871   */\n      0x00\n        /* \"#utility.yul\":11905:11907   */\n      0x20\n        /* \"#utility.yul\":11894:11903   */\n      dup3\n        /* \"#utility.yul\":11890:11908   */\n      add\n        /* \"#utility.yul\":11882:11908   */\n      swap1\n      pop\n        /* \"#utility.yul\":11954:11963   */\n      dup2\n        /* \"#utility.yul\":11948:11952   */\n      dup2\n        /* \"#utility.yul\":11944:11964   */\n      sub\n        /* \"#utility.yul\":11940:11941   */\n      0x00\n        /* \"#utility.yul\":11929:11938   */\n      dup4\n        /* \"#utility.yul\":11925:11942   */\n      add\n        /* \"#utility.yul\":11918:11965   */\n      mstore\n        /* \"#utility.yul\":11982:12113   */\n      tag_302\n        /* \"#utility.yul\":12108:12112   */\n      dup2\n        /* \"#utility.yul\":11982:12113   */\n      tag_195\n      jump\t// in\n    tag_302:\n        /* \"#utility.yul\":11974:12113   */\n      swap1\n      pop\n        /* \"#utility.yul\":11701:12120   */\n      swap2\n      swap1\n      pop\n      jump\t// out\n        /* \"#utility.yul\":12126:12297   */\n    tag_196:\n        /* \"#utility.yul\":12266:12289   */\n      0x426172636f646520616c726561647920757365642e0000000000000000000000\n        /* \"#utility.yul\":12262:12263   */\n      0x00\n        /* \"#utility.yul\":12254:12260   */\n      dup3\n        /* \"#utility.yul\":12250:12264   */\n      add\n        /* \"#utility.yul\":12243:12290   */\n      mstore\n        /* \"#utility.yul\":12126:12297   */\n      pop\n      jump\t// out\n        /* \"#utility.yul\":12303:12669   */\n    tag_197:\n        /* \"#utility.yul\":12445:12448   */\n      0x00\n        /* \"#utility.yul\":12466:12533   */\n      tag_305\n        /* \"#utility.yul\":12530:12532   */\n      0x15\n        /* \"#utility.yul\":12525:12528   */\n      dup4\n        /* \"#utility.yul\":12466:12533   */\n      tag_172\n      jump\t// in\n    tag_305:\n        /* \"#utility.yul\":12459:12533   */\n      swap2\n      pop\n        /* \"#utility.yul\":12542:12635   */\n      tag_306\n        /* \"#utility.yul\":12631:12634   */\n      dup3\n        /* \"#utility.yul\":12542:12635   */\n      tag_196\n      jump\t// in\n    tag_306:\n        /* \"#utility.yul\":12660:12662   */\n      0x20\n        /* \"#utility.yul\":12655:12658   */\n      dup3\n        /* \"#utility.yul\":12651:12663   */\n      add\n        /* \"#utility.yul\":12644:12663   */\n      swap1\n      pop\n        /* \"#utility.yul\":12303:12669   */\n      swap2\n      swap1\n      pop\n      jump\t// out\n        /* \"#utility.yul\":12675:13094   */\n    tag_119:\n        /* \"#utility.yul\":12841:12845   */\n      0x00\n        /* \"#utility.yul\":12879:12881   */\n      0x20\n        /* \"#utility.yul\":12868:12877   */\n      dup3\n        /* \"#utility.yul\":12864:12882   */\n      add\n        /* \"#utility.yul\":12856:12882   */\n      swap1\n      pop\n        /* \"#utility.yul\":12928:12937   */\n      dup2\n        /* \"#utility.yul\":12922:12926   */\n      dup2\n        /* \"#utility.yul\":12918:12938   */\n      sub\n        /* \"#utility.yul\":12914:12915   */\n      0x00\n        /* \"#utility.yul\":12903:12912   */\n      dup4\n        /* \"#utility.yul\":12899:12916   */\n      add\n        /* \"#utility.yul\":12892:12939   */\n      mstore\n        /* \"#utility.yul\":12956:13087   */\n      tag_308\n        /* \"#utility.yul\":13082:13086   */\n      dup2\n        /* \"#utility.yul\":12956:13087   */\n      tag_197\n      jump\t// in\n    tag_308:\n        /* \"#utility.yul\":12948:13087   */\n      swap1\n      pop\n        /* \"#utility.yul\":12675:13094   */\n      swap2\n      swap1\n      pop\n      jump\t// out\n        /* \"#utility.yul\":13100:13280   */\n    tag_135:\n        /* \"#utility.yul\":13148:13225   */\n      0x4e487b7100000000000000000000000000000000000000000000000000000000\n        /* \"#utility.yul\":13145:13146   */\n      0x00\n        /* \"#utility.yul\":13138:13226   */\n      mstore\n        /* \"#utility.yul\":13245:13249   */\n      0x41\n        /* \"#utility.yul\":13242:13243   */\n      0x04\n        /* \"#utility.yul\":13235:13250   */\n      mstore\n        /* \"#utility.yul\":13269:13273   */\n      0x24\n        /* \"#utility.yul\":13266:13267   */\n      0x00\n        /* \"#utility.yul\":13259:13274   */\n      revert\n        /* \"#utility.yul\":13286:13466   */\n    tag_141:\n        /* \"#utility.yul\":13334:13411   */\n      0x4e487b7100000000000000000000000000000000000000000000000000000000\n        /* \"#utility.yul\":13331:13332   */\n      0x00\n        /* \"#utility.yul\":13324:13412   */\n      mstore\n        /* \"#utility.yul\":13431:13435   */\n      0x12\n        /* \"#utility.yul\":13428:13429   */\n      0x04\n        /* \"#utility.yul\":13421:13436   */\n      mstore\n        /* \"#utility.yul\":13455:13459   */\n      0x24\n        /* \"#utility.yul\":13452:13453   */\n      0x00\n        /* \"#utility.yul\":13445:13460   */\n      revert\n\n    auxdata: 0xa26469706673582212206e6bfcdfe47b0b5d470371397891ff4c5e1ee483e260d58de170ac50b65d1e4464736f6c634300081a0033\n}\n",
				"bytecode": {
					"linkReferences": {},
					"object": "6080604052348015600e575f80fd5b503360025f6101000a81548173ffffffffffffffffffffffffffffffffffffffff021916908373ffffffffffffffffffffffffffffffffffffffff1602179055506112148061005c5f395ff3fe608060405234801561000f575f80fd5b5060043610610086575f3560e01c8063ba7e0b3011610059578063ba7e0b3014610124578063ca27386214610140578063d61d77461461015c578063f0350c041461018c57610086565b806328f0637e1461008a57806334d2c0ad146100ba5780637edc24c9146100d8578063aad337ad14610108575b5f80fd5b6100a4600480360381019061009f9190610bb2565b6101a8565b6040516100b19190610bf7565b60405180910390f35b6100c2610213565b6040516100cf9190610c80565b60405180910390f35b6100f260048036038101906100ed9190610bb2565b6102cb565b6040516100ff9190610caf565b60405180910390f35b610122600480360381019061011d9190610bb2565b610360565b005b61013e60048036038101906101399190610cc8565b61050c565b005b61015a60048036038101906101559190610d60565b610766565b005b61017660048036038101906101719190610bb2565b61084d565b6040516101839190610dad565b60405180910390f35b6101a660048036038101906101a19190610dc6565b61088b565b005b5f805f90505b600180549050811015610209578260ff16600182815481106101d3576101d2610df1565b5b905f5260205f20015f015f9054906101000a900460ff1660ff16036101fc57600191505061020e565b80806001019150506101ae565b505f90505b919050565b6060805f5b6001805490508110156102c3578161025c6001838154811061023d5761023c610df1565b5b905f5260205f20015f015f9054906101000a900460ff1660ff1661095d565b6102936001848154811061027357610272610df1565b5b905f5260205f20015f0160019054906101000a900460ff1660ff1661095d565b6040516020016102a593929190610eca565b60405160208183030381529060405291508080600101915050610218565b508091505090565b5f805f90505b600180549050811015610356578260ff16600182815481106102f6576102f5610df1565b5b905f5260205f20015f015f9054906101000a900460ff1660ff1603610349576001818154811061032957610328610df1565b5b905f5260205f20015f0160019054906101000a900460ff1691505061035b565b80806001019150506102d1565b505f90505b919050565b60025f9054906101000a900473ffffffffffffffffffffffffffffffffffffffff1673ffffffffffffffffffffffffffffffffffffffff163373ffffffffffffffffffffffffffffffffffffffff16146103ef576040517f08c379a00000000000000000000000000000000000000000000000000000000081526004016103e690610f71565b60405180910390fd5b5f5b600180549050811015610508578160ff166001828154811061041657610415610df1565b5b905f5260205f20015f015f9054906101000a900460ff1660ff16036104fb5760036001828154811061044b5761044a610df1565b5b905f5260205f20015f0160019054906101000a900460ff1660ff16036104a6576040517f08c379a000000000000000000000000000000000000000000000000000000000815260040161049d90610fd9565b60405180910390fd5b600181815481106104ba576104b9610df1565b5b905f5260205f20015f01600181819054906101000a900460ff16809291906104e190611024565b91906101000a81548160ff021916908360ff160217905550505b80806001019150506103f1565b5050565b60025f9054906101000a900473ffffffffffffffffffffffffffffffffffffffff1673ffffffffffffffffffffffffffffffffffffffff163373ffffffffffffffffffffffffffffffffffffffff161461059b576040517f08c379a000000000000000000000000000000000000000000000000000000000815260040161059290610f71565b60405180910390fd5b5f808260ff1660ff1681526020019081526020015f205f9054906101000a900473ffffffffffffffffffffffffffffffffffffffff1673ffffffffffffffffffffffffffffffffffffffff163373ffffffffffffffffffffffffffffffffffffffff161461063e576040517f08c379a000000000000000000000000000000000000000000000000000000000815260040161063590611096565b60405180910390fd5b60038160ff1611158015610656575060018160ff1610155b610695576040517f08c379a000000000000000000000000000000000000000000000000000000000815260040161068c906110fe565b60405180910390fd5b61069e826101a8565b156106de576040517f08c379a00000000000000000000000000000000000000000000000000000000081526004016106d590611166565b60405180910390fd5b5f60405180604001604052808460ff1681526020018360ff168152509050600181908060018154018082558091505060019003905f5260205f20015f909190919091505f820151815f015f6101000a81548160ff021916908360ff1602179055506020820151815f0160016101000a81548160ff021916908360ff1602179055505050505050565b60025f9054906101000a900473ffffffffffffffffffffffffffffffffffffffff1673ffffffffffffffffffffffffffffffffffffffff163373ffffffffffffffffffffffffffffffffffffffff16146107f5576040517f08c379a00000000000000000000000000000000000000000000000000000000081526004016107ec90610f71565b60405180910390fd5b805f808460ff1660ff1681526020019081526020015f205f6101000a81548173ffffffffffffffffffffffffffffffffffffffff021916908373ffffffffffffffffffffffffffffffffffffffff1602179055505050565b5f805f8360ff1660ff1681526020019081526020015f205f9054906101000a900473ffffffffffffffffffffffffffffffffffffffff169050919050565b60025f9054906101000a900473ffffffffffffffffffffffffffffffffffffffff1673ffffffffffffffffffffffffffffffffffffffff163373ffffffffffffffffffffffffffffffffffffffff161461091a576040517f08c379a000000000000000000000000000000000000000000000000000000000815260040161091190610f71565b60405180910390fd5b8060025f6101000a81548173ffffffffffffffffffffffffffffffffffffffff021916908373ffffffffffffffffffffffffffffffffffffffff16021790555050565b60605f600161096b84610a27565b0190505f8167ffffffffffffffff81111561098957610988611184565b5b6040519080825280601f01601f1916602001820160405280156109bb5781602001600182028036833780820191505090505b5090505f82602001820190505b600115610a1c578080600190039150507f3031323334353637383961626364656600000000000000000000000000000000600a86061a8153600a8581610a1157610a106111b1565b5b0494505f85036109c8575b819350505050919050565b5f805f90507a184f03e93ff9f4daa797ed6e38ed64bf6a1f0100000000000000008310610a83577a184f03e93ff9f4daa797ed6e38ed64bf6a1f0100000000000000008381610a7957610a786111b1565b5b0492506040810190505b6d04ee2d6d415b85acef81000000008310610ac0576d04ee2d6d415b85acef81000000008381610ab657610ab56111b1565b5b0492506020810190505b662386f26fc100008310610aef57662386f26fc100008381610ae557610ae46111b1565b5b0492506010810190505b6305f5e1008310610b18576305f5e1008381610b0e57610b0d6111b1565b5b0492506008810190505b6127108310610b3d576127108381610b3357610b326111b1565b5b0492506004810190505b60648310610b605760648381610b5657610b556111b1565b5b0492506002810190505b600a8310610b6f576001810190505b80915050919050565b5f80fd5b5f60ff82169050919050565b610b9181610b7c565b8114610b9b575f80fd5b50565b5f81359050610bac81610b88565b92915050565b5f60208284031215610bc757610bc6610b78565b5b5f610bd484828501610b9e565b91505092915050565b5f8115159050919050565b610bf181610bdd565b82525050565b5f602082019050610c0a5f830184610be8565b92915050565b5f81519050919050565b5f82825260208201905092915050565b8281835e5f83830152505050565b5f601f19601f8301169050919050565b5f610c5282610c10565b610c5c8185610c1a565b9350610c6c818560208601610c2a565b610c7581610c38565b840191505092915050565b5f6020820190508181035f830152610c988184610c48565b905092915050565b610ca981610b7c565b82525050565b5f602082019050610cc25f830184610ca0565b92915050565b5f8060408385031215610cde57610cdd610b78565b5b5f610ceb85828601610b9e565b9250506020610cfc85828601610b9e565b9150509250929050565b5f73ffffffffffffffffffffffffffffffffffffffff82169050919050565b5f610d2f82610d06565b9050919050565b610d3f81610d25565b8114610d49575f80fd5b50565b5f81359050610d5a81610d36565b92915050565b5f8060408385031215610d7657610d75610b78565b5b5f610d8385828601610b9e565b9250506020610d9485828601610d4c565b9150509250929050565b610da781610d25565b82525050565b5f602082019050610dc05f830184610d9e565b92915050565b5f60208284031215610ddb57610dda610b78565b5b5f610de884828501610d4c565b91505092915050565b7f4e487b71000000000000000000000000000000000000000000000000000000005f52603260045260245ffd5b5f81905092915050565b5f610e3282610c10565b610e3c8185610e1e565b9350610e4c818560208601610c2a565b80840191505092915050565b7f426172636f64653a200000000000000000000000000000000000000000000000815250565b7f2053746174696f6e3a2000000000000000000000000000000000000000000000815250565b7f2000000000000000000000000000000000000000000000000000000000000000815250565b5f610ed58286610e28565b9150610ee082610e58565b600982019150610ef08285610e28565b9150610efb82610e7e565b600a82019150610f0b8284610e28565b9150610f1682610ea4565b600182019150819050949350505050565b7f54686973206973206f6e6c79206f776e65722066756e6374696f6e00000000005f82015250565b5f610f5b601b83610c1a565b9150610f6682610f27565b602082019050919050565b5f6020820190508181035f830152610f8881610f4f565b9050919050565b7f497420697320696e20746865206c6173742073746174696f6e000000000000005f82015250565b5f610fc3601983610c1a565b9150610fce82610f8f565b602082019050919050565b5f6020820190508181035f830152610ff081610fb7565b9050919050565b7f4e487b71000000000000000000000000000000000000000000000000000000005f52601160045260245ffd5b5f61102e82610b7c565b915060ff820361104157611040610ff7565b5b600182019050919050565b7f4e6f7420616c6c6f7765642e00000000000000000000000000000000000000005f82015250565b5f611080600c83610c1a565b915061108b8261104c565b602082019050919050565b5f6020820190508181035f8301526110ad81611074565b9050919050565b7f53746174696f6e2076616c756520697320696e76616c69642e000000000000005f82015250565b5f6110e8601983610c1a565b91506110f3826110b4565b602082019050919050565b5f6020820190508181035f830152611115816110dc565b9050919050565b7f426172636f646520616c726561647920757365642e00000000000000000000005f82015250565b5f611150601583610c1a565b915061115b8261111c565b602082019050919050565b5f6020820190508181035f83015261117d81611144565b9050919050565b7f4e487b71000000000000000000000000000000000000000000000000000000005f52604160045260245ffd5b7f4e487b71000000000000000000000000000000000000000000000000000000005f52601260045260245ffdfea26469706673582212206e6bfcdfe47b0b5d470371397891ff4c5e1ee483e260d58de170ac50b65d1e4464736f6c634300081a0033",
					"opcodes": "PUSH1 0x80 PUSH1 0x40 MSTORE CALLVALUE DUP1 ISZERO PUSH1 0xE JUMPI PUSH0 DUP1 REVERT JUMPDEST POP CALLER PUSH1 0x2 PUSH0 PUSH2 0x100 EXP DUP2 SLOAD DUP2 PUSH20 0xFFFFFFFFFFFFFFFFFFFFFFFFFFFFFFFFFFFFFFFF MUL NOT AND SWAP1 DUP4 PUSH20 0xFFFFFFFFFFFFFFFFFFFFFFFFFFFFFFFFFFFFFFFF AND MUL OR SWAP1 SSTORE POP PUSH2 0x1214 DUP1 PUSH2 0x5C PUSH0 CODECOPY PUSH0 RETURN INVALID PUSH1 0x80 PUSH1 0x40 MSTORE CALLVALUE DUP1 ISZERO PUSH2 0xF JUMPI PUSH0 DUP1 REVERT JUMPDEST POP PUSH1 0x4 CALLDATASIZE LT PUSH2 0x86 JUMPI PUSH0 CALLDATALOAD PUSH1 0xE0 SHR DUP1 PUSH4 0xBA7E0B30 GT PUSH2 0x59 JUMPI DUP1 PUSH4 0xBA7E0B30 EQ PUSH2 0x124 JUMPI DUP1 PUSH4 0xCA273862 EQ PUSH2 0x140 JUMPI DUP1 PUSH4 0xD61D7746 EQ PUSH2 0x15C JUMPI DUP1 PUSH4 0xF0350C04 EQ PUSH2 0x18C JUMPI PUSH2 0x86 JUMP JUMPDEST DUP1 PUSH4 0x28F0637E EQ PUSH2 0x8A JUMPI DUP1 PUSH4 0x34D2C0AD EQ PUSH2 0xBA JUMPI DUP1 PUSH4 0x7EDC24C9 EQ PUSH2 0xD8 JUMPI DUP1 PUSH4 0xAAD337AD EQ PUSH2 0x108 JUMPI JUMPDEST PUSH0 DUP1 REVERT JUMPDEST PUSH2 0xA4 PUSH1 0x4 DUP1 CALLDATASIZE SUB DUP2 ADD SWAP1 PUSH2 0x9F SWAP2 SWAP1 PUSH2 0xBB2 JUMP JUMPDEST PUSH2 0x1A8 JUMP JUMPDEST PUSH1 0x40 MLOAD PUSH2 0xB1 SWAP2 SWAP1 PUSH2 0xBF7 JUMP JUMPDEST PUSH1 0x40 MLOAD DUP1 SWAP2 SUB SWAP1 RETURN JUMPDEST PUSH2 0xC2 PUSH2 0x213 JUMP JUMPDEST PUSH1 0x40 MLOAD PUSH2 0xCF SWAP2 SWAP1 PUSH2 0xC80 JUMP JUMPDEST PUSH1 0x40 MLOAD DUP1 SWAP2 SUB SWAP1 RETURN JUMPDEST PUSH2 0xF2 PUSH1 0x4 DUP1 CALLDATASIZE SUB DUP2 ADD SWAP1 PUSH2 0xED SWAP2 SWAP1 PUSH2 0xBB2 JUMP JUMPDEST PUSH2 0x2CB JUMP JUMPDEST PUSH1 0x40 MLOAD PUSH2 0xFF SWAP2 SWAP1 PUSH2 0xCAF JUMP JUMPDEST PUSH1 0x40 MLOAD DUP1 SWAP2 SUB SWAP1 RETURN JUMPDEST PUSH2 0x122 PUSH1 0x4 DUP1 CALLDATASIZE SUB DUP2 ADD SWAP1 PUSH2 0x11D SWAP2 SWAP1 PUSH2 0xBB2 JUMP JUMPDEST PUSH2 0x360 JUMP JUMPDEST STOP JUMPDEST PUSH2 0x13E PUSH1 0x4 DUP1 CALLDATASIZE SUB DUP2 ADD SWAP1 PUSH2 0x139 SWAP2 SWAP1 PUSH2 0xCC8 JUMP JUMPDEST PUSH2 0x50C JUMP JUMPDEST STOP JUMPDEST PUSH2 0x15A PUSH1 0x4 DUP1 CALLDATASIZE SUB DUP2 ADD SWAP1 PUSH2 0x155 SWAP2 SWAP1 PUSH2 0xD60 JUMP JUMPDEST PUSH2 0x766 JUMP JUMPDEST STOP JUMPDEST PUSH2 0x176 PUSH1 0x4 DUP1 CALLDATASIZE SUB DUP2 ADD SWAP1 PUSH2 0x171 SWAP2 SWAP1 PUSH2 0xBB2 JUMP JUMPDEST PUSH2 0x84D JUMP JUMPDEST PUSH1 0x40 MLOAD PUSH2 0x183 SWAP2 SWAP1 PUSH2 0xDAD JUMP JUMPDEST PUSH1 0x40 MLOAD DUP1 SWAP2 SUB SWAP1 RETURN JUMPDEST PUSH2 0x1A6 PUSH1 0x4 DUP1 CALLDATASIZE SUB DUP2 ADD SWAP1 PUSH2 0x1A1 SWAP2 SWAP1 PUSH2 0xDC6 JUMP JUMPDEST PUSH2 0x88B JUMP JUMPDEST STOP JUMPDEST PUSH0 DUP1 PUSH0 SWAP1 POP JUMPDEST PUSH1 0x1 DUP1 SLOAD SWAP1 POP DUP2 LT ISZERO PUSH2 0x209 JUMPI DUP3 PUSH1 0xFF AND PUSH1 0x1 DUP3 DUP2 SLOAD DUP2 LT PUSH2 0x1D3 JUMPI PUSH2 0x1D2 PUSH2 0xDF1 JUMP JUMPDEST JUMPDEST SWAP1 PUSH0 MSTORE PUSH1 0x20 PUSH0 KECCAK256 ADD PUSH0 ADD PUSH0 SWAP1 SLOAD SWAP1 PUSH2 0x100 EXP SWAP1 DIV PUSH1 0xFF AND PUSH1 0xFF AND SUB PUSH2 0x1FC JUMPI PUSH1 0x1 SWAP2 POP POP PUSH2 0x20E JUMP JUMPDEST DUP1 DUP1 PUSH1 0x1 ADD SWAP2 POP POP PUSH2 0x1AE JUMP JUMPDEST POP PUSH0 SWAP1 POP JUMPDEST SWAP2 SWAP1 POP JUMP JUMPDEST PUSH1 0x60 DUP1 PUSH0 JUMPDEST PUSH1 0x1 DUP1 SLOAD SWAP1 POP DUP2 LT ISZERO PUSH2 0x2C3 JUMPI DUP2 PUSH2 0x25C PUSH1 0x1 DUP4 DUP2 SLOAD DUP2 LT PUSH2 0x23D JUMPI PUSH2 0x23C PUSH2 0xDF1 JUMP JUMPDEST JUMPDEST SWAP1 PUSH0 MSTORE PUSH1 0x20 PUSH0 KECCAK256 ADD PUSH0 ADD PUSH0 SWAP1 SLOAD SWAP1 PUSH2 0x100 EXP SWAP1 DIV PUSH1 0xFF AND PUSH1 0xFF AND PUSH2 0x95D JUMP JUMPDEST PUSH2 0x293 PUSH1 0x1 DUP5 DUP2 SLOAD DUP2 LT PUSH2 0x273 JUMPI PUSH2 0x272 PUSH2 0xDF1 JUMP JUMPDEST JUMPDEST SWAP1 PUSH0 MSTORE PUSH1 0x20 PUSH0 KECCAK256 ADD PUSH0 ADD PUSH1 0x1 SWAP1 SLOAD SWAP1 PUSH2 0x100 EXP SWAP1 DIV PUSH1 0xFF AND PUSH1 0xFF AND PUSH2 0x95D JUMP JUMPDEST PUSH1 0x40 MLOAD PUSH1 0x20 ADD PUSH2 0x2A5 SWAP4 SWAP3 SWAP2 SWAP1 PUSH2 0xECA JUMP JUMPDEST PUSH1 0x40 MLOAD PUSH1 0x20 DUP2 DUP4 SUB SUB DUP2 MSTORE SWAP1 PUSH1 0x40 MSTORE SWAP2 POP DUP1 DUP1 PUSH1 0x1 ADD SWAP2 POP POP PUSH2 0x218 JUMP JUMPDEST POP DUP1 SWAP2 POP POP SWAP1 JUMP JUMPDEST PUSH0 DUP1 PUSH0 SWAP1 POP JUMPDEST PUSH1 0x1 DUP1 SLOAD SWAP1 POP DUP2 LT ISZERO PUSH2 0x356 JUMPI DUP3 PUSH1 0xFF AND PUSH1 0x1 DUP3 DUP2 SLOAD DUP2 LT PUSH2 0x2F6 JUMPI PUSH2 0x2F5 PUSH2 0xDF1 JUMP JUMPDEST JUMPDEST SWAP1 PUSH0 MSTORE PUSH1 0x20 PUSH0 KECCAK256 ADD PUSH0 ADD PUSH0 SWAP1 SLOAD SWAP1 PUSH2 0x100 EXP SWAP1 DIV PUSH1 0xFF AND PUSH1 0xFF AND SUB PUSH2 0x349 JUMPI PUSH1 0x1 DUP2 DUP2 SLOAD DUP2 LT PUSH2 0x329 JUMPI PUSH2 0x328 PUSH2 0xDF1 JUMP JUMPDEST JUMPDEST SWAP1 PUSH0 MSTORE PUSH1 0x20 PUSH0 KECCAK256 ADD PUSH0 ADD PUSH1 0x1 SWAP1 SLOAD SWAP1 PUSH2 0x100 EXP SWAP1 DIV PUSH1 0xFF AND SWAP2 POP POP PUSH2 0x35B JUMP JUMPDEST DUP1 DUP1 PUSH1 0x1 ADD SWAP2 POP POP PUSH2 0x2D1 JUMP JUMPDEST POP PUSH0 SWAP1 POP JUMPDEST SWAP2 SWAP1 POP JUMP JUMPDEST PUSH1 0x2 PUSH0 SWAP1 SLOAD SWAP1 PUSH2 0x100 EXP SWAP1 DIV PUSH20 0xFFFFFFFFFFFFFFFFFFFFFFFFFFFFFFFFFFFFFFFF AND PUSH20 0xFFFFFFFFFFFFFFFFFFFFFFFFFFFFFFFFFFFFFFFF AND CALLER PUSH20 0xFFFFFFFFFFFFFFFFFFFFFFFFFFFFFFFFFFFFFFFF AND EQ PUSH2 0x3EF JUMPI PUSH1 0x40 MLOAD PUSH32 0x8C379A000000000000000000000000000000000000000000000000000000000 DUP2 MSTORE PUSH1 0x4 ADD PUSH2 0x3E6 SWAP1 PUSH2 0xF71 JUMP JUMPDEST PUSH1 0x40 MLOAD DUP1 SWAP2 SUB SWAP1 REVERT JUMPDEST PUSH0 JUMPDEST PUSH1 0x1 DUP1 SLOAD SWAP1 POP DUP2 LT ISZERO PUSH2 0x508 JUMPI DUP2 PUSH1 0xFF AND PUSH1 0x1 DUP3 DUP2 SLOAD DUP2 LT PUSH2 0x416 JUMPI PUSH2 0x415 PUSH2 0xDF1 JUMP JUMPDEST JUMPDEST SWAP1 PUSH0 MSTORE PUSH1 0x20 PUSH0 KECCAK256 ADD PUSH0 ADD PUSH0 SWAP1 SLOAD SWAP1 PUSH2 0x100 EXP SWAP1 DIV PUSH1 0xFF AND PUSH1 0xFF AND SUB PUSH2 0x4FB JUMPI PUSH1 0x3 PUSH1 0x1 DUP3 DUP2 SLOAD DUP2 LT PUSH2 0x44B JUMPI PUSH2 0x44A PUSH2 0xDF1 JUMP JUMPDEST JUMPDEST SWAP1 PUSH0 MSTORE PUSH1 0x20 PUSH0 KECCAK256 ADD PUSH0 ADD PUSH1 0x1 SWAP1 SLOAD SWAP1 PUSH2 0x100 EXP SWAP1 DIV PUSH1 0xFF AND PUSH1 0xFF AND SUB PUSH2 0x4A6 JUMPI PUSH1 0x40 MLOAD PUSH32 0x8C379A000000000000000000000000000000000000000000000000000000000 DUP2 MSTORE PUSH1 0x4 ADD PUSH2 0x49D SWAP1 PUSH2 0xFD9 JUMP JUMPDEST PUSH1 0x40 MLOAD DUP1 SWAP2 SUB SWAP1 REVERT JUMPDEST PUSH1 0x1 DUP2 DUP2 SLOAD DUP2 LT PUSH2 0x4BA JUMPI PUSH2 0x4B9 PUSH2 0xDF1 JUMP JUMPDEST JUMPDEST SWAP1 PUSH0 MSTORE PUSH1 0x20 PUSH0 KECCAK256 ADD PUSH0 ADD PUSH1 0x1 DUP2 DUP2 SWAP1 SLOAD SWAP1 PUSH2 0x100 EXP SWAP1 DIV PUSH1 0xFF AND DUP1 SWAP3 SWAP2 SWAP1 PUSH2 0x4E1 SWAP1 PUSH2 0x1024 JUMP JUMPDEST SWAP2 SWAP1 PUSH2 0x100 EXP DUP2 SLOAD DUP2 PUSH1 0xFF MUL NOT AND SWAP1 DUP4 PUSH1 0xFF AND MUL OR SWAP1 SSTORE POP POP JUMPDEST DUP1 DUP1 PUSH1 0x1 ADD SWAP2 POP POP PUSH2 0x3F1 JUMP JUMPDEST POP POP JUMP JUMPDEST PUSH1 0x2 PUSH0 SWAP1 SLOAD SWAP1 PUSH2 0x100 EXP SWAP1 DIV PUSH20 0xFFFFFFFFFFFFFFFFFFFFFFFFFFFFFFFFFFFFFFFF AND PUSH20 0xFFFFFFFFFFFFFFFFFFFFFFFFFFFFFFFFFFFFFFFF AND CALLER PUSH20 0xFFFFFFFFFFFFFFFFFFFFFFFFFFFFFFFFFFFFFFFF AND EQ PUSH2 0x59B JUMPI PUSH1 0x40 MLOAD PUSH32 0x8C379A000000000000000000000000000000000000000000000000000000000 DUP2 MSTORE PUSH1 0x4 ADD PUSH2 0x592 SWAP1 PUSH2 0xF71 JUMP JUMPDEST PUSH1 0x40 MLOAD DUP1 SWAP2 SUB SWAP1 REVERT JUMPDEST PUSH0 DUP1 DUP3 PUSH1 0xFF AND PUSH1 0xFF AND DUP2 MSTORE PUSH1 0x20 ADD SWAP1 DUP2 MSTORE PUSH1 0x20 ADD PUSH0 KECCAK256 PUSH0 SWAP1 SLOAD SWAP1 PUSH2 0x100 EXP SWAP1 DIV PUSH20 0xFFFFFFFFFFFFFFFFFFFFFFFFFFFFFFFFFFFFFFFF AND PUSH20 0xFFFFFFFFFFFFFFFFFFFFFFFFFFFFFFFFFFFFFFFF AND CALLER PUSH20 0xFFFFFFFFFFFFFFFFFFFFFFFFFFFFFFFFFFFFFFFF AND EQ PUSH2 0x63E JUMPI PUSH1 0x40 MLOAD PUSH32 0x8C379A000000000000000000000000000000000000000000000000000000000 DUP2 MSTORE PUSH1 0x4 ADD PUSH2 0x635 SWAP1 PUSH2 0x1096 JUMP JUMPDEST PUSH1 0x40 MLOAD DUP1 SWAP2 SUB SWAP1 REVERT JUMPDEST PUSH1 0x3 DUP2 PUSH1 0xFF AND GT ISZERO DUP1 ISZERO PUSH2 0x656 JUMPI POP PUSH1 0x1 DUP2 PUSH1 0xFF AND LT ISZERO JUMPDEST PUSH2 0x695 JUMPI PUSH1 0x40 MLOAD PUSH32 0x8C379A000000000000000000000000000000000000000000000000000000000 DUP2 MSTORE PUSH1 0x4 ADD PUSH2 0x68C SWAP1 PUSH2 0x10FE JUMP JUMPDEST PUSH1 0x40 MLOAD DUP1 SWAP2 SUB SWAP1 REVERT JUMPDEST PUSH2 0x69E DUP3 PUSH2 0x1A8 JUMP JUMPDEST ISZERO PUSH2 0x6DE JUMPI PUSH1 0x40 MLOAD PUSH32 0x8C379A000000000000000000000000000000000000000000000000000000000 DUP2 MSTORE PUSH1 0x4 ADD PUSH2 0x6D5 SWAP1 PUSH2 0x1166 JUMP JUMPDEST PUSH1 0x40 MLOAD DUP1 SWAP2 SUB SWAP1 REVERT JUMPDEST PUSH0 PUSH1 0x40 MLOAD DUP1 PUSH1 0x40 ADD PUSH1 0x40 MSTORE DUP1 DUP5 PUSH1 0xFF AND DUP2 MSTORE PUSH1 0x20 ADD DUP4 PUSH1 0xFF AND DUP2 MSTORE POP SWAP1 POP PUSH1 0x1 DUP2 SWAP1 DUP1 PUSH1 0x1 DUP2 SLOAD ADD DUP1 DUP3 SSTORE DUP1 SWAP2 POP POP PUSH1 0x1 SWAP1 SUB SWAP1 PUSH0 MSTORE PUSH1 0x20 PUSH0 KECCAK256 ADD PUSH0 SWAP1 SWAP2 SWAP1 SWAP2 SWAP1 SWAP2 POP PUSH0 DUP3 ADD MLOAD DUP2 PUSH0 ADD PUSH0 PUSH2 0x100 EXP DUP2 SLOAD DUP2 PUSH1 0xFF MUL NOT AND SWAP1 DUP4 PUSH1 0xFF AND MUL OR SWAP1 SSTORE POP PUSH1 0x20 DUP3 ADD MLOAD DUP2 PUSH0 ADD PUSH1 0x1 PUSH2 0x100 EXP DUP2 SLOAD DUP2 PUSH1 0xFF MUL NOT AND SWAP1 DUP4 PUSH1 0xFF AND MUL OR SWAP1 SSTORE POP POP POP POP POP POP JUMP JUMPDEST PUSH1 0x2 PUSH0 SWAP1 SLOAD SWAP1 PUSH2 0x100 EXP SWAP1 DIV PUSH20 0xFFFFFFFFFFFFFFFFFFFFFFFFFFFFFFFFFFFFFFFF AND PUSH20 0xFFFFFFFFFFFFFFFFFFFFFFFFFFFFFFFFFFFFFFFF AND CALLER PUSH20 0xFFFFFFFFFFFFFFFFFFFFFFFFFFFFFFFFFFFFFFFF AND EQ PUSH2 0x7F5 JUMPI PUSH1 0x40 MLOAD PUSH32 0x8C379A000000000000000000000000000000000000000000000000000000000 DUP2 MSTORE PUSH1 0x4 ADD PUSH2 0x7EC SWAP1 PUSH2 0xF71 JUMP JUMPDEST PUSH1 0x40 MLOAD DUP1 SWAP2 SUB SWAP1 REVERT JUMPDEST DUP1 PUSH0 DUP1 DUP5 PUSH1 0xFF AND PUSH1 0xFF AND DUP2 MSTORE PUSH1 0x20 ADD SWAP1 DUP2 MSTORE PUSH1 0x20 ADD PUSH0 KECCAK256 PUSH0 PUSH2 0x100 EXP DUP2 SLOAD DUP2 PUSH20 0xFFFFFFFFFFFFFFFFFFFFFFFFFFFFFFFFFFFFFFFF MUL NOT AND SWAP1 DUP4 PUSH20 0xFFFFFFFFFFFFFFFFFFFFFFFFFFFFFFFFFFFFFFFF AND MUL OR SWAP1 SSTORE POP POP POP JUMP JUMPDEST PUSH0 DUP1 PUSH0 DUP4 PUSH1 0xFF AND PUSH1 0xFF AND DUP2 MSTORE PUSH1 0x20 ADD SWAP1 DUP2 MSTORE PUSH1 0x20 ADD PUSH0 KECCAK256 PUSH0 SWAP1 SLOAD SWAP1 PUSH2 0x100 EXP SWAP1 DIV PUSH20 0xFFFFFFFFFFFFFFFFFFFFFFFFFFFFFFFFFFFFFFFF AND SWAP1 POP SWAP2 SWAP1 POP JUMP JUMPDEST PUSH1 0x2 PUSH0 SWAP1 SLOAD SWAP1 PUSH2 0x100 EXP SWAP1 DIV PUSH20 0xFFFFFFFFFFFFFFFFFFFFFFFFFFFFFFFFFFFFFFFF AND PUSH20 0xFFFFFFFFFFFFFFFFFFFFFFFFFFFFFFFFFFFFFFFF AND CALLER PUSH20 0xFFFFFFFFFFFFFFFFFFFFFFFFFFFFFFFFFFFFFFFF AND EQ PUSH2 0x91A JUMPI PUSH1 0x40 MLOAD PUSH32 0x8C379A000000000000000000000000000000000000000000000000000000000 DUP2 MSTORE PUSH1 0x4 ADD PUSH2 0x911 SWAP1 PUSH2 0xF71 JUMP JUMPDEST PUSH1 0x40 MLOAD DUP1 SWAP2 SUB SWAP1 REVERT JUMPDEST DUP1 PUSH1 0x2 PUSH0 PUSH2 0x100 EXP DUP2 SLOAD DUP2 PUSH20 0xFFFFFFFFFFFFFFFFFFFFFFFFFFFFFFFFFFFFFFFF MUL NOT AND SWAP1 DUP4 PUSH20 0xFFFFFFFFFFFFFFFFFFFFFFFFFFFFFFFFFFFFFFFF AND MUL OR SWAP1 SSTORE POP POP JUMP JUMPDEST PUSH1 0x60 PUSH0 PUSH1 0x1 PUSH2 0x96B DUP5 PUSH2 0xA27 JUMP JUMPDEST ADD SWAP1 POP PUSH0 DUP2 PUSH8 0xFFFFFFFFFFFFFFFF DUP2 GT ISZERO PUSH2 0x989 JUMPI PUSH2 0x988 PUSH2 0x1184 JUMP JUMPDEST JUMPDEST PUSH1 0x40 MLOAD SWAP1 DUP1 DUP3 MSTORE DUP1 PUSH1 0x1F ADD PUSH1 0x1F NOT AND PUSH1 0x20 ADD DUP3 ADD PUSH1 0x40 MSTORE DUP1 ISZERO PUSH2 0x9BB JUMPI DUP2 PUSH1 0x20 ADD PUSH1 0x1 DUP3 MUL DUP1 CALLDATASIZE DUP4 CALLDATACOPY DUP1 DUP3 ADD SWAP2 POP POP SWAP1 POP JUMPDEST POP SWAP1 POP PUSH0 DUP3 PUSH1 0x20 ADD DUP3 ADD SWAP1 POP JUMPDEST PUSH1 0x1 ISZERO PUSH2 0xA1C JUMPI DUP1 DUP1 PUSH1 0x1 SWAP1 SUB SWAP2 POP POP PUSH32 0x3031323334353637383961626364656600000000000000000000000000000000 PUSH1 0xA DUP7 MOD BYTE DUP2 MSTORE8 PUSH1 0xA DUP6 DUP2 PUSH2 0xA11 JUMPI PUSH2 0xA10 PUSH2 0x11B1 JUMP JUMPDEST JUMPDEST DIV SWAP5 POP PUSH0 DUP6 SUB PUSH2 0x9C8 JUMPI JUMPDEST DUP2 SWAP4 POP POP POP POP SWAP2 SWAP1 POP JUMP JUMPDEST PUSH0 DUP1 PUSH0 SWAP1 POP PUSH27 0x184F03E93FF9F4DAA797ED6E38ED64BF6A1F010000000000000000 DUP4 LT PUSH2 0xA83 JUMPI PUSH27 0x184F03E93FF9F4DAA797ED6E38ED64BF6A1F010000000000000000 DUP4 DUP2 PUSH2 0xA79 JUMPI PUSH2 0xA78 PUSH2 0x11B1 JUMP JUMPDEST JUMPDEST DIV SWAP3 POP PUSH1 0x40 DUP2 ADD SWAP1 POP JUMPDEST PUSH14 0x4EE2D6D415B85ACEF8100000000 DUP4 LT PUSH2 0xAC0 JUMPI PUSH14 0x4EE2D6D415B85ACEF8100000000 DUP4 DUP2 PUSH2 0xAB6 JUMPI PUSH2 0xAB5 PUSH2 0x11B1 JUMP JUMPDEST JUMPDEST DIV SWAP3 POP PUSH1 0x20 DUP2 ADD SWAP1 POP JUMPDEST PUSH7 0x2386F26FC10000 DUP4 LT PUSH2 0xAEF JUMPI PUSH7 0x2386F26FC10000 DUP4 DUP2 PUSH2 0xAE5 JUMPI PUSH2 0xAE4 PUSH2 0x11B1 JUMP JUMPDEST JUMPDEST DIV SWAP3 POP PUSH1 0x10 DUP2 ADD SWAP1 POP JUMPDEST PUSH4 0x5F5E100 DUP4 LT PUSH2 0xB18 JUMPI PUSH4 0x5F5E100 DUP4 DUP2 PUSH2 0xB0E JUMPI PUSH2 0xB0D PUSH2 0x11B1 JUMP JUMPDEST JUMPDEST DIV SWAP3 POP PUSH1 0x8 DUP2 ADD SWAP1 POP JUMPDEST PUSH2 0x2710 DUP4 LT PUSH2 0xB3D JUMPI PUSH2 0x2710 DUP4 DUP2 PUSH2 0xB33 JUMPI PUSH2 0xB32 PUSH2 0x11B1 JUMP JUMPDEST JUMPDEST DIV SWAP3 POP PUSH1 0x4 DUP2 ADD SWAP1 POP JUMPDEST PUSH1 0x64 DUP4 LT PUSH2 0xB60 JUMPI PUSH1 0x64 DUP4 DUP2 PUSH2 0xB56 JUMPI PUSH2 0xB55 PUSH2 0x11B1 JUMP JUMPDEST JUMPDEST DIV SWAP3 POP PUSH1 0x2 DUP2 ADD SWAP1 POP JUMPDEST PUSH1 0xA DUP4 LT PUSH2 0xB6F JUMPI PUSH1 0x1 DUP2 ADD SWAP1 POP JUMPDEST DUP1 SWAP2 POP POP SWAP2 SWAP1 POP JUMP JUMPDEST PUSH0 DUP1 REVERT JUMPDEST PUSH0 PUSH1 0xFF DUP3 AND SWAP1 POP SWAP2 SWAP1 POP JUMP JUMPDEST PUSH2 0xB91 DUP2 PUSH2 0xB7C JUMP JUMPDEST DUP2 EQ PUSH2 0xB9B JUMPI PUSH0 DUP1 REVERT JUMPDEST POP JUMP JUMPDEST PUSH0 DUP2 CALLDATALOAD SWAP1 POP PUSH2 0xBAC DUP2 PUSH2 0xB88 JUMP JUMPDEST SWAP3 SWAP2 POP POP JUMP JUMPDEST PUSH0 PUSH1 0x20 DUP3 DUP5 SUB SLT ISZERO PUSH2 0xBC7 JUMPI PUSH2 0xBC6 PUSH2 0xB78 JUMP JUMPDEST JUMPDEST PUSH0 PUSH2 0xBD4 DUP5 DUP3 DUP6 ADD PUSH2 0xB9E JUMP JUMPDEST SWAP2 POP POP SWAP3 SWAP2 POP POP JUMP JUMPDEST PUSH0 DUP2 ISZERO ISZERO SWAP1 POP SWAP2 SWAP1 POP JUMP JUMPDEST PUSH2 0xBF1 DUP2 PUSH2 0xBDD JUMP JUMPDEST DUP3 MSTORE POP POP JUMP JUMPDEST PUSH0 PUSH1 0x20 DUP3 ADD SWAP1 POP PUSH2 0xC0A PUSH0 DUP4 ADD DUP5 PUSH2 0xBE8 JUMP JUMPDEST SWAP3 SWAP2 POP POP JUMP JUMPDEST PUSH0 DUP2 MLOAD SWAP1 POP SWAP2 SWAP1 POP JUMP JUMPDEST PUSH0 DUP3 DUP3 MSTORE PUSH1 0x20 DUP3 ADD SWAP1 POP SWAP3 SWAP2 POP POP JUMP JUMPDEST DUP3 DUP2 DUP4 MCOPY PUSH0 DUP4 DUP4 ADD MSTORE POP POP POP JUMP JUMPDEST PUSH0 PUSH1 0x1F NOT PUSH1 0x1F DUP4 ADD AND SWAP1 POP SWAP2 SWAP1 POP JUMP JUMPDEST PUSH0 PUSH2 0xC52 DUP3 PUSH2 0xC10 JUMP JUMPDEST PUSH2 0xC5C DUP2 DUP6 PUSH2 0xC1A JUMP JUMPDEST SWAP4 POP PUSH2 0xC6C DUP2 DUP6 PUSH1 0x20 DUP7 ADD PUSH2 0xC2A JUMP JUMPDEST PUSH2 0xC75 DUP2 PUSH2 0xC38 JUMP JUMPDEST DUP5 ADD SWAP2 POP POP SWAP3 SWAP2 POP POP JUMP JUMPDEST PUSH0 PUSH1 0x20 DUP3 ADD SWAP1 POP DUP2 DUP2 SUB PUSH0 DUP4 ADD MSTORE PUSH2 0xC98 DUP2 DUP5 PUSH2 0xC48 JUMP JUMPDEST SWAP1 POP SWAP3 SWAP2 POP POP JUMP JUMPDEST PUSH2 0xCA9 DUP2 PUSH2 0xB7C JUMP JUMPDEST DUP3 MSTORE POP POP JUMP JUMPDEST PUSH0 PUSH1 0x20 DUP3 ADD SWAP1 POP PUSH2 0xCC2 PUSH0 DUP4 ADD DUP5 PUSH2 0xCA0 JUMP JUMPDEST SWAP3 SWAP2 POP POP JUMP JUMPDEST PUSH0 DUP1 PUSH1 0x40 DUP4 DUP6 SUB SLT ISZERO PUSH2 0xCDE JUMPI PUSH2 0xCDD PUSH2 0xB78 JUMP JUMPDEST JUMPDEST PUSH0 PUSH2 0xCEB DUP6 DUP3 DUP7 ADD PUSH2 0xB9E JUMP JUMPDEST SWAP3 POP POP PUSH1 0x20 PUSH2 0xCFC DUP6 DUP3 DUP7 ADD PUSH2 0xB9E JUMP JUMPDEST SWAP2 POP POP SWAP3 POP SWAP3 SWAP1 POP JUMP JUMPDEST PUSH0 PUSH20 0xFFFFFFFFFFFFFFFFFFFFFFFFFFFFFFFFFFFFFFFF DUP3 AND SWAP1 POP SWAP2 SWAP1 POP JUMP JUMPDEST PUSH0 PUSH2 0xD2F DUP3 PUSH2 0xD06 JUMP JUMPDEST SWAP1 POP SWAP2 SWAP1 POP JUMP JUMPDEST PUSH2 0xD3F DUP2 PUSH2 0xD25 JUMP JUMPDEST DUP2 EQ PUSH2 0xD49 JUMPI PUSH0 DUP1 REVERT JUMPDEST POP JUMP JUMPDEST PUSH0 DUP2 CALLDATALOAD SWAP1 POP PUSH2 0xD5A DUP2 PUSH2 0xD36 JUMP JUMPDEST SWAP3 SWAP2 POP POP JUMP JUMPDEST PUSH0 DUP1 PUSH1 0x40 DUP4 DUP6 SUB SLT ISZERO PUSH2 0xD76 JUMPI PUSH2 0xD75 PUSH2 0xB78 JUMP JUMPDEST JUMPDEST PUSH0 PUSH2 0xD83 DUP6 DUP3 DUP7 ADD PUSH2 0xB9E JUMP JUMPDEST SWAP3 POP POP PUSH1 0x20 PUSH2 0xD94 DUP6 DUP3 DUP7 ADD PUSH2 0xD4C JUMP JUMPDEST SWAP2 POP POP SWAP3 POP SWAP3 SWAP1 POP JUMP JUMPDEST PUSH2 0xDA7 DUP2 PUSH2 0xD25 JUMP JUMPDEST DUP3 MSTORE POP POP JUMP JUMPDEST PUSH0 PUSH1 0x20 DUP3 ADD SWAP1 POP PUSH2 0xDC0 PUSH0 DUP4 ADD DUP5 PUSH2 0xD9E JUMP JUMPDEST SWAP3 SWAP2 POP POP JUMP JUMPDEST PUSH0 PUSH1 0x20 DUP3 DUP5 SUB SLT ISZERO PUSH2 0xDDB JUMPI PUSH2 0xDDA PUSH2 0xB78 JUMP JUMPDEST JUMPDEST PUSH0 PUSH2 0xDE8 DUP5 DUP3 DUP6 ADD PUSH2 0xD4C JUMP JUMPDEST SWAP2 POP POP SWAP3 SWAP2 POP POP JUMP JUMPDEST PUSH32 0x4E487B7100000000000000000000000000000000000000000000000000000000 PUSH0 MSTORE PUSH1 0x32 PUSH1 0x4 MSTORE PUSH1 0x24 PUSH0 REVERT JUMPDEST PUSH0 DUP2 SWAP1 POP SWAP3 SWAP2 POP POP JUMP JUMPDEST PUSH0 PUSH2 0xE32 DUP3 PUSH2 0xC10 JUMP JUMPDEST PUSH2 0xE3C DUP2 DUP6 PUSH2 0xE1E JUMP JUMPDEST SWAP4 POP PUSH2 0xE4C DUP2 DUP6 PUSH1 0x20 DUP7 ADD PUSH2 0xC2A JUMP JUMPDEST DUP1 DUP5 ADD SWAP2 POP POP SWAP3 SWAP2 POP POP JUMP JUMPDEST PUSH32 0x426172636F64653A200000000000000000000000000000000000000000000000 DUP2 MSTORE POP JUMP JUMPDEST PUSH32 0x2053746174696F6E3A2000000000000000000000000000000000000000000000 DUP2 MSTORE POP JUMP JUMPDEST PUSH32 0x2000000000000000000000000000000000000000000000000000000000000000 DUP2 MSTORE POP JUMP JUMPDEST PUSH0 PUSH2 0xED5 DUP3 DUP7 PUSH2 0xE28 JUMP JUMPDEST SWAP2 POP PUSH2 0xEE0 DUP3 PUSH2 0xE58 JUMP JUMPDEST PUSH1 0x9 DUP3 ADD SWAP2 POP PUSH2 0xEF0 DUP3 DUP6 PUSH2 0xE28 JUMP JUMPDEST SWAP2 POP PUSH2 0xEFB DUP3 PUSH2 0xE7E JUMP JUMPDEST PUSH1 0xA DUP3 ADD SWAP2 POP PUSH2 0xF0B DUP3 DUP5 PUSH2 0xE28 JUMP JUMPDEST SWAP2 POP PUSH2 0xF16 DUP3 PUSH2 0xEA4 JUMP JUMPDEST PUSH1 0x1 DUP3 ADD SWAP2 POP DUP2 SWAP1 POP SWAP5 SWAP4 POP POP POP POP JUMP JUMPDEST PUSH32 0x54686973206973206F6E6C79206F776E65722066756E6374696F6E0000000000 PUSH0 DUP3 ADD MSTORE POP JUMP JUMPDEST PUSH0 PUSH2 0xF5B PUSH1 0x1B DUP4 PUSH2 0xC1A JUMP JUMPDEST SWAP2 POP PUSH2 0xF66 DUP3 PUSH2 0xF27 JUMP JUMPDEST PUSH1 0x20 DUP3 ADD SWAP1 POP SWAP2 SWAP1 POP JUMP JUMPDEST PUSH0 PUSH1 0x20 DUP3 ADD SWAP1 POP DUP2 DUP2 SUB PUSH0 DUP4 ADD MSTORE PUSH2 0xF88 DUP2 PUSH2 0xF4F JUMP JUMPDEST SWAP1 POP SWAP2 SWAP1 POP JUMP JUMPDEST PUSH32 0x497420697320696E20746865206C6173742073746174696F6E00000000000000 PUSH0 DUP3 ADD MSTORE POP JUMP JUMPDEST PUSH0 PUSH2 0xFC3 PUSH1 0x19 DUP4 PUSH2 0xC1A JUMP JUMPDEST SWAP2 POP PUSH2 0xFCE DUP3 PUSH2 0xF8F JUMP JUMPDEST PUSH1 0x20 DUP3 ADD SWAP1 POP SWAP2 SWAP1 POP JUMP JUMPDEST PUSH0 PUSH1 0x20 DUP3 ADD SWAP1 POP DUP2 DUP2 SUB PUSH0 DUP4 ADD MSTORE PUSH2 0xFF0 DUP2 PUSH2 0xFB7 JUMP JUMPDEST SWAP1 POP SWAP2 SWAP1 POP JUMP JUMPDEST PUSH32 0x4E487B7100000000000000000000000000000000000000000000000000000000 PUSH0 MSTORE PUSH1 0x11 PUSH1 0x4 MSTORE PUSH1 0x24 PUSH0 REVERT JUMPDEST PUSH0 PUSH2 0x102E DUP3 PUSH2 0xB7C JUMP JUMPDEST SWAP2 POP PUSH1 0xFF DUP3 SUB PUSH2 0x1041 JUMPI PUSH2 0x1040 PUSH2 0xFF7 JUMP JUMPDEST JUMPDEST PUSH1 0x1 DUP3 ADD SWAP1 POP SWAP2 SWAP1 POP JUMP JUMPDEST PUSH32 0x4E6F7420616C6C6F7765642E0000000000000000000000000000000000000000 PUSH0 DUP3 ADD MSTORE POP JUMP JUMPDEST PUSH0 PUSH2 0x1080 PUSH1 0xC DUP4 PUSH2 0xC1A JUMP JUMPDEST SWAP2 POP PUSH2 0x108B DUP3 PUSH2 0x104C JUMP JUMPDEST PUSH1 0x20 DUP3 ADD SWAP1 POP SWAP2 SWAP1 POP JUMP JUMPDEST PUSH0 PUSH1 0x20 DUP3 ADD SWAP1 POP DUP2 DUP2 SUB PUSH0 DUP4 ADD MSTORE PUSH2 0x10AD DUP2 PUSH2 0x1074 JUMP JUMPDEST SWAP1 POP SWAP2 SWAP1 POP JUMP JUMPDEST PUSH32 0x53746174696F6E2076616C756520697320696E76616C69642E00000000000000 PUSH0 DUP3 ADD MSTORE POP JUMP JUMPDEST PUSH0 PUSH2 0x10E8 PUSH1 0x19 DUP4 PUSH2 0xC1A JUMP JUMPDEST SWAP2 POP PUSH2 0x10F3 DUP3 PUSH2 0x10B4 JUMP JUMPDEST PUSH1 0x20 DUP3 ADD SWAP1 POP SWAP2 SWAP1 POP JUMP JUMPDEST PUSH0 PUSH1 0x20 DUP3 ADD SWAP1 POP DUP2 DUP2 SUB PUSH0 DUP4 ADD MSTORE PUSH2 0x1115 DUP2 PUSH2 0x10DC JUMP JUMPDEST SWAP1 POP SWAP2 SWAP1 POP JUMP JUMPDEST PUSH32 0x426172636F646520616C726561647920757365642E0000000000000000000000 PUSH0 DUP3 ADD MSTORE POP JUMP JUMPDEST PUSH0 PUSH2 0x1150 PUSH1 0x15 DUP4 PUSH2 0xC1A JUMP JUMPDEST SWAP2 POP PUSH2 0x115B DUP3 PUSH2 0x111C JUMP JUMPDEST PUSH1 0x20 DUP3 ADD SWAP1 POP SWAP2 SWAP1 POP JUMP JUMPDEST PUSH0 PUSH1 0x20 DUP3 ADD SWAP1 POP DUP2 DUP2 SUB PUSH0 DUP4 ADD MSTORE PUSH2 0x117D DUP2 PUSH2 0x1144 JUMP JUMPDEST SWAP1 POP SWAP2 SWAP1 POP JUMP JUMPDEST PUSH32 0x4E487B7100000000000000000000000000000000000000000000000000000000 PUSH0 MSTORE PUSH1 0x41 PUSH1 0x4 MSTORE PUSH1 0x24 PUSH0 REVERT JUMPDEST PUSH32 0x4E487B7100000000000000000000000000000000000000000000000000000000 PUSH0 MSTORE PUSH1 0x12 PUSH1 0x4 MSTORE PUSH1 0x24 PUSH0 REVERT INVALID LOG2 PUSH5 0x6970667358 0x22 SLT KECCAK256 PUSH15 0x6BFCDFE47B0B5D470371397891FF4C MCOPY 0x1E 0xE4 DUP4 0xE2 PUSH1 0xD5 DUP14 0xE1 PUSH17 0xAC50B65D1E4464736F6C634300081A0033 "
				},
				"gasEstimates": {
					"creation": {
						"codeDepositCost": "925600",
						"executionCost": "25225",
						"totalCost": "950825"
					},
					"external": {
						"addProduct(uint8,uint8)": "infinite",
						"changeStation(uint8)": "infinite",
						"getProductList()": "infinite",
						"getStation(uint8)": "infinite",
						"getStationWallet(uint8)": "2914",
						"isThereBarcode(uint8)": "infinite",
						"transfer_ownership(address)": "26950",
						"updateStationWallet(uint8,address)": "27171"
					}
				},
				"methodIdentifiers": {
					"addProduct(uint8,uint8)": "ba7e0b30",
					"changeStation(uint8)": "aad337ad",
					"getProductList()": "34d2c0ad",
					"getStation(uint8)": "7edc24c9",
					"getStationWallet(uint8)": "d61d7746",
					"isThereBarcode(uint8)": "28f0637e",
					"transfer_ownership(address)": "f0350c04",
					"updateStationWallet(uint8,address)": "ca273862"
				}
			},
			"storageLayout": {
				"storage": [
					{
						"astId": 3898,
						"contract": "contracts/Products.sol:Products",
						"label": "stationWallets",
						"offset": 0,
						"slot": "0",
						"type": "t_mapping(t_uint8,t_address)"
					},
					{
						"astId": 3902,
						"contract": "contracts/Products.sol:Products",
						"label": "productList",
						"offset": 0,
						"slot": "1",
						"type": "t_array(t_struct(Product)3894_storage)dyn_storage"
					},
					{
						"astId": 3904,
						"contract": "contracts/Products.sol:Products",
						"label": "owner",
						"offset": 0,
						"slot": "2",
						"type": "t_address"
					}
				],
				"types": {
					"t_address": {
						"encoding": "inplace",
						"label": "address",
						"numberOfBytes": "20"
					},
					"t_array(t_struct(Product)3894_storage)dyn_storage": {
						"base": "t_struct(Product)3894_storage",
						"encoding": "dynamic_array",
						"label": "struct Products.Product[]",
						"numberOfBytes": "32"
					},
					"t_mapping(t_uint8,t_address)": {
						"encoding": "mapping",
						"key": "t_uint8",
						"label": "mapping(uint8 => address)",
						"numberOfBytes": "32",
						"value": "t_address"
					},
					"t_struct(Product)3894_storage": {
						"encoding": "inplace",
						"label": "struct Products.Product",
						"members": [
							{
								"astId": 3891,
								"contract": "contracts/Products.sol:Products",
								"label": "barcode",
								"offset": 0,
								"slot": "0",
								"type": "t_uint8"
							},
							{
								"astId": 3893,
								"contract": "contracts/Products.sol:Products",
								"label": "station",
								"offset": 1,
								"slot": "0",
								"type": "t_uint8"
							}
						],
						"numberOfBytes": "32"
					},
					"t_uint8": {
						"encoding": "inplace",
						"label": "uint8",
						"numberOfBytes": "1"
					}
				}
			},
			"userdoc": {
				"kind": "user",
				"methods": {},
				"version": 1
			}
		}
	}
}