{
	"contracts/Products.sol": {
		"Products": {
			"abi": [
				{
					"inputs": [
						{
							"internalType": "uint8",
							"name": "_barcode",
							"type": "uint8"
						},
						{
							"internalType": "uint8",
							"name": "_station",
							"type": "uint8"
						}
					],
					"name": "addProduct",
					"outputs": [],
					"stateMutability": "nonpayable",
					"type": "function"
				},
				{
					"inputs": [
						{
							"internalType": "uint8",
							"name": "_barcode",
							"type": "uint8"
						}
					],
					"name": "changeStation",
					"outputs": [],
					"stateMutability": "nonpayable",
					"type": "function"
				},
				{
					"inputs": [],
					"name": "getProductList",
					"outputs": [
						{
							"components": [
								{
									"internalType": "uint8",
									"name": "barcode",
									"type": "uint8"
								},
								{
									"internalType": "uint8",
									"name": "station",
									"type": "uint8"
								}
							],
							"internalType": "struct Products.Product[]",
							"name": "",
							"type": "tuple[]"
						}
					],
					"stateMutability": "view",
					"type": "function"
				},
				{
					"inputs": [
						{
							"internalType": "uint8",
							"name": "_barcode",
							"type": "uint8"
						}
					],
					"name": "getStation",
					"outputs": [
						{
							"internalType": "uint8",
							"name": "",
							"type": "uint8"
						}
					],
					"stateMutability": "view",
					"type": "function"
				}
			],
			"devdoc": {
				"kind": "dev",
				"methods": {},
				"version": 1
			},
			"evm": {
				"assembly": "    /* \"contracts/Products.sol\":309:1563  contract Products{... */\n  mstore(0x40, 0x80)\n    /* \"contracts/Products.sol\":481:509  uint8[] stations = [1, 2, 3] */\n  mload(0x40)\n  dup1\n  0x60\n  add\n  0x40\n  mstore\n  dup1\n    /* \"contracts/Products.sol\":501:502  1 */\n  0x01\n    /* \"contracts/Products.sol\":481:509  uint8[] stations = [1, 2, 3] */\n  0xff\n  and\n  dup2\n  mstore\n  0x20\n  add\n    /* \"contracts/Products.sol\":504:505  2 */\n  0x02\n    /* \"contracts/Products.sol\":481:509  uint8[] stations = [1, 2, 3] */\n  0xff\n  and\n  dup2\n  mstore\n  0x20\n  add\n    /* \"contracts/Products.sol\":507:508  3 */\n  0x03\n    /* \"contracts/Products.sol\":481:509  uint8[] stations = [1, 2, 3] */\n  0xff\n  and\n  dup2\n  mstore\n  pop\n  0x02\n  swap1\n  0x03\n  tag_1\n  swap3\n  swap2\n  swap1\n  tag_2\n  jump\t// in\ntag_1:\n  pop\n    /* \"contracts/Products.sol\":309:1563  contract Products{... */\n  callvalue\n  dup1\n  iszero\n  tag_3\n  jumpi\n  0x00\n  dup1\n  revert\ntag_3:\n  pop\n  jump(tag_4)\ntag_2:\n  dup3\n  dup1\n  sload\n  dup3\n  dup3\n  sstore\n  swap1\n  0x00\n  mstore\n  keccak256(0x00, 0x20)\n  swap1\n  0x1f\n  add\n  0x20\n  swap1\n  div\n  dup2\n  add\n  swap3\n  dup3\n  iszero\n  tag_5\n  jumpi\n  swap2\n  0x20\n  mul\n  dup3\n  add\n  0x00\ntag_6:\n  dup4\n  dup3\n  gt\n  iszero\n  tag_7\n  jumpi\n  dup4\n  mload\n  dup4\n  dup3\n  0x0100\n  exp\n  dup2\n  sload\n  dup2\n  0xff\n  mul\n  not\n  and\n  swap1\n  dup4\n  0xff\n  and\n  mul\n  or\n  swap1\n  sstore\n  pop\n  swap3\n  0x20\n  add\n  swap3\n  0x01\n  add\n  0x20\n  dup2\n  0x00\n  add\n  div\n  swap3\n  dup4\n  add\n  swap3\n  0x01\n  sub\n  mul\n  jump(tag_6)\ntag_7:\n  dup1\n  iszero\n  tag_8\n  jumpi\n  dup3\n  dup2\n  0x0100\n  exp\n  dup2\n  sload\n  swap1\n  0xff\n  mul\n  not\n  and\n  swap1\n  sstore\n  0x01\n  add\n  0x20\n  dup2\n  0x00\n  add\n  div\n  swap3\n  dup4\n  add\n  swap3\n  0x01\n  sub\n  mul\n  jump(tag_7)\ntag_8:\n  pop\ntag_5:\n  pop\n  swap1\n  pop\n  tag_9\n  swap2\n  swap1\n  tag_10\n  jump\t// in\ntag_9:\n  pop\n  swap1\n  jump\t// out\ntag_10:\ntag_11:\n  dup1\n  dup3\n  gt\n  iszero\n  tag_12\n  jumpi\n  0x00\n  dup2\n  0x00\n  swap1\n  sstore\n  pop\n  0x01\n  add\n  jump(tag_11)\ntag_12:\n  pop\n  swap1\n  jump\t// out\ntag_4:\n  dataSize(sub_0)\n  dup1\n  dataOffset(sub_0)\n  0x00\n  codecopy\n  0x00\n  return\nstop\n\nsub_0: assembly {\n        /* \"contracts/Products.sol\":309:1563  contract Products{... */\n      mstore(0x40, 0x80)\n      callvalue\n      dup1\n      iszero\n      tag_1\n      jumpi\n      0x00\n      dup1\n      revert\n    tag_1:\n      pop\n      jumpi(tag_2, lt(calldatasize, 0x04))\n      shr(0xe0, calldataload(0x00))\n      dup1\n      0x34d2c0ad\n      eq\n      tag_3\n      jumpi\n      dup1\n      0x7edc24c9\n      eq\n      tag_4\n      jumpi\n      dup1\n      0xaad337ad\n      eq\n      tag_5\n      jumpi\n      dup1\n      0xba7e0b30\n      eq\n      tag_6\n      jumpi\n    tag_2:\n      0x00\n      dup1\n      revert\n        /* \"contracts/Products.sol\":845:945  function getProductList() public view returns(Product[] memory){... */\n    tag_3:\n      tag_7\n      tag_8\n      jump\t// in\n    tag_7:\n      mload(0x40)\n      tag_9\n      swap2\n      swap1\n      tag_10\n      jump\t// in\n    tag_9:\n      mload(0x40)\n      dup1\n      swap2\n      sub\n      swap1\n      return\n        /* \"contracts/Products.sol\":953:1228  function getStation(uint8 _barcode) public view returns(uint8){... */\n    tag_4:\n      tag_11\n      0x04\n      dup1\n      calldatasize\n      sub\n      dup2\n      add\n      swap1\n      tag_12\n      swap2\n      swap1\n      tag_13\n      jump\t// in\n    tag_12:\n      tag_14\n      jump\t// in\n    tag_11:\n      mload(0x40)\n      tag_15\n      swap2\n      swap1\n      tag_16\n      jump\t// in\n    tag_15:\n      mload(0x40)\n      dup1\n      swap2\n      sub\n      swap1\n      return\n        /* \"contracts/Products.sol\":1240:1558  function changeStation(uint8 _barcode) public{... */\n    tag_5:\n      tag_17\n      0x04\n      dup1\n      calldatasize\n      sub\n      dup2\n      add\n      swap1\n      tag_18\n      swap2\n      swap1\n      tag_13\n      jump\t// in\n    tag_18:\n      tag_19\n      jump\t// in\n    tag_17:\n      stop\n        /* \"contracts/Products.sol\":518:837  function addProduct(uint8 _barcode, uint8 _station) public{... */\n    tag_6:\n      tag_20\n      0x04\n      dup1\n      calldatasize\n      sub\n      dup2\n      add\n      swap1\n      tag_21\n      swap2\n      swap1\n      tag_22\n      jump\t// in\n    tag_21:\n      tag_23\n      jump\t// in\n    tag_20:\n      stop\n        /* \"contracts/Products.sol\":845:945  function getProductList() public view returns(Product[] memory){... */\n    tag_8:\n        /* \"contracts/Products.sol\":891:907  Product[] memory */\n      0x60\n        /* \"contracts/Products.sol\":926:937  productList */\n      0x00\n        /* \"contracts/Products.sol\":919:937  return productList */\n      dup1\n      sload\n      dup1\n      0x20\n      mul\n      0x20\n      add\n      mload(0x40)\n      swap1\n      dup2\n      add\n      0x40\n      mstore\n      dup1\n      swap3\n      swap2\n      swap1\n      dup2\n      dup2\n      mstore\n      0x20\n      add\n      0x00\n      swap1\n    tag_25:\n      dup3\n      dup3\n      lt\n      iszero\n      tag_26\n      jumpi\n      dup4\n      dup3\n      swap1\n      0x00\n      mstore\n      keccak256(0x00, 0x20)\n      add\n      mload(0x40)\n      dup1\n      0x40\n      add\n      0x40\n      mstore\n      swap1\n      dup2\n      0x00\n      dup3\n      add\n      0x00\n      swap1\n      sload\n      swap1\n      0x0100\n      exp\n      swap1\n      div\n      0xff\n      and\n      0xff\n      and\n      0xff\n      and\n      dup2\n      mstore\n      0x20\n      add\n      0x00\n      dup3\n      add\n      0x01\n      swap1\n      sload\n      swap1\n      0x0100\n      exp\n      swap1\n      div\n      0xff\n      and\n      0xff\n      and\n      0xff\n      and\n      dup2\n      mstore\n      pop\n      pop\n      dup2\n      mstore\n      0x20\n      add\n      swap1\n      0x01\n      add\n      swap1\n      jump(tag_25)\n    tag_26:\n      pop\n      pop\n      pop\n      pop\n      swap1\n      pop\n        /* \"contracts/Products.sol\":845:945  function getProductList() public view returns(Product[] memory){... */\n      swap1\n      jump\t// out\n        /* \"contracts/Products.sol\":953:1228  function getStation(uint8 _barcode) public view returns(uint8){... */\n    tag_14:\n        /* \"contracts/Products.sol\":1009:1014  uint8 */\n      0x00\n        /* \"contracts/Products.sol\":1031:1037  uint i */\n      dup1\n        /* \"contracts/Products.sol\":1040:1041  0 */\n      0x00\n        /* \"contracts/Products.sol\":1031:1041  uint i = 0 */\n      swap1\n      pop\n        /* \"contracts/Products.sol\":1026:1202  for (uint i = 0; i < productList.length; i++) {... */\n    tag_29:\n        /* \"contracts/Products.sol\":1047:1058  productList */\n      0x00\n        /* \"contracts/Products.sol\":1047:1065  productList.length */\n      dup1\n      sload\n      swap1\n      pop\n        /* \"contracts/Products.sol\":1043:1044  i */\n      dup2\n        /* \"contracts/Products.sol\":1043:1065  i < productList.length */\n      lt\n        /* \"contracts/Products.sol\":1026:1202  for (uint i = 0; i < productList.length; i++) {... */\n      iszero\n      tag_30\n      jumpi\n        /* \"contracts/Products.sol\":1117:1125  _barcode */\n      dup3\n        /* \"contracts/Products.sol\":1091:1125  productList[i].barcode == _barcode */\n      0xff\n      and\n        /* \"contracts/Products.sol\":1091:1102  productList */\n      0x00\n        /* \"contracts/Products.sol\":1103:1104  i */\n      dup3\n        /* \"contracts/Products.sol\":1091:1105  productList[i] */\n      dup2\n      sload\n      dup2\n      lt\n      tag_32\n      jumpi\n      tag_33\n      tag_34\n      jump\t// in\n    tag_33:\n    tag_32:\n      swap1\n      0x00\n      mstore\n      keccak256(0x00, 0x20)\n      add\n        /* \"contracts/Products.sol\":1091:1113  productList[i].barcode */\n      0x00\n      add\n      0x00\n      swap1\n      sload\n      swap1\n      0x0100\n      exp\n      swap1\n      div\n      0xff\n      and\n        /* \"contracts/Products.sol\":1091:1125  productList[i].barcode == _barcode */\n      0xff\n      and\n      sub\n        /* \"contracts/Products.sol\":1087:1191  if (productList[i].barcode == _barcode) {... */\n      tag_36\n      jumpi\n        /* \"contracts/Products.sol\":1153:1164  productList */\n      0x00\n        /* \"contracts/Products.sol\":1165:1166  i */\n      dup2\n        /* \"contracts/Products.sol\":1153:1167  productList[i] */\n      dup2\n      sload\n      dup2\n      lt\n      tag_37\n      jumpi\n      tag_38\n      tag_34\n      jump\t// in\n    tag_38:\n    tag_37:\n      swap1\n      0x00\n      mstore\n      keccak256(0x00, 0x20)\n      add\n        /* \"contracts/Products.sol\":1153:1175  productList[i].station */\n      0x00\n      add\n      0x01\n      swap1\n      sload\n      swap1\n      0x0100\n      exp\n      swap1\n      div\n      0xff\n      and\n        /* \"contracts/Products.sol\":1146:1175  return productList[i].station */\n      swap2\n      pop\n      pop\n      jump(tag_28)\n        /* \"contracts/Products.sol\":1087:1191  if (productList[i].barcode == _barcode) {... */\n    tag_36:\n        /* \"contracts/Products.sol\":1067:1070  i++ */\n      dup1\n      dup1\n      0x01\n      add\n      swap2\n      pop\n      pop\n        /* \"contracts/Products.sol\":1026:1202  for (uint i = 0; i < productList.length; i++) {... */\n      jump(tag_29)\n    tag_30:\n      pop\n        /* \"contracts/Products.sol\":1219:1220  0 */\n      0x00\n        /* \"contracts/Products.sol\":1212:1220  return 0 */\n      swap1\n      pop\n        /* \"contracts/Products.sol\":953:1228  function getStation(uint8 _barcode) public view returns(uint8){... */\n    tag_28:\n      swap2\n      swap1\n      pop\n      jump\t// out\n        /* \"contracts/Products.sol\":1240:1558  function changeStation(uint8 _barcode) public{... */\n    tag_19:\n        /* \"contracts/Products.sol\":1301:1307  uint i */\n      0x00\n        /* \"contracts/Products.sol\":1296:1551  for (uint i = 0; i < productList.length; i++) {... */\n    tag_41:\n        /* \"contracts/Products.sol\":1317:1328  productList */\n      0x00\n        /* \"contracts/Products.sol\":1317:1335  productList.length */\n      dup1\n      sload\n      swap1\n      pop\n        /* \"contracts/Products.sol\":1313:1314  i */\n      dup2\n        /* \"contracts/Products.sol\":1313:1335  i < productList.length */\n      lt\n        /* \"contracts/Products.sol\":1296:1551  for (uint i = 0; i < productList.length; i++) {... */\n      iszero\n      tag_42\n      jumpi\n        /* \"contracts/Products.sol\":1387:1395  _barcode */\n      dup2\n        /* \"contracts/Products.sol\":1361:1395  productList[i].barcode == _barcode */\n      0xff\n      and\n        /* \"contracts/Products.sol\":1361:1372  productList */\n      0x00\n        /* \"contracts/Products.sol\":1373:1374  i */\n      dup3\n        /* \"contracts/Products.sol\":1361:1375  productList[i] */\n      dup2\n      sload\n      dup2\n      lt\n      tag_44\n      jumpi\n      tag_45\n      tag_34\n      jump\t// in\n    tag_45:\n    tag_44:\n      swap1\n      0x00\n      mstore\n      keccak256(0x00, 0x20)\n      add\n        /* \"contracts/Products.sol\":1361:1383  productList[i].barcode */\n      0x00\n      add\n      0x00\n      swap1\n      sload\n      swap1\n      0x0100\n      exp\n      swap1\n      div\n      0xff\n      and\n        /* \"contracts/Products.sol\":1361:1395  productList[i].barcode == _barcode */\n      0xff\n      and\n      sub\n        /* \"contracts/Products.sol\":1357:1540  if (productList[i].barcode == _barcode) {... */\n      tag_47\n      jumpi\n        /* \"contracts/Products.sol\":1450:1451  3 */\n      0x03\n        /* \"contracts/Products.sol\":1424:1435  productList */\n      0x00\n        /* \"contracts/Products.sol\":1436:1437  i */\n      dup3\n        /* \"contracts/Products.sol\":1424:1438  productList[i] */\n      dup2\n      sload\n      dup2\n      lt\n      tag_48\n      jumpi\n      tag_49\n      tag_34\n      jump\t// in\n    tag_49:\n    tag_48:\n      swap1\n      0x00\n      mstore\n      keccak256(0x00, 0x20)\n      add\n        /* \"contracts/Products.sol\":1424:1446  productList[i].station */\n      0x00\n      add\n      0x01\n      swap1\n      sload\n      swap1\n      0x0100\n      exp\n      swap1\n      div\n      0xff\n      and\n        /* \"contracts/Products.sol\":1424:1451  productList[i].station != 3 */\n      0xff\n      and\n      sub\n        /* \"contracts/Products.sol\":1416:1481  require(productList[i].station != 3, \"It is in the last station\") */\n      tag_51\n      jumpi\n      mload(0x40)\n      0x08c379a000000000000000000000000000000000000000000000000000000000\n      dup2\n      mstore\n      0x04\n      add\n      tag_52\n      swap1\n      tag_53\n      jump\t// in\n    tag_52:\n      mload(0x40)\n      dup1\n      swap2\n      sub\n      swap1\n      revert\n    tag_51:\n        /* \"contracts/Products.sol\":1500:1511  productList */\n      0x00\n        /* \"contracts/Products.sol\":1512:1513  i */\n      dup2\n        /* \"contracts/Products.sol\":1500:1514  productList[i] */\n      dup2\n      sload\n      dup2\n      lt\n      tag_54\n      jumpi\n      tag_55\n      tag_34\n      jump\t// in\n    tag_55:\n    tag_54:\n      swap1\n      0x00\n      mstore\n      keccak256(0x00, 0x20)\n      add\n        /* \"contracts/Products.sol\":1500:1522  productList[i].station */\n      0x00\n      add\n      0x01\n        /* \"contracts/Products.sol\":1500:1524  productList[i].station++ */\n      dup2\n      dup2\n      swap1\n      sload\n      swap1\n      0x0100\n      exp\n      swap1\n      div\n      0xff\n      and\n      dup1\n      swap3\n      swap2\n      swap1\n      tag_57\n      swap1\n      tag_58\n      jump\t// in\n    tag_57:\n      swap2\n      swap1\n      0x0100\n      exp\n      dup2\n      sload\n      dup2\n      0xff\n      mul\n      not\n      and\n      swap1\n      dup4\n      0xff\n      and\n      mul\n      or\n      swap1\n      sstore\n      pop\n      pop\n        /* \"contracts/Products.sol\":1357:1540  if (productList[i].barcode == _barcode) {... */\n    tag_47:\n        /* \"contracts/Products.sol\":1337:1340  i++ */\n      dup1\n      dup1\n      0x01\n      add\n      swap2\n      pop\n      pop\n        /* \"contracts/Products.sol\":1296:1551  for (uint i = 0; i < productList.length; i++) {... */\n      jump(tag_41)\n    tag_42:\n      pop\n        /* \"contracts/Products.sol\":1240:1558  function changeStation(uint8 _barcode) public{... */\n      pop\n      jump\t// out\n        /* \"contracts/Products.sol\":518:837  function addProduct(uint8 _barcode, uint8 _station) public{... */\n    tag_23:\n        /* \"contracts/Products.sol\":607:608  3 */\n      0x03\n        /* \"contracts/Products.sol\":595:603  _station */\n      dup2\n        /* \"contracts/Products.sol\":595:608  _station <= 3 */\n      0xff\n      and\n      gt\n      iszero\n        /* \"contracts/Products.sol\":595:625  _station <= 3 && _station >= 1 */\n      dup1\n      iszero\n      tag_60\n      jumpi\n      pop\n        /* \"contracts/Products.sol\":624:625  1 */\n      0x01\n        /* \"contracts/Products.sol\":612:620  _station */\n      dup2\n        /* \"contracts/Products.sol\":612:625  _station >= 1 */\n      0xff\n      and\n      lt\n      iszero\n        /* \"contracts/Products.sol\":595:625  _station <= 3 && _station >= 1 */\n    tag_60:\n        /* \"contracts/Products.sol\":587:655  require(_station <= 3 && _station >= 1, \"Station value is invalid.\") */\n      tag_61\n      jumpi\n      mload(0x40)\n      0x08c379a000000000000000000000000000000000000000000000000000000000\n      dup2\n      mstore\n      0x04\n      add\n      tag_62\n      swap1\n      tag_63\n      jump\t// in\n    tag_62:\n      mload(0x40)\n      dup1\n      swap2\n      sub\n      swap1\n      revert\n    tag_61:\n        /* \"contracts/Products.sol\":668:693  Product memory newProduct */\n      0x00\n        /* \"contracts/Products.sol\":696:780  Product({... */\n      mload(0x40)\n      dup1\n      0x40\n      add\n      0x40\n      mstore\n      dup1\n        /* \"contracts/Products.sol\":728:736  _barcode */\n      dup5\n        /* \"contracts/Products.sol\":696:780  Product({... */\n      0xff\n      and\n      dup2\n      mstore\n      0x20\n      add\n        /* \"contracts/Products.sol\":760:768  _station */\n      dup4\n        /* \"contracts/Products.sol\":696:780  Product({... */\n      0xff\n      and\n      dup2\n      mstore\n      pop\n        /* \"contracts/Products.sol\":668:780  Product memory newProduct = Product({... */\n      swap1\n      pop\n        /* \"contracts/Products.sol\":801:812  productList */\n      0x00\n        /* \"contracts/Products.sol\":818:828  newProduct */\n      dup2\n        /* \"contracts/Products.sol\":801:829  productList.push(newProduct) */\n      swap1\n      dup1\n      0x01\n      dup2\n      sload\n      add\n      dup1\n      dup3\n      sstore\n      dup1\n      swap2\n      pop\n      pop\n      0x01\n      swap1\n      sub\n      swap1\n      0x00\n      mstore\n      keccak256(0x00, 0x20)\n      add\n      0x00\n      swap1\n      swap2\n      swap1\n      swap2\n      swap1\n      swap2\n      pop\n      0x00\n      dup3\n      add\n      mload\n      dup2\n      0x00\n      add\n      exp(0x0100, 0x00)\n      dup2\n      sload\n      dup2\n      0xff\n      mul\n      not\n      and\n      swap1\n      dup4\n      0xff\n      and\n      mul\n      or\n      swap1\n      sstore\n      pop\n      0x20\n      dup3\n      add\n      mload\n      dup2\n      0x00\n      add\n      exp(0x0100, 0x01)\n      dup2\n      sload\n      dup2\n      0xff\n      mul\n      not\n      and\n      swap1\n      dup4\n      0xff\n      and\n      mul\n      or\n      swap1\n      sstore\n      pop\n      pop\n      pop\n        /* \"contracts/Products.sol\":576:837  {... */\n      pop\n        /* \"contracts/Products.sol\":518:837  function addProduct(uint8 _barcode, uint8 _station) public{... */\n      pop\n      pop\n      jump\t// out\n        /* \"#utility.yul\":7:143   */\n    tag_65:\n        /* \"#utility.yul\":96:102   */\n      0x00\n        /* \"#utility.yul\":130:135   */\n      dup2\n        /* \"#utility.yul\":124:136   */\n      mload\n        /* \"#utility.yul\":114:136   */\n      swap1\n      pop\n        /* \"#utility.yul\":7:143   */\n      swap2\n      swap1\n      pop\n      jump\t// out\n        /* \"#utility.yul\":149:355   */\n    tag_66:\n        /* \"#utility.yul\":270:281   */\n      0x00\n        /* \"#utility.yul\":304:310   */\n      dup3\n        /* \"#utility.yul\":299:302   */\n      dup3\n        /* \"#utility.yul\":292:311   */\n      mstore\n        /* \"#utility.yul\":344:348   */\n      0x20\n        /* \"#utility.yul\":339:342   */\n      dup3\n        /* \"#utility.yul\":335:349   */\n      add\n        /* \"#utility.yul\":320:349   */\n      swap1\n      pop\n        /* \"#utility.yul\":149:355   */\n      swap3\n      swap2\n      pop\n      pop\n      jump\t// out\n        /* \"#utility.yul\":361:515   */\n    tag_67:\n        /* \"#utility.yul\":450:454   */\n      0x00\n        /* \"#utility.yul\":473:476   */\n      dup2\n        /* \"#utility.yul\":465:476   */\n      swap1\n      pop\n        /* \"#utility.yul\":503:507   */\n      0x20\n        /* \"#utility.yul\":498:501   */\n      dup3\n        /* \"#utility.yul\":494:508   */\n      add\n        /* \"#utility.yul\":486:508   */\n      swap1\n      pop\n        /* \"#utility.yul\":361:515   */\n      swap2\n      swap1\n      pop\n      jump\t// out\n        /* \"#utility.yul\":521:607   */\n    tag_68:\n        /* \"#utility.yul\":556:563   */\n      0x00\n        /* \"#utility.yul\":596:600   */\n      0xff\n        /* \"#utility.yul\":589:594   */\n      dup3\n        /* \"#utility.yul\":585:601   */\n      and\n        /* \"#utility.yul\":574:601   */\n      swap1\n      pop\n        /* \"#utility.yul\":521:607   */\n      swap2\n      swap1\n      pop\n      jump\t// out\n        /* \"#utility.yul\":613:715   */\n    tag_69:\n        /* \"#utility.yul\":686:708   */\n      tag_92\n        /* \"#utility.yul\":702:707   */\n      dup2\n        /* \"#utility.yul\":686:708   */\n      tag_68\n      jump\t// in\n    tag_92:\n        /* \"#utility.yul\":681:684   */\n      dup3\n        /* \"#utility.yul\":674:709   */\n      mstore\n        /* \"#utility.yul\":613:715   */\n      pop\n      pop\n      jump\t// out\n        /* \"#utility.yul\":779:1268   */\n    tag_70:\n        /* \"#utility.yul\":910:914   */\n      0x40\n        /* \"#utility.yul\":905:908   */\n      dup3\n        /* \"#utility.yul\":901:915   */\n      add\n        /* \"#utility.yul\":1000:1004   */\n      0x00\n        /* \"#utility.yul\":993:998   */\n      dup3\n        /* \"#utility.yul\":989:1005   */\n      add\n        /* \"#utility.yul\":983:1006   */\n      mload\n        /* \"#utility.yul\":1019:1078   */\n      tag_94\n        /* \"#utility.yul\":1072:1076   */\n      0x00\n        /* \"#utility.yul\":1067:1070   */\n      dup6\n        /* \"#utility.yul\":1063:1077   */\n      add\n        /* \"#utility.yul\":1049:1061   */\n      dup3\n        /* \"#utility.yul\":1019:1078   */\n      tag_69\n      jump\t// in\n    tag_94:\n        /* \"#utility.yul\":925:1088   */\n      pop\n        /* \"#utility.yul\":1173:1177   */\n      0x20\n        /* \"#utility.yul\":1166:1171   */\n      dup3\n        /* \"#utility.yul\":1162:1178   */\n      add\n        /* \"#utility.yul\":1156:1179   */\n      mload\n        /* \"#utility.yul\":1192:1251   */\n      tag_95\n        /* \"#utility.yul\":1245:1249   */\n      0x20\n        /* \"#utility.yul\":1240:1243   */\n      dup6\n        /* \"#utility.yul\":1236:1250   */\n      add\n        /* \"#utility.yul\":1222:1234   */\n      dup3\n        /* \"#utility.yul\":1192:1251   */\n      tag_69\n      jump\t// in\n    tag_95:\n        /* \"#utility.yul\":1098:1261   */\n      pop\n        /* \"#utility.yul\":879:1268   */\n      pop\n        /* \"#utility.yul\":779:1268   */\n      pop\n      pop\n      jump\t// out\n        /* \"#utility.yul\":1274:1541   */\n    tag_71:\n        /* \"#utility.yul\":1387:1397   */\n      0x00\n        /* \"#utility.yul\":1408:1498   */\n      tag_97\n        /* \"#utility.yul\":1494:1497   */\n      dup4\n        /* \"#utility.yul\":1486:1492   */\n      dup4\n        /* \"#utility.yul\":1408:1498   */\n      tag_70\n      jump\t// in\n    tag_97:\n        /* \"#utility.yul\":1530:1534   */\n      0x40\n        /* \"#utility.yul\":1525:1528   */\n      dup4\n        /* \"#utility.yul\":1521:1535   */\n      add\n        /* \"#utility.yul\":1507:1535   */\n      swap1\n      pop\n        /* \"#utility.yul\":1274:1541   */\n      swap3\n      swap2\n      pop\n      pop\n      jump\t// out\n        /* \"#utility.yul\":1547:1682   */\n    tag_72:\n        /* \"#utility.yul\":1639:1643   */\n      0x00\n        /* \"#utility.yul\":1671:1675   */\n      0x20\n        /* \"#utility.yul\":1666:1669   */\n      dup3\n        /* \"#utility.yul\":1662:1676   */\n      add\n        /* \"#utility.yul\":1654:1676   */\n      swap1\n      pop\n        /* \"#utility.yul\":1547:1682   */\n      swap2\n      swap1\n      pop\n      jump\t// out\n        /* \"#utility.yul\":1750:2658   */\n    tag_73:\n        /* \"#utility.yul\":1913:1916   */\n      0x00\n        /* \"#utility.yul\":1942:2018   */\n      tag_100\n        /* \"#utility.yul\":2012:2017   */\n      dup3\n        /* \"#utility.yul\":1942:2018   */\n      tag_65\n      jump\t// in\n    tag_100:\n        /* \"#utility.yul\":2034:2142   */\n      tag_101\n        /* \"#utility.yul\":2135:2141   */\n      dup2\n        /* \"#utility.yul\":2130:2133   */\n      dup6\n        /* \"#utility.yul\":2034:2142   */\n      tag_66\n      jump\t// in\n    tag_101:\n        /* \"#utility.yul\":2027:2142   */\n      swap4\n      pop\n        /* \"#utility.yul\":2166:2244   */\n      tag_102\n        /* \"#utility.yul\":2238:2243   */\n      dup4\n        /* \"#utility.yul\":2166:2244   */\n      tag_67\n      jump\t// in\n    tag_102:\n        /* \"#utility.yul\":2267:2274   */\n      dup1\n        /* \"#utility.yul\":2298:2299   */\n      0x00\n        /* \"#utility.yul\":2283:2633   */\n    tag_103:\n        /* \"#utility.yul\":2308:2314   */\n      dup4\n        /* \"#utility.yul\":2305:2306   */\n      dup2\n        /* \"#utility.yul\":2302:2315   */\n      lt\n        /* \"#utility.yul\":2283:2633   */\n      iszero\n      tag_105\n      jumpi\n        /* \"#utility.yul\":2384:2390   */\n      dup2\n        /* \"#utility.yul\":2378:2391   */\n      mload\n        /* \"#utility.yul\":2411:2518   */\n      tag_106\n        /* \"#utility.yul\":2514:2517   */\n      dup9\n        /* \"#utility.yul\":2499:2512   */\n      dup3\n        /* \"#utility.yul\":2411:2518   */\n      tag_71\n      jump\t// in\n    tag_106:\n        /* \"#utility.yul\":2404:2518   */\n      swap8\n      pop\n        /* \"#utility.yul\":2541:2623   */\n      tag_107\n        /* \"#utility.yul\":2616:2622   */\n      dup4\n        /* \"#utility.yul\":2541:2623   */\n      tag_72\n      jump\t// in\n    tag_107:\n        /* \"#utility.yul\":2531:2623   */\n      swap3\n      pop\n        /* \"#utility.yul\":2343:2633   */\n      pop\n        /* \"#utility.yul\":2330:2331   */\n      0x01\n        /* \"#utility.yul\":2327:2328   */\n      dup2\n        /* \"#utility.yul\":2323:2332   */\n      add\n        /* \"#utility.yul\":2318:2332   */\n      swap1\n      pop\n        /* \"#utility.yul\":2283:2633   */\n      jump(tag_103)\n    tag_105:\n        /* \"#utility.yul\":2287:2301   */\n      pop\n        /* \"#utility.yul\":2649:2652   */\n      dup6\n        /* \"#utility.yul\":2642:2652   */\n      swap4\n      pop\n        /* \"#utility.yul\":1918:2658   */\n      pop\n      pop\n      pop\n        /* \"#utility.yul\":1750:2658   */\n      swap3\n      swap2\n      pop\n      pop\n      jump\t// out\n        /* \"#utility.yul\":2664:3125   */\n    tag_10:\n        /* \"#utility.yul\":2851:2855   */\n      0x00\n        /* \"#utility.yul\":2889:2891   */\n      0x20\n        /* \"#utility.yul\":2878:2887   */\n      dup3\n        /* \"#utility.yul\":2874:2892   */\n      add\n        /* \"#utility.yul\":2866:2892   */\n      swap1\n      pop\n        /* \"#utility.yul\":2938:2947   */\n      dup2\n        /* \"#utility.yul\":2932:2936   */\n      dup2\n        /* \"#utility.yul\":2928:2948   */\n      sub\n        /* \"#utility.yul\":2924:2925   */\n      0x00\n        /* \"#utility.yul\":2913:2922   */\n      dup4\n        /* \"#utility.yul\":2909:2926   */\n      add\n        /* \"#utility.yul\":2902:2949   */\n      mstore\n        /* \"#utility.yul\":2966:3118   */\n      tag_109\n        /* \"#utility.yul\":3113:3117   */\n      dup2\n        /* \"#utility.yul\":3104:3110   */\n      dup5\n        /* \"#utility.yul\":2966:3118   */\n      tag_73\n      jump\t// in\n    tag_109:\n        /* \"#utility.yul\":2958:3118   */\n      swap1\n      pop\n        /* \"#utility.yul\":2664:3125   */\n      swap3\n      swap2\n      pop\n      pop\n      jump\t// out\n        /* \"#utility.yul\":3212:3329   */\n    tag_75:\n        /* \"#utility.yul\":3321:3322   */\n      0x00\n        /* \"#utility.yul\":3318:3319   */\n      dup1\n        /* \"#utility.yul\":3311:3323   */\n      revert\n        /* \"#utility.yul\":3458:3576   */\n    tag_77:\n        /* \"#utility.yul\":3529:3551   */\n      tag_114\n        /* \"#utility.yul\":3545:3550   */\n      dup2\n        /* \"#utility.yul\":3529:3551   */\n      tag_68\n      jump\t// in\n    tag_114:\n        /* \"#utility.yul\":3522:3527   */\n      dup2\n        /* \"#utility.yul\":3519:3552   */\n      eq\n        /* \"#utility.yul\":3509:3570   */\n      tag_115\n      jumpi\n        /* \"#utility.yul\":3566:3567   */\n      0x00\n        /* \"#utility.yul\":3563:3564   */\n      dup1\n        /* \"#utility.yul\":3556:3568   */\n      revert\n        /* \"#utility.yul\":3509:3570   */\n    tag_115:\n        /* \"#utility.yul\":3458:3576   */\n      pop\n      jump\t// out\n        /* \"#utility.yul\":3582:3717   */\n    tag_78:\n        /* \"#utility.yul\":3626:3631   */\n      0x00\n        /* \"#utility.yul\":3664:3670   */\n      dup2\n        /* \"#utility.yul\":3651:3671   */\n      calldataload\n        /* \"#utility.yul\":3642:3671   */\n      swap1\n      pop\n        /* \"#utility.yul\":3680:3711   */\n      tag_117\n        /* \"#utility.yul\":3705:3710   */\n      dup2\n        /* \"#utility.yul\":3680:3711   */\n      tag_77\n      jump\t// in\n    tag_117:\n        /* \"#utility.yul\":3582:3717   */\n      swap3\n      swap2\n      pop\n      pop\n      jump\t// out\n        /* \"#utility.yul\":3723:4048   */\n    tag_13:\n        /* \"#utility.yul\":3780:3786   */\n      0x00\n        /* \"#utility.yul\":3829:3831   */\n      0x20\n        /* \"#utility.yul\":3817:3826   */\n      dup3\n        /* \"#utility.yul\":3808:3815   */\n      dup5\n        /* \"#utility.yul\":3804:3827   */\n      sub\n        /* \"#utility.yul\":3800:3832   */\n      slt\n        /* \"#utility.yul\":3797:3916   */\n      iszero\n      tag_119\n      jumpi\n        /* \"#utility.yul\":3835:3914   */\n      tag_120\n      tag_75\n      jump\t// in\n    tag_120:\n        /* \"#utility.yul\":3797:3916   */\n    tag_119:\n        /* \"#utility.yul\":3955:3956   */\n      0x00\n        /* \"#utility.yul\":3980:4031   */\n      tag_121\n        /* \"#utility.yul\":4023:4030   */\n      dup5\n        /* \"#utility.yul\":4014:4020   */\n      dup3\n        /* \"#utility.yul\":4003:4012   */\n      dup6\n        /* \"#utility.yul\":3999:4021   */\n      add\n        /* \"#utility.yul\":3980:4031   */\n      tag_78\n      jump\t// in\n    tag_121:\n        /* \"#utility.yul\":3970:4031   */\n      swap2\n      pop\n        /* \"#utility.yul\":3926:4041   */\n      pop\n        /* \"#utility.yul\":3723:4048   */\n      swap3\n      swap2\n      pop\n      pop\n      jump\t// out\n        /* \"#utility.yul\":4054:4166   */\n    tag_79:\n        /* \"#utility.yul\":4137:4159   */\n      tag_123\n        /* \"#utility.yul\":4153:4158   */\n      dup2\n        /* \"#utility.yul\":4137:4159   */\n      tag_68\n      jump\t// in\n    tag_123:\n        /* \"#utility.yul\":4132:4135   */\n      dup3\n        /* \"#utility.yul\":4125:4160   */\n      mstore\n        /* \"#utility.yul\":4054:4166   */\n      pop\n      pop\n      jump\t// out\n        /* \"#utility.yul\":4172:4386   */\n    tag_16:\n        /* \"#utility.yul\":4261:4265   */\n      0x00\n        /* \"#utility.yul\":4299:4301   */\n      0x20\n        /* \"#utility.yul\":4288:4297   */\n      dup3\n        /* \"#utility.yul\":4284:4302   */\n      add\n        /* \"#utility.yul\":4276:4302   */\n      swap1\n      pop\n        /* \"#utility.yul\":4312:4379   */\n      tag_125\n        /* \"#utility.yul\":4376:4377   */\n      0x00\n        /* \"#utility.yul\":4365:4374   */\n      dup4\n        /* \"#utility.yul\":4361:4378   */\n      add\n        /* \"#utility.yul\":4352:4358   */\n      dup5\n        /* \"#utility.yul\":4312:4379   */\n      tag_79\n      jump\t// in\n    tag_125:\n        /* \"#utility.yul\":4172:4386   */\n      swap3\n      swap2\n      pop\n      pop\n      jump\t// out\n        /* \"#utility.yul\":4392:4858   */\n    tag_22:\n        /* \"#utility.yul\":4456:4462   */\n      0x00\n        /* \"#utility.yul\":4464:4470   */\n      dup1\n        /* \"#utility.yul\":4513:4515   */\n      0x40\n        /* \"#utility.yul\":4501:4510   */\n      dup4\n        /* \"#utility.yul\":4492:4499   */\n      dup6\n        /* \"#utility.yul\":4488:4511   */\n      sub\n        /* \"#utility.yul\":4484:4516   */\n      slt\n        /* \"#utility.yul\":4481:4600   */\n      iszero\n      tag_127\n      jumpi\n        /* \"#utility.yul\":4519:4598   */\n      tag_128\n      tag_75\n      jump\t// in\n    tag_128:\n        /* \"#utility.yul\":4481:4600   */\n    tag_127:\n        /* \"#utility.yul\":4639:4640   */\n      0x00\n        /* \"#utility.yul\":4664:4715   */\n      tag_129\n        /* \"#utility.yul\":4707:4714   */\n      dup6\n        /* \"#utility.yul\":4698:4704   */\n      dup3\n        /* \"#utility.yul\":4687:4696   */\n      dup7\n        /* \"#utility.yul\":4683:4705   */\n      add\n        /* \"#utility.yul\":4664:4715   */\n      tag_78\n      jump\t// in\n    tag_129:\n        /* \"#utility.yul\":4654:4715   */\n      swap3\n      pop\n        /* \"#utility.yul\":4610:4725   */\n      pop\n        /* \"#utility.yul\":4764:4766   */\n      0x20\n        /* \"#utility.yul\":4790:4841   */\n      tag_130\n        /* \"#utility.yul\":4833:4840   */\n      dup6\n        /* \"#utility.yul\":4824:4830   */\n      dup3\n        /* \"#utility.yul\":4813:4822   */\n      dup7\n        /* \"#utility.yul\":4809:4831   */\n      add\n        /* \"#utility.yul\":4790:4841   */\n      tag_78\n      jump\t// in\n    tag_130:\n        /* \"#utility.yul\":4780:4841   */\n      swap2\n      pop\n        /* \"#utility.yul\":4735:4851   */\n      pop\n        /* \"#utility.yul\":4392:4858   */\n      swap3\n      pop\n      swap3\n      swap1\n      pop\n      jump\t// out\n        /* \"#utility.yul\":4864:5044   */\n    tag_34:\n        /* \"#utility.yul\":4912:4989   */\n      0x4e487b7100000000000000000000000000000000000000000000000000000000\n        /* \"#utility.yul\":4909:4910   */\n      0x00\n        /* \"#utility.yul\":4902:4990   */\n      mstore\n        /* \"#utility.yul\":5009:5013   */\n      0x32\n        /* \"#utility.yul\":5006:5007   */\n      0x04\n        /* \"#utility.yul\":4999:5014   */\n      mstore\n        /* \"#utility.yul\":5033:5037   */\n      0x24\n        /* \"#utility.yul\":5030:5031   */\n      0x00\n        /* \"#utility.yul\":5023:5038   */\n      revert\n        /* \"#utility.yul\":5050:5219   */\n    tag_80:\n        /* \"#utility.yul\":5134:5145   */\n      0x00\n        /* \"#utility.yul\":5168:5174   */\n      dup3\n        /* \"#utility.yul\":5163:5166   */\n      dup3\n        /* \"#utility.yul\":5156:5175   */\n      mstore\n        /* \"#utility.yul\":5208:5212   */\n      0x20\n        /* \"#utility.yul\":5203:5206   */\n      dup3\n        /* \"#utility.yul\":5199:5213   */\n      add\n        /* \"#utility.yul\":5184:5213   */\n      swap1\n      pop\n        /* \"#utility.yul\":5050:5219   */\n      swap3\n      swap2\n      pop\n      pop\n      jump\t// out\n        /* \"#utility.yul\":5225:5400   */\n    tag_81:\n        /* \"#utility.yul\":5365:5392   */\n      0x497420697320696e20746865206c6173742073746174696f6e00000000000000\n        /* \"#utility.yul\":5361:5362   */\n      0x00\n        /* \"#utility.yul\":5353:5359   */\n      dup3\n        /* \"#utility.yul\":5349:5363   */\n      add\n        /* \"#utility.yul\":5342:5393   */\n      mstore\n        /* \"#utility.yul\":5225:5400   */\n      pop\n      jump\t// out\n        /* \"#utility.yul\":5406:5772   */\n    tag_82:\n        /* \"#utility.yul\":5548:5551   */\n      0x00\n        /* \"#utility.yul\":5569:5636   */\n      tag_135\n        /* \"#utility.yul\":5633:5635   */\n      0x19\n        /* \"#utility.yul\":5628:5631   */\n      dup4\n        /* \"#utility.yul\":5569:5636   */\n      tag_80\n      jump\t// in\n    tag_135:\n        /* \"#utility.yul\":5562:5636   */\n      swap2\n      pop\n        /* \"#utility.yul\":5645:5738   */\n      tag_136\n        /* \"#utility.yul\":5734:5737   */\n      dup3\n        /* \"#utility.yul\":5645:5738   */\n      tag_81\n      jump\t// in\n    tag_136:\n        /* \"#utility.yul\":5763:5765   */\n      0x20\n        /* \"#utility.yul\":5758:5761   */\n      dup3\n        /* \"#utility.yul\":5754:5766   */\n      add\n        /* \"#utility.yul\":5747:5766   */\n      swap1\n      pop\n        /* \"#utility.yul\":5406:5772   */\n      swap2\n      swap1\n      pop\n      jump\t// out\n        /* \"#utility.yul\":5778:6197   */\n    tag_53:\n        /* \"#utility.yul\":5944:5948   */\n      0x00\n        /* \"#utility.yul\":5982:5984   */\n      0x20\n        /* \"#utility.yul\":5971:5980   */\n      dup3\n        /* \"#utility.yul\":5967:5985   */\n      add\n        /* \"#utility.yul\":5959:5985   */\n      swap1\n      pop\n        /* \"#utility.yul\":6031:6040   */\n      dup2\n        /* \"#utility.yul\":6025:6029   */\n      dup2\n        /* \"#utility.yul\":6021:6041   */\n      sub\n        /* \"#utility.yul\":6017:6018   */\n      0x00\n        /* \"#utility.yul\":6006:6015   */\n      dup4\n        /* \"#utility.yul\":6002:6019   */\n      add\n        /* \"#utility.yul\":5995:6042   */\n      mstore\n        /* \"#utility.yul\":6059:6190   */\n      tag_138\n        /* \"#utility.yul\":6185:6189   */\n      dup2\n        /* \"#utility.yul\":6059:6190   */\n      tag_82\n      jump\t// in\n    tag_138:\n        /* \"#utility.yul\":6051:6190   */\n      swap1\n      pop\n        /* \"#utility.yul\":5778:6197   */\n      swap2\n      swap1\n      pop\n      jump\t// out\n        /* \"#utility.yul\":6203:6383   */\n    tag_83:\n        /* \"#utility.yul\":6251:6328   */\n      0x4e487b7100000000000000000000000000000000000000000000000000000000\n        /* \"#utility.yul\":6248:6249   */\n      0x00\n        /* \"#utility.yul\":6241:6329   */\n      mstore\n        /* \"#utility.yul\":6348:6352   */\n      0x11\n        /* \"#utility.yul\":6345:6346   */\n      0x04\n        /* \"#utility.yul\":6338:6353   */\n      mstore\n        /* \"#utility.yul\":6372:6376   */\n      0x24\n        /* \"#utility.yul\":6369:6370   */\n      0x00\n        /* \"#utility.yul\":6362:6377   */\n      revert\n        /* \"#utility.yul\":6389:6556   */\n    tag_58:\n        /* \"#utility.yul\":6426:6429   */\n      0x00\n        /* \"#utility.yul\":6449:6471   */\n      tag_141\n        /* \"#utility.yul\":6465:6470   */\n      dup3\n        /* \"#utility.yul\":6449:6471   */\n      tag_68\n      jump\t// in\n    tag_141:\n        /* \"#utility.yul\":6440:6471   */\n      swap2\n      pop\n        /* \"#utility.yul\":6493:6497   */\n      0xff\n        /* \"#utility.yul\":6486:6491   */\n      dup3\n        /* \"#utility.yul\":6483:6498   */\n      sub\n        /* \"#utility.yul\":6480:6521   */\n      tag_142\n      jumpi\n        /* \"#utility.yul\":6501:6519   */\n      tag_143\n      tag_83\n      jump\t// in\n    tag_143:\n        /* \"#utility.yul\":6480:6521   */\n    tag_142:\n        /* \"#utility.yul\":6548:6549   */\n      0x01\n        /* \"#utility.yul\":6541:6546   */\n      dup3\n        /* \"#utility.yul\":6537:6550   */\n      add\n        /* \"#utility.yul\":6530:6550   */\n      swap1\n      pop\n        /* \"#utility.yul\":6389:6556   */\n      swap2\n      swap1\n      pop\n      jump\t// out\n        /* \"#utility.yul\":6562:6737   */\n    tag_84:\n        /* \"#utility.yul\":6702:6729   */\n      0x53746174696f6e2076616c756520697320696e76616c69642e00000000000000\n        /* \"#utility.yul\":6698:6699   */\n      0x00\n        /* \"#utility.yul\":6690:6696   */\n      dup3\n        /* \"#utility.yul\":6686:6700   */\n      add\n        /* \"#utility.yul\":6679:6730   */\n      mstore\n        /* \"#utility.yul\":6562:6737   */\n      pop\n      jump\t// out\n        /* \"#utility.yul\":6743:7109   */\n    tag_85:\n        /* \"#utility.yul\":6885:6888   */\n      0x00\n        /* \"#utility.yul\":6906:6973   */\n      tag_146\n        /* \"#utility.yul\":6970:6972   */\n      0x19\n        /* \"#utility.yul\":6965:6968   */\n      dup4\n        /* \"#utility.yul\":6906:6973   */\n      tag_80\n      jump\t// in\n    tag_146:\n        /* \"#utility.yul\":6899:6973   */\n      swap2\n      pop\n        /* \"#utility.yul\":6982:7075   */\n      tag_147\n        /* \"#utility.yul\":7071:7074   */\n      dup3\n        /* \"#utility.yul\":6982:7075   */\n      tag_84\n      jump\t// in\n    tag_147:\n        /* \"#utility.yul\":7100:7102   */\n      0x20\n        /* \"#utility.yul\":7095:7098   */\n      dup3\n        /* \"#utility.yul\":7091:7103   */\n      add\n        /* \"#utility.yul\":7084:7103   */\n      swap1\n      pop\n        /* \"#utility.yul\":6743:7109   */\n      swap2\n      swap1\n      pop\n      jump\t// out\n        /* \"#utility.yul\":7115:7534   */\n    tag_63:\n        /* \"#utility.yul\":7281:7285   */\n      0x00\n        /* \"#utility.yul\":7319:7321   */\n      0x20\n        /* \"#utility.yul\":7308:7317   */\n      dup3\n        /* \"#utility.yul\":7304:7322   */\n      add\n        /* \"#utility.yul\":7296:7322   */\n      swap1\n      pop\n        /* \"#utility.yul\":7368:7377   */\n      dup2\n        /* \"#utility.yul\":7362:7366   */\n      dup2\n        /* \"#utility.yul\":7358:7378   */\n      sub\n        /* \"#utility.yul\":7354:7355   */\n      0x00\n        /* \"#utility.yul\":7343:7352   */\n      dup4\n        /* \"#utility.yul\":7339:7356   */\n      add\n        /* \"#utility.yul\":7332:7379   */\n      mstore\n        /* \"#utility.yul\":7396:7527   */\n      tag_149\n        /* \"#utility.yul\":7522:7526   */\n      dup2\n        /* \"#utility.yul\":7396:7527   */\n      tag_85\n      jump\t// in\n    tag_149:\n        /* \"#utility.yul\":7388:7527   */\n      swap1\n      pop\n        /* \"#utility.yul\":7115:7534   */\n      swap2\n      swap1\n      pop\n      jump\t// out\n\n    auxdata: 0xa2646970667358221220c5b6d578c1ba4b0db2ab3c9ae5f7ec959d1dff50d7f85a2bc4462f4072571ee964736f6c634300081a0033\n}\n",
				"bytecode": {
					"linkReferences": {},
					"object": "60806040526040518060600160405280600160ff168152602001600260ff168152602001600360ff16815250600290600361003b92919061004d565b50348015610047575f80fd5b5061010a565b828054828255905f5260205f2090601f016020900481019282156100de579160200282015f5b838211156100b057835183826101000a81548160ff021916908360ff16021790555092602001926001016020815f01049283019260010302610073565b80156100dc5782816101000a81549060ff02191690556001016020815f010492830192600103026100b0565b505b5090506100eb91906100ef565b5090565b5b80821115610106575f815f9055506001016100f0565b5090565b610752806101175f395ff3fe608060405234801561000f575f80fd5b506004361061004a575f3560e01c806334d2c0ad1461004e5780637edc24c91461006c578063aad337ad1461009c578063ba7e0b30146100b8575b5f80fd5b6100566100d4565b60405161006391906104db565b60405180910390f35b61008660048036038101906100819190610529565b610162565b6040516100939190610563565b60405180910390f35b6100b660048036038101906100b19190610529565b6101f4565b005b6100d260048036038101906100cd919061057c565b61030d565b005b60605f805480602002602001604051908101604052809291908181526020015f905b82821015610159578382905f5260205f20016040518060400160405290815f82015f9054906101000a900460ff1660ff1660ff1681526020015f820160019054906101000a900460ff1660ff1660ff1681525050815260200190600101906100f6565b50505050905090565b5f805f90505b5f805490508110156101ea578260ff165f828154811061018b5761018a6105ba565b5b905f5260205f20015f015f9054906101000a900460ff1660ff16036101dd575f81815481106101bd576101bc6105ba565b5b905f5260205f20015f0160019054906101000a900460ff169150506101ef565b8080600101915050610168565b505f90505b919050565b5f5b5f80549050811015610309578160ff165f8281548110610219576102186105ba565b5b905f5260205f20015f015f9054906101000a900460ff1660ff16036102fc5760035f828154811061024d5761024c6105ba565b5b905f5260205f20015f0160019054906101000a900460ff1660ff16036102a8576040517f08c379a000000000000000000000000000000000000000000000000000000000815260040161029f90610641565b60405180910390fd5b5f81815481106102bb576102ba6105ba565b5b905f5260205f20015f01600181819054906101000a900460ff16809291906102e29061068c565b91906101000a81548160ff021916908360ff160217905550505b80806001019150506101f6565b5050565b60038160ff1611158015610325575060018160ff1610155b610364576040517f08c379a000000000000000000000000000000000000000000000000000000000815260040161035b906106fe565b60405180910390fd5b5f60405180604001604052808460ff1681526020018360ff1681525090505f81908060018154018082558091505060019003905f5260205f20015f909190919091505f820151815f015f6101000a81548160ff021916908360ff1602179055506020820151815f0160016101000a81548160ff021916908360ff1602179055505050505050565b5f81519050919050565b5f82825260208201905092915050565b5f819050602082019050919050565b5f60ff82169050919050565b61042981610414565b82525050565b604082015f8201516104435f850182610420565b5060208201516104566020850182610420565b50505050565b5f610467838361042f565b60408301905092915050565b5f602082019050919050565b5f610489826103eb565b61049381856103f5565b935061049e83610405565b805f5b838110156104ce5781516104b5888261045c565b97506104c083610473565b9250506001810190506104a1565b5085935050505092915050565b5f6020820190508181035f8301526104f3818461047f565b905092915050565b5f80fd5b61050881610414565b8114610512575f80fd5b50565b5f81359050610523816104ff565b92915050565b5f6020828403121561053e5761053d6104fb565b5b5f61054b84828501610515565b91505092915050565b61055d81610414565b82525050565b5f6020820190506105765f830184610554565b92915050565b5f8060408385031215610592576105916104fb565b5b5f61059f85828601610515565b92505060206105b085828601610515565b9150509250929050565b7f4e487b71000000000000000000000000000000000000000000000000000000005f52603260045260245ffd5b5f82825260208201905092915050565b7f497420697320696e20746865206c6173742073746174696f6e000000000000005f82015250565b5f61062b6019836105e7565b9150610636826105f7565b602082019050919050565b5f6020820190508181035f8301526106588161061f565b9050919050565b7f4e487b71000000000000000000000000000000000000000000000000000000005f52601160045260245ffd5b5f61069682610414565b915060ff82036106a9576106a861065f565b5b600182019050919050565b7f53746174696f6e2076616c756520697320696e76616c69642e000000000000005f82015250565b5f6106e86019836105e7565b91506106f3826106b4565b602082019050919050565b5f6020820190508181035f830152610715816106dc565b905091905056fea2646970667358221220c5b6d578c1ba4b0db2ab3c9ae5f7ec959d1dff50d7f85a2bc4462f4072571ee964736f6c634300081a0033",
					"opcodes": "PUSH1 0x80 PUSH1 0x40 MSTORE PUSH1 0x40 MLOAD DUP1 PUSH1 0x60 ADD PUSH1 0x40 MSTORE DUP1 PUSH1 0x1 PUSH1 0xFF AND DUP2 MSTORE PUSH1 0x20 ADD PUSH1 0x2 PUSH1 0xFF AND DUP2 MSTORE PUSH1 0x20 ADD PUSH1 0x3 PUSH1 0xFF AND DUP2 MSTORE POP PUSH1 0x2 SWAP1 PUSH1 0x3 PUSH2 0x3B SWAP3 SWAP2 SWAP1 PUSH2 0x4D JUMP JUMPDEST POP CALLVALUE DUP1 ISZERO PUSH2 0x47 JUMPI PUSH0 DUP1 REVERT JUMPDEST POP PUSH2 0x10A JUMP JUMPDEST DUP3 DUP1 SLOAD DUP3 DUP3 SSTORE SWAP1 PUSH0 MSTORE PUSH1 0x20 PUSH0 KECCAK256 SWAP1 PUSH1 0x1F ADD PUSH1 0x20 SWAP1 DIV DUP2 ADD SWAP3 DUP3 ISZERO PUSH2 0xDE JUMPI SWAP2 PUSH1 0x20 MUL DUP3 ADD PUSH0 JUMPDEST DUP4 DUP3 GT ISZERO PUSH2 0xB0 JUMPI DUP4 MLOAD DUP4 DUP3 PUSH2 0x100 EXP DUP2 SLOAD DUP2 PUSH1 0xFF MUL NOT AND SWAP1 DUP4 PUSH1 0xFF AND MUL OR SWAP1 SSTORE POP SWAP3 PUSH1 0x20 ADD SWAP3 PUSH1 0x1 ADD PUSH1 0x20 DUP2 PUSH0 ADD DIV SWAP3 DUP4 ADD SWAP3 PUSH1 0x1 SUB MUL PUSH2 0x73 JUMP JUMPDEST DUP1 ISZERO PUSH2 0xDC JUMPI DUP3 DUP2 PUSH2 0x100 EXP DUP2 SLOAD SWAP1 PUSH1 0xFF MUL NOT AND SWAP1 SSTORE PUSH1 0x1 ADD PUSH1 0x20 DUP2 PUSH0 ADD DIV SWAP3 DUP4 ADD SWAP3 PUSH1 0x1 SUB MUL PUSH2 0xB0 JUMP JUMPDEST POP JUMPDEST POP SWAP1 POP PUSH2 0xEB SWAP2 SWAP1 PUSH2 0xEF JUMP JUMPDEST POP SWAP1 JUMP JUMPDEST JUMPDEST DUP1 DUP3 GT ISZERO PUSH2 0x106 JUMPI PUSH0 DUP2 PUSH0 SWAP1 SSTORE POP PUSH1 0x1 ADD PUSH2 0xF0 JUMP JUMPDEST POP SWAP1 JUMP JUMPDEST PUSH2 0x752 DUP1 PUSH2 0x117 PUSH0 CODECOPY PUSH0 RETURN INVALID PUSH1 0x80 PUSH1 0x40 MSTORE CALLVALUE DUP1 ISZERO PUSH2 0xF JUMPI PUSH0 DUP1 REVERT JUMPDEST POP PUSH1 0x4 CALLDATASIZE LT PUSH2 0x4A JUMPI PUSH0 CALLDATALOAD PUSH1 0xE0 SHR DUP1 PUSH4 0x34D2C0AD EQ PUSH2 0x4E JUMPI DUP1 PUSH4 0x7EDC24C9 EQ PUSH2 0x6C JUMPI DUP1 PUSH4 0xAAD337AD EQ PUSH2 0x9C JUMPI DUP1 PUSH4 0xBA7E0B30 EQ PUSH2 0xB8 JUMPI JUMPDEST PUSH0 DUP1 REVERT JUMPDEST PUSH2 0x56 PUSH2 0xD4 JUMP JUMPDEST PUSH1 0x40 MLOAD PUSH2 0x63 SWAP2 SWAP1 PUSH2 0x4DB JUMP JUMPDEST PUSH1 0x40 MLOAD DUP1 SWAP2 SUB SWAP1 RETURN JUMPDEST PUSH2 0x86 PUSH1 0x4 DUP1 CALLDATASIZE SUB DUP2 ADD SWAP1 PUSH2 0x81 SWAP2 SWAP1 PUSH2 0x529 JUMP JUMPDEST PUSH2 0x162 JUMP JUMPDEST PUSH1 0x40 MLOAD PUSH2 0x93 SWAP2 SWAP1 PUSH2 0x563 JUMP JUMPDEST PUSH1 0x40 MLOAD DUP1 SWAP2 SUB SWAP1 RETURN JUMPDEST PUSH2 0xB6 PUSH1 0x4 DUP1 CALLDATASIZE SUB DUP2 ADD SWAP1 PUSH2 0xB1 SWAP2 SWAP1 PUSH2 0x529 JUMP JUMPDEST PUSH2 0x1F4 JUMP JUMPDEST STOP JUMPDEST PUSH2 0xD2 PUSH1 0x4 DUP1 CALLDATASIZE SUB DUP2 ADD SWAP1 PUSH2 0xCD SWAP2 SWAP1 PUSH2 0x57C JUMP JUMPDEST PUSH2 0x30D JUMP JUMPDEST STOP JUMPDEST PUSH1 0x60 PUSH0 DUP1 SLOAD DUP1 PUSH1 0x20 MUL PUSH1 0x20 ADD PUSH1 0x40 MLOAD SWAP1 DUP2 ADD PUSH1 0x40 MSTORE DUP1 SWAP3 SWAP2 SWAP1 DUP2 DUP2 MSTORE PUSH1 0x20 ADD PUSH0 SWAP1 JUMPDEST DUP3 DUP3 LT ISZERO PUSH2 0x159 JUMPI DUP4 DUP3 SWAP1 PUSH0 MSTORE PUSH1 0x20 PUSH0 KECCAK256 ADD PUSH1 0x40 MLOAD DUP1 PUSH1 0x40 ADD PUSH1 0x40 MSTORE SWAP1 DUP2 PUSH0 DUP3 ADD PUSH0 SWAP1 SLOAD SWAP1 PUSH2 0x100 EXP SWAP1 DIV PUSH1 0xFF AND PUSH1 0xFF AND PUSH1 0xFF AND DUP2 MSTORE PUSH1 0x20 ADD PUSH0 DUP3 ADD PUSH1 0x1 SWAP1 SLOAD SWAP1 PUSH2 0x100 EXP SWAP1 DIV PUSH1 0xFF AND PUSH1 0xFF AND PUSH1 0xFF AND DUP2 MSTORE POP POP DUP2 MSTORE PUSH1 0x20 ADD SWAP1 PUSH1 0x1 ADD SWAP1 PUSH2 0xF6 JUMP JUMPDEST POP POP POP POP SWAP1 POP SWAP1 JUMP JUMPDEST PUSH0 DUP1 PUSH0 SWAP1 POP JUMPDEST PUSH0 DUP1 SLOAD SWAP1 POP DUP2 LT ISZERO PUSH2 0x1EA JUMPI DUP3 PUSH1 0xFF AND PUSH0 DUP3 DUP2 SLOAD DUP2 LT PUSH2 0x18B JUMPI PUSH2 0x18A PUSH2 0x5BA JUMP JUMPDEST JUMPDEST SWAP1 PUSH0 MSTORE PUSH1 0x20 PUSH0 KECCAK256 ADD PUSH0 ADD PUSH0 SWAP1 SLOAD SWAP1 PUSH2 0x100 EXP SWAP1 DIV PUSH1 0xFF AND PUSH1 0xFF AND SUB PUSH2 0x1DD JUMPI PUSH0 DUP2 DUP2 SLOAD DUP2 LT PUSH2 0x1BD JUMPI PUSH2 0x1BC PUSH2 0x5BA JUMP JUMPDEST JUMPDEST SWAP1 PUSH0 MSTORE PUSH1 0x20 PUSH0 KECCAK256 ADD PUSH0 ADD PUSH1 0x1 SWAP1 SLOAD SWAP1 PUSH2 0x100 EXP SWAP1 DIV PUSH1 0xFF AND SWAP2 POP POP PUSH2 0x1EF JUMP JUMPDEST DUP1 DUP1 PUSH1 0x1 ADD SWAP2 POP POP PUSH2 0x168 JUMP JUMPDEST POP PUSH0 SWAP1 POP JUMPDEST SWAP2 SWAP1 POP JUMP JUMPDEST PUSH0 JUMPDEST PUSH0 DUP1 SLOAD SWAP1 POP DUP2 LT ISZERO PUSH2 0x309 JUMPI DUP2 PUSH1 0xFF AND PUSH0 DUP3 DUP2 SLOAD DUP2 LT PUSH2 0x219 JUMPI PUSH2 0x218 PUSH2 0x5BA JUMP JUMPDEST JUMPDEST SWAP1 PUSH0 MSTORE PUSH1 0x20 PUSH0 KECCAK256 ADD PUSH0 ADD PUSH0 SWAP1 SLOAD SWAP1 PUSH2 0x100 EXP SWAP1 DIV PUSH1 0xFF AND PUSH1 0xFF AND SUB PUSH2 0x2FC JUMPI PUSH1 0x3 PUSH0 DUP3 DUP2 SLOAD DUP2 LT PUSH2 0x24D JUMPI PUSH2 0x24C PUSH2 0x5BA JUMP JUMPDEST JUMPDEST SWAP1 PUSH0 MSTORE PUSH1 0x20 PUSH0 KECCAK256 ADD PUSH0 ADD PUSH1 0x1 SWAP1 SLOAD SWAP1 PUSH2 0x100 EXP SWAP1 DIV PUSH1 0xFF AND PUSH1 0xFF AND SUB PUSH2 0x2A8 JUMPI PUSH1 0x40 MLOAD PUSH32 0x8C379A000000000000000000000000000000000000000000000000000000000 DUP2 MSTORE PUSH1 0x4 ADD PUSH2 0x29F SWAP1 PUSH2 0x641 JUMP JUMPDEST PUSH1 0x40 MLOAD DUP1 SWAP2 SUB SWAP1 REVERT JUMPDEST PUSH0 DUP2 DUP2 SLOAD DUP2 LT PUSH2 0x2BB JUMPI PUSH2 0x2BA PUSH2 0x5BA JUMP JUMPDEST JUMPDEST SWAP1 PUSH0 MSTORE PUSH1 0x20 PUSH0 KECCAK256 ADD PUSH0 ADD PUSH1 0x1 DUP2 DUP2 SWAP1 SLOAD SWAP1 PUSH2 0x100 EXP SWAP1 DIV PUSH1 0xFF AND DUP1 SWAP3 SWAP2 SWAP1 PUSH2 0x2E2 SWAP1 PUSH2 0x68C JUMP JUMPDEST SWAP2 SWAP1 PUSH2 0x100 EXP DUP2 SLOAD DUP2 PUSH1 0xFF MUL NOT AND SWAP1 DUP4 PUSH1 0xFF AND MUL OR SWAP1 SSTORE POP POP JUMPDEST DUP1 DUP1 PUSH1 0x1 ADD SWAP2 POP POP PUSH2 0x1F6 JUMP JUMPDEST POP POP JUMP JUMPDEST PUSH1 0x3 DUP2 PUSH1 0xFF AND GT ISZERO DUP1 ISZERO PUSH2 0x325 JUMPI POP PUSH1 0x1 DUP2 PUSH1 0xFF AND LT ISZERO JUMPDEST PUSH2 0x364 JUMPI PUSH1 0x40 MLOAD PUSH32 0x8C379A000000000000000000000000000000000000000000000000000000000 DUP2 MSTORE PUSH1 0x4 ADD PUSH2 0x35B SWAP1 PUSH2 0x6FE JUMP JUMPDEST PUSH1 0x40 MLOAD DUP1 SWAP2 SUB SWAP1 REVERT JUMPDEST PUSH0 PUSH1 0x40 MLOAD DUP1 PUSH1 0x40 ADD PUSH1 0x40 MSTORE DUP1 DUP5 PUSH1 0xFF AND DUP2 MSTORE PUSH1 0x20 ADD DUP4 PUSH1 0xFF AND DUP2 MSTORE POP SWAP1 POP PUSH0 DUP2 SWAP1 DUP1 PUSH1 0x1 DUP2 SLOAD ADD DUP1 DUP3 SSTORE DUP1 SWAP2 POP POP PUSH1 0x1 SWAP1 SUB SWAP1 PUSH0 MSTORE PUSH1 0x20 PUSH0 KECCAK256 ADD PUSH0 SWAP1 SWAP2 SWAP1 SWAP2 SWAP1 SWAP2 POP PUSH0 DUP3 ADD MLOAD DUP2 PUSH0 ADD PUSH0 PUSH2 0x100 EXP DUP2 SLOAD DUP2 PUSH1 0xFF MUL NOT AND SWAP1 DUP4 PUSH1 0xFF AND MUL OR SWAP1 SSTORE POP PUSH1 0x20 DUP3 ADD MLOAD DUP2 PUSH0 ADD PUSH1 0x1 PUSH2 0x100 EXP DUP2 SLOAD DUP2 PUSH1 0xFF MUL NOT AND SWAP1 DUP4 PUSH1 0xFF AND MUL OR SWAP1 SSTORE POP POP POP POP POP POP JUMP JUMPDEST PUSH0 DUP2 MLOAD SWAP1 POP SWAP2 SWAP1 POP JUMP JUMPDEST PUSH0 DUP3 DUP3 MSTORE PUSH1 0x20 DUP3 ADD SWAP1 POP SWAP3 SWAP2 POP POP JUMP JUMPDEST PUSH0 DUP2 SWAP1 POP PUSH1 0x20 DUP3 ADD SWAP1 POP SWAP2 SWAP1 POP JUMP JUMPDEST PUSH0 PUSH1 0xFF DUP3 AND SWAP1 POP SWAP2 SWAP1 POP JUMP JUMPDEST PUSH2 0x429 DUP2 PUSH2 0x414 JUMP JUMPDEST DUP3 MSTORE POP POP JUMP JUMPDEST PUSH1 0x40 DUP3 ADD PUSH0 DUP3 ADD MLOAD PUSH2 0x443 PUSH0 DUP6 ADD DUP3 PUSH2 0x420 JUMP JUMPDEST POP PUSH1 0x20 DUP3 ADD MLOAD PUSH2 0x456 PUSH1 0x20 DUP6 ADD DUP3 PUSH2 0x420 JUMP JUMPDEST POP POP POP POP JUMP JUMPDEST PUSH0 PUSH2 0x467 DUP4 DUP4 PUSH2 0x42F JUMP JUMPDEST PUSH1 0x40 DUP4 ADD SWAP1 POP SWAP3 SWAP2 POP POP JUMP JUMPDEST PUSH0 PUSH1 0x20 DUP3 ADD SWAP1 POP SWAP2 SWAP1 POP JUMP JUMPDEST PUSH0 PUSH2 0x489 DUP3 PUSH2 0x3EB JUMP JUMPDEST PUSH2 0x493 DUP2 DUP6 PUSH2 0x3F5 JUMP JUMPDEST SWAP4 POP PUSH2 0x49E DUP4 PUSH2 0x405 JUMP JUMPDEST DUP1 PUSH0 JUMPDEST DUP4 DUP2 LT ISZERO PUSH2 0x4CE JUMPI DUP2 MLOAD PUSH2 0x4B5 DUP9 DUP3 PUSH2 0x45C JUMP JUMPDEST SWAP8 POP PUSH2 0x4C0 DUP4 PUSH2 0x473 JUMP JUMPDEST SWAP3 POP POP PUSH1 0x1 DUP2 ADD SWAP1 POP PUSH2 0x4A1 JUMP JUMPDEST POP DUP6 SWAP4 POP POP POP POP SWAP3 SWAP2 POP POP JUMP JUMPDEST PUSH0 PUSH1 0x20 DUP3 ADD SWAP1 POP DUP2 DUP2 SUB PUSH0 DUP4 ADD MSTORE PUSH2 0x4F3 DUP2 DUP5 PUSH2 0x47F JUMP JUMPDEST SWAP1 POP SWAP3 SWAP2 POP POP JUMP JUMPDEST PUSH0 DUP1 REVERT JUMPDEST PUSH2 0x508 DUP2 PUSH2 0x414 JUMP JUMPDEST DUP2 EQ PUSH2 0x512 JUMPI PUSH0 DUP1 REVERT JUMPDEST POP JUMP JUMPDEST PUSH0 DUP2 CALLDATALOAD SWAP1 POP PUSH2 0x523 DUP2 PUSH2 0x4FF JUMP JUMPDEST SWAP3 SWAP2 POP POP JUMP JUMPDEST PUSH0 PUSH1 0x20 DUP3 DUP5 SUB SLT ISZERO PUSH2 0x53E JUMPI PUSH2 0x53D PUSH2 0x4FB JUMP JUMPDEST JUMPDEST PUSH0 PUSH2 0x54B DUP5 DUP3 DUP6 ADD PUSH2 0x515 JUMP JUMPDEST SWAP2 POP POP SWAP3 SWAP2 POP POP JUMP JUMPDEST PUSH2 0x55D DUP2 PUSH2 0x414 JUMP JUMPDEST DUP3 MSTORE POP POP JUMP JUMPDEST PUSH0 PUSH1 0x20 DUP3 ADD SWAP1 POP PUSH2 0x576 PUSH0 DUP4 ADD DUP5 PUSH2 0x554 JUMP JUMPDEST SWAP3 SWAP2 POP POP JUMP JUMPDEST PUSH0 DUP1 PUSH1 0x40 DUP4 DUP6 SUB SLT ISZERO PUSH2 0x592 JUMPI PUSH2 0x591 PUSH2 0x4FB JUMP JUMPDEST JUMPDEST PUSH0 PUSH2 0x59F DUP6 DUP3 DUP7 ADD PUSH2 0x515 JUMP JUMPDEST SWAP3 POP POP PUSH1 0x20 PUSH2 0x5B0 DUP6 DUP3 DUP7 ADD PUSH2 0x515 JUMP JUMPDEST SWAP2 POP POP SWAP3 POP SWAP3 SWAP1 POP JUMP JUMPDEST PUSH32 0x4E487B7100000000000000000000000000000000000000000000000000000000 PUSH0 MSTORE PUSH1 0x32 PUSH1 0x4 MSTORE PUSH1 0x24 PUSH0 REVERT JUMPDEST PUSH0 DUP3 DUP3 MSTORE PUSH1 0x20 DUP3 ADD SWAP1 POP SWAP3 SWAP2 POP POP JUMP JUMPDEST PUSH32 0x497420697320696E20746865206C6173742073746174696F6E00000000000000 PUSH0 DUP3 ADD MSTORE POP JUMP JUMPDEST PUSH0 PUSH2 0x62B PUSH1 0x19 DUP4 PUSH2 0x5E7 JUMP JUMPDEST SWAP2 POP PUSH2 0x636 DUP3 PUSH2 0x5F7 JUMP JUMPDEST PUSH1 0x20 DUP3 ADD SWAP1 POP SWAP2 SWAP1 POP JUMP JUMPDEST PUSH0 PUSH1 0x20 DUP3 ADD SWAP1 POP DUP2 DUP2 SUB PUSH0 DUP4 ADD MSTORE PUSH2 0x658 DUP2 PUSH2 0x61F JUMP JUMPDEST SWAP1 POP SWAP2 SWAP1 POP JUMP JUMPDEST PUSH32 0x4E487B7100000000000000000000000000000000000000000000000000000000 PUSH0 MSTORE PUSH1 0x11 PUSH1 0x4 MSTORE PUSH1 0x24 PUSH0 REVERT JUMPDEST PUSH0 PUSH2 0x696 DUP3 PUSH2 0x414 JUMP JUMPDEST SWAP2 POP PUSH1 0xFF DUP3 SUB PUSH2 0x6A9 JUMPI PUSH2 0x6A8 PUSH2 0x65F JUMP JUMPDEST JUMPDEST PUSH1 0x1 DUP3 ADD SWAP1 POP SWAP2 SWAP1 POP JUMP JUMPDEST PUSH32 0x53746174696F6E2076616C756520697320696E76616C69642E00000000000000 PUSH0 DUP3 ADD MSTORE POP JUMP JUMPDEST PUSH0 PUSH2 0x6E8 PUSH1 0x19 DUP4 PUSH2 0x5E7 JUMP JUMPDEST SWAP2 POP PUSH2 0x6F3 DUP3 PUSH2 0x6B4 JUMP JUMPDEST PUSH1 0x20 DUP3 ADD SWAP1 POP SWAP2 SWAP1 POP JUMP JUMPDEST PUSH0 PUSH1 0x20 DUP3 ADD SWAP1 POP DUP2 DUP2 SUB PUSH0 DUP4 ADD MSTORE PUSH2 0x715 DUP2 PUSH2 0x6DC JUMP JUMPDEST SWAP1 POP SWAP2 SWAP1 POP JUMP INVALID LOG2 PUSH5 0x6970667358 0x22 SLT KECCAK256 0xC5 0xB6 0xD5 PUSH25 0xC1BA4B0DB2AB3C9AE5F7EC959D1DFF50D7F85A2BC4462F4072 JUMPI 0x1E 0xE9 PUSH5 0x736F6C6343 STOP ADDMOD BYTE STOP CALLER "
				},
				"gasEstimates": {
					"creation": {
						"codeDepositCost": "374800",
						"executionCost": "infinite",
						"totalCost": "infinite"
					},
					"external": {
						"addProduct(uint8,uint8)": "infinite",
						"changeStation(uint8)": "infinite",
						"getProductList()": "infinite",
						"getStation(uint8)": "infinite"
					}
				},
				"methodIdentifiers": {
					"addProduct(uint8,uint8)": "ba7e0b30",
					"changeStation(uint8)": "aad337ad",
					"getProductList()": "34d2c0ad",
					"getStation(uint8)": "7edc24c9"
				}
			},
			"storageLayout": {
				"storage": [
					{
						"astId": 10,
						"contract": "contracts/Products.sol:Products",
						"label": "productList",
						"offset": 0,
						"slot": "0",
						"type": "t_array(t_struct(Product)6_storage)dyn_storage"
					},
					{
						"astId": 14,
						"contract": "contracts/Products.sol:Products",
						"label": "wallets",
						"offset": 0,
						"slot": "1",
						"type": "t_mapping(t_uint8,t_address)"
					},
					{
						"astId": 21,
						"contract": "contracts/Products.sol:Products",
						"label": "stations",
						"offset": 0,
						"slot": "2",
						"type": "t_array(t_uint8)dyn_storage"
					}
				],
				"types": {
					"t_address": {
						"encoding": "inplace",
						"label": "address",
						"numberOfBytes": "20"
					},
					"t_array(t_struct(Product)6_storage)dyn_storage": {
						"base": "t_struct(Product)6_storage",
						"encoding": "dynamic_array",
						"label": "struct Products.Product[]",
						"numberOfBytes": "32"
					},
					"t_array(t_uint8)dyn_storage": {
						"base": "t_uint8",
						"encoding": "dynamic_array",
						"label": "uint8[]",
						"numberOfBytes": "32"
					},
					"t_mapping(t_uint8,t_address)": {
						"encoding": "mapping",
						"key": "t_uint8",
						"label": "mapping(uint8 => address)",
						"numberOfBytes": "32",
						"value": "t_address"
					},
					"t_struct(Product)6_storage": {
						"encoding": "inplace",
						"label": "struct Products.Product",
						"members": [
							{
								"astId": 3,
								"contract": "contracts/Products.sol:Products",
								"label": "barcode",
								"offset": 0,
								"slot": "0",
								"type": "t_uint8"
							},
							{
								"astId": 5,
								"contract": "contracts/Products.sol:Products",
								"label": "station",
								"offset": 1,
								"slot": "0",
								"type": "t_uint8"
							}
						],
						"numberOfBytes": "32"
					},
					"t_uint8": {
						"encoding": "inplace",
						"label": "uint8",
						"numberOfBytes": "1"
					}
				}
			},
			"userdoc": {
				"kind": "user",
				"methods": {},
				"version": 1
			}
		}
	}
}