{
	"data": {
		"bytecode": {
			"linkReferences": {},
			"object": "6080604052348015600e575f80fd5b506104308061001c5f395ff3fe608060405234801561000f575f80fd5b5060043610610029575f3560e01c8063bcd8b6981461002d575b5f80fd5b6100476004803603810190610042919061027c565b61005d565b60405161005491906103da565b60405180910390f35b61006561009b565b5f60405180608001604052808781526020018681526020018560ff1681526020018460ff16815250905080915050949350505050565b60405180608001604052805f8152602001606081526020015f60ff1681526020015f60ff1681525090565b5f604051905090565b5f80fd5b5f80fd5b5f819050919050565b6100e9816100d7565b81146100f3575f80fd5b50565b5f81359050610104816100e0565b92915050565b5f80fd5b5f80fd5b5f601f19601f8301169050919050565b7f4e487b71000000000000000000000000000000000000000000000000000000005f52604160045260245ffd5b61015882610112565b810181811067ffffffffffffffff8211171561017757610176610122565b5b80604052505050565b5f6101896100c6565b9050610195828261014f565b919050565b5f67ffffffffffffffff8211156101b4576101b3610122565b5b6101bd82610112565b9050602081019050919050565b828183375f83830152505050565b5f6101ea6101e58461019a565b610180565b9050828152602081018484840111156102065761020561010e565b5b6102118482856101ca565b509392505050565b5f82601f83011261022d5761022c61010a565b5b813561023d8482602086016101d8565b91505092915050565b5f60ff82169050919050565b61025b81610246565b8114610265575f80fd5b50565b5f8135905061027681610252565b92915050565b5f805f8060808587031215610294576102936100cf565b5b5f6102a1878288016100f6565b945050602085013567ffffffffffffffff8111156102c2576102c16100d3565b5b6102ce87828801610219565b93505060406102df87828801610268565b92505060606102f087828801610268565b91505092959194509250565b610305816100d7565b82525050565b5f81519050919050565b5f82825260208201905092915050565b8281835e5f83830152505050565b5f61033d8261030b565b6103478185610315565b9350610357818560208601610325565b61036081610112565b840191505092915050565b61037481610246565b82525050565b5f608083015f83015161038f5f8601826102fc565b50602083015184820360208601526103a78282610333565b91505060408301516103bc604086018261036b565b5060608301516103cf606086018261036b565b508091505092915050565b5f6020820190508181035f8301526103f2818461037a565b90509291505056fea2646970667358221220d6c5da1ceb7b2934d015872ff55b2b2d88df8ab68c7d81a53ee5a5b037338e4564736f6c634300081a0033",
			"opcodes": "PUSH1 0x80 PUSH1 0x40 MSTORE CALLVALUE DUP1 ISZERO PUSH1 0xE JUMPI PUSH0 DUP1 REVERT JUMPDEST POP PUSH2 0x430 DUP1 PUSH2 0x1C PUSH0 CODECOPY PUSH0 RETURN INVALID PUSH1 0x80 PUSH1 0x40 MSTORE CALLVALUE DUP1 ISZERO PUSH2 0xF JUMPI PUSH0 DUP1 REVERT JUMPDEST POP PUSH1 0x4 CALLDATASIZE LT PUSH2 0x29 JUMPI PUSH0 CALLDATALOAD PUSH1 0xE0 SHR DUP1 PUSH4 0xBCD8B698 EQ PUSH2 0x2D JUMPI JUMPDEST PUSH0 DUP1 REVERT JUMPDEST PUSH2 0x47 PUSH1 0x4 DUP1 CALLDATASIZE SUB DUP2 ADD SWAP1 PUSH2 0x42 SWAP2 SWAP1 PUSH2 0x27C JUMP JUMPDEST PUSH2 0x5D JUMP JUMPDEST PUSH1 0x40 MLOAD PUSH2 0x54 SWAP2 SWAP1 PUSH2 0x3DA JUMP JUMPDEST PUSH1 0x40 MLOAD DUP1 SWAP2 SUB SWAP1 RETURN JUMPDEST PUSH2 0x65 PUSH2 0x9B JUMP JUMPDEST PUSH0 PUSH1 0x40 MLOAD DUP1 PUSH1 0x80 ADD PUSH1 0x40 MSTORE DUP1 DUP8 DUP2 MSTORE PUSH1 0x20 ADD DUP7 DUP2 MSTORE PUSH1 0x20 ADD DUP6 PUSH1 0xFF AND DUP2 MSTORE PUSH1 0x20 ADD DUP5 PUSH1 0xFF AND DUP2 MSTORE POP SWAP1 POP DUP1 SWAP2 POP POP SWAP5 SWAP4 POP POP POP POP JUMP JUMPDEST PUSH1 0x40 MLOAD DUP1 PUSH1 0x80 ADD PUSH1 0x40 MSTORE DUP1 PUSH0 DUP2 MSTORE PUSH1 0x20 ADD PUSH1 0x60 DUP2 MSTORE PUSH1 0x20 ADD PUSH0 PUSH1 0xFF AND DUP2 MSTORE PUSH1 0x20 ADD PUSH0 PUSH1 0xFF AND DUP2 MSTORE POP SWAP1 JUMP JUMPDEST PUSH0 PUSH1 0x40 MLOAD SWAP1 POP SWAP1 JUMP JUMPDEST PUSH0 DUP1 REVERT JUMPDEST PUSH0 DUP1 REVERT JUMPDEST PUSH0 DUP2 SWAP1 POP SWAP2 SWAP1 POP JUMP JUMPDEST PUSH2 0xE9 DUP2 PUSH2 0xD7 JUMP JUMPDEST DUP2 EQ PUSH2 0xF3 JUMPI PUSH0 DUP1 REVERT JUMPDEST POP JUMP JUMPDEST PUSH0 DUP2 CALLDATALOAD SWAP1 POP PUSH2 0x104 DUP2 PUSH2 0xE0 JUMP JUMPDEST SWAP3 SWAP2 POP POP JUMP JUMPDEST PUSH0 DUP1 REVERT JUMPDEST PUSH0 DUP1 REVERT JUMPDEST PUSH0 PUSH1 0x1F NOT PUSH1 0x1F DUP4 ADD AND SWAP1 POP SWAP2 SWAP1 POP JUMP JUMPDEST PUSH32 0x4E487B7100000000000000000000000000000000000000000000000000000000 PUSH0 MSTORE PUSH1 0x41 PUSH1 0x4 MSTORE PUSH1 0x24 PUSH0 REVERT JUMPDEST PUSH2 0x158 DUP3 PUSH2 0x112 JUMP JUMPDEST DUP2 ADD DUP2 DUP2 LT PUSH8 0xFFFFFFFFFFFFFFFF DUP3 GT OR ISZERO PUSH2 0x177 JUMPI PUSH2 0x176 PUSH2 0x122 JUMP JUMPDEST JUMPDEST DUP1 PUSH1 0x40 MSTORE POP POP POP JUMP JUMPDEST PUSH0 PUSH2 0x189 PUSH2 0xC6 JUMP JUMPDEST SWAP1 POP PUSH2 0x195 DUP3 DUP3 PUSH2 0x14F JUMP JUMPDEST SWAP2 SWAP1 POP JUMP JUMPDEST PUSH0 PUSH8 0xFFFFFFFFFFFFFFFF DUP3 GT ISZERO PUSH2 0x1B4 JUMPI PUSH2 0x1B3 PUSH2 0x122 JUMP JUMPDEST JUMPDEST PUSH2 0x1BD DUP3 PUSH2 0x112 JUMP JUMPDEST SWAP1 POP PUSH1 0x20 DUP2 ADD SWAP1 POP SWAP2 SWAP1 POP JUMP JUMPDEST DUP3 DUP2 DUP4 CALLDATACOPY PUSH0 DUP4 DUP4 ADD MSTORE POP POP POP JUMP JUMPDEST PUSH0 PUSH2 0x1EA PUSH2 0x1E5 DUP5 PUSH2 0x19A JUMP JUMPDEST PUSH2 0x180 JUMP JUMPDEST SWAP1 POP DUP3 DUP2 MSTORE PUSH1 0x20 DUP2 ADD DUP5 DUP5 DUP5 ADD GT ISZERO PUSH2 0x206 JUMPI PUSH2 0x205 PUSH2 0x10E JUMP JUMPDEST JUMPDEST PUSH2 0x211 DUP5 DUP3 DUP6 PUSH2 0x1CA JUMP JUMPDEST POP SWAP4 SWAP3 POP POP POP JUMP JUMPDEST PUSH0 DUP3 PUSH1 0x1F DUP4 ADD SLT PUSH2 0x22D JUMPI PUSH2 0x22C PUSH2 0x10A JUMP JUMPDEST JUMPDEST DUP2 CALLDATALOAD PUSH2 0x23D DUP5 DUP3 PUSH1 0x20 DUP7 ADD PUSH2 0x1D8 JUMP JUMPDEST SWAP2 POP POP SWAP3 SWAP2 POP POP JUMP JUMPDEST PUSH0 PUSH1 0xFF DUP3 AND SWAP1 POP SWAP2 SWAP1 POP JUMP JUMPDEST PUSH2 0x25B DUP2 PUSH2 0x246 JUMP JUMPDEST DUP2 EQ PUSH2 0x265 JUMPI PUSH0 DUP1 REVERT JUMPDEST POP JUMP JUMPDEST PUSH0 DUP2 CALLDATALOAD SWAP1 POP PUSH2 0x276 DUP2 PUSH2 0x252 JUMP JUMPDEST SWAP3 SWAP2 POP POP JUMP JUMPDEST PUSH0 DUP1 PUSH0 DUP1 PUSH1 0x80 DUP6 DUP8 SUB SLT ISZERO PUSH2 0x294 JUMPI PUSH2 0x293 PUSH2 0xCF JUMP JUMPDEST JUMPDEST PUSH0 PUSH2 0x2A1 DUP8 DUP3 DUP9 ADD PUSH2 0xF6 JUMP JUMPDEST SWAP5 POP POP PUSH1 0x20 DUP6 ADD CALLDATALOAD PUSH8 0xFFFFFFFFFFFFFFFF DUP2 GT ISZERO PUSH2 0x2C2 JUMPI PUSH2 0x2C1 PUSH2 0xD3 JUMP JUMPDEST JUMPDEST PUSH2 0x2CE DUP8 DUP3 DUP9 ADD PUSH2 0x219 JUMP JUMPDEST SWAP4 POP POP PUSH1 0x40 PUSH2 0x2DF DUP8 DUP3 DUP9 ADD PUSH2 0x268 JUMP JUMPDEST SWAP3 POP POP PUSH1 0x60 PUSH2 0x2F0 DUP8 DUP3 DUP9 ADD PUSH2 0x268 JUMP JUMPDEST SWAP2 POP POP SWAP3 SWAP6 SWAP2 SWAP5 POP SWAP3 POP JUMP JUMPDEST PUSH2 0x305 DUP2 PUSH2 0xD7 JUMP JUMPDEST DUP3 MSTORE POP POP JUMP JUMPDEST PUSH0 DUP2 MLOAD SWAP1 POP SWAP2 SWAP1 POP JUMP JUMPDEST PUSH0 DUP3 DUP3 MSTORE PUSH1 0x20 DUP3 ADD SWAP1 POP SWAP3 SWAP2 POP POP JUMP JUMPDEST DUP3 DUP2 DUP4 MCOPY PUSH0 DUP4 DUP4 ADD MSTORE POP POP POP JUMP JUMPDEST PUSH0 PUSH2 0x33D DUP3 PUSH2 0x30B JUMP JUMPDEST PUSH2 0x347 DUP2 DUP6 PUSH2 0x315 JUMP JUMPDEST SWAP4 POP PUSH2 0x357 DUP2 DUP6 PUSH1 0x20 DUP7 ADD PUSH2 0x325 JUMP JUMPDEST PUSH2 0x360 DUP2 PUSH2 0x112 JUMP JUMPDEST DUP5 ADD SWAP2 POP POP SWAP3 SWAP2 POP POP JUMP JUMPDEST PUSH2 0x374 DUP2 PUSH2 0x246 JUMP JUMPDEST DUP3 MSTORE POP POP JUMP JUMPDEST PUSH0 PUSH1 0x80 DUP4 ADD PUSH0 DUP4 ADD MLOAD PUSH2 0x38F PUSH0 DUP7 ADD DUP3 PUSH2 0x2FC JUMP JUMPDEST POP PUSH1 0x20 DUP4 ADD MLOAD DUP5 DUP3 SUB PUSH1 0x20 DUP7 ADD MSTORE PUSH2 0x3A7 DUP3 DUP3 PUSH2 0x333 JUMP JUMPDEST SWAP2 POP POP PUSH1 0x40 DUP4 ADD MLOAD PUSH2 0x3BC PUSH1 0x40 DUP7 ADD DUP3 PUSH2 0x36B JUMP JUMPDEST POP PUSH1 0x60 DUP4 ADD MLOAD PUSH2 0x3CF PUSH1 0x60 DUP7 ADD DUP3 PUSH2 0x36B JUMP JUMPDEST POP DUP1 SWAP2 POP POP SWAP3 SWAP2 POP POP JUMP JUMPDEST PUSH0 PUSH1 0x20 DUP3 ADD SWAP1 POP DUP2 DUP2 SUB PUSH0 DUP4 ADD MSTORE PUSH2 0x3F2 DUP2 DUP5 PUSH2 0x37A JUMP JUMPDEST SWAP1 POP SWAP3 SWAP2 POP POP JUMP INVALID LOG2 PUSH5 0x6970667358 0x22 SLT KECCAK256 0xD6 0xC5 0xDA SHR 0xEB PUSH28 0x2934D015872FF55B2B2D88DF8AB68C7D81A53EE5A5B037338E456473 PUSH16 0x6C634300081A00330000000000000000 "
		},
		"gasEstimates": {
			"creation": {
				"codeDepositCost": "214400",
				"executionCost": "255",
				"totalCost": "214655"
			},
			"external": {
				"generateHuman(uint256,string,uint8,uint8)": "infinite"
			}
		},
		"methodIdentifiers": {
			"generateHuman(uint256,string,uint8,uint8)": "bcd8b698"
		}
	},
	"abi": [
		{
			"inputs": [
				{
					"internalType": "uint256",
					"name": "_id",
					"type": "uint256"
				},
				{
					"internalType": "string",
					"name": "_name",
					"type": "string"
				},
				{
					"internalType": "uint8",
					"name": "_age",
					"type": "uint8"
				},
				{
					"internalType": "uint8",
					"name": "_gender",
					"type": "uint8"
				}
			],
			"name": "generateHuman",
			"outputs": [
				{
					"components": [
						{
							"internalType": "uint256",
							"name": "id",
							"type": "uint256"
						},
						{
							"internalType": "string",
							"name": "name",
							"type": "string"
						},
						{
							"internalType": "uint8",
							"name": "age",
							"type": "uint8"
						},
						{
							"internalType": "uint8",
							"name": "gender",
							"type": "uint8"
						}
					],
					"internalType": "struct Second.Human",
					"name": "",
					"type": "tuple"
				}
			],
			"stateMutability": "pure",
			"type": "function"
		}
	]
}